:020000040800F2
:100000003817002011090008AD030008AF030008ED
:10001000B1030008B3030008B503000800000000A6
:10002000000000000000000000000000B70300080E
:10003000B903000800000000BB030008BD0300086E
:100040002B0900082B0900082B0900082B090008C0
:100050002B0900082B0900082B090008D903000808
:100060002B0900082B0900082B0900082B090008A0
:100070002B0900082B0900082B0900082B09000890
:100080002B0900082B0900082B0900082B09000880
:100090002B0900082B0900082B0900087B04000825
:1000A0002B0900082B0900082B0900082B09000860
:1000B0002B0900082B0900082B0900082B09000850
:1000C0002B0900082B0900082B0900082B09000840
:1000D0002B0900082B0900083B0400082B09000825
:1000E0002B0900082B0900082B0900082B09000820
:1000F0002B0900082B0900082B0900082B09000810
:100100002B0900082B0900082B0900082B090008FF
:100110002B0900082B0900082B0900082B090008EF
:100120002B0900082B0900082B0900082B090008DF
:100130002B0900082B0900082B0900082B090008CF
:100140002B0900082B0900082B0900082B090008BF
:100150002B0900082B0900082B0900082B090008AF
:100160002B0900082B0900082B0900082B0900089F
:100170002B0900082B0900082B0900082B0900088F
:100180002B0900082B090008DFF80CD006F02AF92B
:100190000048004735020008381700206B48016806
:1001A00041F0080101606A48802101800021021DA0
:1001B0001180674A24321160654A491E2C32116051
:1001C0005321121F1180624A0121143211800188CB
:1001D00041F00101018070475E4A10B5A2F11001A3
:1001E000101D05F094F85B4C183C94ED0E0B51EC8F
:1001F000100B05F07DFF01EE900A94ED011AD4ED8D
:10020000040A94ED060A03F06DFD84ED040AD4EDB2
:10021000030A9FED511A60EE810A9FED501A40EEDD
:10022000010AB2EE040AC4ED030A20EE800A84ED4E
:10023000050A10BD2DED028B4FF4C06000F07AFB73
:10024000A82001F05DFEC82001F09BFE00F02EFA10
:100250004FF4E13000F002FBFFF7A0FF02F018F8C6
:1002600040489FED3F0A80ED000A3F48B3EE020A86
:1002700080ED000A3E489FED3D0A80ED000A03F044
:10028000C5FF04F033FB04F02AFF002004F052FF06
:1002900005F0C5FE2F4C183CC4E90C0100F02BFA08
:1002A00000F09EFA4FF47A7001F06BFE31A006F078
:1002B000D7F89FED370B002084ED0E0B20804FF414
:1002C0009675FFF789FF042001F05BFE2088401C33
:1002D00080B22080A842F4D91D4D94ED050A243542
:1002E00084ED090A28682C49DFF8B0809FED2C8B3B
:1002F0004FF470474FF4FA6608603946404600F004
:10030000BDFC294BA3F1180202F10C01A1F1180068
:1003100003F02BFFFFF760FF94ED050AD4ED090A07
:1003200030EE600A84ED080AA06A2968091AB14211
:10033000FBD32968081A05F083FE53EC182B05F04F
:100340008DFDC4E90E012868A062D6E7403802405E
:10035000000C004018000020AC1C7A3F7F6ABC3CB7
:10036000000090C240010020440100200000000075
:10037000480100202051756164636F7074657220BC
:1003800048656C6C6F20576F726C64212000000010
:10039000FCA9F1D24D62703FD8000020000C024051
:1003A0008DEDB5A0F7C6B03E1C0500207047FEE7F6
:1003B000FEE7FEE7FEE77047704770477047514918
:1003C000002001F1140231F8103022F81030401CE6
:1003D000C0B20828F7D3704710B5022000F060FBC8
:1003E000002828D048490868484C2289801A80B2E1
:1003F000A0800968A16042F21071884209D9A078F2
:10040000082803D1607808B9FFF7D9FF0020A07051
:100410000DE0A0F21B4140F28332914206D2394AEC
:10042000A17822F81100491CA17001E00120607040
:1004300037490220086010BD704710B5354C40F2B6
:100440002771204601F027FD40F22551204601F09A
:1004500022FD00280FD0204601F086FC2B4A11789F
:10046000284B28330B44491C11701870107812283F
:1004700001D30020107010BD704710B520202DED65
:10048000028B00F00DFB002839D02021224800F01B
:10049000D6FB1D4900281D4C086805D0E268801A6B
:1004A00020610868E06027E0E1689FED1C1A401AAF
:1004B00000EE100AF8EE400A80EE810A10EE100AF3
:1004C00005F0EAFD9FED161B53EC112B05F0C6FC61
:1004D00041EC180BA06905F0DFFD9FED131B53ECF9
:1004E000112B05F0BBFC53EC182B05F010FC05F0AC
:1004F000FFFD6061A061E061054920200860BDEC5E
:10050000028B10BD28050020240C00404000002074
:10051000143C0140004400400010024000006842CA
:100520009A9999999999C93F9A9999999999E93F6D
:100530000CB50022544900920192086840F48030C2
:1005400008604FF4A043086800F400300190009860
:10055000401C0090019810B900989842F3D10868A7
:10056000800334D50120019047484030026842F0B2
:10057000805202604548026842F4404202604248AC
:10058000083002680260026842F4004202600268B9
:1005900042F4A0520260031F3D4A1A600A6842F00A
:1005A00080720A600A689201FCD53A4940F20572ED
:1005B0000A60016821F003010160016841F0020155
:1005C00001600168C1F381010229FAD10CBD0192D9
:1005D0000CBD314810B5016841F4700101602A4832
:1005E000016841F001010160274A002108321160D1
:1005F00002682A4B1A400260031D294A1A600268E9
:1006000022F48022026020480C300160FFF790FF46
:1006100021494FF000608039086010BD70B51A4D57
:10062000083528681F4B204910F00C0004D05E10DC
:10063000042803D0082803D00B601BE00E6019E0EB
:10064000114A121D1068C0F38054106800F03F007A
:1006500014B1B6FBF0F001E0B3FBF0F013681268E0
:10066000C3F388135843C2F30142521C5200B0FB3B
:10067000F2F0086028680C4AC0F30310121D105CE9
:100680000A68C2400A6070BD003802400070004035
:1006900008544007003C024088ED00E0FFFFF6FEF2
:1006A000103000240024F400600000202DE9F04107
:1006B0000121082000F075FC8D4C4FF4704001279B
:1006C000206027710025A57103266671E57121461A
:1006D000884800F063FA0121042000F062FC7803EE
:1006E00020602771A5716671E5712146BDE8F04172
:1006F000814800F053BA70B50121084600F079FC3A
:100700000121102000F04DFC79484FF4D441002421
:10071000016002210171032141718471774DC4711F
:100720000146284600F03AFA01220921284600F045
:10073000A9FA01220B21284600F0A4FA01220D217A
:10074000284600F09FFA01220E21284600F09AFA6E
:100750006B48A7216B4D018044F61F614160048105
:1007600044800146284600F0BFFD654960200C31F9
:100770000880012048808C8104208880CC818C6096
:10078000284600F033FE0821284600F070FF5C493F
:1007900028460C3100F056FE0821284600F06DFF77
:1007A000574928460C3100F089FE0821284600F000
:1007B0006EFF534928460C3100F0BAFE0821284646
:1007C00000F06BFF0121284600F0ECFD01212846D6
:1007D00000F002FE2846BDE87040012101F0EEB8AD
:1007E00070B50121102000F0DCFB0121880300F02E
:1007F00000FC3F48002501260571C67122210160D9
:1008000001463E4800F0CAF90121042000F0B2FC84
:100810000521042000F0AEFC354C02200834206095
:10082000257108206071A671204600F0E9F82020AB
:10083000206010206071204600F0E2F80C3C072098
:1008400020706570A570E670204600F078F81720DB
:1008500020702046BDE8704000F071B82DE9F041ED
:1008600080460121480400F0BAFB0121084600F04F
:1008700098FB1F4802210C2601710321066041717B
:10088000002484710125204FC5710146384600F0CF
:1008900085F907220221384600F0F4F907220321E6
:1008A000384600F0EFF9164810380146C0F80080CD
:1008B000848146810481C4808480144C204601F0E8
:1008C000B8F90B492620091F08700A2048708D705E
:1008D000CD70084600F033F8012240F22551204641
:1008E00001F0B7FA2046BDE8F041012101F012BA4B
:1008F00078000020000C0240000802400010024076
:100900007405002000000140000002400044004047
:100910000648804706480047FEE7FEE7FEE7FEE799
:10092000FEE7FEE7FEE7FEE7FEE7FEE7D305000889
:10093000890100082849084328490860704730B5F4
:100940000F23C27801780125FAB1244A126801F117
:10095000E02102F4E062C2F5E062C2F30722C2F1D4
:100960000404D3404278A24084781C4014432201FE
:1009700081F80024007800F01F018D4040098000BC
:1009800000F1E020C0F8005130BD01F01F008540AB
:100990004809800000F1E020C0F8805130BD104AC5
:1009A000114001430D48001F016070470B4A121DA2
:1009B0000029116801D0014300E0814311607047B4
:1009C0004FF0E0210428086903D020F004000861FA
:1009D000704740F00400FAE70000FA050CED00E073
:1009E00080FFFF1F354900200860091D0860091DB0
:1009F0000860091D086031493148143108607047AA
:100A000030B52E4A8379016853B313688B43136062
:100A1000111D0B680468A3430B60017911440B6836
:100A2000046823430B60254B083319680468A1430D
:100A300019601C1D21680568A943216041791029AE
:100A400005D011440A68006802430A6030BD196885
:100A5000026811431960216800680143216030BDBC
:100A60000079104402688A43026030BD00210160B1
:100A700001710C22427181717047104910310A686E
:100A800002430A60704701460C4A00201432126883
:100A90000A4200D0012070470849143108607047AD
:100AA0000146064A0020143212680A4200D0012092
:100AB000704702491431086070470000003C014053
:100AC000FFFF7F00774910B5884206D10121084613
:100AD00000F099FA002101205BE07349884206D1B9
:100AE0000121022000F08FFA0021022051E06F491D
:100AF000884206D10121042000F085FA002104205B
:100B000047E06B49884206D10121082000F07BFABA
:100B1000002108203DE06749884206D101211020CC
:100B200000F071FA0021102033E06349884206D1B9
:100B30000121202000F067FA0021202029E05F49F0
:100B4000884206D10121402000F05DFA00214020BA
:100B50001FE05B49884206D10121802000F053FA52
:100B60000021802015E05749884202D101218415D7
:100B70000AE05549884202D10121441504E0534955
:100B800088420AD101210415204600F03CFA0021D8
:100B90002046BDE8104000F036BA10BDF0B5002286
:100BA00001274FF0030C0B6807FA02F52B40AB420C
:100BB0002CD1066853000CFA03F4A64306600E79A4
:100BC000D0F800E09E4046EA0E0606600E79012E3F
:100BD00001D0022E12D18668A64386604E79D0F8E5
:100BE00008E09E4046EA0E0686604668AE434660D0
:100BF00045688E799640B6B235434560C568A543D1
:100C0000C560CC799C40C3681C43C460521C102A48
:100C1000C9D3F0BD4FF6FF71016000210171417130
:100C20008171C171704708B541F480320092C26190
:100C3000C1610099C161C169C069009008BD0246E7
:100C4000002012690A4200D001207047006980B27A
:100C500070470246002052690A4200D001207047C6
:100C6000406980B2704701837047418370470AB181
:100C700001837047418370474161704742694A4030
:100C8000426170474B07DB0E9A40C90810B500EB74
:100C90008100016A0F249C40A1430162016A114353
:100CA000016210BD00000240000402400008024042
:100CB000000C0240001002400014024000180240E4
:100CC000001C024000200240002402400028024094
:100CD000F848016841F001010160F64A002108323C
:100CE00011600268F44B1A400260031DF34A1A6057
:100CF000F04BF34A84331A60F04A103A1B1D1A6015
:100D0000026822F480220260EA480C300160181D5B
:100D100001607047E7490022891C0A70087070471B
:100D200002460020510901290CD002290CD0E149CA
:100D30007431096802F01F02012393400B4200D076
:100D400001207047DB49F4E7DA497031F1E718B563
:100D500000204FF4A04400903120FFF7E1FF0099FC
:100D6000491C0091A14201D00028F5D03120FFF7A5
:100D7000D7FF002800D0012018BDCE4A116821F00D
:100D8000F80141EAC00010607047CE490860704722
:100D9000C849002270310A700A70012802D0042864
:100DA00001D1052008707047C7490860704741EAC3
:100DB00082115A0810B5C54B029C03EB0242114345
:100DC000014341EA0460BB49091D086010BDBD49EB
:100DD00008667047800140EA0170B64984310860B6
:100DE0007047B84988667047800140EA0160B149A0
:100DF00040EA0270883108607047B249086770475E
:100E0000B049C8647047AB4B08331A68084322F0F6
:100E1000EC62104318607047A64B08331A68084309
:100E200022F07842104318607047A24A08321168D5
:100E300021F003010143116070479E4808300068AB
:100E400000F00C0070479B4A0832116821F0F00155
:100E5000014311607047974A0832116821F4E0514C
:100E6000014311607047934A0832116821F46041D0
:100E700041EAC0001060704770B58E4B08331968A6
:100E8000934C11F00C0104D06610042903D00829FA
:100E900003D004601BE0066019E0864A121D116849
:100EA000C1F38055116801F03F0115B1B6FBF1F1B6
:100EB00001E0B4FBF1F114681268C4F388146143D3
:100EC000C2F30142521C5200B1FBF2F101601968F9
:100ED0000F2202EA11117F4A545C0168E14041602F
:100EE0001C68072505EA9424145D21FA04F4846043
:100EF0001B6805EA5333D25CD140C16070BDC0F3BA
:100F00000121032908D16B4B08331968724A21F477
:100F1000F81102400A431A60664970310A68C0F34A
:100F20000B0002430A607047674944390860704704
:100F300065494039086070476249C1F85C017047F3
:100F40005C4A8C321168401E21F01F010143116080
:100F50007047584A8C3211686FF0FF0321F4F85142
:100F600003EB0020084310607047524A8C3211682E
:100F700021F440110143116070474E4A8C321168D0
:100F800021F440010143116070474A4A8C321168D4
:100F900021F440310143116070475049C1F8E0012C
:100FA0007047444A30320029116801D0014300E003
:100FB0008143116070473F4A34320029116801D0E3
:100FC000014300E08143116070473A4A38320029FA
:100FD000116801D0014300E0814311607047354A38
:100FE00040320029116801D0014300E081431160C3
:100FF0007047304A44320029116801D0014300E0B3
:101000008143116070472B4A10320029116801D0CA
:10101000014300E0814311607047264A14320029E1
:10102000116801D0014300E0814311607047214AFB
:1010300018320029116801D0014300E0814311609A
:1010400070471C4A20320029116801D0014300E09A
:10105000814311607047174A24320029116801D07A
:10106000014300E0814311607047124A5032002969
:10107000116801D0014300E08143116070470D4ABF
:1010800054320029116801D0014300E0814311600E
:101090007047084A58320029116801D0014300E026
:1010A000814311607047034A60320029116817D0EC
:1010B000014316E000380240FFFFF6EA103000243A
:1010C0000030002000004742800E47420000FFFF32
:1010D0000024F40088000020FFFCFF0F00104742AE
:1010E000814311607047194A0029116801D00143FA
:1010F00000E081431160704714490C3101280868F1
:1011000003D020F008000860704740F00800FAE7BC
:101110000E4A573A0029117801D0014300E081437B
:101120001170704709481030016841F0807101600A
:1011300070470146054A0020583A12680A4200D01A
:1011400001207047014956390870704764380240E1
:1011500010B501218C032046FFF77DFF2046BDE836
:1011600010400021FFF777BF144908607047144909
:101170000862704710B58A0721F003041149120F65
:1011800021440F23D1F8084893409C43C1F80848F4
:10119000D1F8083890400343C1F8083810BD084919
:1011A000C1F8DC0070470849086070470349002017
:1011B00020310968C90500D5012070470038014079
:1011C000000027420030014000042742FE4910B5CC
:1011D000884206D101210846FFF73DFF002101208A
:1011E0005BE0B0F1804F09D0F84988420DD1012170
:1011F0000220FFF726FF0021022070E001210846AF
:10120000FFF71FFF0021012069E0F149884206D164
:1012100001210420FFF715FF002104205FE0ED49C4
:10122000884206D101210820FFF70BFF002108208A
:1012300055E0E949884206D101211020FFF701FF5E
:10124000002110204BE0E549884206D101212020F1
:10125000FFF7F7FE0021202041E0E149884206D156
:1012600001210220FFF7F7FE0021022015E0DD49F1
:10127000884202D101210C040AE0DB49884202D1F4
:1012800001214C0404E0D94988420AD101218C048F
:101290002046FFF7E0FE00212046BDE81040FFF7A2
:1012A000DABED349884206D101214020FFF7C9FEAA
:1012B0000021402013E0CF49884206D1012180203F
:1012C000FFF7BFFE0021802009E0CB4988420AD108
:1012D000841501212046FFF7B4FE00212046BDE819
:1012E0001040FFF7AEBE10BD30B50288B64CBC4D05
:1012F000A0420DD0A8420BD0B0F1804F08D0B34B24
:10130000984205D0B24B984202D0B24B984203D1DA
:1013100022F070034A881A43AF4B984206D0AF4B75
:10132000984203D022F440730A891A4302804A6823
:10133000C2620A880285A04201D0A84201D1897AFE
:1013400001860121818230BD4FF0FF3141600021D3
:1013500001800181418081727047018582827047DE
:10136000028822F070020A4302807047416270478F
:10137000C1627047406A7047008D7047002901883C
:1013800002D041F0020101E021F00201018070472A
:101390000029018802D041F0040101E021F004019C
:1013A000018070470029018802D041F0800101E0EE
:1013B00021F0800101807047028822F0080202803B
:1013C00002880A4302807047028822F44072028039
:1013D00002880A43028070470029018802D041F048
:1013E000010101E021F001010180704730B5028C5C
:1013F00022F001020284028C8388048B22F0020214
:1014000024F073050C882C438D8915434A882A43A0
:101410006D4DA84202D0724DA8420DD122F00805B0
:10142000CA8923F440732A4322F004058A882A4398
:101430000D8A1D434B8A2B43838004838968416353
:10144000028430BD70B5028C22F010020284028C3E
:101450008388048B0D8824F4E6464FF6FF7404EA73
:10146000052535438E8922F0200204EA061616432C
:101470004A8804EA02123243534EB04202D0584E18
:10148000B04215D122F08006CA8923F4406304EAF1
:101490000212324322F040068A8804EA02123243E2
:1014A0000E8A04EA86061E434B8A04EA830333430A
:1014B0008380058389688163028470BD70B5028C66
:1014C00022F480720284028C8388848B0D8824F03D
:1014D000730425438E894FF6FF7422F4007204EAE8
:1014E000062616434A8804EA02223243364EB042A8
:1014F00002D03B4EB04215D122F40066CA8923F4D3
:10150000405304EA0222324322F480668A8804EAC5
:10151000022232430E8A04EA06161E434B8A04EA6C
:1015200003133343838085838968C163028470BD5C
:1015300070B5028C22F480520284058C8288838BE1
:101540000C8823F4E6464FF6FF7303EA0424344381
:1015500025F400568D8903EA053535434E8803EAA4
:1015600006362E43184DA84202D01D4DA84205D183
:1015700022F480450A8A03EA82122A438280848305
:1015800089680164068470BD0021018041808180EA
:1015900081608181C18101824182704730B501241F
:1015A000058C00F118038C40A543058431B308294C
:1015B0002CD0091FC1F34E001844016848F6FF7390
:1015C0001940016001681AE0000001400004004079
:1015D00000080040000C00400010004000140040D3
:1015E0000004014000400140004401400048014027
:1015F00000180040001C00400020004006E04FF6AC
:10160000FF7303EA02221143016030BD03EB510076
:1016100001684FF68F73194001600168F3E7416379
:10162000704781637047C163704701647047028BE4
:1016300022F070020A4302837047028B4FF6FF7359
:1016400022F4E04203EA0121114301837047828BB7
:1016500022F070020A4382837047828B4FF6FF7339
:1016600022F4E04203EA0121114381837047028B97
:1016700022F008020A4302837047028B4FF6FF7381
:1016800022F4006203EA0121114301837047828B37
:1016900022F008020A4382837047828B4FF6FF7361
:1016A00022F4006203EA0121114381837047028B17
:1016B00022F004020A4302837047028B4FF6FF7345
:1016C00022F4806203EA0121114301837047828B77
:1016D00022F004020A4382837047828B4FF6FF7325
:1016E00022F4806203EA0121114381837047028B57
:1016F00022F080020A4302837047028B4FF6FF7389
:10170000C2F30E0203EA0121114301837047828B69
:1017100022F080020A4382837047828B4FF6FF7368
:10172000C2F30E0203EA0121114381837047028C48
:1017300022F002020A4302847047028C22F008025F
:101740000A4302847047028C4FF6FF7322F0200296
:1017500003EA0111114301847047028C4FF6FF73B5
:1017600022F0800203EA0111114301847047028CC8
:101770004FF6FF7322F4007203EA01211143018442
:101780007047028C4FF6FF7322F4006203EA0121D6
:10179000114301847047028C4FF6FF7322F400520C
:1017A00003EA013111430184704710B50123048C11
:1017B0008B409C430484038C8A401343038410BDF4
:1017C00010B50423048C8B409C430484038C8A4012
:1017D0001343038410BD828B22F440628283828B88
:1017E0004FF6FF7303EA01210A4382837047828B1D
:1017F00022F00C028283828B0A4382837047028B21
:1018000022F440620283028B4FF6FF7303EA012148
:101810000A4302837047F0B5048C24F0100404845A
:10182000078B068C4FF6FF7404EA011527F4734703
:1018300004EA0331394304EA02220A4326F0A001F4
:10184000294341F0100102830184F0BD028B22F094
:101850000C020283028B0A43028370472DE9F04198
:101860000C460E884988A288238905460EB3042EAB
:1018700026D0082E2E8C4FF6FF7028D026F48056E6
:101880002E84AF8B2E8C00EA022200EA013127F46D
:1018900073473A4300EA0330104326F420420A43D8
:1018A00042F48051A8832984E1882846BDE8F041AC
:1018B00091E700F062F9E1882846BDE8F041C5E70C
:1018C000FFF7A9FFE1882846BDE8F04197E726F435
:1018D00080762E84AF8B2E8C00EA012100EA031063
:1018E000104327F0F307384326F420620A4342F4FA
:1018F0008071A8832984E1882846BDE8F04176E715
:1019000000210180418001228280C18001817047D5
:101910002DE9F0410C46002649880746012501B90A
:101920000226A288012A00D10225208823890028C6
:10193000384610D0FFF76FFFE1883846FFF75FFFAA
:1019400023892A463146384600F017F9E18838469F
:10195000BDE8F0417AE700F010F9E1883846FFF77A
:1019600075FF23892A4631463846FFF754FFE18840
:101970003846BDE8F04142E7406B7047806B7047E6
:10198000C06B7047006C704710B50A884B88CC88D4
:101990001A438B8823431A430B891A434B8989893D
:1019A0001A430A43A0F8442010BD00210180418061
:1019B0008180C1800181418181817047002930F897
:1019C000441F02D041F4004101E0C1F30E01018047
:1019D00070470029818802D041F0040101E021F024
:1019E0000401818070470029818802D041F0010103
:1019F00001E021F0010181807047002A828901D035
:101A00000A4300E08A438281704781827047024620
:101A10000020128A0A4200D001207047C943018287
:101A2000704702460020138A92890B4202EA0102A3
:101A300002D0002A00D001207047C94301827047BC
:101A40001143A0F848107047002A828901D00A4348
:101A500000E08A43828170470029818802D041F0EA
:101A6000080101E021F0080181807047018921F01F
:101A7000070101817047028922F070020A43028146
:101A8000704700B50346FFF7F6FF188940F00700DE
:101A9000188100BD70B516460D46602904464FF00A
:101AA000010231460AD000F068F829462046FFF7C7
:101AB000E2FF208940F00700208170BDFFF7ABFEF8
:101AC000F3E730B504894FF6FF7505EA03231343A6
:101AD000E4B20B432343038130BD10B50446FFF746
:101AE000F0FF208940F07700208110BD10B504463A
:101AF000FFF7E7FF208940F48040208110BD8288F5
:101B000022F07002828082880A43828070470289B4
:101B100022F00702028102890A430281704702898A
:101B200022F08002028102890A430281704770B567
:101B30000589048B068C25F007050D434FF6FC4103
:101B40000C4040F201110C434FF6FF7101EA031102
:101B500026F022061143314305810483018470BDC0
:101B60000029818802D041F0800101E021F080014C
:101B700081807047A0F85010704770B5048C24F035
:101B800001040484058B048C4FF6FF7606EA0313E8
:101B9000134325F0F3052B4324F00A020A4342F0D5
:101BA00001010383018470BDCD4910B5884206D17F
:101BB00001211020FFF74FFA0021102020E0C94931
:101BC000884202D101214C0429E0C749884202D150
:101BD00001218C0423E0C549884202D10121CC04B3
:101BE0001DE0C349884202D101210C0517E0C1491B
:101BF000884209D101212020FFF72DFA0021202061
:101C0000BDE81040FFF727BABB49884202D1012145
:101C10008C0704E0B94988420AD1012144052046D5
:101C2000FFF70FFA2046BDE810400021FFF709BA80
:101C300010BD7FB50446008A0D46C98820F4405087
:101C400001432182A08941F20C618843A9882A8935
:101C500011436A8902431143A181A08A20F4407193
:101C6000A8890843A0826846FFF706F99C48844289
:101C700002D0A048844201D1039800E00298A189D3
:101C8000090400EBC00101EB0010296801D54900EF
:101C900000E08900B0FBF1F06422B0FBF2F1090131
:101CA0000B096FF018056B4300EB8300A3891D043B
:101CB0004FF0320306D503EBC000B0FBF2F000F0AA
:101CC000070005E003EB0010B0FBF2F000F00F009E
:101CD000084320817FBD4FF41651016000218180AF
:101CE000C18001810C2242818181704710B5028A36
:101CF0004C8822F470630A8822438C88C9880C437C
:101D000022431A43028210BD00210180418081805C
:101D1000C18070470029818902D041F4005101E05F
:101D200021F4005181817047028B02F47F420283CB
:101D3000028B0A43028370470029818902D041F453
:101D4000004101E0C1F30E01818170470029818AC1
:101D500002D041F4006101E021F40061818270470A
:101D6000C1F30801818070478088C0F30800704784
:101D7000028A22F00F020282028A0A43028270471C
:101D80000029818902D041F0020101E021F0020125
:101D900081817047828922F40062828182890A43AC
:101DA00082817047028A22F020020282028A0A435C
:101DB000028270470029018A02D041F4804101E08B
:101DC00021F4804101827047818941F001018181C4
:101DD00070470029818A02D041F0080101E021F01A
:101DE000080181827047028BD2B20283028B42EAE1
:101DF0000121018370470029818A02D041F020012E
:101E000001E021F02001818270470029818A02D0FF
:101E100041F0100101E021F0100181827047828AB7
:101E200022F004028282828A0A4382827047002959
:101E3000818A02D041F0020101E021F00201818299
:101E40007047002A828A01D00A4300E08A438282D6
:101E5000704710B5C1F3421301F01F040121A140E6
:101E6000012B07D0022B07D01430002A026805D0BE
:101E70000A4304E00C30F8E71030F6E78A430260CA
:101E800010BD0246002012880A4200D0012070478F
:101E9000C9430180704770B501F01F050126002479
:101EA000C1F3421306FA05F2012B0FD0022B0FD01B
:101EB000838A4FEA11210088134206FA01F600EAEC
:101EC000060001D000B10124204670BD8389F0E7EF
:101ED000038AEEE70A0A01219140C9430180704755
:101EE000001001400044004000480040004C004009
:101EF000005000400014014000780040007C004089
:101F000010B504466FF00400FEF75AFD2949E008B9
:101F100000EB40020870C2EBC0104FF6FF7202EAFD
:101F2000C000488010BD2349097848434FF0E021A4
:101F3000486100238B61086940F00100086108696D
:101F4000C20701D0C003FAD5086920F0010008617A
:101F50008B6170471749498848434FF0E021486139
:101F600000238B61086940F0010008610869C2071D
:101F700001D0C003FAD5086920F0010008618B6127
:101F8000704770B54FF40776B0FBF6F1CCB2B0FBFA
:101F9000F6F106FB110504E03046FFF7DBFF641E97
:101FA000E4B2002CF8D1002D03D02846BDE87040E3
:101FB000D0E770BD9800002010B54FF48071A048A4
:101FC000FEF73DFE012800D0002010BDF0B59E4D6B
:101FD0009C4C002395F901700A2624F8170004EBA5
:101FE00047007F1CC182828597FBF6F006FB1070CC
:101FF0006870184634F91010401CC0B20B440A280F
:10200000F8D393FBF6F002B20021A282084604EB5B
:102010004003401CB3F91630C0B219440A28F6D365
:1020200091FBF6F003B200216385084604EB4007FC
:10203000401CB7F92C70C0B239440A28F6D391FB82
:10204000F6F000B2A4F84000297800291DD0B5F9B7
:102050000E108A4200DAEA81B5F910108B4200DADC
:102060002B82B5F91210884200DA6882B5F908109F
:102070008A4200DD2A81B5F90A108B4200DD6B81AE
:10208000B5F90C10884200DDA881F0BD7CB50023B5
:102090008DF8053014460D4606468DF80430009341
:1020A0006B46062203213C2002F03AFFBDF80200F5
:1020B00040BA02B2BDF8040040BA01B2BDF8000057
:1020C00040BA00B2FFF782FF5E48818A3180418DBD
:1020D0002980B0F8400020807CBD7CB500246D468E
:1020E0002A1D6846A91CFFF7D1FFC820FFF71BFF78
:1020F000641CE4B2322CF3D37CBD0A4601463C207A
:1021000002F064BF4F4B10B59C8A0480588D088044
:10211000B3F84000108010BD3EB5044602AA01A9E4
:102120006846FFF7B3FF4849BDF90000B1F9022046
:10213000D1ED050A801A00EE100AB8EEC00A20EEB2
:10214000200A81ED080A84ED000ABDF90400B1F906
:102150000420D1ED060A801A00EE100AB8EEC00A7B
:1021600020EE200A81ED090A84ED010ABDF908007C
:10217000B1F90620D1ED070A801A00EE100AB8EE78
:10218000C00A20EE200A81ED0A0A84ED020A3EBD53
:10219000072803D84007010E0120AEE7704710B5AD
:1021A000022808D801460220FFF7A7FFBDE810402B
:1021B0006420FFF7B8BE10BD10B510B10020FFF7C6
:1021C000EEFF70210020FFF798FFA0210120FFF70C
:1021D00094FF0021BDE8104002208EE7062803D8B6
:1021E0008006010E002088E7704710B504460A21DA
:1021F0003C2002F076FE20700B213C2002F071FEA4
:1022000060700C213C2002F06CFEA07010BD10B577
:102210000020FFF7D1FF0020FFF7C1FF0620FFF7E6
:10222000DDFFBDE8104058E707480121017000219B
:10223000018141818181C181018241827047000019
:1022400000080240940500209C000020F6EE000AE1
:102250000CB560EE200A10EE100ACDED000A8DEDEF
:10226000010AFE49B0EE600AA1EB600000EE900AA0
:1022700001EE100A019060EE200AB7EE080A00EEA7
:10228000C10A00EE900A20EE200A8DED010A0CBD75
:102290002DE9FC4101210220FEF783FE01258DF886
:1022A00004500226C0208DF805600024EC4F0090F9
:1022B0008DF806408DF8074069463846FEF76EFCFB
:1022C00001210220FEF76DFE8DF8044068028DF8B2
:1022D000056000908DF806408DF807506946384635
:1022E000FEF75CFC02F006FCFFF791FF1420FFF7FD
:1022F00048FEBDE8FC8170B586B005460DF11200C0
:1023000004A902AECDE900103046B11C321DB31D48
:1023100002F09EFBD348002436F8141020F8141065
:10232000641CE4B2062CF7D300219FEDCF2ACF4ADC
:10233000DFEDCF1ADFEDCF0A01E0032914D236F921
:10234000110005EB810300EE100A02EB8100B8EEEC
:10235000C00A90ED001A20EE020A01EE210A83ED78
:10236000000A80ED000A0BE036F9110000EE100AB9
:1023700005EB8100B8EEC00A80EE201A80ED001A4D
:10238000491CC9B20629D8D305F11800FFF7C4FECD
:1023900006B070BD10EE100A10B520F00040C0F17C
:1023A000FF40C00F02D09FEDB40A10BD10EE100A1E
:1023B000B0F17E5F02DB9FEDB10A10BD10EE100A96
:1023C00010F1814F02D39FEDAE0A10BD10EE100A3E
:1023D00003F062FE41EC100B04F062F851EC100BBC
:1023E00003F086FE00EE100A10BDF0B5F0EE415A83
:1023F0002DED0A0BB0EE606AF0EE406A2DED108B09
:1024000085B09FEDA08AA04C94ED170AD4ED170A71
:1024100020EE20FA94ED170AD4ED180A20EE20EAF7
:1024200094ED170AD4ED190A20EE20DA94ED170A7C
:10243000D4ED1A0A20EE200A8DED030A94ED180A55
:10244000D4ED180A20EE20CA94ED180AD4ED190A2A
:1024500060EE20FA94ED180AD4ED1A0A60EE20CA54
:1024600094ED190AD4ED190A20EE20AA94ED190A68
:10247000D4ED1A0A60EE20DA94ED1A0AD4ED1A0AA5
:1024800060EE20AA9FED815ADFED814A21EEA10A7C
:1024900002EE020A02EEA20AFFF7D8FE61EE800AFF
:1024A00060EE880ACDED180A62EE000A22EE800A7C
:1024B00060EE880A20EE080ACDED190A8DED1A0AA1
:1024C00023EE030A03EEA30A04EE040AFFF7BEFE9E
:1024D00063EE000A6548CDED1B0A63EE800A24EE28
:1024E000000AA838CDED1C0A8DED1D0A94ED1B0ADB
:1024F000D4ED1A1A94ED184A76EEC09A94ED1C0A9F
:1025000064EE083A36EE409A94ED1D0A75EEC08AE4
:1025100094ED190A28EE401A94ED1A0A20EE082AC2
:1025200094ED170A28EE403A94ED170A65EE000A7A
:1025300094ED190A44EEC00A94ED180A25EE000A3B
:1025400004EEA10AD4ED191A61EEC52AD4ED171ACA
:1025500044EEE12AD4ED181A64EEA11AD4ED1A4A19
:1025600080ED001A80ED012A80ED023AC0ED033AB9
:10257000C0ED073AB1EE433A80ED083A80ED092A02
:10258000F1EE413AC0ED0A3A80ED0E3A24EE483AB7
:1025900045EE641A80ED0F3A80ED101A80ED112A95
:1025A000C0ED150A80ED160AC0ED172AC0ED181A05
:1025B000C0ED1C1AB1EE621A80ED1D1A80ED1E0AE4
:1025C000B1EE602A80ED1F2A80ED231AB1EE611A68
:1025D00080ED241AC0ED250A80ED260A94ED180A34
:1025E000D4ED190A29EEC00A00EEC90AD4ED1A0A80
:1025F00000EEE80A10EE100A03F04EFD04F180052B
:1026000095ED041B53EC112B03F028FC94ED170AF5
:1026100041EC1B0B10EE100A03F03EFD53EC1B2B9C
:1026200003F075FB03F064FD00EE100A84ED170A59
:1026300094ED170AD4ED190A20EE290A00EEA80A33
:10264000D4ED1A0A00EEC90A10EE100A03F024FDB8
:1026500095ED041B53EC112B1CE00000DF59375F94
:102660000004024048120020CDCCCC3E8006002061
:102670009A99193F3333834100000000DB0FC93FB3
:10268000DB0FC9BFB2CB1C41C8000020CDCC0C3F32
:102690001DC9553F03F0E2FB94ED180A41EC1B0BFA
:1026A00010EE100A03F0F8FC53EC1B2B03F02FFB89
:1026B00003F01EFD00EE100A84ED180A94ED170ACF
:1026C000D4ED180A20EE090A00EEE80AD4ED1A0A41
:1026D00000EEA90A10EE100A03F0DEFC95ED041BD3
:1026E00053EC112B03F0BAFB94ED190A41EC1B0BD0
:1026F00010EE100A03F0D0FC53EC1B2B03F007FB89
:1027000003F0F6FC00EE100A84ED190A94ED170AA6
:10271000D4ED180A20EE280A00EE890AD4ED190A31
:1027200000EEE90A10EE100A03F0B6FC95ED041B6A
:1027300053EC112B03F092FB94ED1A0A41EC1B0BA6
:1027400010EE100A03F0A8FC53EC1B2B03F0DFFA89
:1027500003F0CEFC00EE100A84ED1A0A94ED170A7D
:10276000D4ED170A94ED181A20EE200AD4ED180AB9
:1027700000EE810A94ED191AD4ED190A01EE200A2F
:10278000D4ED1A0A94ED1A1A00EE810AFFF75EFDE5
:10279000D4ED170A60EE800AC4ED170AD4ED180ACA
:1027A00060EE800AC4ED180AD4ED190A60EE800AC2
:1027B000C4ED190AD4ED1A0A20EE800A84ED1A0A33
:1027C000B7EE000AFE4EF1EE69EA1EEE900A86EDC3
:1027D000000A86ED080A86ED100A86ED180A86EDD5
:1027E000200A86ED280A86ED300A03F055FC95EDA7
:1027F000041B53EC112B03F031FB03F079FCF1EED9
:1028000068BA70601BEE900A03F046FC95ED041B5D
:1028100053EC112B03F022FB03F06AFCB0601BEEBB
:10282000900A03F039FC95ED041B53EC112B03F0D7
:1028300015FB03F05DFC1FED70BAF06086ED04BA85
:1028400086ED05BA86ED06BA19EE900A03F024FC6F
:1028500095ED041B53EC112B03F000FB03F048FC37
:10286000F06118EE900A03F017FC95ED041B53EC91
:10287000112B03F0F3FA03F03BFCB1EE490A70624E
:1028800010EE100A03F008FC95ED041B53EC112B1D
:1028900003F0E4FA03F02CFCB06286ED0BBA86ED8F
:1028A0000CBA86ED0DBA19EE100A03F0F5FB95EDA2
:1028B000041B53EC112B03F0D1FA03F019FCB063A5
:1028C0001BEE900A03F0E8FB95ED041B53EC112B73
:1028D00003F0C4FA03F00CFCF06319EE900A03F065
:1028E000DBFB95ED041B53EC112B03F0B7FA03F05F
:1028F000FFFB706486ED12BA86ED13BA86ED14BA4A
:1029000018EE900A03F0C8FB95ED041B53EC112B55
:1029100003F0A4FA03F0ECFB706519EE100A03F063
:10292000BBFB95ED041B53EC112B03F097FA03F05E
:10293000DFFBB0651EEE900A03F0AEFB95ED041BC5
:1029400053EC112B03F08AFA03F0D2FBF06586ED0D
:1029500019BA86ED1ABA86ED1BBA86ED1CBA86ED59
:102960001DBA86ED1EBA86ED1FBA86ED21BA86ED38
:1029700022BA86ED23BA86ED24BA86ED25BA86ED15
:1029800026BA86ED27BA86ED29BA86ED2ABA86EDF3
:102990002BBA86ED2CBA86ED2DBA072586ED2EBA18
:1029A00086ED2FBAA6F5E7600095CDE9015004F158
:1029B000A0032A462946304602F0C0FE0722A6F5AB
:1029C00012731146304602F0E7FEA6F274600095DD
:1029D000CDE9015000F22C4307221146C43802F021
:1029E000ADFE06F1E002072304F5B271A2F25470C5
:1029F000009502F069FEA6F53C7307220621A3F2BA
:102A00000C5002F0C9FEA6F5B66006260095CDE989
:102A1000016000F530730722114600F5D26002F024
:102A20008DFE68480095CDE90160A0F1A80307225A
:102A30000621A0F53D7002F081FE624A0623903225
:102A400004F50A715F48009602F03EFE5E4B0621D7
:102A5000A3F59072A2F21C6003F060F85A4B0622B4
:102A6000903B1146A3F1900002F096FE5648009666
:102A70009030CDE901600622534B1146A0F5D87085
:102A800002F05CFE51480096CDE90160A0F5D873D4
:102A900006221146903802F051FEB0EE4B0A062194
:102AA0004A4802F032FF4A480096CDE90160474BA0
:102AB00006220721A0F22C4002F040FE3CEECD0A97
:102AC0007EEE2DDAF0EE000A20EE201A6DEEA00A5E
:102AD00061EE08EA20EE88EA7FEE4C0A70EECA0A40
:102AE00070EEAA0A20EE88FADFED3A0A20EE800A9C
:102AF00010EE100A03F0D0FA41EC190B1AEE900A0E
:102B000003F0CAFA41EC180B1AEE100A03F0C4FAEB
:102B10009FED31BB53EC1B2B03F09DF953EC182BAD
:102B200003F096F941EC100B9FED2E1BDFED2CAA64
:102B300053EC102B51EC110B03F090F953EC192BC3
:102B400003F0E5F803F0D4FA9DED030A09EE100A4C
:102B50001AEE100A3FEEC00A6AEE809A9FED1D0A37
:102B600040EE2D9A03F098FA41EC180B1CEE100A77
:102B700003F092FA53EC1B2B03F06DF953EC182B76
:102B800003F066F941EC100B9FED181B53EC102B72
:102B900051EC110B03F062F93DEE2C0A41EC180BDD
:102BA0002AEE800A10EE100A03F076FA53EC182B86
:102BB00003F0ADF803F09CFA00EE100A1AE00000F2
:102BC000D40D0020CC08002098100020B81100205F
:102BD000500C00201DC9D53F000000000000E03F60
:102BE000CDCC8C3F000000A09999F13F000000A0DF
:102BF00023B9FA3FDDED180A9DED191ADDED1A1A19
:102C00009DED1B2ADDED1C2A9DED1D3A70EEEE0AAE
:102C100031EE4E1A71EECF1A32EE492A72EEE92ADF
:102C200033EE400AFE48FE4B00F1DC0780ED050A5A
:102C30000622C0EC050A01200721CDE900600297B9
:102C4000A3F5B67002F07AFD97ED000AD4ED170AED
:102C5000A7F58F60A0F5896330EE200A06220721D0
:102C600084ED170A97ED010AD4ED180A30EE200A18
:102C700084ED180A97ED020AD4ED190A30EE200A05
:102C800084ED190A97ED030AD4ED1A0A30EE200AF2
:102C900084ED1A0A97ED040AD4ED1B0A30EE200ADF
:102CA00084ED1B0A97ED050AD4ED1C0A30EE200ACC
:102CB00084ED1C0A97ED060AD4ED1D0A30EE200AB9
:102CC00084ED1D0A0096CDE9015000F50C7002F06C
:102CD00035FDA7F5D0720723A2F5367104F52E70E5
:102CE000009502F00EFD04F1A0000095CDE9015021
:102CF00007F11C0307221146A3F5DE7002F01EFD4A
:102D000094ED170AD4ED170A94ED181A20EE200A54
:102D1000D4ED180A00EE810AD4ED190A94ED191ABF
:102D200000EE810AD4ED1A0A94ED1A1A00EE810A17
:102D3000FFF78CFAD4ED170A60EE800AC4ED170A8B
:102D4000D4ED180A60EE800AC4ED180AD4ED190A11
:102D500060EE800AC4ED190AD4ED1A0A20EE800A4A
:102D600084ED1A0A05B0BDEC108B0AB0F0BD10B5A9
:102D7000D1ED050A04469FEDAB0A60EE800ADFED57
:102D8000AA1A91ED084AD1ED073A80EEA11AD1EDC9
:102D9000040A91ED063AD1ED022A20EE802AC2EE15
:102DA000210A91ED032A22EE002A82EE210A91EDFA
:102DB000012AD1ED001AFFF718FB9C4890ED170A85
:102DC00084ED000A90ED180A84ED010A90ED190ACD
:102DD00084ED020A90ED1A0A84ED030A10BD30B5A5
:102DE00004462DED088B85B068469149FFF7BFFF7B
:102DF0009DED019ADDED029AF7EE00AA69EE090A4F
:102E0000B0EE00AAB0EE6A0A49EEA90A00EECA0ABC
:102E100010EE100A03F040F99DED000ADDED030A03
:102E200041EC180B20EE090A09EEA00A20EE0A0A6E
:102E300010EE100A03F030F941EC100BB0EE481A16
:102E4000F0EE681A03F048FE9FED7A9B51EC100BF0
:102E500053EC192B03F002F89FED781B53EC112B68
:102E600003F06EF803F044F900EE100A6F4D84EDA4
:102E7000000A85ED150A9DED000ADDED020A9DEDC3
:102E8000011A20EE200ADDED030A00EEC10A20EE51
:102E90000A0AFFF77FFADFED640A60EE200A9FED71
:102EA000691A80EE810A84ED010A85ED140A9DED10
:102EB00002BAB8EE000ADDED03BA2BEE000A6BEEA3
:102EC0008A0A20EE0B0A00EEEB0A30EE2A0A10EE18
:102ED000100A03F0E1F89DED010ADDED000A41EC76
:102EE000180B20EE0A0A60EE8A0A20EE0B0A00EEAA
:102EF000AB0A10EE100A03F0CFF841EC100BB0EE65
:102F0000481AF0EE681A03F0E7FD53EC192B51EC68
:102F1000100B02F0A3FF9FED4C1B53EC112B03F0A1
:102F20000FF803F0E5F800EE100A84ED020A85EDD3
:102F3000160A05B0BDEC088B30BD30B53B4C2DED0D
:102F4000060B2DED048B89B094ED100AD4ED100A18
:102F500020EE200A8DED020A94ED100AD4ED110A3C
:102F600020EE200A8DED040A94ED100AD4ED120A29
:102F700020EE200A8DED070A94ED100AD4ED130A15
:102F800020EE200A8DED000A94ED110AD4ED110A0D
:102F900020EE200A8DED030A94ED110AD4ED120AF9
:102FA00020EE200A8DED000A94ED110AD4ED130AEB
:102FB00020EE200A8DED060A94ED120AD4ED120AD5
:102FC00020EE200A8DED000A94ED120AD4ED130ACA
:102FD00020EE200A8DED050A94ED130AD4ED130AB4
:102FE00020EE200A8DED080A9DED100ADDED110A94
:102FF00020EE000A00EEA00ADDED120A00EEA00AA3
:10300000FFF724F98DED010A9DED100ADDED010AAF
:1030100020EE200A8DED100A9DED110A18E0000047
:10302000BC0D0020DB0F494000003443C8000020E5
:103030005412002000000000008066400000006084
:10304000FB210940DB0F49C000000060FB2109C0E3
:1030500020EE200A04F180058DED110A9DED120A83
:1030600020EE200A8DED120A9DED060ADDED070A1D
:1030700070EE600AB0EE000A60EE800ACDED060A3E
:10308000DDED040A9DED051A70EE810A20EE800A3E
:103090008DED040A9DED020ADDED030A30EE600AB3
:1030A000DDED000A30EE600ADDED080A30EE200AA0
:1030B0008DED010A9DED110ADDED010A9DED041A69
:1030C00020EE200ADDED120A00EEC10A8DED000AA5
:1030D000B0EE600ADDED060A9DED011A20EE200A31
:1030E000DDED100A00EEC10A8DED010AB0EE600AB6
:1030F000DDED040A9DED061A20EE200ADDED110A31
:1031000000EEC10A8DED020A9DED000AB5EEC00A7F
:10311000F1EE10FA7ED09DED010AB5EEC00AF1EE97
:1031200010FA77D09DED020AB5EEC00AF1EE10FA62
:1031300070D09DED000A9FEDFE9A20EE090A10EE78
:10314000100A02F0A9FF95ED041B53EC112B02F0BD
:1031500085FE94ED090A41EC180B10EE100A02F0FE
:103160009BFF53EC182B02F0D2FD02F0C1FF00EEE2
:10317000100A84ED090A9DED010A20EE090A10EEFD
:10318000100A02F089FF95ED041B53EC112B02F09D
:1031900065FE94ED0A0A41EC180B10EE100A02F0DD
:1031A0007BFF53EC182B02F0B2FD02F0A1FF00EE02
:1031B000100A84ED0A0A9DED020A20EE090A10EEBB
:1031C000100A02F069FF95ED041B53EC112B02F07D
:1031D00045FE94ED0B0A41EC180B10EE100A02F0BC
:1031E0005BFF53EC182B02F092FD02F081FF00EE22
:1031F000100A84ED0B0A9DED0D0ADDED000A30EE9C
:10320000200AD4ED090A30EE200A8DED0D0A9DED5D
:103210000E0A00E015E0DDED010A30EE200AD4EDE3
:103220000A0A30EE200A8DED0E0A9DED0F0ADDED43
:10323000020A30EE200AD4ED0B0A30EE200A8DEDA2
:103240000F0A94ED110ADDED0D0A9DED0E1A20EE28
:10325000C00AD4ED120A00EEC10AD4ED130A9DEDA6
:103260000F1A00EEC10A10EE100A02F015FF95EDDC
:10327000041B53EC112B02F0F1FD94ED100A41EC0C
:10328000180B10EE100A02F007FF53EC182B02F097
:103290003EFD02F02DFF069094ED100ADDED0D0AC3
:1032A0009DED0F1A20EE200AD4ED120A00EE810ADD
:1032B000D4ED130A9DED0E1A00EEC10A10EE100AAD
:1032C00002F0EAFE95ED041B53EC112B02F0C6FD53
:1032D00094ED110A41EC180B10EE100A02F0DCFE1E
:1032E00053EC182B02F013FD02F002FF049094ED52
:1032F000100ADDED0E0A9DED0F1A20EE200AD4ED26
:10330000110A00EEC10AD4ED130A9DED0D1A00EE6C
:10331000810A10EE100A02F0BFFE95ED041B53EC7B
:10332000112B02F09BFD94ED120A41EC180B10EEEC
:10333000100A02F0B1FE53EC182B02F0E8FC02F088
:10334000D7FE029094ED100ADDED0F0A9DED0E1AE6
:1033500020EE200AD4ED110A00EE810AD4ED120A03
:103360009DED0D1A00EEC10A10EE100A02F094FE57
:1033700095ED041B53EC112B02F070FD94ED130A34
:1033800041EC180B10EE100A02F086FE53EC182BDD
:1033900002F0BDFC02F0ACFE00909DED060ADDEDF2
:1033A000040A01EE100A20EE000A00EEA00ADDED8C
:1033B000020A00EEA00A00EE900A00EE810AFEF773
:1033C00045FF8DED010A9DED060ADDED010A20EEB7
:1033D000200A84ED100A9DED040A20EE200A84EDF7
:1033E000110A9DED020A20EE200A84ED120A9DEDDD
:1033F000000A20EE200A84ED130A09B0BDEC048B0C
:1034000006B030BD30B54B4C2DED0A0B2DED108BB9
:1034100087B094ED0C0AD4ED0C0A60EE20FA94ED1E
:103420000C0AD4ED0D0A60EE20AA94ED0C0AD4ED3E
:103430000E0A20EE20AA94ED0C0AD4ED0F0A20EE1D
:1034400020FA94ED0D0AD4ED0D0A60EE20EA94ED19
:103450000D0AD4ED0E0A20EE20EA94ED0D0AD4ED0B
:103460000F0A60EE209A94ED0E0AD4ED0E0A20EEBB
:10347000209A94ED0E0AD4ED0F0A60EE208A94EDA6
:103480000F0AD4ED0F0A20EE208A9DED1A0ADDED19
:103490001B0A20EE000A00EEA00ADDED1C0A00EE79
:1034A000A00A10EE100A02F0F7FD41EC100B04F038
:1034B000FBFA51EC100B02F01BFE00EE100ADFEDE0
:1034C0001E0A009020EE200ADFED1C0A20EE200AE2
:1034D0008DED000AD4ED000A30EE600A10EE100AFD
:1034E00002F0DAFD04F180059FED15DB95ED040B8C
:1034F00041EC1C0B53EC1D2B51EC100B02F0AEFCFD
:103500009FED111B53EC112B02F001FC95ED040B08
:1035100041EC1B0B53EC1D2B51EC100B02F09EFCED
:1035200053EC1B2B02F00CFD53EC1C2B10E00000A5
:10353000CDCC4C3EC800002000008038CDCC1C41D2
:10354000000000000000004000000060204C803FB0
:1035500002F084FC94ED000A41EC1B0B10EE100A03
:1035600002F09AFD53EC1B2B02F0D1FB02F0C0FDE0
:1035700000EE100A84ED000A9DED1A0ADDED1B0A2B
:1035800020EE000A00EEA00ADDED1C0A00EEA00A03
:10359000FEF75CFE8DED010A9DED1A0ADDED010AD4
:1035A00020EE200A8DED1A0A9DED1B0A20EE200A5E
:1035B0008DED1B0A9DED1C0A20EE200A8DED1C0AE4
:1035C0009DED1D0ADDED1E0A20EE000A00EEA00AA8
:1035D000DDED1F0A00EEA00AFEF738FE8DED010AB0
:1035E0009DED1D0ADDED010AF6EE002AB0EE00BAEF
:1035F00020EE200A3EEE4FCA39EE8A2A8DED1D0AD2
:103600009DED1E0A79EECABA20EE200A8DED1E0A43
:103610009DED1F0A20EE200A72EEC90A8DED1F0AE9
:103620009DED1D0A70EEC8CADDED1E0A20EE0B0AE4
:1036300020EE8B1ADDED1F0A60EE2C1A60EE8B0A6D
:1036400041EE0C1A40EE821ACDED001A7EEE0F1AF2
:1036500020EE212A72EEEE1A20EE2B0A71EEC82A15
:1036600031EEC9DA01EE222A78EEEA2A00EEA22A29
:103670008DED012A38EEAA2A01EE020A00EE8D0A2B
:103680008DED020A9DED000ADDED010A20EE000A33
:1036900000EEA00A10EE100A02F0FEFC41EC100B46
:1036A00004F002FA51EC100B02F022FD00909DEDA7
:1036B000020A3AEEA81A8DED040A2BEE8B0A8DED64
:1036C000020A21EE0B0A8DED030A3FEEEE0A30EE00
:1036D000490A30EE080A8DED010A00EE100ADDED10
:1036E000040A20EE0B0A60EE8B0A60EE2C1A40EE04
:1036F000AB1ACDED041A60EE0C1A40EE811A3AEEC8
:10370000291A20EE010ACDED051A00EE8D0A8DED85
:10371000060A9DED1B0ADDED010A9DED031A60EE20
:10372000200A9DED1C0A40EE410A9DED1E0A9DED0A
:10373000061A20EE010A9DED1F1A01EE610A30EE15
:10374000800A8DED000A9DED1C0ADDED020A9DED5B
:10375000011ADDED061A20EE200ADDED1A0A00EE50
:10376000C10ADDED1F0A9DED041A60EE810A9DED90
:103770001D1A41EE610A30EE200A8DED010A9DED21
:103780001A0ADDED030A9DED021ADDED041A20EEA2
:10379000200ADDED1B0A00EEC10ADDED1D0A9DEDDC
:1037A000051A60EE810A9DED1E1A41EE610A30EEA7
:1037B000200A8DED020A9DED000AB5EEC00AF1EE79
:1037C00010FA7CD09DED010AB5EEC00AF1EE10FAB8
:1037D00075D09DED020AB5EEC00AF1EE10FA6ED07A
:1037E0009DED000A9FEDFE9A20EE090A10EE100AE8
:1037F00002F052FC95ED041B53EC112B02F02EFB52
:1038000094ED060A41EC180B10EE100A02F044FC8D
:1038100053EC182B02F07BFA02F06AFC00EE100A5F
:1038200084ED060A9DED010A20EE090A10EE100A49
:1038300002F032FC95ED041B53EC112B02F00EFB51
:1038400094ED070A41EC180B10EE100A02F024FC6C
:1038500053EC182B02F05BFA02F04AFC00EE100A5F
:1038600084ED070A9DED020A20EE090A10EE100A07
:1038700002F012FC95ED041B53EC112B02F0EEFA52
:1038800094ED080A41EC180B10EE100A02F004FC4B
:1038900053EC182B02F03BFA02F02AFC00EE100A5F
:1038A00084ED080AD4ED060A9DED001AB0EE080A70
:1038B00041EE000A9DED171A70EE810A00E019E052
:1038C000CDED170AD4ED070A9DED011A41EE000A6D
:1038D0009DED181A70EE810ACDED180AD4ED080A94
:1038E0009DED021A41EE000A9DED190A30EE800AA4
:1038F0008DED190A94ED0D0ADDED170A9DED181AEC
:1039000020EEC00AD4ED0E0A00EEC10AD4ED0F0A73
:103910009DED191A00EEC10A10EE100A02F0BCFB70
:1039200095ED041B53EC112B02F098FA94ED0C0A60
:1039300041EC180B10EE100A02F0AEFB53EC182B02
:1039400002F0E5F902F0D4FB069094ED0C0ADDEDEF
:10395000170A9DED191A20EE200AD4ED0E0A00EE8A
:10396000810AD4ED0F0A9DED181A00EEC10A10EE7F
:10397000100A02F091FB95ED041B53EC112B02F0A1
:103980006DFA94ED0D0A41EC180B10EE100A02F0DE
:1039900083FB53EC182B02F0BAF902F0A9FB049058
:1039A00094ED0C0ADDED180A9DED191A20EE200A9F
:1039B000D4ED0D0A00EEC10AD4ED0F0A9DED171AE1
:1039C00000EE810A10EE100A02F066FB95ED041B72
:1039D00053EC112B02F042FA94ED0E0A41EC180B55
:1039E00010EE100A02F058FB53EC182B02F08FF97E
:1039F00002F07EFB029094ED0C0ADDED190A9DEDBC
:103A0000181A20EE200AD4ED0D0A00EE810AD4ED3A
:103A10000E0A9DED171A00EEC10A10EE100A02F010
:103A20003BFB95ED041B53EC112B02F017FA94EDC0
:103A30000F0A41EC180B10EE100A02F02DFB53ECAC
:103A4000182B02F064F902F053FB00909DED060A7A
:103A5000DDED040A01EE100A20EE000A00EEA00AD5
:103A6000DDED020A00EEA00A00EE900A00EE810AE7
:103A7000FEF7ECFB8DED010A9DED060ADDED010A76
:103A800020EE200A84ED0C0A9DED040A20EE200AA7
:103A900084ED0D0A9DED020A20EE200A84ED0E0A47
:103AA0009DED000A20EE200A84ED0F0A07B0BDEC60
:103AB000108B0AB030BD70B50C462DED028B05465B
:103AC00091ED050A9FED478A20EE080ADFED468A50
:103AD00091ED084AD1ED073A80EE281A91ED040ADB
:103AE00091ED063AD4ED022A20EE080A94ED012A5F
:103AF000C0EE280A91ED030A60EE081A81EEA80ACA
:103B0000D4ED001AFFF77EFC94ED050AD4ED022AED
:103B100094ED012A20EE080A80EE281A94ED040A9A
:103B200020EE080AC0EE280A94ED030A60EE081A97
:103B300081EEA80AD4ED001AFFF7FFF92B4890EDAB
:103B4000100A85ED000A90ED110A85ED010A90ED4D
:103B5000120A85ED020A90ED130A85ED030ABDEC09
:103B6000028B70BD70B5224905462DED088BA1F67C
:103B7000C830FFF7A0FF1F4CF7EE00AAB0EE00AA76
:103B800094ED019AD4ED029AB0EE6A0A69EE090A40
:103B900049EEA90A00EECA0A10EE100A02F07CFAF9
:103BA00094ED000AD4ED030A41EC180B20EE090A4B
:103BB00009EEA00A20EE0A0A10EE100A02F06CFAD2
:103BC00041EC100BB0EE481AF0EE681A02F084FFD8
:103BD0009FED099B51EC100B53EC192B10E00000EA
:103BE0008FC2F53CDB0F494000003443C800002081
:103BF000541200208C060020000000000080664067
:103C000002F02CF99FEDFE1B53EC112B02F098F9FA
:103C100002F06EFA00EE100AFB4E85ED000A86ED0A
:103C2000150A94ED000AD4ED020A94ED011A20EE73
:103C3000200AD4ED030A00EEC10A20EE0A0AFEF7BC
:103C4000A9FB5FED170A60EE200A9FEDF01A80EEE7
:103C5000810A85ED010A86ED140A94ED02BAB8EEE8
:103C6000000AD4ED03BA2BEE000A6BEE8A0A20EEAE
:103C70000B0A00EEEB0A30EE2A0A10EE100A02F0F0
:103C80000BFA94ED010AD4ED000A41EC180B20EE7A
:103C90000A0A60EE8A0A20EE0B0A00EEAB0A10EE6A
:103CA000100A02F0F9F941EC100BB0EE481AF0EEF0
:103CB000681A02F011FF53EC192B51EC100B02F0B3
:103CC000CDF89FEDD31B53EC112B02F039F902F024
:103CD0000FFA00EE100A85ED020A86ED160ABDEC19
:103CE000088B70BDB0EE002A21EE021A9FEDCA2AA1
:103CF000F7EE002A21EE022A82EE821A31EE212A04
:103D000081EE821A70EE601AB0EE600A01EE210AAE
:103D100070472DE9F04104462DED0E8B0E46BF484D
:103D2000B94DB94F90ED000A803585ED010A90ED4F
:103D3000010A85ED020A90ED020A0C3885ED030AAE
:103D4000B0F90610D7ED1E0A00EE101AB0F90810EF
:103D5000B0F90A00B8EEC00A70EE608A00EE101AE0
:103D6000D7ED1F0AB8EEC00A30EE608A00EE100AE6
:103D7000D5ED000AB8EEC00A30EE609A95ED060B5C
:103D800051EC100B02F0B4F901EE900AB2EE041AF5
:103D9000D7ED010AB0EE680AFFF7A4FF87ED010A2C
:103DA00095ED060B51EC100B02F0A2F901EE900A12
:103DB000B2EE041AD7ED020AB0EE480AFFF792FFFE
:103DC00087ED020A95ED060B51EC100B02F090F90D
:103DD00001EE900AB2EE041AD7ED030AB0EE490ADA
:103DE000FFF780FFB0EE40EA87ED03EAD7ED010A66
:103DF0009FED8B1A60EE811A9FED8A0AD6ED002A9C
:103E000081EE802ADFED881A10EE900AC8EE80DA83
:103E100002EEA12A86ED002AD7ED02EA6EEE812A93
:103E200088EE00DA82EE802AD6ED012A02EEA12A7F
:103E300086ED012A2EEE012A82EE001A96ED022A64
:103E400002EE211A86ED021A02F026F995ED061B04
:103E500053EC112B02F002F89FED748B53EC182BEE
:103E600001F0FCFF9FED739B53EC192B02F068F8F7
:103E700041EC1C0B206802F00FF953EC1C2B01F0F5
:103E800046FF02F035F920601EEE900A02F004F9B8
:103E900095ED061B53EC112B01F0E0FF53EC182BB2
:103EA00001F0DCFF53EC192B02F04AF841EC1C0B3B
:103EB000606802F0F1F853EC1C2B01F028FF02F0CF
:103EC00017F960601EEE100A02F0E6F895ED061B89
:103ED00053EC112B01F0C2FF53EC182B01F0BEFF85
:103EE00053EC192B02F02CF841EC180BA06802F0EF
:103EF000D3F853EC182B01F00AFF02F0F9F8A06098
:103F000095ED060B9FED4D9BB0EE490AF0EE690A68
:103F100003F066FDB0EE408AF0EE608A206802F0A1
:103F2000BBF853EC182B01F099FF41EC180B6068BB
:103F300002F0B2F853EC182B01F08AFF02F0D8F827
:103F4000606095ED060BB0EE490AF0EE690A03F0E9
:103F500047FDB0EE408AF0EE608A606802F09CF89F
:103F600053EC182B01F07AFF41EC180B206802F09B
:103F700093F853EC182B01F0CAFE02F0B9F8206058
:103F800095ED010A60EE000A95ED020A40EE000A86
:103F900095ED030A40EE000A10EE900A02F07CF85C
:103FA00041EC100B03F080FD51EC100B02F0A0F877
:103FB000D5ED018A08EE100A18EE900A02F06CF8AE
:103FC00041EC100B01F09FFE00EE100AB8EEC00AA3
:103FD000B4EEC80AF1EE10FA3AD288EE880A10EE72
:103FE000100A02F059F841EC100B02F059FA9FED5B
:103FF000151B51EC100B53EC112B01F02FFF25E09A
:1040000000000060FB210940C8000020DB0F49C010
:1040100000000060FB2109C0F90F49405412002044
:104020009A99193E333383419A99593F0000000011
:1040300000409F4000000000C0FFDF400000000083
:104040000000000000000060E3A54CC041EC1B0B29
:10405000D5ED028A18EE900A02F01EF841EC100B22
:1040600001F051FE00EE100AB8EEC00AB4EEC80A24
:10407000F1EE10FA13D288EE880A10EE100A02F060
:104080000BF841EC100B02F00BFA9FEDFE1B51EC0C
:10409000100B53EC112B01F0E1FE41EC1A0B95EDE6
:1040A000060B51EC100B02F023F808EE100A51EC4D
:1040B0001A0B02F01DF800EE100AB0EE481AF0EEEE
:1040C0006D0A01F009FA10EE100A01F0E5FF95ED16
:1040D000060B41EC180B51EC100B02F009F809EE3D
:1040E000100A51EC1B0B02F003F800EE100AB0EEC0
:1040F000491AF0EE4D0A01F04EFA10EE100A01F0E6
:10410000CBFF9FEDE2AB53EC1A2B01F0A7FE41EC85
:10411000190B94ED010A9FEDDFBA20EE0B0A10EEA9
:10412000100A01F0B9FF53EC192B01F0F0FD01F07A
:10413000DFFF606053EC1A2B51EC180B01F08EFE80
:1041400094ED000A41EC180B20EE0B0A10EE100A59
:1041500001F0A2FF53EC182B01F0D9FD01F0C8FFCC
:104160002060BDEC0E8BBDE8F0812DE9F047814663
:104170001E4617468846C848FEF7BDF8C74800687F
:10418000C74C60616069216904F1800588426069FB
:1041900021690AD2C943084400EE100AB8EE400A69
:1041A00010EE100A01F078FF02E0401A01F048FF1B
:1041B00041EC100B85ED060B9FEDBA0B53EC102B69
:1041C00095ED060B51EC100B01F048FE41EC100B85
:1041D00085ED060B9FEDB50B53EC102B95ED060B03
:1041E00051EC100B01F03AFE41EC100B85ED040B85
:1041F0006069206139464846FFF78BFD4046FFF76E
:10420000B1FC3046BDE8F047FEF7E9BD30B5A44C3F
:10421000F7EE000A2DED088B95B0C4ED0C0A9FED6A
:10422000A50A002584ED0D0A84ED0E0A84ED0F0A1F
:10423000C4ED100A84ED110A84ED120A84ED130A0C
:1042400084ED060A84ED070A84ED080A84ED090A64
:1042500084ED0A0A84ED0B0A0CA8FEF74CF89DEDDC
:104260000C0ADDED050A6D1CC82D30EE200A8DED1F
:10427000050A9DED0D0ADDED030A30EE200A8DEDF5
:10428000030A9DED0E0ADDED010A30EE200A8DEDE8
:10429000010A9DED120ADDED0B0A30EE200A8DEDCC
:1042A0000B0A9DED130ADDED090A30EE200A8DEDB3
:1042B000090A9DED140ADDED070A30EE200A8DEDA6
:1042C000070AC9DBDDED050A9FED7B0A80EE801A47
:1042D0008DED051ADDED030A80EE801A8DED031ACF
:1042E000DDED010A80EE801A8DED011ADDED0B0A7D
:1042F00080EE801A8DED0B1ADDED090A80EE801A32
:104300008DED091ADDED070A80EE801A8DED071A92
:104310009DED030ADDED010A20EE000A00EEA00A81
:10432000FDF794FFDDED050A20EE200A8DED000A71
:1043300010EE100A01F0B0FE41EC100B02F060FA32
:104340009FED5E8B51EC100B53EC182B01F086FDAA
:1043500001F0CEFE02909DED050ADDED010A20EE92
:10436000000A00EEA00AFDF771FFDDED030A20EE62
:10437000200A8DED000A10EE100A01F08DFE41ECCE
:10438000100B02F03DFA53EC182B51EC100B01F01E
:1043900065FD01F0ADFE009001F07EFE41EC100BDA
:1043A00003F01EFBB0EE408AF0EE608A079801F041
:1043B00073FE53EC182B01F051FD41EC180B0098E3
:1043C00001F06AFE41EC100B02F07EFCB0EE409A68
:1043D000F0EE609A099801F05FFE53EC192B01F0A2
:1043E0003DFD53EC182B01F092FC01F081FE019091
:1043F000029801F051FE41EC100B03F0F1FAB0EE1F
:10440000408AF0EE608A009801F046FE41EC100B05
:1044100002F05AFCB0EE409AF0EE609A079801F074
:104420003BFE53EC192B01F019FD53EC182B01F056
:1044300015FD41EC190B029801F02EFE41EC100B1A
:1044400003F0CEFAB0EE40AAF0EE60AA009801F0B8
:1044500023FE41EC100B03F0C3FAB0EE408AF0EEFD
:10446000608A099801F018FE53EC182B01F0F6FC55
:1044700053EC1A2B01F0F2FC41EC1A0B029801F0FC
:104480000BFE1FE000000060E3A54C40000000A010
:104490009999993F9A99793F54120020240C004031
:1044A000C8000020000000A0F7C6B03E00000000D9
:1044B0000000E03F000000000000484366666666BA
:1044C00066A64C4041EC100B02F0FEFBB0EE408AB9
:1044D000F0EE608A0B9801F0DFFD53EC182B01F031
:1044E000BDFC53EC1A2B01F012FC53EC192B01F01C
:1044F000AFFC01F0FDFD039001F0CEFD41EC180B87
:10450000019801F0C9FD41EC100BB0EE481AF0EE35
:10451000681A02F0E1FA51EC100B01F0E9FD00EE2F
:10452000100AB6EE008A019020EE080A10EE100A7A
:1045300001F0B2FD41EC100B03F052FAB0EE40AACC
:104540009DED020AF0EE60AA20EE080A10EE100AB5
:1045500001F0A2FD41EC100B03F042FAB0EE409ADC
:104560009DED000AF0EE609A20EE080A10EE100AA7
:1045700001F092FD41EC100B03F032FA53EC192BD1
:1045800051EC100B01F06AFC53EC1A2B01F066FCA5
:104590009DED010A41EC1B0B20EE080A10EE100AFB
:1045A00001F07AFD41EC100B02F08EFBB0EE40AA58
:1045B0009DED020AF0EE60AA20EE080A10EE100A45
:1045C00001F06AFD41EC100B02F07EFBB0EE409A68
:1045D0009DED000AF0EE609A20EE080A10EE100A37
:1045E00001F05AFD41EC100B02F06EFB53EC192B5D
:1045F00051EC100B01F032FC53EC1A2B01F02EFCA5
:1046000053EC1B2B01F083FB01F072FD00EE100A4E
:1046100084ED0C0A9DED010A20EE080A10EE100A46
:1046200001F03AFD41EC100B03F0DAF9B0EE40AACC
:104630009DED020AF0EE60AA20EE080A10EE100AC4
:1046400001F02AFD41EC100B03F0CAF9B0EE409ADC
:104650009DED000AF0EE609A20EE080A10EE100AB6
:1046600001F01AFD41EC100B02F02EFB53EC192B5C
:1046700051EC100B01F0F2FB53EC1A2B01F0EEFBA6
:104680009DED010A41EC1B0B20EE080A10EE100A0A
:1046900001F002FD41EC100B02F016FBB0EE40AA57
:1046A0009DED020AF0EE60AA20EE080A10EE100A54
:1046B00001F0F2FC41EC100B02F006FBB0EE409A68
:1046C0009DED000AF0EE609A20EE080A10EE100A46
:1046D00001F0E2FC41EC100B03F082F953EC192BD2
:1046E00051EC100B01F0BAFB53EC1A2B01F0B6FBA6
:1046F00053EC1B2B01F0ACFB01F0FAFC00EE100AAE
:1047000084ED0D0A9DED010A20EE080A10EE100A54
:1047100001F0C2FC41EC100B03F062F9B0EE40AACC
:104720009DED020AF0EE60AA20EE080A10EE100AD3
:1047300001F0B2FC41EC100B02F0C6FAB0EE409A68
:104740009DED000AF0EE609A20EE080A10EE100AC5
:1047500001F0A2FC41EC100B03F042F953EC192BD1
:1047600051EC100B01F07AFB53EC1A2B01F076FBA5
:104770009DED010A41EC1B0B20EE080A10EE100A19
:1047800001F08AFC41EC100B02F09EFAB0EE40AA58
:104790009DED020AF0EE60AA20EE080A10EE100A63
:1047A00001F07AFC41EC100B03F01AF9B0EE409ADC
:1047B0009DED000AF0EE609A20EE080A10EE100A55
:1047C00001F06AFC41EC100B02F07EFA53EC192B5D
:1047D00051EC100B01F042FB53EC1A2B01F03EFBA5
:1047E00053EC1B2B01F093FA01F082FC00EE100A4F
:1047F00084ED0E0A9DED010A20EE080A10EE100A63
:1048000001F04AFC41EC100B02F05EFAB0EE40AA57
:104810009DED020AF0EE60AA20EE080A10EE100AE2
:1048200001F03AFC41EC100B03F0DAF8B0EE409ADC
:104830009DED000AF0EE609A20EE080A10EE100AD4
:1048400001F02AFC41EC100B03F0CAF853EC192BD1
:1048500051EC100B01F002FB53EC1A2B01F0FEFAA5
:104860009DED010A41EC1B0B20EE080A10EE100A28
:1048700001F012FC41EC100B03F0B2F8B0EE40AACC
:104880009DED020AF0EE60AA20EE080A10EE100A72
:1048900001F002FC41EC100B02F016FAB0EE409A67
:1048A0009DED000AF0EE609A20EE080A10EE100A64
:1048B00001F0F2FB41EC100B02F006FA53EC192B5D
:1048C00051EC100B01F0CAFA53EC1A2B01F0C6FAA6
:1048D00053EC1B2B01F0BCFA01F00AFC00EE100AAD
:1048E00084ED0F0A15B0BDEC088B30BD0A489FED72
:1048F000090AF7EE000A80ED1B0A80ED1C0A80ED24
:104900001D0AC0ED170A80ED180A80ED190A80ED26
:104910001A0A704700000000C800002010B50023EC
:104920001A4603E030F91240521C23448A42F9DB54
:1049300093FBF1F000B210BD08B5032300900222F2
:104940006B21D02000F048FB08BD08B50223009081
:1049500004221B21D02000F03FFB08BD08B5022334
:10496000009004221C21D02000F036FB08BD034635
:1049700006226B21D02000F059BB10B5D04B01228C
:104980007521D02000F0CCFACD48007810BD10B5CC
:10499000FFF7F3FF682801D0002010BD012010BDF3
:1049A000034605226A21D02000F040BB03460122C5
:1049B0003721D02000F03ABBF0B5C24EC04CDDE943
:1049C000057C35780E3424F8150004EB45006D1C89
:1049D000C1828285A0F84230A0F85870A0F86EC05D
:1049E0000A20B5FBF0F100FB115030700A2120467F
:1049F000FFF794FFA0820A2104F11600FFF78EFF53
:104A000060850A2104F12C00FFF788FFA4F840001C
:104A10000A2104F14200FFF781FFA4F856000A21A1
:104A200004F15800FFF77AFFA4F86C000A2104F1A2
:104A30006E00FFF773FFA4F88200F0BD10B54FF4CD
:104A40000071A148FCF7FBF8012800D0002010BD40
:104A50002DE9FC5F1D46DDE90CAB16460F4681468D
:104A6000FFF7ECFF974C40B3954B0E223B21D02033
:104A700000F056FA9249088840BA00B220814A886C
:104A800052BA0FFA82FCA4F80AC08A8852BA0FFA06
:104A900082F8A4F80C800A8952BA13B2E3814A89D9
:104AA00052BA12B22282898949BA09B26182CDE929
:104AB000002142466146FFF77FFF81480E30828A1F
:104AC000A9F80020418D3980B0F840103180B0F84D
:104AD00056106288891A2980B0F86C10A288891A49
:104AE000AAF80010B0F88200E188401AABF8000084
:104AF000BDE8FC9FF0B585B00120FFF71DFF032046
:104B0000FFF723FF0020FFF729FF0020FFF72FFF0B
:104B10000020FFF745FF0120FFF748FF0023072291
:104B20003721D02000F082FA002306223721D0203E
:104B300000F07CFA012305223721D02000F076FA1C
:104B4000012304223721D02000F070FA0123002233
:104B50003821D02000F06AFA0320009008230722B1
:104B60001A21D02000F038FA002402AD0DF112070E
:104B700004AE3220FDF7D7F9AB1D2A1DA91C02A8EF
:104B8000CDE90067FFF764FF641CE4B2142CF0D396
:104B900005B0F0BD4B4B58809980DA8070472DE905
:104BA000F04786B0002747493E463D464F808F80FC
:104BB000CF803C460DF1080A0DF112090DF11008E5
:104BC0006420FDF7B0F90AF106039A1E911E02A8AF
:104BD000CDE90089FFF73CFF641CE4B2322CEFD32F
:104BE0000024C820FDF79FF90AF106039A1E911EC2
:104BF00002A8CDE90089FFF72BFFBDF90E00641C68
:104C00000744BDF91000E4B20644BDF91200642C5B
:104C10000544E6D3642095FBF0F10AB296FBF0F16F
:104C200097FBF0F009B200B2FFF7B4FF06B0BDE8A1
:104C3000F0872DE9FF4F85B0002798463E463D4658
:104C40003C460DF1080B0DF1120A0DF1100917E0A9
:104C50000BF10603CDE9009A9A1E911E02A8FFF7F8
:104C6000F7FEBDF90E000744BDF910000644BDF97A
:104C7000120005444FF4FA70FDF755F9641CA4B214
:104C80004445E5D397FBF8F000EE100A0598B8EE1E
:104C9000C00A80ED000A96FBF8F000EE100A0698B4
:104CA000B8EEC00A80ED000A95FBF8F000EE100A9D
:104CB0000798B8EEC00A80ED000A09B0BDE8F08F91
:104CC0007812002044040020000402401CB5012199
:104CD0000220FCF766F9C020009001208DF8040046
:104CE00002208DF8050000208DF806008DF80700E1
:104CF0006946DA48FBF752FF1CBD70B5D74801681A
:104D000021F440410160016841F480410160D44CCC
:104D10000120C4F89C02C4F89802022004F526740D
:104D2000FDF701F9002565600220FDF7FCF825601C
:104D300070BDCA4810B5016821F4404101600168A6
:104D400041F480410160C64C0020C4F89802C4F8C8
:104D50009C02022004F52674FDF7E5F8012020608E
:104D60006060BDE810400220FDF7DDB870B5BB48BB
:104D70000024016821F44041016001680160B84DE0
:104D80000126C5F89C623046FDF7CDF8C5F898625B
:104D90000BE0641CE4B2322C07D9FFF7CAFFB1491B
:104DA0000888401C0880012070BD0120FDF7BBF879
:104DB000D5F81C020028ECD1C5F8980270BD70B57A
:104DC000A74C0025C4F89852A448016821F440413A
:104DD0000160016841F480410160C4F89C520120E7
:104DE00004F52674FDF79FF801202060FDF79BF87D
:104DF000256070BD70B59A4C0026C4F8986297483B
:104E0000016821F440410160016841F48041016082
:104E10000125C4F89C52284604F52674FDF783F852
:104E200025600120FDF77FF8266070BD2DE9F04177
:104E300005468A48016821F440410160016841F457
:104E400080410160864E0027C6F898723C464FF0BC
:104E50000108E809C6F89C026806050E0120FDF766
:104E600062F8C6F898820120FDF75DF8C6F89872DE
:104E70000120FDF758F8641CE4B2082CE9D3BDE822
:104E8000F0812DE9F047814674480024016821F43F
:104E90004041016001680160714E254627464FF090
:104EA0000108C6F898720120FDF73DF8C6F898820F
:104EB0006006040ED6F81C0208B1641CE4B201209E
:104EC000FDF731F86D1CEDB2082DEAD3B9F1000FF2
:104ED00002D0FFF774FF01E0FFF78CFF2046BDE82A
:104EE000F08770B50D460446FFF707FF2046FFF731
:104EF0009DFFFFF73BFF2846FFF798FFFFF736FFC0
:104F0000FFF7FBFE641CE0B2FFF790FFFFF72EFFF8
:104F10000020FFF7B6FF0446FFF70BFF204670BDE9
:104F20002DE9F0411D461646884607460024FFF746
:104F3000E4FE3846FFF77AFFFFF718FF4046FFF719
:104F400075FFFFF713FFFFF7D8FE7F1CF8B2FFF7DE
:104F50006DFFFFF70BFF771E09E0BC4201D0012077
:104F600000E00020FFF78DFF2855641CE4B2B44236
:104F7000F3D3FFF7DEFE204681E72DE9F0411D4621
:104F800016460F4680460024FFF7B7FE4046FFF75F
:104F90004DFFFFF7EBFE67B13846FFF747FFFFF71E
:104FA000E5FE06E0285DFFF741FFFFF7DFFE641C2A
:104FB000E4B2B442F6D3FFF7BCFE01205FE710B5C0
:104FC0001446FFF78EFF2070012010BD07B502AB1D
:104FD0000122FFF7D2FF0EBD2DE9F84314461E460D
:104FE0000D4680466A46089FFFF7E9FF00281BD060
:104FF000621CFF2000FA02F1C4F108023244521E82
:10500000D0400143C6F108008740FAB2C4F107005E
:10501000C2409DF80000084010438DF80000C2B265
:1050200029464046FFF7D2FFBDE8F883F8B515469C
:105030001C460E4607466A46FFF7C1FF01209DF851
:105040000010A8400CB1014300E08143CAB28DF8C2
:10505000002031463846FFF7B9FFF8BD0004024092
:10506000008040425804002008B501466B460222E9
:10507000EE20FFF755FF9DF800009DF8011041EA72
:10508000002008BD70B50024FE4EA22505EB4400AB
:10509000C0B2FFF7E9FF26F81400641CE4B2062C46
:1050A000F4D370BDF84909280AD2DFE800F00509F9
:1050B00007090B090D090F00012200E002220A7006
:1050C000487070470322FAE70522F8E70A22F6E75C
:1050D00002460021EE20FFF779BF1E20F8E710B549
:1050E0001E20FFF7F5FF0820FFF7DCFF6420FCF728
:1050F00048FFBDE81040C5E710B553EC112B51EC4B
:10510000100B00F01DFF41EC100B9FEDE01B01F0B8
:105110003FFE9FEDE01B51EC100B53EC112B00F008
:105120009AFE9FEDDE1B53EC112B00F097FE41EC35
:10513000100B10BD2DE9F14FD348D24E4FF00009AE
:10514000D0F818B031894069494200EB0127F18855
:10515000FC17A1FB070309FB073201FB0421A24650
:1051600080224B4600F09EFD7288130C120410EB57
:10517000020841EB0305B188A1FB070309FB0732D5
:1051800001FB04214FF48072002300F08BFD328874
:10519000530CD2038618009841EB0304012855D123
:1051A000B84800234189A1FB070C09FB07C201FB9A
:1051B0000A214FF4000200F075FD4FF4FA61401827
:1051C000B14A4FF00001B0F5FA6FC2E90811C2E927
:1051D0000A1111DAA0F5FA61494301EB810101EBF3
:1051E000D1735B10DF17C2E90837CB1701EB93715E
:1051F0008910CB17C2E90A1340F2DC51C8421ADA0F
:1052000000F2DC504043D2E9087CC0EBC001CB1770
:10521000C91943EB0C03C2E9081300EB400101EB91
:10522000C00000EBD070D2E90A374010C117C01897
:105230007941C2E90A01D2E90801B8EB000865EB3F
:105240000105D2E90A01361A64EB0104ABFB06033F
:1052500009FB06320BFB04214FF40012002300F07F
:1052600021FDB0EB080061EB05014FF40042002383
:1052700000F018FDBDE8F88F08B501466B46032223
:10528000EE20FFF74DFE9DF800209DF801009DF8EF
:105290000210120442EA0020084308BD0020EBE798
:1052A0002DE9F0417749784D07460A8968695242ED
:1052B00000EB022449890026A1FB040306FB04330A
:1052C000E21701FB02314FF40002334600F0EAFC22
:1052D0004FF4FA614018AE60012F08D1B0F5FA6FB3
:1052E00005DA6443E11704EB5101C90FA960A9680D
:1052F000401A00F094FE9FED6B1B53EC112B00F055
:105300001FFE41EC100BBDE8F0810020B4E72DE951
:10531000F0415D4C07462DED068B90460E46634DE1
:105320009FED638B6068D8B32146012809784CD083
:10533000022873D0032830D1084600F081FE41ECEA
:105340001A0B206900F06BFE41EC190B286800F085
:1053500077FE53EC182B00F081FD53EC192B00F075
:1053600077FD53EC1A2B00F0ABFE16D8FFF796FF33
:10537000A0610020FFF7DEFE306000F050FE41EC3F
:10538000100B9FED4D1BFFF7B7FE51EC100B00F01B
:10539000AFFEC8F8000000206060BDEC068BB2E7ED
:1053A000FFE701206060286800F04AFE53EC182BEC
:1053B00000F054FD00F051FEE0606078BDEC068B1B
:1053C0005030C0B2BDE8F04182E6084600F038FE39
:1053D00041EC1A0BE06800F022FE41EC190B286842
:1053E00000F02EFE53EC182B00F038FD53EC192B77
:1053F00000F02EFD53EC1A2B00F062FECDD80220F7
:105400006060FFF782FF60610020FFF749FF51EC09
:10541000100B00F06DFE3860BFE7FFE7286800F072
:105420000FFE53EC182B00F019FD00F016FE206162
:1054300060784030C0B2FFF74BFE0320ACE7124863
:105440004078704710B551EC110B2DED028BB0EE8A
:10545000408AF0EE608A9FED110B53EC102B00F0A8
:105460006FFD9FED0C1B53EC112B00F0F4FC41EC95
:10547000100B9FED131B01F08BFC53EC102B51EC28
:10548000180B21E00A1300206004002000000060D7
:10549000955BC83F000000000000F03F00000000E6
:1054A00040A5E5400000000000005940240C0040E9
:1054B000FCA9F1D24D62503F00000000D0BCF84082
:1054C000000000C01E05154000F03AFDBDEC028B47
:1054D00041EC100B10BD00005F48604900F1500224
:1054E000D0ED044A70EEE40AC0ED0A0AD0ED033AAA
:1054F000D1ED012AD1ED031A41EE203AF0EE620A15
:1055000091ED023A51EE210A90ED002A41EE612A16
:1055100070EEC30A01EE613A30EE822AD1ED000A44
:1055200041EE020A90ED012A42EE011A90ED021AB4
:1055300030EE814A80ED0B4A80EE842A83EE041A15
:1055400030EE634AB0EE630A82ED002AF0EE603A74
:1055500002EE040A42EE603A82ED011A41EE044A7C
:1055600080ED0C4A80ED030A01EE603A41EE621ACA
:10557000C0ED044AC0ED0D0AC0ED0E2AC1ED003A9F
:10558000F0EE623A42EE623AC1ED013A81ED023A42
:10559000C1ED031A70473048304900F15802D0ED90
:1055A000094A103170EEE40AC0ED0F0AD0ED083A56
:1055B000D1ED012AD1ED031A41EE203AF0EE620A54
:1055C00091ED023A51EE210A90ED052A41EE612A51
:1055D00070EEC30A01EE613A30EE822AD1ED000A84
:1055E00041EE020A90ED062A42EE011A90ED071AEA
:1055F00030EE814A80ED104A80EE842A83EE041A50
:1056000030EE634AB0EE630A82ED002AF0EE603AB3
:1056100002EE040A42EE603A82ED011A41EE044ABB
:1056200080ED114A80ED080A01EE603A41EE621AFF
:10563000C0ED094AC0ED120AC0ED132AC1ED003ACF
:10564000F0EE623A42EE623AC1ED013A81ED023A81
:10565000C1ED031A704700009004002018130020C9
:1056600070B5174D044680212846FCF70AFC002837
:10567000F9D0A1B22846FCF773FB204670BD10B5E7
:105680000F4C20212046FCF7FCFB0028F9D02046D7
:10569000FCF76AFBC0B210BD4FF0FF30704770B529
:1056A000084D044680212846FCF7EBFB0028F9D082
:1056B000A1B2BDE870400248FCF752BBFEE7000013
:1056C0000044004000100140F0B50026059F15E0A1
:1056D000002410E006FB074500EB850C641C9CEDE4
:1056E000000A01EB850C02EB8505DCED000A30EECB
:1056F000200A85ED000ABC42ECD3761C9E42E7D31B
:10570000F0BDF0B50026059F15E0002410E006FB73
:10571000074500EB850C641C9CED000A01EB850C31
:1057200002EB8505DCED000A30EE600A85ED000A2B
:10573000BC42ECD3761C9E42E7D3F0BD2DE9F04786
:105740008A46DDE90979002522E000241DE005FBF9
:1057500007419FEDF80A09EB8106002186ED000A5A
:1057600010E005FB021C00EB8C0C01FB0748DCED94
:10577000000A03EB880C491C9CED001A00EE810A1C
:1057800086ED000A9142ECD3641CBC42DFD36D1C51
:105790005545DAD3BDE8F087F0B5002511E00024C7
:1057A0000CE005FB024704FB015600EB870703EB07
:1057B000860697ED000A641C86ED000A9442F0D339
:1057C0006D1C8D42EBD3F0BD2DE9F0479A46DDE923
:1057D0000847814600239FEDD70A0BE0002006E032
:1057E00003FB040507EB8505401C85ED000AA0427C
:1057F000F6DB5B1C8B42F1DB002520E000231BE085
:1058000005FB0436002007EB860612E005FB0208C4
:1058100009EB880C00FB0438DCED000A0AEB880C6D
:1058200096ED000A9CED001A401C00EE810A86ED00
:10583000000A9042EADB5B1CA342E1DB6D1C8D4257
:10584000DCDBA7E730B50023B7EE000ADFEDB90ACD
:1058500012E003FB01F4002200EB840409E0934210
:1058600004EB820502D185ED000A01E0C5ED000AD6
:10587000521C8A42F3D35B1C8B42EAD330BD10B575
:1058800090ED000AD0ED030A90ED021A20EE200AF6
:10589000D0ED010A00EEC10A10EE100A00F0FCFB88
:1058A00041EC100B10BD70B50C460546FFF7E7FF45
:1058B00051EC100B00F01CFC00EE100AB5EEC00A13
:1058C000F1EE10FA01D1012070BDD5ED030A0020E0
:1058D00080EE801A84ED001AD5ED020A80EE801A5F
:1058E000F1EE410AC4ED010AD5ED010A80EE801AFD
:1058F000F1EE410AC4ED020AD5ED000A80EE801AED
:10590000B1EE410A84ED030A70BD2DE9F04F94B069
:105910000022EC4616460AAF15469FED862A13462E
:105920006446B84644F8223048F82230521C0A2A0D
:10593000F8DB0022B3E0F0EE420A14461AE0134608
:1059400015E004FB013800EB880898ED001AB0EE72
:10595000C11AF4EEC10AF1EE10FA07D24CF8224057
:10596000F0EE410A26461D4647F822305B1C8B426A
:10597000E7DB641C8C42E2DBF4EEC00AF1EE10FAC5
:1059800003D2002014B0BDE8F08F964214D000235B
:1059900010E006FB013802FB013400EB880800EB45
:1059A000840498ED001AD4ED000A84ED001AC8EDC5
:1059B000000A5B1C8B42ECDB954214D0002310E004
:1059C00003FB015803FB012400EB880800EB84046F
:1059D00098ED001AD4ED000A84ED001AC8ED000A13
:1059E0005B1C8B42ECDB02FB012300EB8303B7EE75
:1059F000001AD3ED000A9946C1EE201AC3ED001A31
:105A000000230EE093420BD002FB013400EB840430
:105A100099ED001AD4ED000A60EE810AC4ED000A87
:105A20005B1C8B42EEDB02FB01F3002400EB830ED8
:105A30001FE094421CD004FB01F800EB880800230F
:105A400008EB820B12E093420FD00EEB830804FBAD
:105A5000013AD8ED001A00EB8A089BED001AD8ED48
:105A6000000A41EE610AC8ED000A5B1C8B42EADBCA
:105A7000641C8C42DDDB00230EE093420BD003FB61
:105A8000012400EB840499ED001AD4ED000A60EEC5
:105A9000C10AC4ED000A5B1C8B42EEDB521C8A4239
:105AA000FFF649AF4A1E37D457F82230934216D03A
:105AB000002312E057F8225002FB013405FB0135A8
:105AC00000EB850500EB8404D5ED000A94ED000A97
:105AD000C4ED000A85ED000A5B1C8B42EADB5CF832
