:020000040800F2
:10000000381700207D090008190400081B040008A7
:100010001D0400081F04000821040008000000005F
:1000200000000000000000000000000023040008A1
:100030002504000800000000270400082904000827
:100040009709000897090008970900089709000810
:100050009709000897090008970900084504000857
:1000600097090008970900089709000897090008F0
:1000700097090008970900089709000897090008E0
:1000800097090008970900089709000897090008D0
:10009000970900089709000897090008E704000875
:1000A00097090008970900089709000897090008B0
:1000B00097090008970900089709000897090008A0
:1000C0009709000897090008970900089709000890
:1000D0009709000897090008A70400089709000875
:1000E0009709000897090008970900089709000870
:1000F0009709000897090008970900089709000860
:10010000970900089709000897090008970900084F
:10011000970900089709000897090008970900083F
:10012000970900089709000897090008970900082F
:10013000970900089709000897090008970900081F
:10014000970900089709000897090008970900080F
:1001500097090008970900089709000897090008FF
:1001600097090008970900089709000897090008EF
:1001700097090008970900089709000897090008DF
:100180009709000897090008DFF80CD006F08CF9F1
:1001900000480047350200083817002085480168EC
:1001A00041F0080101608448802101800021021D86
:1001B0001180814A243211607F4A491E2C3211601D
:1001C0005321121F11807C4A0121143211800188B1
:1001D00041F0010101807047784A10B5A2F1100189
:1001E000101D05F0FAF8754C183C94ED0E0B51EC0F
:1001F000100B05F0DFFF01EE900A94ED011AD4ED2B
:10020000040A94ED060A03F0A3FD84ED040AD4ED7C
:10021000030A9FED6B1A60EE810A9FED6A1A40EEA9
:10022000010AB2EE040AC4ED030A20EE800A84ED4E
:10023000050A10BD2DED048B4FF4C06000F0B0FB3B
:10024000A82001F093FEC82001F0D1FE00F064FA6E
:1002500000F087FA00F0FAFA4FF4E13000F034FBD6
:10026000FFF79CFF02F04AF804F09FFF002004F023
:10027000C7FF05F036FF514C183CC4E90C0104F0EF
:1002800024F804F096FBDFF8309109F12409D9F83D
:1002900000004D494FF0000A4FF47A7B9FED4B9BD5
:1002A0009FED4C8A4C4FDFF834814FF4967607F17E
:1002B0000C0508605B464A4A4A494B4804F01FFD5A
:1002C00084ED0E9B85ED028A85ED018A85ED008A1D
:1002D00087ED028A87ED018A87ED008AA4F802A0E3
:1002E000FFF77AFF3C4B3C482433A3F1180202F19C
:1002F0000C0103F081FF042001F079FE6088401CAE
:1003000080B26080B042EBD92078401C207095ED1F
:10031000000AB0EEC00A10EE101A4145CADC95ED95
:10032000010AB0EEC00A10EE101A4145C2DC95ED8C
:10033000020A2E49B0EEC00A10EE100A8842B9DC5B
:100340002BA006F0EFF894ED050ADFF8C0809FEDD2
:10035000308B84ED090A4FF470474FF47A664D46AE
:100360003946404600F0C0FC1B4B1B482433A3F128
:10037000180202F10C0103F03FFFFFF72DFF94ED8F
:10038000050AD4ED090A30EE600A84ED080AA06A75
:100390002968091AB142FBD32968081A05F0B2FE90
:1003A00053EC182B05F0BCFDC4E90E012868A062CF
:1003B000D6E7000040380240000C00401800002042
:1003C000AC1C7A3F7F6ABC3CE4000020FCA9F1D25F
:1003D0004D62703F00000000F8040020CDCCCC3D01
:1003E000E0000020DC000020D8000020AE47E13D06
:1003F0002051756164636F707465722048656C6C20
:100400006F20576F726C642120000000000C0240C6
:100410008DEDB5A0F7C6B03E7047FEE7FEE7FEE7FC
:10042000FEE770477047704770475149002001F15F
:10043000140231F8103022F81030401CC0B20828E5
:10044000F7D3704710B5022000F060FB002828D0D9
:1004500048490868484C2289801A80B2A0800968FF
:10046000A16042F21071884209D9A078082803D10E
:10047000607808B9FFF7D9FF0020A0700DE0A0F266
:100480001B4140F28332914206D2394AA17822F8C8
:100490001100491CA17001E0012060703749022061
:1004A000086010BD704710B5354C40F227712046EA
:1004B00001F027FD40F22551204601F022FD0028E1
:1004C0000FD0204601F086FC2B4A1178284B2833A8
:1004D0000B44491C117018701078122801D30020A9
:1004E000107010BD704710B520202DED028B00F06C
:1004F0000DFB002839D02021224800F0D6FB1D49F1
:1005000000281D4C086805D0E268801A2061086840
:10051000E06027E0E1689FED1C1A401A00EE100A27
:10052000F8EE400A80EE810A10EE100A05F016FE81
:100530009FED161B53EC112B05F0F2FC41EC180B50
:10054000A06905F00BFE9FED131B53EC112B05F07A
:10055000E7FC53EC182B05F03CFC05F02BFE60612A
:10056000A061E061054920200860BDEC028B10BD50
:1005700028050020240C004040000020143C0140CD
:100580000044004000100240000068429A99999986
:100590009999C93F9A9999999999E93F0CB500227F
:1005A000544900920192086840F4803008604FF48A
:1005B000A043086800F4003001900098401C0090AF
:1005C000019810B900989842F3D10868800334D597
:1005D0000120019047484030026842F0805202609A
:1005E0004548026842F440420260424808300268CE
:1005F0000260026842F400420260026842F4A052C3
:100600000260031F3D4A1A600A6842F080720A6065
:100610000A689201FCD53A4940F205720A60016805
:1006200021F003010160016841F0020101600168ED
:10063000C1F381010229FAD10CBD01920CBD3148F0
:1006400010B5016841F4700101602A48016841F069
:1006500001010160274A00210832116002682A4B1B
:100660001A400260031D294A1A60026822F480229F
:10067000026020480C300160FFF790FF21494FF0E5
:1006800000608039086010BD70B51A4D08352868C3
:100690001F4B204910F00C0004D05E10042803D03A
:1006A000082803D00B601BE00E6019E0114A121DF0
:1006B0001068C0F38054106800F03F0014B1B6FB1E
:1006C000F0F001E0B3FBF0F013681268C3F3881395
:1006D0005843C2F30142521C5200B0FBF2F00860D2
:1006E00028680C4AC0F30310121D105C0A68C2404F
:1006F0000A6070BD00380240007000400854400796
:10070000003C024088ED00E0FFFFF6FE10300024C0
:100710000024F400600000202DE9F04101210820B0
:1007200000F075FC8D4C4FF470400127206027715C
:100730000025A57103266671E5712146884800F001
:1007400063FA0121042000F062FC78032060277125
:10075000A5716671E5712146BDE8F041814800F060
:1007600053BA70B50121084600F079FC0121102030
:1007700000F04DFC79484FF4D4410024016002217F
:100780000171032141718471774DC471014628467E
:1007900000F03AFA01220921284600F0A9FA0122C4
:1007A0000B21284600F0A4FA01220D21284600F072
:1007B0009FFA01220E21284600F09AFA6B48A721E1
:1007C0006B4D018044F61F61416004814480014605
:1007D000284600F0BFFD654960200C3108800120EB
:1007E00048808C8104208880CC818C60284600F071
:1007F00033FE0821284600F070FF5C4928460C3182
:1008000000F056FE0821284600F06DFF57492846A3
:100810000C3100F089FE0821284600F06EFF534994
:1008200028460C3100F0BAFE0821284600F06BFF84
:100830000121284600F0ECFD0121284600F002FECF
:100840002846BDE87040012101F0EEB870B50121E5
:10085000102000F0DCFB0121880300F000FC3F4881
:10086000002501260571C6712221016001463E481E
:1008700000F0CAF90121042000F0B2FC0521042097
:1008800000F0AEFC354C02200834206025710820B1
:100890006071A671204600F0E9F820202060102049
:1008A0006071204600F0E2F80C3C07202070657073
:1008B000A570E670204600F078F8172020702046DA
:1008C000BDE8704000F071B82DE9F041804601218B
:1008D000480400F0BAFB0121084600F098FB1F48CD
:1008E00002210C26017103210660417100248471EC
:1008F0000125204FC5710146384600F085F90722D1
:100900000221384600F0F4F907220321384600F0AE
:10091000EFF9164810380146C0F8008084814681FE
:100920000481C4808480144C204601F0B8F90B493E
:100930002620091F08700A2048708D70CD70084667
:1009400000F033F8012240F22551204601F0B7FAB9
:100950002046BDE8F041012101F012BA78000020E4
:10096000000C024000080240001002407405002004
:10097000000001400000024000440040064880475B
:1009800006480047FEE7FEE7FEE7FEE7FEE7FEE774
:10099000FEE7FEE7FEE7FEE73F06000889010008E4
:1009A0002849084328490860704730B50F23C278AA
:1009B00001780125FAB1244A126801F1E02102F41C
:1009C000E062C2F5E062C2F30722C2F10404D34040
:1009D0004278A24084781C401443220181F800240C
:1009E000007800F01F018D404009800000F1E020F8
:1009F000C0F8005130BD01F01F008540480980005B
:100A000000F1E020C0F8805130BD104A1140014390
:100A10000D48001F016070470B4A121D0029116824
:100A200001D0014300E08143116070474FF0E021A5
:100A30000428086903D020F004000861704740F0E2
:100A40000400FAE70000FA050CED00E080FFFF1F4C
:100A5000354900200860091D0860091D0860091D4E
:100A600008603149314814310860704730B52E4A6A
:100A70008379016853B313688B431360111D0B68AE
:100A80000468A3430B60017911440B680468234395
:100A90000B60254B083319680468A14319601C1DBD
:100AA00021680568A94321604179102905D01144C6
:100AB0000A68006802430A6030BD19680268114381
:100AC0001960216800680143216030BD007910443D
:100AD00002688A43026030BD0021016001710C226E
:100AE000427181717047104910310A6802430A60EF
:100AF000704701460C4A0020143212680A4200D0A6
:100B00000120704708491431086070470146064AC1
:100B10000020143212680A4200D0012070470249B6
:100B20001431086070470000003C0140FFFF7F0067
:100B3000774910B5884206D10121084600F099FA9C
:100B4000002101205BE07349884206D10121022087
:100B500000F08FFA0021022051E06F49884206D14F
:100B60000121042000F085FA0021042047E06B49B0
:100B7000884206D10121082000F07BFA00210820DC
:100B80003DE06749884206D10121102000F071FA4A
:100B90000021102033E06349884206D10121202042
:100BA00000F067FA0021202029E05F49884206D141
:100BB0000121402000F05DFA002140201FE05B4948
:100BC000884206D10121802000F053FA00218020C4
:100BD00015E05749884202D1012184150AE05549A0
:100BE000884202D10121441504E0534988420AD1C8
:100BF00001210415204600F03CFA00212046BDE802
:100C0000104000F036BA10BDF0B5002201274FF0B9
:100C1000030C0B6807FA02F52B40AB422CD1066897
:100C200053000CFA03F4A64306600E79D0F800E0F6
:100C30009E4046EA0E0606600E79012E01D0022E75
:100C400012D18668A64386604E79D0F808E09E40AF
:100C500046EA0E0686604668AE43466045688E7971
:100C60009640B6B235434560C568A543C560CC79AA
:100C70009C40C3681C43C460521C102AC9D3F0BDF9
:100C80004FF6FF7101600021017141718171C171E5
:100C9000704708B541F480320092C261C161009989
:100CA000C161C169C069009008BD02460020126997
:100CB0000A4200D001207047006980B270470246A6
:100CC000002052690A4200D001207047406980B27A
:100CD000704701837047418370470AB101837047B1
:100CE000418370474161704742694A4042617047A1
:100CF0004B07DB0E9A40C90810B500EB8100016A72
:100D00000F249C40A1430162016A1143016210BD9E
:100D1000000002400004024000080240000C0240B3
:100D2000001002400014024000180240001C024063
:100D3000002002400024024000280240F8480168D8
:100D400041F001010160F64A002108321160026899
:100D5000F44B1A400260031DF34A1A60F04BF34A49
:100D600084331A60F04A103A1B1D1A60026822F49C
:100D700080220260EA480C300160181D0160704753
:100D8000E7490022891C0A7008707047024600205B
:100D9000510901290CD002290CD0E14974310968AC
:100DA00002F01F02012393400B4200D00120704744
:100DB000DB49F4E7DA497031F1E718B500204FF468
:100DC000A04400903120FFF7E1FF0099491C0091F9
:100DD000A14201D00028F5D03120FFF7D7FF00282D
:100DE00000D0012018BDCE4A116821F0F80141EA77
:100DF000C00010607047CE4908607047C8490022A3
:100E000070310A700A70012802D0042801D105202F
:100E100008707047C7490860704741EA82115A0854
:100E200010B5C54B029C03EB02421143014341EA5A
:100E30000460BB49091D086010BDBD4908667047C4
:100E4000800140EA0170B649843108607047B849B2
:100E500088667047800140EA0160B14940EA02704B
:100E6000883108607047B24908677047B049C86464
:100E70007047AB4B08331A68084322F0EC6210430A
:100E800018607047A64B08331A68084322F078426E
:100E9000104318607047A24A0832116821F003011C
:100EA0000143116070479E480830006800F00C0054
:100EB00070479B4A0832116821F0F001014311602C
:100EC0007047974A0832116821F4E05101431160DC
:100ED0007047934A0832116821F4604141EAC0002A
:100EE0001060704770B58E4B08331968934C11F041
:100EF0000C0104D06610042903D0082903D0046033
:100F00001BE0066019E0864A121D1168C1F3805586
:100F1000116801F03F0115B1B6FBF1F101E0B4FB3E
:100F2000F1F114681268C4F388146143C2F30142FA
:100F3000521C5200B1FBF2F1016019680F2202EA63
:100F400011117F4A545C0168E14041601C6807252B
:100F500005EA9424145D21FA04F484601B6805EA10
:100F60005333D25CD140C16070BDC0F3012103296D
:100F700008D16B4B08331968724A21F4F81102400A
:100F80000A431A60664970310A68C0F30B000243D5
:100F90000A607047674944390860704765494039BD
:100FA000086070476249C1F85C0170475C4A8C3246
:100FB0001168401E21F01F01014311607047584A1B
:100FC0008C3211686FF0FF0321F4F85103EB00201D
:100FD000084310607047524A8C32116821F4401166
:100FE0000143116070474E4A8C32116821F4400170
:100FF0000143116070474A4A8C32116821F4403134
:101000000143116070475049C1F8E0017047444AFC
:1010100030320029116801D0014300E081431160A2
:1010200070473F4A34320029116801D0014300E083
:101030008143116070473A4A38320029116801D063
:10104000014300E0814311607047354A4032002976
:10105000116801D0014300E0814311607047304ABC
:1010600044320029116801D0014300E0814311603E
:1010700070472B4A10320029116801D0014300E06B
:10108000814311607047264A14320029116801D04B
:10109000014300E0814311607047214A1832002962
:1010A000116801D0014300E08143116070471C4A80
:1010B00020320029116801D0014300E08143116012
:1010C0007047174A24320029116801D0014300E01B
:1010D000814311607047124A50320029116801D0D3
:1010E000014300E08143116070470D4A54320029EA
:1010F000116801D0014300E0814311607047084A44
:1011000058320029116801D0014300E08143116089
:101110007047034A60320029116817D0014316E076
:1011200000380240FFFFF6EA1030002400300020B3
:1011300000004742800E47420000FFFF0024F400F9
:1011400088000020FFFCFF0F001047428143116020
:101150007047194A0029116801D0014300E081431A
:101160001160704714490C310128086803D020F041
:1011700008000860704740F00800FAE70E4A573A46
:101180000029117801D0014300E0814311707047BC
:1011900009481030016841F08071016070470146D4
:1011A000054A0020583A12680A4200D001207047D0
:1011B00001495639087070476438024010B5012162
:1011C0008C032046FFF77DFF2046BDE8104000213C
:1011D000FFF777BF144908607047144908627047E9
:1011E00010B58A0721F003041149120F21440F237F
:1011F000D1F8084893409C43C1F80848D1F8083812
:1012000090400343C1F8083810BD0849C1F8DC001C
:101210007047084908607047034900202031096879
:10122000C90500D501207047003801400000274261
:101230000030014000042742FE4910B5884206D123
:1012400001210846FFF73DFF002101205BE0B0F1DE
:10125000804F09D0F84988420DD101210220FFF7C3
:1012600026FF0021022070E001210846FFF71FFF42
:101270000021012069E0F149884206D101210420C2
:10128000FFF715FF002104205FE0ED49884206D1F9
:1012900001210820FFF70BFF0021082055E0E94954
:1012A000884206D101211020FFF701FF0021102004
:1012B0004BE0E549884206D101212020FFF7F7FEE7
:1012C0000021202041E0E149884206D1012102208D
:1012D000FFF7F7FE0021022015E0DD49884202D128
:1012E00001210C040AE0DB49884202D101214C04AF
:1012F00004E0D94988420AD101218C042046FFF735
:10130000E0FE00212046BDE81040FFF7DABED349D9
:10131000884206D101214020FFF7C9FE002140206C
:1013200013E0CF49884206D101218020FFF7BFFE9C
:101330000021802009E0CB4988420AD1841501218F
:101340002046FFF7B4FE00212046BDE81040FFF71D
:10135000AEBE10BD30B50288B64CBC4DA0420DD01B
:10136000A8420BD0B0F1804F08D0B34B984205D0C3
:10137000B24B984202D0B24B984203D122F0700394
:101380004A881A43AF4B984206D0AF4B984203D0DD
:1013900022F440730A891A4302804A68C2620A88AA
:1013A0000285A04201D0A84201D1897A018601219B
:1013B000818230BD4FF0FF31416000210180018109
:1013C000418081727047018582827047028822F0D5
:1013D00070020A430280704741627047C1627047E1
:1013E000406A7047008D70470029018802D041F0A3
:1013F000020101E021F0020101807047002901880B
:1014000002D041F0040101E021F0040101807047A5
:101410000029018802D041F0800101E021F0800123
:1014200001807047028822F00802028002880A4385
:1014300002807047028822F44072028002880A43C8
:10144000028070470029018802D041F0010101E0CB
:1014500021F001010180704730B5028C22F00102B9
:101460000284028C8388048B22F0020224F073052C
:101470000C882C438D8915434A882A436D4DA84218
:1014800002D0724DA8420DD122F00805CA8923F47A
:1014900040732A4322F004058A882A430D8A1D439B
:1014A0004B8A2B438380048389684163028430BD67
:1014B00070B5028C22F010020284028C8388048BA7
:1014C0000D8824F4E6464FF6FF7404EA05253543FB
:1014D0008E8922F0200204EA061616434A8804EA9E
:1014E00002123243534EB04202D0584EB04215D190
:1014F00022F08006CA8923F4406304EA02123243D0
:1015000022F040068A8804EA021232430E8A04EA74
:1015100086061E434B8A04EA830333438380058394
:1015200089688163028470BD70B5028C22F4807278
:101530000284028C8388848B0D8824F073042543F5
:101540008E894FF6FF7422F4007204EA06261643D1
:101550004A8804EA02223243364EB04202D03B4E61
:10156000B04215D122F40066CA8923F4405304EA3C
:101570000222324322F480668A8804EA022232433D
:101580000E8A04EA06161E434B8A04EA0313334309
:10159000838085838968C163028470BD70B5028CC5
:1015A00022F480520284058C8288838B0C8823F479
:1015B000E6464FF6FF7303EA0424344325F400564D
:1015C0008D8903EA053535434E8803EA06362E43F6
:1015D000184DA84202D01D4DA84205D122F48045E5
:1015E0000A8A03EA82122A4382808483896801641A
:1015F000068470BD002101804180818081608181ED
:10160000C18101824182704730B50124058C00F10F
:1016100018038C40A543058431B308292CD0091F39
:10162000C1F34E001844016848F6FF731940016089
:1016300001681AE00000014000040040000800407A
:10164000000C004000100040001400400004014065
:1016500000400140004401400048014000180040A3
:10166000001C00400020004006E04FF6FF7303EA34
:1016700002221143016030BD03EB510001684FF6B7
:101680008F73194001600168F3E74163704781631C
:101690007047C163704701647047028B22F070028B
:1016A0000A4302837047028B4FF6FF7322F4E04235
:1016B00003EA0121114301837047828B22F07002FB
:1016C0000A4382837047828B4FF6FF7322F4E04215
:1016D00003EA0121114381837047028B22F0080243
:1016E0000A4302837047028B4FF6FF7322F40062B5
:1016F00003EA0121114301837047828B22F0080223
:101700000A4382837047828B4FF6FF7322F4006294
:1017100003EA0121114381837047028B22F0040206
:101720000A4302837047028B4FF6FF7322F48062F4
:1017300003EA0121114301837047828B22F00402E6
:101740000A4382837047828B4FF6FF7322F48062D4
:1017500003EA0121114381837047028B22F080024A
:101760000A4302837047028B4FF6FF73C2F30E02E7
:1017700003EA0121114301837047828B22F080022A
:101780000A4382837047828B4FF6FF73C2F30E02C7
:1017900003EA0121114381837047028C22F0020287
:1017A0000A4302847047028C22F008020A43028432
:1017B0007047028C4FF6FF7322F0200203EA0111FA
:1017C000114301847047028C4FF6FF7322F08002B0
:1017D00003EA0111114301847047028C4FF6FF7335
:1017E00022F4007203EA0121114301847047028C44
:1017F0004FF6FF7322F4006203EA012111430184D2
:101800007047028C4FF6FF7322F4005203EA013155
:1018100011430184704710B50123048C8B409C4315
:101820000484038C8A401343038410BD10B5042341
:10183000048C8B409C430484038C8A4013430384B0
:1018400010BD828B22F440628283828B4FF6FF733D
:1018500003EA01210A4382837047828B22F00C0243
:101860008283828B0A4382837047028B22F4406218
:101870000283028B4FF6FF7303EA01210A430283BE
:101880007047F0B5048C24F010040484078B068C98
:101890004FF6FF7404EA011527F4734704EA033195
:1018A000394304EA02220A4326F0A001294341F009
:1018B000100102830184F0BD028B22F00C0202832E
:1018C000028B0A43028370472DE9F0410C460E88D3
:1018D0004988A288238905460EB3042E26D0082EF7
:1018E0002E8C4FF6FF7028D026F480562E84AF8BB6
:1018F0002E8C00EA022200EA013127F473473A43B2
:1019000000EA0330104326F420420A4342F4805197
:10191000A8832984E1882846BDE8F04191E700F0DA
:1019200062F9E1882846BDE8F041C5E7FFF7A9FF65
:10193000E1882846BDE8F04197E726F480762E84BA
:10194000AF8B2E8C00EA012100EA0310104327F030
:10195000F307384326F420620A4342F48071A883D7
:101960002984E1882846BDE8F04176E7002101801E
:10197000418001228280C180018170472DE9F041C0
:101980000C46002649880746012501B90226A2888F
:10199000012A00D10225208823890028384610D04A
:1019A000FFF76FFFE1883846FFF75FFF23892A467C
:1019B0003146384600F017F9E1883846BDE8F04175
:1019C0007AE700F010F9E1883846FFF775FF2389C0
:1019D0002A4631463846FFF754FFE1883846BDE8CD
:1019E000F04142E7406B7047806B7047C06B7047B7
:1019F000006C704710B50A884B88CC881A438B88D6
:101A000023431A430B891A434B8989891A430A4392
:101A1000A0F8442010BD0021018041808180C18058
:101A20000181418181817047002930F8441F02D033
:101A300041F4004101E0C1F30E010180704700292B
:101A4000818802D041F0040101E021F0040181808D
:101A500070470029818802D041F0010101E021F0A6
:101A6000010181807047002A828901D00A4300E089
:101A70008A43828170478182704702460020128A21
:101A80000A4200D001207047C943018270470246D4
:101A90000020138A92890B4202EA010202D0002A36
:101AA00000D001207047C943018270471143A0F85C
:101AB00048107047002A828901D00A4300E08A4317
:101AC000828170470029818802D041F0080101E03D
:101AD00021F0080181807047018921F0070101810F
:101AE0007047028922F070020A430281704700B5F4
:101AF0000346FFF7F6FF188940F00700188100BD84
:101B000070B516460D46602904464FF00102314675
:101B10000AD000F068F829462046FFF7E2FF208946
:101B200040F00700208170BDFFF7ABFEF3E730B552
:101B300004894FF6FF7505EA03231343E4B20B4310
:101B40002343038130BD10B50446FFF7F0FF208921
:101B500040F07700208110BD10B50446FFF7E7FF85
:101B6000208940F48040208110BD828822F07002DC
:101B7000828082880A4382807047028922F00702AD
:101B8000028102890A4302817047028922F08002A1
:101B9000028102890A430281704770B50589048B6E
:101BA000068C25F007050D434FF6FC410C4040F232
:101BB00001110C434FF6FF7101EA031126F02206D2
:101BC0001143314305810483018470BD002981885C
:101BD00002D041F0800101E021F080018180704756
:101BE000A0F85010704770B5048C24F001040484F0
:101BF000058B048C4FF6FF7606EA0313134325F09A
:101C0000F3052B4324F00A020A4342F00101038347
:101C1000018470BDCD4910B5884206D10121102044
:101C2000FFF74FFA0021102020E0C949884202D175
:101C300001214C0429E0C749884202D101218C04CA
:101C400023E0C549884202D10121CC041DE0C349EB
:101C5000884202D101210C0517E0C149884209D10F
:101C600001212020FFF72DFA00212020BDE810409F
:101C7000FFF727BABB49884202D101218C0704E053
:101C8000B94988420AD1012144052046FFF70FFADD
:101C90002046BDE810400021FFF709BA10BD7FB50E
:101CA0000446008A0D46C98820F440500143218231
:101CB000A08941F20C618843A9882A8911436A8965
:101CC00002431143A181A08A20F44071A8890843EE
:101CD000A0826846FFF706F99C48844202D0A048DB
:101CE000844201D1039800E00298A189090400EB25
:101CF000C00101EB0010296801D5490000E089000E
:101D0000B0FBF1F06422B0FBF2F109010B096FF0B6
:101D100018056B4300EB8300A3891D044FF03203C9
:101D200006D503EBC000B0FBF2F000F0070005E0C1
:101D300003EB0010B0FBF2F000F00F00084320812D
:101D40007FBD4FF41651016000218180C180018167
:101D50000C2242818181704710B5028A4C8822F49E
:101D600070630A8822438C88C9880C4322431A4333
:101D7000028210BD0021018041808180C1807047B6
:101D80000029818902D041F4005101E021F4005181
:101D900081817047028B02F47F420283028B0A43E7
:101DA000028370470029818902D041F4004101E09B
:101DB000C1F30E01818170470029818A02D041F46C
:101DC000006101E021F4006181827047C1F30801E4
:101DD000818070478088C0F308007047028A22F033
:101DE0000F020282028A0A43028270470029818917
:101DF00002D041F0020101E021F00201818170472F
:101E0000828922F40062828182890A43828170473A
:101E1000028A22F020020282028A0A43028270476A
:101E20000029018A02D041F4804101E021F480417F
:101E300001827047818941F0010181817047002949
:101E4000818A02D041F0080101E021F0080181827D
:101E50007047028BD2B20283028B42EA01210183D6
:101E600070470029818A02D041F0200101E021F071
:101E70002001818270470029818A02D041F010013F
:101E800001E021F0100181827047828A22F0040271
:101E90008282828A0A43828270470029818A02D024
:101EA00041F0020101E021F0020181827047002A25
:101EB000828A01D00A4300E08A438282704710B5CB
:101EC000C1F3421301F01F040121A140012B07D0EF
:101ED000022B07D01430002A026805D00A4304E020
:101EE0000C30F8E71030F6E78A43026010BD024676
:101EF000002012880A4200D001207047C9430180A7
:101F0000704770B501F01F0501260024C1F342138C
:101F100006FA05F2012B0FD0022B0FD0838A4FEA6D
:101F200011210088134206FA01F600EA060001D0EA
:101F300000B10124204670BD8389F0E7038AEEE7F3
:101F40000A0A01219140C9430180704700100140F5
:101F50000044004000480040004C00400050004059
:101F60000014014000780040007C004010B5044699
:101F70006FF00400FEF75AFD2949E00800EB40022B
:101F80000870C2EBC0104FF6FF7202EAC000488032
:101F900010BD2349097848434FF0E02148610023F0
:101FA0008B61086940F0010008610869C20701D02F
:101FB000C003FAD5086920F0010008618B61704701
:101FC0001749498848434FF0E021486100238B615D
:101FD000086940F0010008610869C20701D0C00328
:101FE000FAD5086920F0010008618B61704770B56F
:101FF0004FF40776B0FBF6F1CCB2B0FBF6F106FB7E
:10200000110504E03046FFF7DBFF641EE4B2002C4C
:10201000F8D1002D03D02846BDE87040D0E770BD50
:102020009800002010B54FF48071A048FEF73DFEE7
:10203000012800D0002010BDF0B59E4D9C4C00231F
:1020400095F901700A2624F8170004EB47007F1C5D
:10205000C182828597FBF6F006FB10706870184607
:1020600034F91010401CC0B20B440A28F8D393FB7B
:10207000F6F002B20021A282084604EB4003401CA5
:10208000B3F91630C0B219440A28F6D391FBF6F022
:1020900003B200216385084604EB4007401CB7F9F2
:1020A0002C70C0B239440A28F6D391FBF6F000B286
:1020B000A4F84000297800291DD0B5F90E108A42F5
:1020C00000DAEA81B5F910108B4200DA2B82B5F9FB
:1020D0001210884200DA6882B5F908108A4200DDE1
:1020E0002A81B5F90A108B4200DD6B81B5F90C101D
:1020F000884200DDA881F0BD7CB500238DF8053055
:1021000014460D4606468DF8043000936B460622B1
:1021100003213C2002F06AFFBDF8020040BA02B27F
:10212000BDF8040040BA01B2BDF8000040BA00B2E8
:10213000FFF782FF5E48818A3180418D2980B0F8A7
:10214000400020807CBD7CB500246D462A1D684679
:10215000A91CFFF7D1FFC820FFF71BFF641CE4B2E6
:10216000322CF3D37CBD0A4601463C2002F094BFDA
:102170004F4B10B59C8A0480588D0880B3F84000FE
:10218000108010BD3EB5044602AA01A96846FFF7BB
:10219000B3FF4849BDF90000B1F90220D1ED050AAD
:1021A000801A00EE100AB8EEC00A20EE200A81ED77
:1021B000080A84ED000ABDF90400B1F90420D1ED4C
:1021C000060A801A00EE100AB8EEC00A20EE200AB5
:1021D00081ED090A84ED010ABDF90800B1F9062074
:1021E000D1ED070A801A00EE100AB8EEC00A20EE00
:1021F000200A81ED0A0A84ED020A3EBD072803D8B1
:102200004007010E0120AEE7704710B5022808D83C
:1022100001460220FFF7A7FFBDE810406420FFF74A
:10222000B8BE10BD10B510B10020FFF7EEFF702151
:102230000020FFF798FFA0210120FFF794FF002165
:10224000BDE8104002208EE7062803D88006010E64
:10225000002088E7704710B504460A213C2002F0B0
:10226000A6FE20700B213C2002F0A1FE60700C2124
:102270003C2002F09CFEA07010BD10B50020FFF7BE
:10228000D1FF0020FFF7C1FF0620FFF7DDFFBDE80B
:10229000104058E707480121017000210181418168
:1022A0008181C181018241827047000000080240A3
:1022B000940500209C000020F6EE000A0CB560EEAC
:1022C000200A10EE100ACDED000A8DED010AFE493C
:1022D000B0EE600AA1EB600000EE900A01EE100A79
:1022E000019060EE200AB7EE080A00EEC10A00EE87
:1022F000900A20EE200A8DED010A0CBD2DE9FC416B
:1023000001210220FEF783FE01258DF804500226EC
:10231000C0208DF805600024EC4F00908DF8064039
:102320008DF8074069463846FEF76EFC0121022011
:10233000FEF76DFE8DF8044068028DF80560009090
:102340008DF806408DF8075069463846FEF75CFC6C
:1023500002F036FCFFF791FF1420FFF748FEBDE8BE
:10236000FC8170B586B005460DF1120004A902AEDD
:10237000CDE900103046B11C321DB31D02F0CEFB7A
:10238000D348002436F8141020F81410641CE4B26A
:10239000062CF7D300219FEDCF2ACF4ADFEDCF1ACD
:1023A000DFEDCF0A01E0032914D236F9110005EB65
:1023B000810300EE100A02EB8100B8EEC00A90ED36
:1023C000001A20EE020A01EE210A83ED000A80EDD8
:1023D000000A0BE036F9110000EE100A05EB81004F
:1023E000B8EEC00A80EE201A80ED001A491CC9B26E
:1023F0000629D8D305F11800FFF7C4FE06B070BD5A
:1024000010EE100A10B520F00040C0F1FF40C00FE0
:1024100002D09FEDB40A10BD10EE100AB0F17E5F3D
:1024200002DB9FEDB10A10BD10EE100A10F1814FD2
:1024300002D39FEDAE0A10BD10EE100A03F08EFE1F
:1024400041EC100B04F090F851EC100B03F0B2FECD
:1024500000EE100A10BD2DE9F041F0EE415A2DEDCD
:102460000A0BB0EE606AF0EE406A2DED108B84B07E
:102470009FED9F8A9F4C94ED1A0AD4ED1A0A20EE24
:1024800020FA94ED1A0AD4ED1B0A20EE20EA94ED0E
:102490001A0AD4ED1C0A20EE20DA94ED1A0AD4EDC3
:1024A0001D0A20EE200A8DED030A94ED1B0AD4EDDF
:1024B0001B0A20EE20CA94ED1B0AD4ED1C0A60EE24
:1024C00020FA94ED1B0AD4ED1D0A60EE20CA94EDAB
:1024D0001C0AD4ED1C0A20EE20AA94ED1C0AD4EDAF
:1024E0001D0A60EE20DA94ED1D0AD4ED1D0A60EE9F
:1024F00020AA9FED815ADFED814A21EEA10A02EE6A
:10250000020A02EEA20AFFF7D7FE61EE800A60EE31
:10251000880ACDED170A62EE000A22EE800A60EE0C
:10252000880A20EE080ACDED180A8DED190A23EE6F
:10253000030A03EEA30A04EE040AFFF7BDFE63EEEE
:10254000000A04F180056448CDED1A0A63EE800AA2
:1025500024EE000AA838CDED1B0A8DED1C0A94ED7F
:102560001E0AD4ED1D1A94ED1B4A76EEC09A94ED26
:102570001F0A64EE083A36EE409A95ED000A75EEB1
:10258000C08A94ED1C0A28EE401A94ED1D0A20EE34
:10259000082A94ED1A0A28EE403A94ED1A0A65EEDC
:1025A000000A94ED1C0A44EEC00A94ED1B0A25EEC5
:1025B000000A04EEA10AD4ED1C1A61EEC52AD4ED7E
:1025C0001A1A44EEE12AD4ED1B1A64EEA11AD4EDD6
:1025D0001D4A80ED001A80ED012A80ED023AC0ED1F
:1025E000033AC0ED073AB1EE433A80ED083A80ED88
:1025F000092AF1EE413AC0ED0A3A80ED0E3A24EE96
:10260000483A45EE641A80ED0F3A80ED101A80EDDD
:10261000112AC0ED150A80ED160AC0ED172AC0ED8B
:10262000181AC0ED1C1AB1EE621A80ED1D1A80ED69
:102630001E0AB1EE602A80ED1F2A80ED231AB1EE4A
:10264000611A80ED241AC0ED250A80ED260A94ED6A
:102650001B0AD4ED1C0A29EEC00A00EEC90AD4ED0B
:102660001D0A00EEE80A10EE100A03F077FD95ED62
:10267000041B53EC112B03F053FC94ED1A0A41ECAC
:102680001B0B10EE100A03F069FD53EC1B2B03F03B
:10269000A0FB03F08FFD00EE100A84ED1A0A94ED02
:1026A0001A0AD4ED1C0A20EE290A00EEA80AD4ED7D
:1026B0001D0A00EEC90A10EE100A03F04FFD95ED59
:1026C000041B53EC112B1BE0DF59375F0004024061
:1026D00048120020CDCCCC3E800600209A99193FAC
:1026E0003333834100000000DB0FC93FDB0FC9BF5C
:1026F000B2CB1C41C8000020CDCC0C3F1DC9553FBA
:1027000003F00EFC94ED1B0A41EC1B0B10EE100ABB
:1027100003F024FD53EC1B2B03F05BFB03F04AFD9D
:1027200000EE100A84ED1B0A94ED1A0AD4ED1B0A80
:1027300020EE090A00EEE80AD4ED1D0A00EEA90A0F
:1027400010EE100A03F00AFD95ED041B53EC112B5B
:1027500003F0E6FB94ED1C0A41EC1B0B10EE100A93
:1027600003F0FCFC53EC1B2B03F033FB03F022FDC6
:1027700000EE100A84ED1C0A94ED1A0AD4ED1B0A2F
:1027800020EE280A00EE890AD4ED1C0A00EEE90AC0
:1027900010EE100A03F0E2FC95ED041B53EC112B34
:1027A00003F0BEFB94ED1D0A41EC1B0B10EE100A6A
:1027B00003F0D4FC53EC1B2B03F00BFB03F0FAFCEF
:1027C00000EE100A84ED1D0A94ED1A0AD4ED1A0ADF
:1027D00094ED1B1A20EE200AD4ED1B0A00EE810AAC
:1027E00094ED1C1AD4ED1C0A01EE200AD4ED1D0A4A
:1027F00094ED1D1A00EE810AFFF75EFDD4ED1A0A72
:1028000060EE800AC4ED1A0AD4ED1B0A60EE800A5D
:10281000C4ED1B0AD4ED1C0A60EE800AC4ED1C0A4C
:10282000D4ED1D0A20EE800A84ED1D0AB7EE000AE1
:10283000FE4EF1EE69EA1EEE900A86ED000A86ED84
:10284000080A86ED100A86ED180A86ED200A86ED44
:10285000280A86ED300A03F081FC95ED041B53EC49
:10286000112B03F05DFB03F0A5FCF1EE68BA70607C
:102870001BEE900A03F072FC95ED041B53EC112B38
:1028800003F04EFB03F096FCB0601BEE900A03F0E1
:1028900065FC95ED041B53EC112B03F041FB03F099
:1028A00089FC1FED70BAF06086ED04BA86ED05BABA
:1028B00086ED06BA19EE900A03F050FC95ED041B64
:1028C00053EC112B03F02CFB03F074FCF06118EEB9
:1028D000900A03F043FC95ED041B53EC112B03F01D
:1028E0001FFB03F067FCB1EE490A706210EE100A9C
:1028F00003F034FC95ED041B53EC112B03F010FB9B
:1029000003F058FCB06286ED0BBA86ED0CBA86ED8A
:102910000DBA19EE100A03F021FC95ED041B53ECDF
:10292000112B03F0FDFA03F045FCB0631BEE900A97
:1029300003F014FC95ED041B53EC112B03F0F0FA9B
:1029400003F038FCF06319EE900A03F007FC95EDF4
:10295000041B53EC112B03F0E3FA03F02BFC70641F
:1029600086ED12BA86ED13BA86ED14BA18EE900A07
:1029700003F0F4FB95ED041B53EC112B03F0D0FA9C
:1029800003F018FC706519EE100A03F0E7FB95EDF3
:10299000041B53EC112B03F0C3FA03F00BFCB065DE
:1029A0001EEE900A03F0DAFB95ED041B53EC112B9D
:1029B00003F0B6FA03F0FEFBF06586ED19BA86ED7A
:1029C0001ABA86ED1BBA86ED1CBA86ED1DBA86EDE5
:1029D0001EBA86ED1FBA86ED21BA86ED22BA86EDC3
:1029E00023BA86ED24BA86ED25BA86ED26BA86EDA1
:1029F00027BA86ED29BA86ED2ABA86ED2BBA86ED7E
:102A00002CBA86ED2DBA86ED2EBA86ED2FBAA6F534
:102A1000E76007260096CDE9016004F1A003324685
:102A20003146824802F0F0FE0722814B11467F4872
:102A300002F018FF7F480096CDE9016007227C4B29
:102A40001146C43802F0E0FE784A0723E03204F56C
:102A5000B2717848009602F09DFE754B0722A83BA4
:102A60000621A3F20C5002F0FDFE72480627C43086
:102A70000096CDE9017000F530730722114600F58C
:102A8000D26002F0C1FE6C480096CDE90170A0F161
:102A9000A80307220621A0F53D7002F0B5FE664AA4
:102AA0000623903204F50A716348009702F072FE23
:102AB000624B0621A3F59072A2F21C6003F094F819
:102AC0005E4B0622903B1146A3F1900002F0CAFE35
:102AD0005A4800979030CDE901700622574B1146B5
:102AE000A0F5D87002F090FE55480097CDE901702E
:102AF000A0F5D87306221146903802F085FEB0EE9C
:102B00004B0A06214E4802F066FF49480097C43040
:102B1000CDE901704A4B06220721A0F22C4002F0B9
:102B200073FE3CEECD0A7EEE2DDAF0EE000A20EECA
:102B3000201A6DEEA00A61EE08EA20EE88EA7FEE28
:102B40004C0A70EECA0A70EEAA0A20EE88FADFED8F
:102B50003D0A20EE800A10EE100A03F0FFFA41EC65
:102B6000190B1AEE900A03F0F9FA41EC180B1AEE61
:102B7000100A03F0F3FA9FED34BB53EC1B2B03F068
:102B8000CCF953EC182B03F0C5F941EC100B9FED79
:102B9000311BDFED2FAA53EC102B51EC110B03F07E
:102BA000BFF953EC192B03F014F903F003FB9DED6F
:102BB000030A09EE100A1AEE100A3FEEC00A6AEE86
:102BC000809A9FED200A40EE2D9A03F0C7FA41EC5F
:102BD000180B1CEE100A03F0C1FA53EC1B2B03F088
:102BE0009CF953EC182B03F095F941EC100B9FED79
:102BF0001B1B53EC102B51EC110B03F091F93DEE24
:102C00002C0A41EC180B2AEE800A10EE100A03F091
:102C1000A5FA53EC182B03F0DCF803F0CBFADDED4A
:102C2000170A00EE100A70EEEE0A1BE0D40D002029
:102C30008C0B002060070020CC080020981000209A
:102C4000B81100201DC9D53F000000000000E03F82
:102C5000CDCC8C3F000000A09999F13F000000A06E
:102C600023B9FA3F9DED181ADDED191A9DED1A2AC8
:102C7000DDED1B2A9DED1C3A31EE4E1A71EECF1A96
:102C800032EE492A72EEE92A33EE400AFE4801216B
:102C900000F1DC0880ED050A0346C0EC050A0622B7
:102CA000A0F5B670CDE90071CDF80880072102F0DB
:102CB000ABFD98ED000AD4ED1A0AA8F58F60A0F5D7
:102CC000896330EE200A0622072184ED1A0A98ED66
:102CD000010AD4ED1B0A30EE200A84ED1B0A98EDA0
:102CE000020AD4ED1C0A30EE200A84ED1C0A98ED8D
:102CF000030AD4ED1D0A30EE200A84ED1D0A98ED7A
:102D0000040AD4ED1E0A30EE200A84ED1E0A98ED66
:102D1000050AD4ED1F0A30EE200A84ED1F0A98ED53
:102D2000060AD5ED000A30EE200A85ED000A00976C
:102D3000CDE9016000F50C7002F066FDA8F5D072D7
:102D40000723A2F5367104F52E70009602F03FFDC0
:102D500004F1A0000096CDE9016008F11C030722F0
:102D60001146A3F5DE7002F04FFD94ED1A0AD4ED82
:102D70001A0A94ED1B1A20EE200AD4ED1B0A00EE6D
:102D8000810AD4ED1C0A94ED1C1A00EE810AD4EDE0
:102D90001D0A94ED1D1A00EE810AFFF78DFAD4ED9D
:102DA0001A0A60EE800AC4ED1A0AD4ED1B0A60EE1E
:102DB000800AC4ED1B0AD4ED1C0A60EE800AC4ED43
:102DC0001C0AD4ED1D0A20EE800A84ED1D0A04B011
:102DD000BDEC108B0AB0BDE8F08110B5D1ED050A4D
:102DE00004469FEDAA0A60EE800ADFEDA91A91ED74
:102DF000084AD1ED073A80EEA11AD1ED040A91ED0F
:102E0000063AD1ED022A20EE802AC2EE210A91ED87
:102E1000032A22EE002A82EE210A91ED012AD1ED49
:102E2000001AFFF718FB9B4890ED1A0A84ED000A80
:102E300090ED1B0A84ED010A90ED1C0A84ED020A54
:102E400090ED1D0A84ED030A10BD30B504462DED4A
:102E5000088B85B068469049FFF7BFFF9DED019A4A
:102E6000DDED029AF7EE00AA69EE090AB0EE00AABB
:102E7000B0EE6A0A49EEA90A00EECA0A10EE100A7C
:102E800003F06CF99DED000ADDED030A41EC180B2F
:102E900020EE090A09EEA00A20EE0A0A10EE100A36
:102EA00003F05CF941EC100BB0EE481AF0EE681A32
:102EB00003F076FE9FED799B51EC100B53EC192B30
:102EC00003F02EF89FED771B53EC112B03F09AF8CB
:102ED00003F070F900EE100A6E4D84ED000A85EDE6
:102EE000180A9DED000ADDED020A9DED011A20EEA3
:102EF000200ADDED030A00EEC10A20EE0A0AFFF700
:102F00007FFADFED630A60EE200A9FED681A80EE1B
:102F1000810A84ED010A85ED170A9DED02BAB8EE2B
:102F2000000ADDED03BA2BEE000A6BEE8A0A20EEF2
:102F30000B0A00EEEB0A30EE2A0A10EE100A03F03C
:102F40000DF99DED010ADDED000A41EC180B20EEB4
:102F50000A0A60EE8A0A20EE0B0A00EEAB0A10EEB7
:102F6000100A03F0FBF841EC100BB0EE481AF0EE3B
:102F7000681A03F015FE53EC192B51EC100B02F0FC
:102F8000CFFF9FED4B1B53EC112B03F03BF803F0ED
:102F900011F900EE100A84ED020A85ED190A05B058
:102FA000BDEC088B30BD30B53A4C2DED060B2DED48
:102FB000048B89B094ED130AD4ED130A20EE200A95
:102FC0008DED020A94ED130AD4ED140A20EE200AC6
:102FD0008DED040A94ED130AD4ED150A20EE200AB3
:102FE0008DED070A94ED130AD4ED160A20EE200A9F
:102FF0008DED000A94ED140AD4ED140A20EE200A97
:103000008DED030A94ED140AD4ED150A20EE200A82
:103010008DED000A94ED140AD4ED160A20EE200A74
:103020008DED060A94ED150AD4ED150A20EE200A5E
:103030008DED000A94ED150AD4ED160A20EE200A53
:103040008DED050A94ED160AD4ED160A20EE200A3D
:103050008DED080A9DED100ADDED110A20EE000A43
:1030600000EEA00ADDED120A00EEA00AFFF724F937
:103070008DED010A9DED100ADDED010A20EE200A1A
:103080008DED100A18E00000BC0D0020DB0F494058
:1030900000003443C800002054120020000000004B
:1030A0000080664000000060FB210940DB0F49C042
:1030B00000000060FB2109C09DED110A04F18005AC
:1030C00020EE200A8DED110A9DED120A20EE200A55
:1030D0008DED120A9DED060ADDED070A70EE600A1D
:1030E000B0EE000A60EE800ACDED060ADDED040ABE
:1030F0009DED051A70EE810A20EE800A8DED040A1E
:103100009DED020ADDED030A30EE600ADDED000AF6
:1031100030EE600ADDED080A30EE200A8DED010A7E
:103120009DED110ADDED010A9DED041A20EE200A45
:10313000DDED120A00EEC10A8DED000AB0EE600A64
:10314000DDED060A9DED011A20EE200ADDED100AE4
:1031500000EEC10A8DED010AB0EE600ADDED040A51
:103160009DED061A20EE200ADDED110A00EEC10ADF
:103170008DED020A9DED000AB5EEC00AF1EE10FADF
:103180007ED09DED010AB5EEC00AF1EE10FA77D0BF
:103190009DED020AB5EEC00AF1EE10FA70D09DED79
:1031A000000A9FEDFE9A20EE090A10EE100A02F0C6
:1031B000D5FF95ED041B53EC112B02F0B1FE94EDFD
:1031C0000C0A41EC180B10EE100A02F0C7FF53EC8A
:1031D000182B02F0FEFD02F0EDFF00EE100A84ED68
:1031E0000C0A9DED010A20EE090A10EE100A02F009
:1031F000B5FF95ED041B53EC112B02F091FE94EDFD
:103200000D0A41EC180B10EE100A02F0A7FF53EC68
:10321000182B02F0DEFD02F0CDFF00EE100A84ED67
:103220000D0A9DED020A20EE090A10EE100A02F0C6
:1032300095FF95ED041B53EC112B02F071FE94EDFC
:103240000E0A41EC180B10EE100A02F087FF53EC47
:10325000182B02F0BEFD02F0ADFF00EE100A84ED67
:103260000E0A9DED0D0ADDED000A30EE200AD4EDC8
:103270000C0A30EE200A8DED0D0A9DED0E0A00E0DD
:1032800015E0DDED010A30EE200AD4ED0D0A30EE36
:10329000200A8DED0E0A9DED0F0ADDED020A30EEDB
:1032A000200AD4ED0E0A30EE200A8DED0F0A94EDBF
:1032B000140ADDED0D0A9DED0E1A20EEC00AD4EDC4
:1032C000150A00EEC10AD4ED160A9DED0F1A00EEA4
:1032D000C10A10EE100A02F041FF95ED041B53ECF9
:1032E000112B02F01DFE94ED130A41EC180B10EEA9
:1032F000100A02F033FF53EC182B02F06AFD02F0C3
:1033000059FF069094ED130ADDED0D0A9DED0F1A9D
:1033100020EE200AD4ED150A00EE810AD4ED160A3B
:103320009DED0E1A00EEC10A10EE100A02F016FF13
:1033300095ED041B53EC112B02F0F2FD94ED140AF1
:1033400041EC180B10EE100A02F008FF53EC182B9A
:1033500002F03FFD02F02EFF049094ED130ADDED24
:103360000E0A9DED0F1A20EE200AD4ED140A00EE8D
:10337000C10AD4ED160A9DED0D1A00EE810A10EE79
:10338000100A02F0EBFE95ED041B53EC112B02F03A
:10339000C7FD94ED150A41EC180B10EE100A02F06F
:1033A000DDFE53EC182B02F014FD02F003FF029037
:1033B00094ED130ADDED0F0A9DED0E1A20EE200AA2
:1033C000D4ED140A00EE810AD4ED150A9DED0D1A14
:1033D00000EEC10A10EE100A02F0C0FE95ED041BCB
:1033E00053EC112B02F09CFD94ED160A41EC180BE6
:1033F00010EE100A02F0B2FE53EC182B02F0E9FCBA
:1034000002F0D8FE00909DED060ADDED040A01EE03
:10341000100A20EE000A00EEA00ADDED020A00EE1E
:10342000A00A00EE900A00EE810AFEF745FF8DED3E
:10343000010A9DED060ADDED010A20EE200A84ED69
:10344000130A9DED040A20EE200A84ED140A9DED76
:10345000020A20EE200A84ED150A9DED000A20EEF6
:10346000200A84ED160A09B0BDEC048B06B030BD0D
:1034700030B54B4C2DED0A0B2DED108B87B094ED34
:103480000F0AD4ED0F0A60EE20FA94ED0F0AD4ED86
:10349000100A60EE20AA94ED0F0AD4ED110A20EE76
:1034A00020AA94ED0F0AD4ED120A20EE20FA94ED32
:1034B000100AD4ED100A60EE20EA94ED100AD4ED63
:1034C000110A20EE20EA94ED100AD4ED120A60EE03
:1034D000209A94ED110AD4ED110A20EE209A94ED71
:1034E000110AD4ED120A60EE208A94ED120AD4ED8E
:1034F000120A20EE208A9DED1A0ADDED1B0A20EE4D
:10350000000A00EEA00ADDED1C0A00EEA00A10EE93
:10351000100A02F023FE41EC100B04F029FB51ECE1
:10352000100B02F047FE00EE100ADFED1E0A0090BD
:1035300020EE200ADFED1C0A20EE200A8DED000AA5
:10354000D4ED000A30EE600A10EE100A02F006FE1A
:1035500004F180059FED15DB95ED040B41EC1C0B90
:1035600053EC1D2B51EC100B02F0DAFC9FED111BFC
:1035700053EC112B02F02DFC95ED040B41EC1B0BD1
:1035800053EC1D2B51EC100B02F0CAFC53EC1B2B1F
:1035900002F038FD53EC1C2B10E00000CDCC4C3E6B
:1035A000C800002000008038CDCC1C410000000085
:1035B0000000004000000060204C803F02F0B0FCA2
:1035C00094ED000A41EC1B0B10EE100A02F0C6FD50
:1035D00053EC1B2B02F0FDFB02F0ECFD00EE100A99
:1035E00084ED000A9DED1A0ADDED1B0A20EE000AAB
:1035F00000EEA00ADDED1C0A00EEA00AFEF75CFE5C
:103600008DED010A9DED1A0ADDED010A20EE200A7A
:103610008DED1A0A9DED1B0A20EE200A8DED1B0A86
:103620009DED1C0A20EE200A8DED1C0A9DED1D0A61
:10363000DDED1E0A20EE000A00EEA00ADDED1F0AF5
:1036400000EEA00AFEF738FE8DED010A9DED1D0A81
:10365000DDED010AF6EE002AB0EE00BA20EE200AF7
:103660003EEE4FCA39EE8A2A8DED1D0A9DED1E0AE7
:1036700079EECABA20EE200A8DED1E0A9DED1F0AD2
:1036800020EE200A72EEC90A8DED1F0A9DED1D0A7B
:1036900070EEC8CADDED1E0A20EE0B0A20EE8B1A72
:1036A000DDED1F0A60EE2C1A60EE8B0A41EE0C1A5B
:1036B00040EE821ACDED001A7EEE0F1A20EE212A7E
:1036C00072EEEE1A20EE2B0A71EEC82A31EEC9DA3C
:1036D00001EE222A78EEEA2A00EEA22A8DED012AD6
:1036E00038EEAA2A01EE020A00EE8D0A8DED020ADA
:1036F0009DED000ADDED010A20EE000A00EEA00AB1
:1037000010EE100A02F02AFD41EC100B04F030FA22
:1037100051EC100B02F04EFD00909DED020A3AEEC6
:10372000A81A8DED040A2BEE8B0A8DED020A21EE0C
:103730000B0A8DED030A3FEEEE0A30EE490A30EE39
:10374000080A8DED010A00EE100ADDED040A20EEF4
:103750000B0A60EE8B0A60EE2C1A40EEAB1ACDED30
:10376000041A60EE0C1A40EE811A3AEE291A20EE85
:10377000010ACDED051A00EE8D0A8DED060A9DEDCC
:103780001B0ADDED010A9DED031A60EE200A9DED96
:103790001C0A40EE410A9DED1E0A9DED061A20EE20
:1037A000010A9DED1F1A01EE610A30EE800A8DEDCF
:1037B000000A9DED1C0ADDED020A9DED011ADDED0A
:1037C000061A20EE200ADDED1A0A00EEC10ADDED30
:1037D0001F0A9DED041A60EE810A9DED1D1A41EE4F
:1037E000610A30EE200A8DED010A9DED1A0ADDED29
:1037F000030A9DED021ADDED041A20EE200ADDED2C
:103800001B0A00EEC10ADDED1D0A9DED051A60EEF2
:10381000810A9DED1E1A41EE610A30EE200A8DEDFF
:10382000020A9DED000AB5EEC00AF1EE10FA7CD056
:103830009DED010AB5EEC00AF1EE10FA75D09DEDCE
:10384000020AB5EEC00AF1EE10FA6ED09DED000A44
:103850009FEDFE9A20EE090A10EE100A02F07EFC9F
:1038600095ED041B53EC112B02F05AFB94ED090A61
:1038700041EC180B10EE100A02F070FC53EC182B00
:1038800002F0A7FA02F096FC00EE100A84ED090A95
:103890009DED010A20EE090A10EE100A02F05EFC0E
:1038A00095ED041B53EC112B02F03AFB94ED0A0A40
:1038B00041EC180B10EE100A02F050FC53EC182BE0
:1038C00002F087FA02F076FC00EE100A84ED0A0A94
:1038D0009DED020A20EE090A10EE100A02F03EFCED
:1038E00095ED041B53EC112B02F01AFB94ED0B0A1F
:1038F00041EC180B10EE100A02F030FC53EC182BC0
:1039000002F067FA02F056FC00EE100A84ED0B0A92
:10391000D4ED090A9DED001AB0EE080A41EE000A46
:103920009DED171A70EE810A00E019E0CDED170A3F
:10393000D4ED0A0A9DED011A41EE000A9DED181A18
:1039400070EE810ACDED180AD4ED0B0A9DED021A36
:1039500041EE000A9DED190A30EE800A8DED190A3C
:1039600094ED100ADDED170A9DED181A20EEC00A3D
:10397000D4ED110A00EEC10AD4ED120A9DED191A18
:1039800000EEC10A10EE100A02F0E8FB95ED041BF0
:1039900053EC112B02F0C4FA94ED0F0A41EC180B12
:1039A00010EE100A02F0DAFB53EC182B02F011FAB9
:1039B00002F000FC069094ED0F0ADDED170A9DED74
:1039C000191A20EE200AD4ED110A00EE810AD4ED76
:1039D000120A9DED181A00EEC10A10EE100A02F04C
:1039E000BDFB95ED041B53EC112B02F099FA94EDFD
:1039F000100A41EC180B10EE100A02F0AFFB53EC6A
:103A0000182B02F0E6F902F0D5FB049094ED0F0AB2
:103A1000DDED180A9DED191A20EE200AD4ED100AEA
:103A200000EEC10AD4ED120A9DED171A00EE810ACC
:103A300010EE100A02F092FB95ED041B53EC112BD3
:103A400002F06EFA94ED110A41EC180B10EE100A18
:103A500002F084FB53EC182B02F0BBF902F0AAFB36
:103A6000029094ED0F0ADDED190A9DED181A20EE73
:103A7000200AD4ED100A00EE810AD4ED110A9DED62
:103A8000171A00EEC10A10EE100A02F067FB95ED5E
:103A9000041B53EC112B02F043FA94ED120A41EC93
:103AA000180B10EE100A02F059FB53EC182B02F021
:103AB00090F902F07FFB00909DED060ADDED040A0F
:103AC00001EE100A20EE000A00EEA00ADDED020A67
:103AD00000EEA00A00EE900A00EE810AFEF7ECFB71
:103AE0008DED010A9DED060ADDED010A20EE200AAA
:103AF00084ED0F0A9DED040A20EE200A84ED100AE1
:103B00009DED020A20EE200A84ED110A9DED000AC7
:103B100020EE200A84ED120A07B0BDEC108B0AB02B
:103B200030BD70B50C462DED028B054691ED050AB2
:103B30009FED478A20EE080ADFED468A91ED084A9C
:103B4000D1ED073A80EE281A91ED040A91ED063A7C
:103B5000D4ED022A20EE080A94ED012AC0EE280ACC
:103B600091ED030A60EE081A81EEA80AD4ED001A5E
:103B7000FFF77EFC94ED050AD4ED022A94ED012AAC
:103B800020EE080A80EE281A94ED040A20EE080AB6
:103B9000C0EE280A94ED030A60EE081A81EEA80A26
:103BA000D4ED001AFFF7FFF92B4890ED130A85EDCD
:103BB000000A90ED140A85ED010A90ED150A85EDD5
:103BC000020A90ED160A85ED030ABDEC028B70BD6A
:103BD00070B5224905462DED088BA1F6C830FFF7D8
:103BE000A0FF1F4CF7EE00AAB0EE00AA94ED019AD8
:103BF000D4ED029AB0EE6A0A69EE090A49EEA90A02
:103C000000EECA0A10EE100A02F0A8FA94ED000ABB
:103C1000D4ED030A41EC180B20EE090A09EEA00AC4
:103C200020EE0A0A10EE100A02F098FA41EC100B8E
:103C3000B0EE481AF0EE681A02F0B2FF9FED099B51
:103C400051EC100B53EC192B10E000008FC2F53C27
:103C5000DB0F494000003443C8000020541200200C
:103C60008C060020000000000080664002F058F939
:103C70009FEDFE1B53EC112B02F0C4F902F09AFAEF
:103C800000EE100AFB4E85ED000A86ED180A94ED51
:103C9000000AD4ED020A94ED011A20EE200AD4EDB8
:103CA000030A00EEC10A20EE0A0AFEF7A9FB5FED47
:103CB000170A60EE200A9FEDF01A80EE810A85ED6A
:103CC000010A86ED170A94ED02BAB8EE000AD4EDA7
:103CD00003BA2BEE000A6BEE8A0A20EE0B0A00EE06
:103CE000EB0A30EE2A0A10EE100A02F037FA94EDD1
:103CF000010AD4ED000A41EC180B20EE0A0A60EE2E
:103D00008A0A20EE0B0A00EEAB0A10EE100A02F04F
:103D100025FA41EC100BB0EE481AF0EE681A02F0EA
:103D20003FFF53EC192B51EC100B02F0F9F89FED0B
:103D3000D31B53EC112B02F065F902F03BFA00EEB5
:103D4000100A85ED020A86ED190ABDEC088B70BDDC
:103D5000B0EE002A21EE021A9FEDCA2AF7EE002AE1
:103D600021EE022A82EE821A31EE212A81EE821A97
:103D700070EE601AB0EE600A01EE210A70472DE97C
:103D8000F04104462DED108B0F46BF48B94DB94E9A
:103D900090ED000A803585ED010A90ED010A85ED70
:103DA000020A90ED020A0C3885ED030AB0F90610FC
:103DB000D6ED040A00EE101AB0F90810B0F90A00A6
:103DC000B8EEC00A70EE608A00EE101AD6ED050A51
:103DD000B8EEC00A30EE608A00EE100AD6ED060A90
:103DE000B8EEC00A30EE609A95ED060B51EC100B60
:103DF00002F0E0F901EE900AB2EE041AD6ED010AE3
:103E0000B0EE680AFFF7A4FF86ED010A95ED060BF8
:103E100051EC100B02F0CEF901EE900AB2EE041A4A
:103E2000D6ED020AB0EE480AFFF792FF86ED020ACD
:103E300095ED060B51EC100B02F0BCF901EE900A67
:103E4000B2EE041AD6ED030AB0EE490AFFF780FF7E
:103E5000B0EE40CA86ED03CAD6ED010A9FED8B1A7B
:103E600060EE811A9FED8A0AD7ED002A81EE802A42
:103E7000DFED881A10EE900A88EE80FA02EEA12A91
:103E800087ED002AD6ED02CA6CEE812AC8EE00FA50
:103E900082EE802AD7ED012A02EEA12A87ED012ABF
:103EA0002CEE012A82EE001A97ED022A02EE211A68
:103EB00087ED021A02F052F995ED061B53EC112B17
:103EC00002F02EF89FED748B53EC182B02F028F8BB
:103ED0009FED739B53EC192B02F094F841EC1D0BF2
:103EE000206802F03BF953EC1D2B01F072FF02F049
:103EF00061F920601CEE900A02F030F995ED061B86
:103F000053EC112B02F00CF853EC182B02F008F8CC
:103F100053EC192B02F076F841EC1D0B606802F0AF
:103F20001DF953EC1D2B01F054FF02F043F96060C2
:103F30001CEE100A02F012F995ED061B53EC112B42
:103F400001F0EEFF53EC182B01F0EAFF53EC192BB4
:103F500002F058F841EC1D0BA06802F0FFF853EC9A
:103F60001D2B01F036FF02F025F9A0601CEE100AAF
:103F700002F0F4F895ED061B53EC112B01F0D0FF85
:103F800053EC182B01F0CCFF53EC192B02F03AF84C
:103F90009FED36DB53EC1D2B01F0C2FF1FEDCFEB85
:103FA00053EC1E2B02F02EF841EC100B03F07CFDBD
:103FB000B0EE40CAF0EE60CA206802F0CFF853ECD1
:103FC0001C2B01F0ADFF41EC1C0B606802F0C6F841
:103FD00053EC1C2B01F09EFF02F0ECF86060F068DF
:103FE00002F0BCF895ED061B53EC112B01F098FF85
:103FF00053EC182B01F094FF53EC192B02F002F84C
:1040000053EC1D2B01F08CFF53EC1E2B01F0FAFF3B
:1040100041EC100B03F048FDB0EE408AF0EE608AF0
:10402000606802F09BF853EC182B01F079FF41EC2B
:10403000180B206802F092F853EC182B01F0C9FE1F
:1040400002F0B8F8206095ED010A60EE000A95EDE7
:10405000020A40EE000A95ED030A40EE000A10EE57
:10406000900A02F07BF841EC100B1DE000000060AC
:10407000FB210940C8000020DB0F49C000000060A0
:10408000FB2109C0F90F4940541200209A99193EAA
:10409000333383419A99593F0000000000409F400C
:1040A00000000000C0FFDF4003F062FD51EC100B88
:1040B00002F080F895ED010A08EE100AF0EEC00A51
:1040C000F4EEC80AF1EE10FA13D2C0EE080A10EEB0
:1040D000900A02F043F841EC100B02F045FA9FED14
:1040E000FE1B51EC100B53EC112B01F019FF41ECAE
:1040F0001B0B95ED020AF0EEC00AF4EEC80AF1EED1
:1041000010FA13D2C0EE080A10EE900A02F026F858
:1041100041EC100B02F028FA9FEDF11B51EC100B53
:1041200053EC112B01F0FCFE41EC1A0B95ED060B44
:1041300051EC100B02F03EF808EE100A51EC1A0B8D
:1041400002F038F800EE100AB0EE481AF0EE4F0A0E
:1041500001F028FA10EE100A02F000F895ED060BB7
:1041600041EC180B51EC100B02F024F809EE100A88
:1041700051EC1B0B02F01EF800EE100AB0EE491ACB
:10418000F0EE6F0A01F06DFA10EE100A01F0E6FF92
:104190009FEDD5AB53EC1A2B01F0C2FE41EC190B8D
:1041A00094ED010A9FEDD2BA20EE0B0A10EE100A30
:1041B00001F0D4FF53EC192B01F00BFE01F0FAFFD4
:1041C000606053EC1A2B51EC180B01F0A9FE94ED32
:1041D000000A41EC180B20EE0B0A10EE100A01F059
:1041E000BDFF53EC182B01F0F4FD01F0E3FF20605C
:1041F000BDEC108BBDE8F0812DE9F04781461C46EF
:1042000090460D46BB48FEF7ACF8BB480068BB4E75
:104210003062306AF16906F180078842306AF169DC
:104220000AD2C943084400EE100AB8EE400A10EE64
:10423000100A01F093FF02E0401A01F063FF41EC25
:10424000100B87ED060B9FEDAE0B53EC102B97ED8B
:10425000060B51EC100B01F063FE41EC100B87EDE7
:10426000060B9FEDA90B53EC102B97ED060B51ECB1
:10427000100B01F055FE41EC100B87ED040B306A7A
:10428000F06141464846FFF77AFD2846FFF7A0FC5B
:1042900095ED010A2046B1EE400A85ED010A95ED43
:1042A000020AB1EE400A85ED020AFEF7CEFD94ED5A
:1042B000010AB1EE400A84ED010A94ED020AB1EE62
:1042C000400A84ED020ABDE8F08730B58B4CF7EE6A
:1042D000000A2DED088B95B0C4ED0F0A9FED8C0AF6
:1042E000002584ED100A84ED110A84ED120AC4ED54
:1042F000130A84ED140A84ED150A84ED160A84ED80
:10430000090A84ED0A0A84ED0B0A84ED0C0A84ED97
:104310000D0A84ED0E0A0CA8FEF723F89DED0C0A99
:10432000DDED050A6D1CC82D30EE200A8DED050A65
:104330009DED0D0ADDED030A30EE200A8DED030A36
:104340009DED0E0ADDED010A30EE200A8DED010A29
:104350009DED120ADDED0B0A30EE200A8DED0B0A01
:104360009DED130ADDED090A30EE200A8DED090AF4
:104370009DED140ADDED070A30EE200A8DED070AE7
:10438000C9DBDDED050A9FED630A80EE801A8DED35
:10439000051ADDED030A80EE801A8DED031ADDEDBE
:1043A000010A80EE801A8DED011ADDED0B0A80EE18
:1043B000801A8DED0B1ADDED090A80EE801A8DED65
:1043C000091ADDED070A80EE801A8DED071A9DEDC2
:1043D000030ADDED010A20EE000A00EEA00AFDF757
:1043E0006BFFDDED050A20EE200A8DED000A10EED0
:1043F000100A01F0B3FE41EC100B02F065FA9FEDDC
:10440000468B51EC100B53EC182B01F089FD01F099
:10441000D1FE02909DED050ADDED010A20EE000AB5
:1044200000EEA00AFDF748FFDDED030A20EE200AAA
:104430008DED000A10EE100A01F090FE41EC100B19
:1044400002F042FA53EC182B51EC100B01F068FD0E
:1044500001F0B0FE009001F081FE41EC100B03F082
:1044600023FBB0EE408AF0EE608A079801F076FEFA
:1044700053EC182B01F054FD41EC180B009801F09F
:104480006DFE41EC100B02F083FCB0EE409AF0EEB2
:10449000609A099801F062FE53EC192B01F040FD7F
:1044A00053EC182B01F095FC01F084FE019002986A
:1044B00001F054FE41EC100B03F0F6FAB0EE408A26
:1044C000F0EE608A009801F049FE41EC100B02F01A
:1044D0005FFCB0EE409A23E000000060E3A54CC012
:1044E00000000060E3A54C40000000A09999993FAE
:1044F0009A99793F54120020240C0040C8000020F3
:10450000000000A0F7C6B03E000000000000E03F41
:1045100000000000000048436666666666A64C40E0
:10452000F0EE609A079801F019FE53EC192B01F098
:10453000F7FC53EC182B01F0F3FC41EC190B02983B
:1045400001F00CFE41EC100B03F0AEFAB0EE40AA05
:10455000F0EE60AA009801F001FE41EC100B03F0B0
:10456000A3FAB0EE408AF0EE608A099801F0F6FDF9
:1045700053EC182B01F0D4FC53EC1A2B01F0D0FCB7
:1045800041EC1A0B029801F0E9FD41EC100B02F02E
:10459000FFFBB0EE408AF0EE608A0B9801F0DEFD82
:1045A00053EC182B01F0BCFC53EC1A2B01F011FC5E
:1045B00053EC192B01F0AEFC01F0FCFD039001F06F
:1045C000CDFD41EC180B019801F0C8FD41EC100B3A
:1045D000B0EE481AF0EE681A02F0E2FA51EC100B55
:1045E00001F0E8FD00EE100AB6EE008A019020EE20
:1045F000080A10EE100A01F0B1FD41EC100B03F0B7
:1046000053FAB0EE40AA9DED020AF0EE60AA20EE49
:10461000080A10EE100A01F0A1FD41EC100B03F0A6
:1046200043FAB0EE409A9DED000AF0EE609A20EE5B
:10463000080A10EE100A01F091FD41EC100B03F096
:1046400033FA53EC192B51EC100B01F069FC53ECCD
:104650001A2B01F065FC9DED010A41EC1B0B20EECD
:10466000080A10EE100A01F079FD41EC100B02F07F
:104670008FFBB0EE40AA9DED020AF0EE60AA20EE9C
:10468000080A10EE100A01F069FD41EC100B02F06F
:104690007FFBB0EE409A9DED000AF0EE609A20EEAE
:1046A000080A10EE100A01F059FD41EC100B02F05F
:1046B0006FFB53EC192B51EC100B01F031FC53EC58
:1046C0001A2B01F02DFC53EC1B2B01F082FB01F0A7
:1046D00071FD00EE100A84ED0F0A9DED010A20EE37
:1046E000080A10EE100A01F039FD41EC100B03F03E
:1046F000DBF9B0EE40AA9DED020AF0EE60AA20EED2
:10470000080A10EE100A01F029FD41EC100B03F02D
:10471000CBF9B0EE409A9DED000AF0EE609A20EEE3
:10472000080A10EE100A01F019FD41EC100B02F01E
:104730002FFB53EC192B51EC100B01F0F1FB53EC58
:104740001A2B01F0EDFB9DED010A41EC1B0B20EE55
:10475000080A10EE100A01F001FD41EC100B02F006
:1047600017FBB0EE40AA9DED020AF0EE60AA20EE23
:10477000080A10EE100A01F0F1FC41EC100B02F0F7
:1047800007FBB0EE409A9DED000AF0EE609A20EE35
:10479000080A10EE100A01F0E1FC41EC100B03F0E6
:1047A00083F953EC192B51EC100B01F0B9FB53ECCE
:1047B0001A2B01F0B5FB53EC1B2B01F0ABFB01F006
:1047C000F9FC00EE100A84ED100A9DED010A20EEBE
:1047D000080A10EE100A01F0C1FC41EC100B03F0C6
:1047E00063F9B0EE40AA9DED020AF0EE60AA20EE59
:1047F000080A10EE100A01F0B1FC41EC100B02F0B7
:10480000C7FAB0EE409A9DED000AF0EE609A20EEF5
:10481000080A10EE100A01F0A1FC41EC100B03F0A5
:1048200043F953EC192B51EC100B01F079FB53ECCD
:104830001A2B01F075FB9DED010A41EC1B0B20EEDC
:10484000080A10EE100A01F089FC41EC100B02F08E
:104850009FFAB0EE40AA9DED020AF0EE60AA20EEAB
:10486000080A10EE100A01F079FC41EC100B03F07D
:104870001BF9B0EE409A9DED000AF0EE609A20EE32
:10488000080A10EE100A01F069FC41EC100B02F06E
:104890007FFA53EC192B51EC100B01F041FB53EC58
:1048A0001A2B01F03DFB53EC1B2B01F092FA01F0A7
:1048B00081FC00EE100A84ED110A9DED010A20EE44
:1048C000080A10EE100A01F049FC41EC100B02F04E
:1048D0005FFAB0EE40AA9DED020AF0EE60AA20EE6B
:1048E000080A10EE100A01F039FC41EC100B03F03D
:1048F000DBF8B0EE409A9DED000AF0EE609A20EEF3
:10490000080A10EE100A01F029FC41EC100B03F02C
:10491000CBF853EC192B51EC100B01F001FB53ECCD
:104920001A2B01F0FDFA9DED010A41EC1B0B20EE64
:10493000080A10EE100A01F011FC41EC100B03F014
:10494000B3F8B0EE40AA9DED020AF0EE60AA20EEA8
:10495000080A10EE100A01F001FC41EC100B02F005
:1049600017FAB0EE409A9DED000AF0EE609A20EE44
:10497000080A10EE100A01F0F1FB41EC100B02F0F6
:1049800007FA53EC192B51EC100B01F0C9FA53EC58
:104990001A2B01F0C5FA53EC1B2B01F0BBFA01F006
:1049A00009FC00EE100A84ED120A15B0BDEC088B6C
:1049B00030BD0C489FED0A0A00F1800180ED1E0A0F
:1049C00080ED1F0A81ED000AF7EE000AC0ED1A0A19
:1049D00080ED1B0A80ED1C0A80ED1D0A7047000067
:1049E00000000000C800002010B500231A4603E0B4
:1049F00030F91240521C23448A42F9DB93FBF1F058
:104A000000B210BD08B50323009002226B21D02014
:104A100000F048FB08BD08B50223009004221B21CA
:104A2000D02000F03FFB08BD08B50223009004220F
:104A30001C21D02000F036FB08BD034606226B2166
:104A4000D02000F059BB10B5D04B01227521D020E9
:104A500000F0CCFACD48007810BD10B5FFF7F3FF99
:104A6000682801D0002010BD012010BD034605229A
:104A70006A21D02000F040BB034601223721D0201C
:104A800000F03ABBF0B5C24EC04CDDE9057C35788C
:104A90000E3424F8150004EB45006D1CC18282859C
:104AA000A0F84230A0F85870A0F86EC00A20B5FBFC
:104AB000F0F100FB115030700A212046FFF794FFFF
:104AC000A0820A2104F11600FFF78EFF60850A21FB
:104AD00004F12C00FFF788FFA4F840000A2104F13C
:104AE0004200FFF781FFA4F856000A2104F15800A4
:104AF000FFF77AFFA4F86C000A2104F16E00FFF7BB
:104B000073FFA4F88200F0BD10B54FF40071A14806
:104B1000FCF7CBF8012800D0002010BD2DE9FC5F88
:104B20001D46DDE90CAB16460F468146FFF7ECFF4C
:104B3000974C40B3954B0E223B21D02000F056FA03
:104B40009249088840BA00B220814A8852BA0FFAC6
:104B500082FCA4F80AC08A8852BA0FFA82F8A4F834
:104B60000C800A8952BA13B2E3814A8952BA12B24E
:104B70002282898949BA09B26182CDE9002142467F
:104B80006146FFF77FFF81480E30828AA9F8002036
:104B9000418D3980B0F840103180B0F856106288ED
:104BA000891A2980B0F86C10A288891AAAF8001016
:104BB000B0F88200E188401AABF80000BDE8FC9F25
:104BC000F0B585B00120FFF71DFF0320FFF723FF9D
:104BD0000020FFF729FF0020FFF72FFF0020FFF73D
:104BE00045FF0120FFF748FF002307223721D0208F
:104BF00000F082FA002306223721D02000F07CFA50
:104C0000012305223721D02000F076FA0123042267
:104C10003721D02000F070FA012300223821D02063
:104C200000F06AFA03200090082307221A21D020FE
:104C300000F038FA002402AD0DF1120704AE322064
:104C4000FDF7A7F9AB1D2A1DA91C02A8CDE9006735
:104C5000FFF764FF641CE4B2142CF0D305B0F0BD80
:104C60004B4B58809980DA8070472DE9F04786B029
:104C7000002747493E463D464F808F80CF803C46C7
:104C80000DF1080A0DF112090DF110086420FDF76D
:104C900080F90AF106039A1E911E02A8CDE9008947
:104CA000FFF73CFF641CE4B2322CEFD30024C82091
:104CB000FDF76FF90AF106039A1E911E02A8CDE9CD
:104CC0000089FFF72BFFBDF90E00641C0744BDF9F6
:104CD0001000E4B20644BDF91200642C0544E6D38A
:104CE000642095FBF0F10AB296FBF0F197FBF0F02F
:104CF00009B200B2FFF7B4FF06B0BDE8F0872DE9B6
:104D0000FF4F85B0002798463E463D463C460DF194
:104D1000080B0DF1120A0DF1100916E00BF1060354
:104D2000CDE9009A9A1E911E02A8FFF7F7FEBDF981
:104D30000E000744BDF910000644BDF912000544F9
:104D40000520FDF754F9641CA4B24445E6D397FB53
:104D5000F8F000EE100A0598B8EEC00A80ED000ADF
:104D600096FBF8F000EE100A0698B8EEC00A80ED47
:104D7000000A95FBF8F000EE100A0798B8EEC00A9A
:104D800080ED000A09B0BDE8F08F00007812002025
:104D900044040020000402401CB501210220FCF75D
:104DA00036F9C020009001208DF8040002208DF813
:104DB000050000208DF806008DF807006946DA48E6
:104DC000FBF722FF1CBD70B5D748016821F44041B4
:104DD0000160016841F480410160D44C0120C4F8B5
:104DE0009C02C4F89802022004F52674FDF7D1F85D
:104DF000002565600220FDF7CCF8256070BDCA482B
:104E000010B5016821F440410160016841F480411E
:104E10000160C64C0020C4F89802C4F89C0202202D
:104E200004F52674FDF7B5F8012020606060BDE848
:104E300010400220FDF7ADB870B5BB4800240168F2
:104E400021F44041016001680160B84D0126C5F8B8
:104E50009C623046FDF79DF8C5F898620BE0641C33
:104E6000E4B2322C07D9FFF7CAFFB1490888401CC9
:104E70000880012070BD0120FDF78BF8D5F81C02D9
:104E80000028ECD1C5F8980270BD70B5A74C00257C
:104E9000C4F89852A448016821F4404101600168B7
:104EA00041F480410160C4F89C52012004F526744D
:104EB000FDF76FF801202060FDF76BF8256070BDED
:104EC00070B59A4C0026C4F898629748016821F49E
:104ED00040410160016841F4804101600125C4F84E
:104EE0009C52284604F52674FDF753F825600120EE
:104EF000FDF74FF8266070BD2DE9F04105468A4860
:104F0000016821F440410160016841F48041016081
:104F1000864E0027C6F898723C464FF00108E80913
:104F2000C6F89C026806050E0120FDF732F8C6F8A7
:104F300098820120FDF72DF8C6F898720120FDF740
:104F400028F8641CE4B2082CE9D3BDE8F0812DE90F
:104F5000F047814674480024016821F44041016013
:104F600001680160714E254627464FF00108C6F8DA
:104F700098720120FDF70DF8C6F898826006040EBD
:104F8000D6F81C0208B1641CE4B20120FDF701F858
:104F90006D1CEDB2082DEAD3B9F1000F02D0FFF776
:104FA00074FF01E0FFF78CFF2046BDE8F08770B585
:104FB0000D460446FFF707FF2046FFF79DFFFFF76A
:104FC0003BFF2846FFF798FFFFF736FFFFF7FBFE92
:104FD000641CE0B2FFF790FFFFF72EFF0020FFF701
:104FE000B6FF0446FFF70BFF204670BD2DE9F041E8
:104FF0001D461646884607460024FFF7E4FE38465D
:10500000FFF77AFFFFF718FF4046FFF775FFFFF73E
:1050100013FFFFF7D8FE7F1CF8B2FFF76DFFFFF715
:105020000BFF771E09E0BC4201D0012000E0002008
:10503000FFF78DFF2855641CE4B2B442F3D3FFF7A9
:10504000DEFE204681E72DE9F0411D4616460F465B
:1050500080460024FFF7B7FE4046FFF74DFFFFF7FD
:10506000EBFE67B13846FFF747FFFFF7E5FE06E0C6
:10507000285DFFF741FFFFF7DFFE641CE4B2B44296
:10508000F6D3FFF7BCFE01205FE710B51446FFF72B
:105090008EFF2070012010BD07B502AB0122FFF783
:1050A000D2FF0EBD2DE9F84314461E460D4680463C
:1050B0006A46089FFFF7E9FF00281BD0621CFF200B
:1050C00000FA02F1C4F108023244521ED0400143FA
:1050D000C6F108008740FAB2C4F10700C2409DF84B
:1050E0000000084010438DF80000C2B22946404637
:1050F000FFF7D2FFBDE8F883F8B515461C460E460B
:1051000007466A46FFF7C1FF01209DF80010A8403E
:105110000CB1014300E08143CAB28DF80020314652
:105120003846FFF7B9FFF8BD000402400080404256
:105130005804002008B501466B460222EE20FFF716
:1051400055FF9DF800009DF8011041EA002008BDC0
:1051500070B50024FE4EA22505EB4400C0B2FFF757
:10516000E9FF26F81400641CE4B2062CF4D370BDE9
:10517000F84909280AD2DFE800F0050907090B09F8
:105180000D090F00012200E002220A7048707047EA
:105190000322FAE70522F8E70A22F6E70246002191
:1051A000EE20FFF779BF1E20F8E710B51E20FFF7AD
:1051B000F5FF0820FFF7DCFF6420FCF718FFBDE8CF
:1051C0001040C5E710B553EC112B51EC100B00F05B
:1051D00019FF41EC100B9FEDE01B01F03DFE9FED30
:1051E000E01B51EC100B53EC112B00F096FE9FEDE1
:1051F000DE1B53EC112B00F093FE41EC100B10BDA5
:105200002DE9F14FD348D24E4FF00009D0F818B035
:1052100031894069494200EB0127F188FC17A1FB65
:10522000070309FB073201FB0421A24680224B46FB
:1052300000F09EFD7288130C120410EB020841EB83
:105240000305B188A1FB070309FB073201FB042119
:105250004FF48072002300F08BFD3288530CD20390
:105260008618009841EB0304012855D1B848002363
:105270004189A1FB070C09FB07C201FB0A214FF47E
:10528000000200F075FD4FF4FA614018B14A4FF08A
:105290000001B0F5FA6FC2E90811C2E90A1111DA8A
:1052A000A0F5FA61494301EB810101EBD1735B1079
:1052B000DF17C2E90837CB1701EB93718910CB17C1
:1052C000C2E90A1340F2DC51C8421ADA00F2DC509B
:1052D0004043D2E9087CC0EBC001CB17C91943EBAE
:1052E0000C03C2E9081300EB400101EBC00000EB26
:1052F000D070D2E90A374010C117C0187941C2E90D
:105300000A01D2E90801B8EB000865EB0105D2E912
:105310000A01361A64EB0104ABFB060309FB0632F3
:105320000BFB04214FF40012002300F021FDB0EB31
:10533000080061EB05014FF40042002300F018FD66
:10534000BDE8F88F08B501466B460322EE20FFF753
:105350004DFE9DF800209DF801009DF802101204FA
:1053600042EA0020084308BD0020EBE72DE9F041A8
:105370007749784D07460A896869524200EB022452
:1053800049890026A1FB040306FB0433E21701FB55
:1053900002314FF40002334600F0EAFC4FF4FA61A8
:1053A0004018AE60012F08D1B0F5FA6F05DA6443FA
:1053B000E11704EB5101C90FA960A968401A00F078
:1053C00090FE9FED6B1B53EC112B00F01BFE41EC8C
:1053D000100BBDE8F0810020B4E72DE9F0415D4CF1
:1053E00007462DED068B90460E46634D9FED638B71
:1053F0006068D8B32146012809784CD0022873D0C0
:10540000032830D1084600F07DFE41EC1A0B2069DC
:1054100000F067FE41EC190B286800F073FE53ECB6
:10542000182B00F07DFD53EC192B00F073FD53ECAD
:105430001A2B00F0A7FE16D8FFF796FFA0610020F8
:10544000FFF7DEFE306000F04CFE41EC100B9FEDEC
:105450004D1BFFF7B7FE51EC100B00F0ABFEC8F888
:10546000000000206060BDEC068BB2E7FFE7012082
:105470006060286800F046FE53EC182B00F050FDE9
:1054800000F04DFEE0606078BDEC068B5030C0B29D
:10549000BDE8F04182E6084600F034FE41EC1A0B0C
:1054A000E06800F01EFE41EC190B286800F02AFEAF
:1054B00053EC182B00F034FD53EC192B00F02AFDAF
:1054C00053EC1A2B00F05EFECDD802206060FFF78F
:1054D00082FF60610020FFF749FF51EC100B00F0E4
:1054E00069FE3860BFE7FFE7286800F00BFE53EC69
:1054F000182B00F015FD00F012FE2061607840309E
:10550000C0B2FFF74BFE0320ACE71248407870476B
:1055100010B551EC110B2DED028BB0EE408AF0EE80
:10552000608A9FED110B53EC102B00F06BFD9FED8B
:105530000C1B53EC112B00F0F0FC41EC100B9FED19
:10554000131B01F089FC53EC102B51EC180B21E0DC
:105550000A1300206004002000000060955BC83F33
:10556000000000000000F03F0000000040A5E54002
:105570000000000000005940240C0040FCA9F1D2BA
:105580004D62503F00000000D0BCF840000000C059
:105590001E05154000F036FDBDEC028B41EC100BF2
:1055A00010BD00005F48604900F15002D0ED044A90
:1055B00070EEE40AC0ED0A0AD0ED033AD1ED012AFB
:1055C000D1ED031A41EE203AF0EE620A91ED023A73
:1055D00051EE210A90ED002A41EE612A70EEC30AD5
:1055E00001EE613A30EE822AD1ED000A41EE020A64
:1055F00090ED012A42EE011A90ED021A30EE814A36
:1056000080ED0B4A80EE842A83EE041A30EE634A62
:10561000B0EE630A82ED002AF0EE603A02EE040A70
:1056200042EE603A82ED011A41EE044A80ED0C4AE6
:1056300080ED030A01EE603A41EE621AC0ED044AC1
:10564000C0ED0D0AC0ED0E2AC1ED003AF0EE623A4F
:1056500042EE623AC1ED013A81ED023AC1ED031A20
:1056600070473048304900F15802D0ED094A1031F6
:1056700070EEE40AC0ED0F0AD0ED083AD1ED012A30
:10568000D1ED031A41EE203AF0EE620A91ED023AB2
:1056900051EE210A90ED052A41EE612A70EEC30A0F
:1056A00001EE613A30EE822AD1ED000A41EE020AA3
:1056B00090ED062A42EE011A90ED071A30EE814A6B
:1056C00080ED104A80EE842A83EE041A30EE634A9D
:1056D000B0EE630A82ED002AF0EE603A02EE040AB0
:1056E00042EE603A82ED011A41EE044A80ED114A21
:1056F00080ED080A01EE603A41EE621AC0ED094AF7
:10570000C0ED120AC0ED132AC1ED003AF0EE623A84
:1057100042EE623AC1ED013A81ED023AC1ED031A5F
:1057200070470000900400201813002070B5174D3A
:10573000044680212846FCF7DAFB0028F9D0A1B204
:105740002846FCF743FB204670BD10B50F4C2021C6
:105750002046FCF7CCFB0028F9D02046FCF73AFBAA
:10576000C0B210BD4FF0FF30704770B5084D044611
:1057700080212846FCF7BBFB0028F9D0A1B2BDE888
:1057800070400248FCF722BBFEE7000000440040E6
:1057900000100140F0B50026059F15E0002410E040
:1057A00006FB074500EB850C641C9CED000A01EB31
:1057B000850C02EB8505DCED000A30EE200A85ED54
:1057C000000ABC42ECD3761C9E42E7D3F0BDF0B594
:1057D0000026059F15E0002410E006FB074500EBBE
:1057E000850C641C9CED000A01EB850C02EB850521
:1057F000DCED000A30EE600A85ED000ABC42ECD315
:10580000761C9E42E7D3F0BD2DE9F0478A46DDE9DC
:105810000979002522E000241DE005FB07419FEDEA
:10582000F80A09EB8106002186ED000A10E005FB6D
:10583000021C00EB8C0C01FB0748DCED000A03EBBB
:10584000880C491C9CED001A00EE810A86ED000AC6
:105850009142ECD3641CBC42DFD36D1C5545DAD3B6
:10586000BDE8F087F0B5002511E000240CE005FB51
:10587000024704FB015600EB870703EB860697ED12
:10588000000A641C86ED000A9442F0D36D1C8D4220
:10589000EBD3F0BD2DE9F0479A46DDE90847814694
:1058A00000239FEDD70A0BE0002006E003FB040570
:1058B00007EB8505401C85ED000AA042F6DB5B1C6A
:1058C0008B42F1DB002520E000231BE005FB0436C2
:1058D000002007EB860612E005FB020809EB880CA6
:1058E00000FB0438DCED000A0AEB880C96ED000A98
:1058F0009CED001A401C00EE810A86ED000A9042E1
:10590000EADB5B1CA342E1DB6D1C8D42DCDBA7E71D
:1059100030B50023B7EE000ADFEDB90A12E003FB51
:1059200001F4002200EB840409E0934204EB8205B9
:1059300002D185ED000A01E0C5ED000A521C8A4241
:10594000F3D35B1C8B42EAD330BD10B590ED000A57
:10595000D0ED030A90ED021A20EE200AD0ED010AE4
:1059600000EEC10A10EE100A00F0F8FB41EC100B3B
:1059700010BD70B50C460546FFF7E7FF51EC100B64
:1059800000F018FC00EE100AB5EEC00AF1EE10FAB5
:1059900001D1012070BDD5ED030A002080EE801AF0
:1059A00084ED001AD5ED020A80EE801AF1EE410A6C
:1059B000C4ED010AD5ED010A80EE801AF1EE410A2C
:1059C000C4ED020AD5ED000A80EE801AB1EE410A5C
:1059D00084ED030A70BD2DE9F04F94B00022EC462F
:1059E00016460AAF15469FED862A13466446B8460A
:1059F00044F8223048F82230521C0A2AF8DB0022F0
:105A0000B3E0F0EE420A14461AE0134615E004FB38
:105A1000013800EB880898ED001AB0EEC11AF4EED8
:105A2000C10AF1EE10FA07D24CF82240F0EE410A1A
:105A300026461D4647F822305B1C8B42E7DB641C80
:105A40008C42E2DBF4EEC00AF1EE10FA03D2002041
:105A500014B0BDE8F08F964214D0002310E006FB8E
:105A6000013802FB013400EB880800EB840498ED58
:105A7000001AD4ED000A84ED001AC8ED000A5B1C80
:105A80008B42ECDB954214D0002310E003FB01585D
:105A900003FB012400EB880800EB840498ED001A56
:105AA000D4ED000A84ED001AC8ED000A5B1C8B429D
:105AB000ECDB02FB012300EB8303B7EE001AD3ED0E
:105AC000000A9946C1EE201AC3ED001A00230EE029
:105AD00093420BD002FB013400EB840499ED001AD1
