:020000040800F2
:10000000D8070020F90800089503000897030008A6
:10001000990300089B0300089D03000800000000EE
:100020000000000000000000000000009F03000826
:10003000A103000800000000A3030008A5030008B6
:100040001309000813090008130900081309000820
:10005000130900081309000813090008C103000868
:100060001309000813090008130900081309000800
:1000700013090008130900081309000813090008F0
:1000800013090008130900081309000813090008E0
:100090001309000813090008130900086304000885
:1000A00013090008130900081309000813090008C0
:1000B00013090008130900081309000813090008B0
:1000C00013090008130900081309000813090008A0
:1000D0001309000813090008230400081309000885
:1000E0001309000813090008130900081309000880
:1000F0001309000813090008130900081309000870
:10010000130900081309000813090008130900085F
:10011000130900081309000813090008130900084F
:10012000130900081309000813090008130900083F
:10013000130900081309000813090008130900082F
:10014000130900081309000813090008130900081F
:10015000130900081309000813090008130900080F
:1001600013090008130900081309000813090008FF
:1001700013090008130900081309000813090008EF
:100180001309000813090008DFF80CD005F05CF82B
:100190000048004735020008D8070020664801687B
:1001A00041F0080101606548802101800021021DA5
:1001B0001180624A24321160604A491E2C3211605B
:1001C0005321121F11805D4A0121143211800188D0
:1001D00041F0010101807047594A10B5A2F11001A8
:1001E000101D04F0B4FA564C183C94ED0E0B51EC73
:1001F000100B04F0AFFE01EE900A94ED011AD4ED5D
:10020000040A94ED060A02F0C0FE84ED040AD4ED5F
:10021000030A9FED4C1A60EE810A9FED4B1A40EEE7
:10022000010AB2EE040AC4ED030A20EE800A84ED4E
:10023000050A10BD2DED028B4FF4C06000F06EFB7F
:10024000A82001F051FEC82001F08FFE00F022FA34
:100250004FF4E13000F0F6FAFFF7A0FF02F00CF8DF
:100260003B489FED3A0A80ED000A3A48B3EE020A95
:1002700080ED000A39489FED380A80ED000A04F04D
:100280004EF9002004F076F904F0FBFD2C4C183CEC
:10029000C4E90C0100F023FA00F096FA4FF47A70EA
:1002A00001F063FE2EA005F00DF89FED340B002049
:1002B00084ED0E0B20804FF49675FFF78DFF042020
:1002C00001F053FE2088401C80B22080A842F4D95F
:1002D00094ED050A194DDFF8AC809FED2B8B84ED72
:1002E000090A4FF470474FF4FA6624353946404600
:1002F00000F0B8FC2649A1F10C0002F05DFEFFF70A
:100300006BFF94ED050AD4ED090A30EE600A84ED26
:10031000080AA06A2968091AB142FBD32968081A99
:1003200004F0C0FD53EC182B04F0CAFCC4E90E0124
:100330002868A062DAE7000040380240000C004064
:1003400018000020AC1C7A3F7F6ABC3C000090C2C1
:100350002401002028010020000000002C010020C2
:100360002051756164636F707465722048656C6CB0
:100370006F20576F726C642120000000FCA9F1D23D
:100380004D62703F000C02408DEDB5A0F7C6B03E47
:100390000C0200207047FEE7FEE7FEE7FEE770472D
:1003A0007047704770475149002001F1140231F83D
:1003B000103022F81030401CC0B20828F7D3704724
:1003C00010B5022000F060FB002828D048490868DA
:1003D000484C2289801A80B2A0800968A16042F24C
:1003E0001071884209D9A078082803D1607808B92B
:1003F000FFF7D9FF0020A0700DE0A0F21B4140F2F2
:100400008332914206D2394AA17822F81100491C60
:10041000A17001E00120607037490220086010BD22
:10042000704710B5354C40F22771204601F027FD8A
:1004300040F22551204601F022FD00280FD0204631
:1004400001F086FC2B4A1178284B28330B44491CB9
:10045000117018701078122801D30020107010BD90
:10046000704710B520202DED028B00F00DFB002809
:1004700039D02021224800F0D6FB1D4900281D4C10
:10048000086805D0E268801A20610868E06027E00B
:10049000E1689FED1C1A401A00EE100AF8EE400ABF
:1004A00080EE810A10EE100A04F028FD9FED161B65
:1004B00053EC112B04F004FC41EC180BA06904F080
:1004C0001DFD9FED131B53EC112B04F0F9FB53ECB6
:1004D000182B04F04EFB04F03DFD6061A061E0616B
:1004E000054920200860BDEC028B10BD18020020D9
:1004F000240C004040000020143C01400044004017
:1005000000100240000068429A9999999999C93F50
:100510009A9999999999E93F0CB50022544900920A
:100520000192086840F4803008604FF4A0430868E6
:1005300000F4003001900098401C0090019810B920
:1005400000989842F3D10868800334D501200190C7
:1005500047484030026842F08052026045480268D5
:1005600042F4404202604248083002680260026879
:1005700042F400420260026842F4A0520260031F8B
:100580003D4A1A600A6842F080720A600A68920165
:10059000FCD53A4940F205720A60016821F0030176
:1005A0000160016841F0020101600168C1F381014D
:1005B0000229FAD10CBD01920CBD314810B5016879
:1005C00041F4700101602A48016841F001010160B5
:1005D000274A00210832116002682A4B1A40026043
:1005E000031D294A1A60026822F480220260204812
:1005F0000C300160FFF790FF21494FF00060803917
:10060000086010BD70B51A4D083528681F4B204989
:1006100010F00C0004D05E10042803D0082803D08A
:100620000B601BE00E6019E0114A121D1068C0F348
:100630008054106800F03F0014B1B6FBF0F001E008
:10064000B3FBF0F013681268C3F388135843C2F386
:100650000142521C5200B0FBF2F0086028680C4ABC
:10066000C0F30310121D105C0A68C2400A6070BD1E
:10067000003802400070004008544007003C02402F
:1006800088ED00E0FFFFF6FE103000240024F400A7
:10069000600000202DE9F0410121082000F075FCE8
:1006A0008D4C4FF470400127206027710025A57103
:1006B00003266671E5712146884800F063FA01213E
:1006C000042000F062FC780320602771A571667138
:1006D000E5712146BDE8F041814800F053BA70B59C
:1006E0000121084600F079FC0121102000F04DFCAA
:1006F00079484FF4D44100240160022101710321A3
:1007000041718471774DC4710146284600F03AFA70
:1007100001220921284600F0A9FA01220B212846CE
:1007200000F0A4FA01220D21284600F09FFA0122D0
:100730000E21284600F09AFA6B48A7216B4D0180E4
:1007400044F61F614160048144800146284600F060
:10075000BFFD654960200C310880012048808C81F4
:1007600004208880CC818C60284600F033FE08216C
:10077000284600F070FF5C4928460C3100F056FE18
:100780000821284600F06DFF574928460C3100F03B
:1007900089FE0821284600F06EFF534928460C3197
:1007A00000F0BAFE0821284600F06BFF0121284620
:1007B00000F0ECFD0121284600F002FE2846BDE8CD
:1007C0007040012101F0EEB870B50121102000F059
:1007D000DCFB0121880300F000FC3F4800250126D6
:1007E0000571C6712221016001463E4800F0CAF938
:1007F0000121042000F0B2FC0521042000F0AEFC31
:10080000354C022008342060257108206071A671E3
:10081000204600F0E9F8202020601020607120467A
:1008200000F0E2F80C3C072020706570A570E670BF
:10083000204600F078F8172020702046BDE8704070
:1008400000F071B82DE9F04180460121480400F024
:10085000BAFB0121084600F098FB1F4802210C2634
:100860000171032106604171002484710125204F2C
:10087000C5710146384600F085F907220221384645
:1008800000F0F4F907220321384600F0EFF916488A
:1008900010380146C0F80080848146810481C480FC
:1008A0008480144C204601F0B8F90B492620091F1A
:1008B00008700A2048708D70CD70084600F033F83B
:1008C000012240F22551204601F0B7FA2046BDE84A
:1008D000F041012101F012BA78000020000C024022
:1008E00000080240001002406402002000000140A5
:1008F0000000024000440040064880470648004788
:10090000FEE7FEE7FEE7FEE7FEE7FEE7FEE7FEE7BF
:10091000FEE7FEE7BB0500088901000828490843F7
:1009200028490860704730B50F23C2780178012547
:10093000FAB1244A126801F1E02102F4E062C2F542
:10094000E062C2F30722C2F10404D3404278A2401D
:1009500084781C401443220181F80024007800F0C0
:100960001F018D404009800000F1E020C0F80051D7
:1009700030BD01F01F0085404809800000F1E020F3
:10098000C0F8805130BD104A114001430D48001F8E
:10099000016070470B4A121D0029116801D0014304
:1009A00000E08143116070474FF0E021042808699E
:1009B00003D020F004000861704740F00400FAE71B
:1009C0000000FA050CED00E080FFFF1F3549002014
:1009D0000860091D0860091D0860091D086031498B
:1009E000314814310860704730B52E4A8379016868
:1009F00053B313688B431360111D0B680468A34342
:100A00000B60017911440B68046823430B60254B8C
:100A1000083319680468A14319601C1D2168056822
:100A2000A94321604179102905D011440A68006862
:100A300002430A6030BD19680268114319602168D9
:100A400000680143216030BD0079104402688A4388
:100A5000026030BD0021016001710C224271817180
:100A60007047104910310A6802430A607047014616
:100A70000C4A0020143212680A4200D0012070474C
:100A800008491431086070470146064A00201432B4
:100A900012680A4200D001207047024914310860F0
:100AA00070470000003C0140FFFF7F00774910B510
:100AB000884206D10121084600F099FA0021012060
:100AC0005BE07349884206D10121022000F08FFAD1
:100AD0000021022051E06F49884206D10121042003
:100AE00000F085FA0021042047E06B49884206D1D6
:100AF0000121082000F07BFA002108203DE0674931
:100B0000884206D10121102000F071FA0021102046
:100B100033E06349884206D10121202000F067FAC2
:100B20000021202029E05F49884206D10121402090
:100B300000F05DFA002140201FE05B49884206D1A9
:100B40000121802000F053FA0021802015E0574950
:100B5000884202D1012184150AE05549884202D118
:100B60000121441504E0534988420AD101210415AA
:100B7000204600F03CFA00212046BDE8104000F07D
:100B800036BA10BDF0B5002201274FF0030C0B68F8
:100B900007FA02F52B40AB422CD1066853000CFA41
:100BA00003F4A64306600E79D0F800E09E4046EAC2
:100BB0000E0606600E79012E01D0022E12D1866833
:100BC000A64386604E79D0F808E09E4046EA0E06BD
:100BD00086604668AE43466045688E799640B6B2F8
:100BE00035434560C568A543C560CC799C40C36862
:100BF0001C43C460521C102AC9D3F0BD4FF6FF71CC
:100C000001600021017141718171C171704708B5A6
:100C100041F480320092C261C1610099C161C16931
:100C2000C069009008BD0246002012690A4200D047
:100C300001207047006980B2704702460020526967
:100C40000A4200D001207047406980B2704701839A
:100C50007047418370470AB10183704741837047F1
:100C60004161704742694A40426170474B07DB0E61
:100C70009A40C90810B500EB8100016A0F249C401E
:100C8000A1430162016A1143016210BD00000240EC
:100C90000004024000080240000C02400010024024
:100CA0000014024000180240001C024000200240D4
:100CB0000024024000280240F848016841F0010188
:100CC0000160F64A0021083211600268F44B1A40B4
:100CD0000260031DF34A1A60F04BF34A84331A6032
:100CE000F04A103A1B1D1A60026822F4802202604A
:100CF000EA480C300160181D01607047E749002286
:100D0000891C0A70087070470246002051090129A9
:100D10000CD002290CD0E1497431096802F01F029D
:100D2000012393400B4200D001207047DB49F4E7D8
:100D3000DA497031F1E718B500204FF4A044009073
:100D40003120FFF7E1FF0099491C0091A14201D039
:100D50000028F5D03120FFF7D7FF002800D0012070
:100D600018BDCE4A116821F0F80141EAC0001060B8
:100D70007047CE4908607047C849002270310A7038
:100D80000A70012802D0042801D10520087070479C
:100D9000C7490860704741EA82115A0810B5C54B2F
:100DA000029C03EB02421143014341EA0460BB4948
:100DB000091D086010BDBD4908667047800140EA02
:100DC0000170B649843108607047B8498866704739
:100DD000800140EA0160B14940EA02708831086050
:100DE0007047B24908677047B049C8647047AB4B59
:100DF00008331A68084322F0EC6210431860704709
:100E0000A64B08331A68084322F078421043186052
:100E10007047A24A0832116821F0030101431160B2
:100E200070479E480830006800F00C0070479B4AED
:100E30000832116821F0F001014311607047974AB0
:100E40000832116821F4E051014311607047934A60
:100E50000832116821F4604141EAC0001060704717
:100E600070B58E4B08331968934C11F00C0104D007
:100E70006610042903D0082903D004601BE0066033
:100E800019E0864A121D1168C1F38055116801F0FE
:100E90003F0115B1B6FBF1F101E0B4FBF1F11468CB
:100EA0001268C4F388146143C2F30142521C520019
:100EB000B1FBF2F1016019680F2202EA11117F4AB9
:100EC000545C0168E14041601C68072505EA9424F0
:100ED000145D21FA04F484601B6805EA5333D25C84
:100EE000D140C16070BDC0F30121032908D16B4B13
:100EF00008331968724A21F4F81102400A431A6053
:100F0000664970310A68C0F30B0002430A607047FB
:100F1000674944390860704765494039086070473F
:100F20006249C1F85C0170475C4A8C321168401E0E
:100F300021F01F01014311607047584A8C3211683B
:100F40006FF0FF0321F4F85103EB00200843106019
:100F50007047524A8C32116821F4401101431160EC
:100F600070474E4A8C32116821F4400101431160F0
:100F700070474A4A8C32116821F4403101431160B4
:100F800070475049C1F8E0017047444A30320029A7
:100F9000116801D0014300E08143116070473F4A6E
:100FA00034320029116801D0014300E0814311600F
:100FB00070473A4A38320029116801D0014300E0F5
:100FC000814311607047354A40320029116801D0D1
:100FD000014300E0814311607047304A44320029E8
:100FE000116801D0014300E08143116070472B4A32
:100FF00010320029116801D0014300E081431160E3
:101000007047264A14320029116801D0014300E0DC
:10101000814311607047214A18320029116801D0BC
:10102000014300E08143116070471C4A20320029CF
:10103000116801D0014300E0814311607047174AF5
:1010400024320029116801D0014300E0814311607E
:101050007047124A50320029116801D0014300E064
:101060008143116070470D4A54320029116801D044
:10107000014300E0814311607047084A583200295B
:10108000116801D0014300E0814311607047034AB9
:1010900060320029116817D0014316E00038024081
:1010A000FFFFF6EA10300024003000200000474225
:1010B000800E47420000FFFF0024F400880000205B
:1010C000FFFCFF0F00104742814311607047194A2F
:1010D0000029116801D0014300E08143116070478D
:1010E00014490C310128086803D020F0080008607A
:1010F000704740F00800FAE70E4A573A0029117885
:1011000001D0014300E0814311707047094810305D
:10111000016841F08071016070470146054A002076
:10112000583A12680A4200D00120704701495639E6
:10113000087070476438024010B501218C032046C6
:10114000FFF77DFF2046BDE810400021FFF777BF85
:1011500014490860704714490862704710B58A073F
:1011600021F003041149120F21440F23D1F808483C
:1011700093409C43C1F80848D1F808389040034395
:10118000C1F8083810BD0849C1F8DC0070470849AB
:10119000086070470349002020310968C90500D55F
:1011A0000120704700380140000027420030014014
:1011B00000042742FE4910B5884206D101210846A5
:1011C000FFF73DFF002101205BE0B0F1804F09D027
:1011D000F84988420DD101210220FFF726FF0021A6
:1011E000022070E001210846FFF71FFF00210120C7
:1011F00069E0F149884206D101210420FFF715FF7B
:10120000002104205FE0ED49884206D10121082039
:10121000FFF70BFF0021082055E0E949884206D17D
:1012200001211020FFF701FF002110204BE0E549CC
:10123000884206D101212020FFF7F7FE002120205F
:1012400041E0E149884206D101210220FFF7F7FE83
:101250000021022015E0DD49884202D101210C0461
:101260000AE0DB49884202D101214C0404E0D9495B
:1012700088420AD101218C042046FFF7E0FE0021BC
:101280002046BDE81040FFF7DABED349884206D1B8
:1012900001214020FFF7C9FE0021402013E0CF4983
:1012A000884206D101218020FFF7BFFE0021802067
:1012B00009E0CB4988420AD1841501212046FFF775
:1012C000B4FE00212046BDE81040FFF7AEBE10BDC1
:1012D00030B50288B64CBC4DA0420DD0A8420BD010
:1012E000B0F1804F08D0B34B984205D0B24B984232
:1012F00002D0B24B984203D122F070034A881A43BD
:10130000AF4B984206D0AF4B984203D022F44073C3
:101310000A891A4302804A68C2620A880285A0428A
:1013200001D0A84201D1897A01860121818230BD94
:101330004FF0FF31416000210180018141808172C5
:101340007047018582827047028822F070020A434A
:101350000280704741627047C1627047406A7047BF
:10136000008D70470029018802D041F0020101E0A0
:1013700021F00201018070470029018802D041F06C
:10138000040101E021F00401018070470029018877
:1013900002D041F0800101E021F08001018070471E
:1013A000028822F00802028002880A430280704705
:1013B000028822F44072028002880A430280704749
:1013C0000029018802D041F0010101E021F0010172
:1013D0000180704730B5028C22F001020284028C39
:1013E0008388048B22F0020224F073050C882C43BE
:1013F0008D8915434A882A436D4DA84202D0724D0B
:10140000A8420DD122F00805CA8923F440732A436B
:1014100022F004058A882A430D8A1D434B8A2B43F8
:101420008380048389684163028430BD70B5028C77
:1014300022F010020284028C8388048B0D8824F42D
:10144000E6464FF6FF7404EA052535438E8922F0FF
:10145000200204EA061616434A8804EA02123243BE
:10146000534EB04202D0584EB04215D122F0800601
:10147000CA8923F4406304EA0212324322F0400690
:101480008A8804EA021232430E8A04EA86061E4360
:101490004B8A04EA8303334383800583896881632D
:1014A000028470BD70B5028C22F480720284028CBA
:1014B0008388848B0D8824F0730425438E894FF62E
:1014C000FF7422F4007204EA062616434A8804EAEE
:1014D00002223243364EB04202D03B4EB04215D1CA
:1014E00022F40066CA8923F4405304EA02223243FC
:1014F00022F480668A8804EA022232430E8A04EAD1
:1015000006161E434B8A04EA031333438380858304
:101510008968C163028470BD70B5028C22F4805268
:101520000284058C8288838B0C8823F4E6464FF670
:10153000FF7303EA0424344325F400568D8903EA3B
:10154000053535434E8803EA06362E43184DA8422A
:1015500002D01D4DA84205D122F480450A8A03EA33
:1015600082122A438280848389680164068470BD64
:10157000002101804180818081608181C18101825F
:101580004182704730B50124058C00F118038C406E
:10159000A543058431B308292CD0091FC1F34E009F
:1015A0001844016848F6FF731940016001681AE0A9
:1015B000000001400004004000080040000C004012
:1015C00000100040001400400004014000400140B1
:1015D000004401400048014000180040001C004049
:1015E0000020004006E04FF6FF7303EA0222114399
:1015F000016030BD03EB510001684FF68F73194055
:1016000001600168F3E74163704781637047C1631C
:10161000704701647047028B22F070020A43028314
:101620007047028B4FF6FF7322F4E04203EA012178
:10163000114301837047828B22F070020A43828338
:101640007047828B4FF6FF7322F4E04203EA0121D8
:10165000114381837047028B22F008020A43028300
:101660007047028B4FF6FF7322F4006203EA0121F8
:10167000114301837047828B22F008020A43828360
:101680007047828B4FF6FF7322F4006203EA012158
:10169000114381837047028B22F004020A430283C4
:1016A0007047028B4FF6FF7322F4806203EA012138
:1016B000114301837047828B22F004020A43828324
:1016C0007047828B4FF6FF7322F4806203EA012198
:1016D000114381837047028B22F080020A43028308
:1016E0007047028B4FF6FF73C2F30E0203EA01212B
:1016F000114301837047828B22F080020A43828368
:101700007047828B4FF6FF73C2F30E0203EA01218A
:10171000114381837047028C22F002020A43028443
:101720007047028C22F008020A4302847047028C40
:101730004FF6FF7322F0200203EA011111430184E6
:101740007047028C4FF6FF7322F0800203EA01110A
:10175000114301847047028C4FF6FF7322F400722C
:1017600003EA0121114301847047028C4FF6FF7395
:1017700022F4006203EA0121114301847047028CC4
:101780004FF6FF7322F4005203EA01311143018442
:10179000704710B50123048C8B409C430484038C58
:1017A0008A401343038410BD10B50423048C8B407E
:1017B0009C430484038C8A401343038410BD828BB2
:1017C00022F440628283828B4FF6FF7303EA012189
:1017D0000A4382837047828B22F00C028283828BC1
:1017E0000A4382837047028B22F440620283028B99
:1017F0004FF6FF7303EA01210A4302837047F0B5F5
:10180000048C24F010040484078B068C4FF6FF74BC
:1018100004EA011527F4734704EA0331394304EA63
:1018200002220A4326F0A001294341F0100102835D
:101830000184F0BD028B22F00C020283028B0A436A
:10184000028370472DE9F0410C460E884988A28832
:10185000238905460EB3042E26D0082E2E8C4FF673
:10186000FF7028D026F480562E84AF8B2E8C00EA91
:10187000022200EA013127F473473A4300EA0330B9
:10188000104326F420420A4342F48051A88329845D
:10189000E1882846BDE8F04191E700F062F9E1886F
:1018A0002846BDE8F041C5E7FFF7A9FFE1882846D3
:1018B000BDE8F04197E726F480762E84AF8B2E8C1E
:1018C00000EA012100EA0310104327F0F307384330
:1018D00026F420620A4342F48071A8832984E188B7
:1018E0002846BDE8F04176E70021018041800122D1
:1018F0008280C180018170472DE9F0410C460026AD
:1019000049880746012501B90226A288012A00D18B
:101910000225208823890028384610D0FFF76FFF62
:10192000E1883846FFF75FFF23892A46314638466B
:1019300000F017F9E1883846BDE8F0417AE700F099
:1019400010F9E1883846FFF775FF23892A463146AA
:101950003846FFF754FFE1883846BDE8F04142E7DA
:10196000406B7047806B7047C06B7047006C70476E
:1019700010B50A884B88CC881A438B8823431A43B6
:101980000B891A434B8989891A430A43A0F84420DA
:1019900010BD0021018041808180C1800181418191
:1019A00081817047002930F8441F02D041F4004182
:1019B00001E0C1F30E01018070470029818802D047
:1019C00041F0040101E021F0040181807047002909
:1019D000818802D041F0010101E021F00101818004
:1019E0007047002A828901D00A4300E08A4382813D
:1019F00070478182704702460020128A0A4200D056
:101A000001207047C9430182704702460020138AB3
:101A100092890B4202EA010202D0002A00D0012082
:101A20007047C943018270471143A0F848107047BE
:101A3000002A828901D00A4300E08A4382817047EC
:101A40000029818802D041F0080101E021F008015D
:101A500081807047018921F0070101817047028967
:101A600022F070020A430281704700B50346FFF777
:101A7000F6FF188940F00700188100BD70B51646C2
:101A80000D46602904464FF0010231460AD000F0AD
:101A900068F829462046FFF7E2FF208940F007005A
:101AA000208170BDFFF7ABFEF3E730B504894FF638
:101AB000FF7505EA03231343E4B20B432343038179
:101AC00030BD10B50446FFF7F0FF208940F07700E5
:101AD000208110BD10B50446FFF7E7FF208940F4D0
:101AE0008040208110BD828822F07002828082882E
:101AF0000A4382807047028922F00702028102892C
:101B00000A4302817047028922F080020281028921
:101B10000A430281704770B50589048B068C25F055
:101B200007050D434FF6FC410C4040F201110C43F8
:101B30004FF6FF7101EA031126F0220611433143EB
:101B400005810483018470BD0029818802D041F0A1
:101B5000800101E021F0800181807047A0F85010E1
:101B6000704770B5048C24F001040484058B048C48
:101B70004FF6FF7606EA0313134325F0F3052B43D4
:101B800024F00A020A4342F001010383018470BD7C
:101B9000CD4910B5884206D101211020FFF74FFA38
:101BA0000021102020E0C949884202D101214C04C3
:101BB00029E0C749884202D101218C0423E0C549AC
:101BC000884202D10121CC041DE0C349884202D1E0
:101BD00001210C0517E0C149884209D101212020CB
:101BE000FFF72DFA00212020BDE81040FFF727BAAB
:101BF000BB49884202D101218C0704E0B9498842DF
:101C00000AD1012144052046FFF70FFA2046BDE81E
:101C100010400021FFF709BA10BD7FB50446008AC5
:101C20000D46C98820F4405001432182A08941F229
:101C30000C618843A9882A8911436A8902431143A8
:101C4000A181A08A20F44071A8890843A082684637
:101C5000FFF706F99C48844202D0A048844201D193
:101C6000039800E00298A189090400EBC00101EB90
:101C70000010296801D5490000E08900B0FBF1F0AF
:101C80006422B0FBF2F109010B096FF018056B43F8
:101C900000EB8300A3891D044FF0320306D503EB4C
:101CA000C000B0FBF2F000F0070005E003EB00100D
:101CB000B0FBF2F000F00F00084320817FBD4FF42D
:101CC0001651016000218180C18001810C22428176
:101CD0008181704710B5028A4C8822F470630A88AB
:101CE00022438C88C9880C4322431A43028210BDC8
:101CF0000021018041808180C18070470029818955
:101D000002D041F4005101E021F40051818170477B
:101D1000028B02F47F420283028B0A4302837047E4
:101D20000029818902D041F4004101E0C1F30E0194
:101D3000818170470029818A02D041F4006101E06D
:101D400021F4006181827047C1F3080181807047EE
:101D50008088C0F308007047028A22F00F020282D6
:101D6000028A0A43028270470029818902D041F029
:101D7000020101E021F0020181817047828922F491
:101D80000062828182890A4382817047028A22F03E
:101D900020020282028A0A43028270470029018AD5
:101DA00002D041F4804101E021F48041018270477A
:101DB000818941F00101818170470029818A02D027
:101DC00041F0080101E021F0080181827047028B97
:101DD000D2B20283028B42EA0121018370470029BB
:101DE000818A02D041F0200101E021F020018182AE
:101DF00070470029818A02D041F0100101E021F0F2
:101E0000100181827047828A22F004028282828AD3
:101E10000A43828270470029818A02D041F0020180
:101E200001E021F0020181827047002A828A01D0FC
:101E30000A4300E08A438282704710B5C1F342131F
:101E400001F01F040121A140012B07D0022B07D074
:101E50001430002A026805D00A4304E00C30F8E789
:101E60001030F6E78A43026010BD02460020128857
:101E70000A4200D001207047C9430180704770B505
:101E800001F01F0501260024C1F3421306FA05F2F2
:101E9000012B0FD0022B0FD0838A4FEA112100882B
:101EA000134206FA01F600EA060001D000B101244F
:101EB000204670BD8389F0E7038AEEE70A0A012114
:101EC0009140C94301807047001001400044004028
:101ED00000480040004C0040005000400014014009
:101EE00000780040007C004010B504466FF004000C
:101EF000FEF75AFD2949E00800EB40020870C2EBEA
:101F0000C0104FF6FF7202EAC000488010BD23499E
:101F1000097848434FF0E021486100238B6108694C
:101F200040F0010008610869C20701D0C003FAD57A
:101F3000086920F0010008618B61704717494988E2
:101F400048434FF0E021486100238B61086940F06D
:101F5000010008610869C20701D0C003FAD5086909
:101F600020F0010008618B61704770B54FF407766F
:101F7000B0FBF6F1CCB2B0FBF6F106FB110504E0C4
:101F80003046FFF7DBFF641EE4B2002CF8D1002DD1
:101F900003D02846BDE87040D0E770BD980000200F
:101FA00010B54FF48071A048FEF73DFE012800D027
:101FB000002010BDF0B59E4D9C4C002395F901709A
:101FC0000A2624F8170004EB47007F1CC182828593
:101FD00097FBF6F006FB10706870184634F9101085
:101FE000401CC0B20B440A28F8D393FBF6F002B2AF
:101FF0000021A282084604EB4003401CB3F91630CE
:10200000C0B219440A28F6D391FBF6F003B20021BE
:102010006385084604EB4007401CB7F92C70C0B23A
:1020200039440A28F6D391FBF6F000B2A4F8400038
:10203000297800291DD0B5F90E108A4200DAEA810C
:10204000B5F910108B4200DA2B82B5F912108842D4
:1020500000DA6882B5F908108A4200DD2A81B5F9F4
:102060000A108B4200DD6B81B5F90C10884200DD4F
:10207000A881F0BD7CB500238DF8053014460D46CF
:1020800006468DF8043000936B46062203213C205F
:1020900002F066F9BDF8020040BA02B2BDF80400D1
:1020A00040BA01B2BDF8000040BA00B2FFF782FFAB
:1020B0005E48818A3180418D2980B0F840002080BF
:1020C0007CBD7CB500246D462A1D6846A91CFFF71F
:1020D000D1FFC820FFF71BFF641CE4B2322CF3D3FE
:1020E0007CBD0A4601463C2002F090B94F4B10B52A
:1020F0009C8A0480588D0880B3F84000108010BD81
:102100003EB5044602AA01A96846FFF7B3FF484955
:10211000BDF90000B1F90220D1ED050A801A00EEE8
:10212000100AB8EEC00A20EE200A81ED080A84EDFC
:10213000000ABDF90400B1F90420D1ED060A801AA5
:1021400000EE100AB8EEC00A20EE200A81ED090A5E
:1021500084ED010ABDF90800B1F90620D1ED070AA6
:10216000801A00EE100AB8EEC00A20EE200A81EDB7
:102170000A0A84ED020A3EBD072803D84007010E73
:102180000120AEE7704710B5022808D801460220AA
:10219000FFF7A7FFBDE810406420FFF7B8BE10BDF1
:1021A00010B510B10020FFF7EEFF70210020FFF7FF
:1021B00098FFA0210120FFF794FF0021BDE8104007
:1021C00002208EE7062803D88006010E002088E74B
:1021D000704710B504460A213C2002F0A2F8207096
:1021E0000B213C2002F09DF860700C213C2002F095
:1021F00098F8A07010BD10B50020FFF7D1FF0020A7
:10220000FFF7C1FF0620FFF7DDFFBDE8104058E7EC
:102210000748012101700021018141818181C18133
:1022200001824182704700000008024084020020C1
:102230009C000020F6EE000A0CB560EE200A10EEBD
:10224000100ACDED000A8DED010AFE49B0EE600ADC
:10225000A1EB600000EE900A01EE100A019060EE22
:10226000200AB7EE080A00EEC10A00EE900A20EE3E
:10227000200A8DED010A0CBD2DE9FC41012102204F
:10228000FEF783FE01258DF804500226C0208DF84C
:1022900005600024EC4F00908DF806408DF8074053
:1022A00069463846FEF76EFC01210220FEF76DFEFE
:1022B0008DF8044068028DF8056000908DF80640A6
:1022C0008DF8075069463846FEF75CFC01F032FE97
:1022D000FFF791FF1420FFF748FEBDE8FC8170B5C1
:1022E00086B005460DF1120004A902AECDE900103A
:1022F0003046B11C321DB31D01F0CAFDD348002485
:1023000036F8141020F81410641CE4B2062CF7D32D
:1023100000219FEDCF2ACD4A1C3ADFEDCE1ADFED2A
:10232000CE0A01E0032914D236F9110005EB81032E
:1023300000EE100A02EB8100B8EEC00A90ED001A20
:1023400020EE020A01EE210A83ED000A80ED000A68
:102350000BE036F9110000EE100A05EB8100B8EE33
:10236000C00A80EE201A80ED001A491CC9B2062965
:10237000D8D305F11800FFF7C3FE06B070BD10B545
:10238000B64C2DED0A0B2DED108B88B094ED0A0A9A
:10239000D4ED0A0A60EE20FA94ED0A0AD4ED0B0A95
:1023A00060EE20AA94ED0A0AD4ED0C0A20EE20AAD1
:1023B00094ED0A0AD4ED0D0A20EE20FA94ED0B0AF2
:1023C000D4ED0B0A60EE20EA94ED0B0AD4ED0C0A72
:1023D00020EE20EA94ED0B0AD4ED0D0A60EE209A6F
:1023E00094ED0C0AD4ED0C0A20EE209A94ED0C0A20
:1023F000D4ED0D0A60EE208A94ED0D0AD4ED0D0A9D
:1024000020EE208A9DED1B0ADDED1C0A20EE000A5D
:1024100000EEA00ADDED1D0A00EEA00A10EE100A83
:1024200002F06CFD41EC100B04F072FA51EC100B51
:1024300002F090FD00EE100ADFED890A20EE200A7E
:10244000DFED880A009020EE200A8DED000AD4ED21
:10245000000A30EE600A10EE100A02F04FFD41EC67
:102460001C0B9FED81DB94ED1E0B53EC1D2B51ECEF
:10247000100B02F025FC9FED7E1B53EC112B02F09C
:1024800078FB94ED1E0B41EC1B0B53EC1D2B51EC18
:10249000100B02F015FC53EC1B2B02F083FC53ECE9
:1024A0001C2B02F00DFC94ED000A41EC1B0B10EE0E
:1024B000100A02F023FD53EC1B2B02F05AFB02F032
:1024C00049FD00EE100A84ED000A9DED1B0ADDEDCA
:1024D0001C0A20EE000A00EEA00ADDED1D0A00EE47
:1024E000A00AFFF7A7FE8DED010A9DED1B0ADDEDA9
:1024F000010A20EE200A8DED1B0A9DED1C0A20EE3C
:10250000200A8DED1C0A9DED1D0A20EE200A8DED9E
:102510001D0A9DED1E0ADDED1F0A20EE000A00EEE9
:10252000A00ADDED200A00EEA00AFFF783FE8DED84
:10253000010A9DED1E0ADDED010AB0EE00BAF6EECD
:10254000002A20EE200A3EEE4FCA39EE8A2A8DED8F
:102550001E0A9DED1F0A79EECABA20EE200A8DED03
:102560001F0A9DED200A20EE200A8DED200A9DED28
:102570001E0A20EE0B1A32EEC90A70EE48CA9DED13
:102580001F0A61EE2C1A60EE0B0A9DED200A40EE48
:102590008C1A20EE0B0A40EE021ACDED001A7EEEE8
:1025A0000F1A21EE212A72EEEE1A21EE2B1A71EE8D
:1025B000C82A31EEC9DA00EEA22A78EEEA2A00EE45
:1025C000222A8DED012A38EEAA2A00EE821A00EEA8
:1025D0000D1A8DED021A9DED000ADDED010A20EEC7
:1025E000000A00EEA00A10EE100A02F087FC41EC8F
:1025F000100B04F08DF951EC100B02F0ABFC0090C5
:102600009DED020A3AEEA81A8DED040A2BEE8B0A14
:102610008DED020A21EE0B0A8DED030A3FEEEE0A64
:1026200030EE490A30EE080A8DED010A00EE100A7C
:10263000DDED040A20EE0B0A60EE8B0A60EE2C1A28
:102640001AE00000DF59375F00040240E402002076
:10265000CDCCCC3E9A99193F33338341C80000203A
:1026600000008038CDCC1C4100000000000000407C
:1026700000000060204C803F40EEAB1ACDED041A04
:1026800060EE0C1A40EE811A3AEE291A20EE010A89
:10269000CDED051A00EE8D0A8DED060A9DED1C0AA2
:1026A000DDED010A9DED031A60EE200A9DED1D0A85
:1026B00040EE410A9DED1F0A9DED061A20EE010A2B
:1026C0009DED201A01EE610A30EE800A8DED000AC0
:1026D0009DED1D0ADDED020A9DED011ADDED061AE4
:1026E00020EE200ADDED1B0A00EEC10ADDED200A16
:1026F0009DED041A60EE810A9DED1E1A41EE610AFD
:1027000030EE200A8DED010A9DED1B0ADDED030A76
:102710009DED021ADDED041A20EE200ADDED1C0A03
:1027200000EEC10ADDED1E0A9DED051A60EE810A7C
:102730009DED1F1A41EE610A30EE200A8DED020A6E
:102740009DED000AB5EEC00AF1EE10FA7ED09DEDC7
:10275000010AB5EEC00AF1EE10FA77D09DED020A3B
:10276000B5EEC00AF1EE10FA70D09DED000A9FEDB3
:10277000FE9A20EE090A10EE100A02F0BFFB94ED5B
:102780001E1B53EC112B02F09BFA94ED040A41EC52
:10279000180B10EE100A02F0B1FB53EC182B02F0EC
:1027A000E8F902F0D7FB00EE100A84ED040A9DED73
:1027B000010A20EE090A10EE100A02F09FFB94EDC8
:1027C0001E1B53EC112B02F07BFA94ED050A41EC31
:1027D000180B10EE100A02F091FB53EC182B02F0CC
:1027E000C8F902F0B7FB00EE100A84ED050A9DED72
:1027F000020A20EE090A10EE100A02F07FFB94EDA7
:102800001E1B53EC112B02F05BFA94ED060A41EC0F
:10281000180B10EE100A02F071FB53EC182B02F0AB
:10282000A8F902F097FB00EE100A84ED060AD4ED39
:10283000040A9DED001AB0EE080A41EE000A9DED73
:10284000181A70EE810ACDED180A00E017E0D4EDF9
:10285000050A9DED011A41EE000A9DED191A70EE70
:10286000810ACDED190AD4ED060A9DED021A41EE5A
:10287000000A9DED1A0A30EE800A8DED1A0A94EDD9
:102880000B0ADDED180A9DED191A20EEC00AD4EDF1
:102890000C0A00EEC10AD4ED0D0A9DED1A1A00EEE5
:1028A000C10A10EE100A02F029FB94ED1E1B53EC36
:1028B000112B02F005FA94ED0A0A41EC180B10EE08
:1028C000100A02F01BFB53EC182B02F052F902F035
:1028D00041FB069094ED0A0ADDED180A9DED1A1AE7
:1028E00020EE200AD4ED0C0A00EE810AD4ED0D0A88
:1028F0009DED191A00EEC10A10EE100A02F0FEFA60
:1029000094ED1E1B53EC112B02F0DAF994ED0B0A37
:1029100041EC180B10EE100A02F0F0FA53EC182BF1
:1029200002F027F902F016FB049094ED0A0ADDED9F
:10293000190A9DED1A1A20EE200AD4ED0B0A00EEBA
:10294000C10AD4ED0D0A9DED181A00EE810A10EEB1
:10295000100A02F0D3FA94ED1E1B53EC112B02F077
:10296000AFF994ED0C0A41EC180B10EE100A02F0CE
:10297000C5FA53EC182B02F0FCF802F0EBFA0290C7
:1029800094ED0A0ADDED1A0A9DED191A20EE200ACF
:10299000D4ED0B0A00EE810AD4ED0C0A9DED181A55
:1029A00000EEC10A10EE100A02F0A8FA94ED1E1B08
:1029B00053EC112B02F084F994ED0D0A41EC180B45
:1029C00010EE100A02F09AFA53EC182B02F0D1F82C
:1029D00002F0C0FA00909DED060ADDED040A01EE5A
:1029E000100A20EE000A00EEA00ADDED020A00EE59
:1029F000A00A00EE900A00EE810AFFF71BFC8DEDA5
:102A0000010A9DED060ADDED010A20EE200A84EDA3
:102A10000A0A9DED040A20EE200A84ED0B0A9DEDC2
:102A2000020A20EE200A84ED0C0A9DED000A20EE39
:102A3000200A84ED0D0A08B0BDEC108B0AB010BD61
:102A400010B54A4C2DED060B2DED048B8AB094ED9C
:102A50000E0AD4ED0E0A20EE200A8DED020A94ED46
:102A60000E0AD4ED0F0A20EE200A8DED040A94ED33
:102A70000E0AD4ED100A20EE200A8DED070A94ED1F
:102A80000E0AD4ED110A20EE200A8DED000A94ED15
:102A90000F0AD4ED0F0A20EE200A8DED030A94ED03
:102AA0000F0AD4ED100A20EE200A8DED000A94EDF5
:102AB0000F0AD4ED110A20EE200A8DED060A94EDDE
:102AC000100AD4ED100A20EE200A8DED000A94EDD4
:102AD000100AD4ED110A20EE200A8DED050A94EDBE
:102AE000110AD4ED110A20EE200A8DED080A9DEDA1
:102AF000110ADDED120A20EE000A00EEA00ADDED5B
:102B0000130A00EEA00AFFF795FB8DED010A9DED7B
:102B1000110ADDED010A20EE200A8DED110A9DED6E
:102B2000120A20EE200A8DED120A9DED130A20EE06
:102B3000200A8DED130A9DED060ADDED070A70EE01
:102B4000600AB0EE000A60EE800ACDED060ADDED07
:102B5000040A9DED051A70EE810A20EE800A8DEDC3
:102B6000040A9DED020A03E08FC2F53CC800002074
:102B7000DDED030A30EE600ADDED000A30EE600A9A
:102B8000DDED080A30EE200A8DED010A9DED120AF6
:102B9000DDED010A9DED041A20EE200ADDED130A99
:102BA00000EEC10A8DED000AB0EE600ADDED060A06
:102BB0009DED011A20EE200ADDED110A00EEC10A9A
:102BC0008DED010AB0EE600ADDED040A9DED061AF6
:102BD00020EE200ADDED120A00EEC10A8DED020A98
:102BE0009DED000AB5EEC00AF1EE10FA7ED09DED23
:102BF000010AB5EEC00AF1EE10FA77D09DED020A97
:102C0000B5EEC00AF1EE10FA70D09DED000A9FED0E
:102C1000FA9A20EE090A10EE100A02F06FF994ED0C
:102C20001E1B53EC112B02F04BF894ED070A41ECFC
:102C3000180B10EE100A02F061F953EC182B01F09A
:102C400098FF02F087F900EE100A84ED070A9DED67
:102C5000010A20EE090A10EE100A02F04FF994ED75
:102C60001E1B53EC112B02F02BF894ED080A41ECDB
:102C7000180B10EE100A02F041F953EC182B01F07A
:102C800078FF02F067F900EE100A84ED080A9DED66
:102C9000020A20EE090A10EE100A02F02FF994ED54
:102CA0001E1B53EC112B02F00BF894ED090A41ECBA
:102CB000180B10EE100A02F021F953EC182B01F05A
:102CC00058FF02F047F900EE100A84ED090A9DED65
:102CD0000E0ADDED000A30EE200AD4ED070A30EED0
:102CE000200A8DED0E0A9DED0F0A00E015E0DDEDE6
:102CF000010A30EE200AD4ED080A30EE200A8DEDEC
:102D00000F0A9DED100ADDED020A30EE200AD4ED27
:102D1000090A30EE200A8DED100A94ED0F0ADDED60
:102D20000E0A9DED0F1A20EEC00AD4ED100A00EE37
:102D3000C10AD4ED110A9DED101A00EEC10A10EE81
:102D4000100A02F0DBF894ED1E1B53EC112B01F07E
:102D5000B7FF94ED0E0A41EC180B10EE100A02F0CA
:102D6000CDF853EC182B01F004FF02F0F3F80690B5
:102D700094ED0E0ADDED0E0A9DED101A20EE200AEC
:102D8000D4ED100A00EE810AD4ED110A9DED0F1A60
:102D900000EEC10A10EE100A02F0B0F894ED1E1B0E
:102DA00053EC112B01F08CFF94ED0F0A41EC180B42
:102DB00010EE100A02F0A2F853EC182B01F0D9FE25
:102DC00002F0C8F8049094ED0E0ADDED0F0A9DEDB7
:102DD000101A20EE200AD4ED0F0A00EEC10AD4ED3D
:102DE000110A9DED0E1A00EE810A10EE100A02F093
:102DF00085F894ED1E1B53EC112B01F061FF94ED4F
:102E0000100A41EC180B10EE100A02F077F853ECA0
:102E1000182B01F0AEFE02F09DF8029094ED0E0A20
:102E2000DDED100A9DED0F1A20EE200AD4ED0F0AF9
:102E300000EE810AD4ED100A9DED0E1A00EEC10AD3
:102E400010EE100A02F05AF894ED1E1B53EC112BF1
:102E500001F036FF94ED110A41EC180B10EE100A48
:102E600002F04CF853EC182B01F083FE02F072F8DC
:102E700000909DED060ADDED040A01EE100A20EE39
:102E8000000A00EEA00ADDED020A00EEA00A00EE44
:102E9000900A00EE810AFFF7CDF98DED010A9DED54
:102EA000060ADDED010A20EE200A84ED0E0A9DEDF2
:102EB000040A20EE200A84ED0F0A9DED020A20EE9E
:102EC000200A84ED100A9DED000A20EE200A84ED10
:102ED000110A0AB0BDEC048B06B010BD70B50C46EB
:102EE0002DED028B054691ED050A9FED448A20EEFB
:102EF000080ADFED438A91ED084AD1ED073A80EEEA
:102F0000281A91ED040A91ED063AD4ED022A20EE3A
:102F1000080A94ED012AC0EE280A91ED030A60EE3A
:102F2000081A81EEA80AD4ED001AFFF728FA94EDEA
:102F3000050AD4ED022A94ED012A20EE080A80EE5B
:102F4000281A94ED040A20EE080AC0EE280A94ED2F
:102F5000030A60EE081A81EEA80AD4ED001AFFF702
:102F60006FFD284890ED0E0A85ED000A90ED0F0ADE
:102F700085ED010A90ED100A85ED020A90ED110A27
:102F800085ED030ABDEC028B70BDB0EE002AF7EEB2
:102F9000002A21EE021A9FED1C2A21EE022A82EE5F
:102FA000821A31EE212A81EE821A70EE601AB0EE9A
:102FB000600A01EE210A70472DE9F04104462DED2B
:102FC0000E8B0E461148FFF78AF9114800680D4D27
:102FD000E864E86CA96C05F180078842E86CA96C8C
:102FE00018D2C943084400EE100AB8EE400A10EEA9
:102FF000100A01F083FF10E0CDCC4C3EDB0F4940BE
:1030000000003443C8000020F90F4940F0020020BE
:10301000240C0040401A01F045FF41EC100B87EDF5
:10302000000B9FEDFE0B53EC102B97ED000B51ECBA
:10303000100B01F045FE41EC100B87ED000B9FEDEE
:10304000F90B53EC102B97ED000B51EC100B01F02A
:1030500037FE41EC100B85ED1E0BE86CA864F348BD
:1030600090ED000A85ED1A0A90ED010A85ED1B0A24
:1030700090ED020A0C3885ED1C0AB0F90610D5ED6A
:10308000170A00EE101AB0F90810B0F90A00B8EEED
:10309000C00A70EE608A00EE101AD5ED180AB8EE7C
:1030A000C00A30EE608A00EE100AD5ED190AB8EEBB
:1030B000C00A30EE609A97ED000B51EC100B01F056
:1030C00049FF01EE900AB2EE041AD5ED010AB0EE06
:1030D000680AFFF75AFF85ED010A97ED000B51ECE6
:1030E000100B01F037FF01EE900AB2EE041AD5ED95
:1030F000020AB0EE480AFFF748FF85ED020A97ED95
:10310000000B51EC100B01F025FF01EE900AB2EE1E
:10311000041AD5ED030AB0EE490AFFF736FFB0EE08
:1031200040EA85ED03EAD5ED010A9FEDC11A60EE94
:10313000811A9FEDC00AD6ED002A81EE802ADFEDCC
:10314000BE1A10EE900AC8EE80DA02EEA12A86EDD1
:10315000002AD5ED02EA6EEE812A88EE00DA82EED0
:10316000802AD6ED012A02EEA12A86ED012A2EEE52
:10317000012A82EE001A96ED022A02EE211A86ED4D
:10318000021A01F0BBFE97ED001B53EC112B01F06E
:1031900097FD9FEDAA8B53EC182B01F091FD9FED4D
:1031A000A99B53EC192B01F0FDFD41EC1C0B206891
:1031B00001F0A4FE53EC1C2B01F0DBFC01F0CAFE75
:1031C00020601EEE900A01F099FE97ED001B53EC73
:1031D000112B01F075FD53EC182B01F071FD53EC30
:1031E000192B01F0DFFD41EC1C0B606801F086FE3D
:1031F00053EC1C2B01F0BDFC01F0ACFE60601EEE38
:10320000100A01F07BFE97ED001B53EC112B01F02F
:1032100057FD53EC182B01F053FD53EC192B01F023
:10322000C1FD41EC180BA06801F068FE53EC182BAF
:1032300001F09FFC01F08EFEA06097ED000B9FED6A
:10324000839BB0EE490AF0EE690A03F0FDFAB0EE96
:10325000408AF0EE608A206801F050FE53EC182B93
:1032600001F02EFD41EC180B606801F047FE53ECB5
:10327000182B01F01FFD01F06DFE606097ED000B53
:10328000B0EE490AF0EE690A03F0DEFAB0EE408AC9
:10329000F0EE608A606801F031FE53EC182B01F00B
:1032A0000FFD41EC180B206801F028FE53EC182BA1
:1032B00001F05FFC01F04EFE206095ED1A0A60EE11
:1032C000000A95ED1B0A40EE000A95ED1C0A40EE3F
:1032D000000A10EE900A01F011FE41EC100B03F011
:1032E00017FB51EC100B01F035FED5ED1A8A08EEF4
:1032F000100A18EE900A01F001FE41EC100B01F0EB
:1033000034FC00EE100AB8EEC00AB4EEC80AF1EEC2
:1033100010FA13D288EE880A10EE100A01F0EEFDC2
:1033200041EC100B01F0F0FF9FED4A1B51EC100B2C
:1033300053EC112B01F0C4FC41EC1B0BD5ED1B8AA7
:1033400018EE900A01F0DAFD41EC100B01F00DFCD3
:1033500000EE100AB8EEC00AB4EEC80AF1EE10FA98
:1033600013D288EE880A10EE100A01F0C7FD41EC76
:10337000100B01F0C9FF9FED391B51EC100B53EC02
:10338000112B01F09DFC41EC1A0B97ED000B51EC59
:10339000100B01F0DFFD08EE100A51EC1A0B01F0E2
:1033A000D9FD00EE100AB0EE481AF0EE6D0A01F0F9
:1033B000B3FA10EE100A01F0A1FD97ED000B41ECFD
:1033C000180B51EC100B01F0C5FD09EE100A51EC81
:1033D0001B0B01F0BFFD00EE100AB0EE491AF0EE33
:1033E0004D0A01F0F8FA10EE100A01F087FD9FED8A
:1033F0001DAB53EC1A2B01F063FC94ED010A9FED19
:103400001BBA41EC190B20EE0B0A10EE100A01F06A
:1034100075FD53EC192B01F0ACFB29E0000000A076
:10342000F7C6B03E000000000000E03FF0020020C0
:103430009A99193E333383419A99593F000000000D
:1034400000409F4000000000C0FFDF40000000007F
:103450000000000000000060E3A54CC00000006018
:10346000E3A54C40000000A09999993F9A99793FB3
:1034700001F070FD606053EC1A2B51EC180B01F059
:103480001FFC94ED000A41EC180B20EE0B0A10EE25
:10349000100A01F033FD53EC182B01F06AFB01F028
:1034A00059FD2060BDEC0E8BBDE8F08110EE100AD6
:1034B00010B520F00040C0F1FF40C00F02D09FEDDA
:1034C000FE0A10BD10EE100AB0F17E5F02DB9FED28
:1034D000FB0A10BD10EE100A10F1814F02D39FEDD0
:1034E000F80A10BD10EE100A01F008FD41EC100BB7
:1034F00001F00AFF51EC100B01F02CFD00EE100A58
:1035000010BD70B5EF4906462DED068BA1F11C00EC
:10351000FFF7E4FCEB4DF7EE00AA1C3DB0EE00AA6D
:1035200095ED019AD5ED029AB0EE6A0A69EE090AA4
:1035300049EEA90A00EECA0A10EE100A01F0DEFCFC
:1035400095ED000AD5ED030A41EC180B20EE090AAF
:1035500009EEA00A20EE0A0A10EE100A01F0CEFCD5
:1035600041EC100BB0EE481AF0EE681A02F0E8F9E0
:103570009FEDD59B51EC100B53EC192B01F0A0FBE8
:103580009FEDD31B53EC112B01F00CFC01F0E2FC7E
:1035900000EE100AD04C86ED000A84ED150A95ED78
:1035A000000AD5ED020A95ED011A20EE200AD5EDAC
:1035B000030A00EEC10A20EE0A0AFFF777FFDFEDEB
:1035C000C70A60EE200A9FEDC61A80EE810AF8EE67
:1035D000000A86ED010A84ED140A94ED0C0A94EDBC
:1035E0000D1A20EE200AD4ED0C0A20EE200AD4EDAC
:1035F0000D0A60EE8A0A00EEC10A30EE2A0A10EEC9
:10360000100A01F07BFC94ED0B0AD4ED0C0A94ED4A
:103610000D1A20EE0A0A41EC180B20EE200AD4ED18
:103620000A0A60EE8A0A00EE810A10EE100A01F022
:1036300065FC41EC100BB0EE481AF0EE681A02F08F
:103640007FF953EC192B51EC100B01F039FB9FED76
:10365000A51B53EC112B01F0A5FB01F07BFC00EE48
:10366000100A86ED020A84ED160ABDEC068B70BDC9
:1036700030B5994CF7EE000A2DED088B95B0C4EDEE
:103680000A0A9FED8D0A002584ED0B0A84ED0C0AD1
:1036900084ED0D0AC4ED0E0A84ED0F0A84ED100AC4
:1036A00084ED110A84ED040A84ED050A84ED060A0E
:1036B00084ED070A84ED080A84ED090A0CA8FEF7D8
:1036C0000EFE9DED0C0ADDED050A6D1CC82D30EED9
:1036D000200A8DED050A9DED0D0ADDED030A30EEA1
:1036E000200A8DED030A9DED0E0ADDED010A30EE94
:1036F000200A8DED010A9DED120ADDED0B0A30EE78
:10370000200A8DED0B0A9DED130ADDED090A30EE5E
:10371000200A8DED090A9DED140ADDED070A30EE51
:10372000200A8DED070AC9DBDDED050A9FED6F0A62
:1037300080EE801A8DED051ADDED030A80EE801A09
:103740008DED031ADDED010A80EE801A8DED011A70
:10375000DDED0B0A80EE801A8DED0B1ADDED090A06
:1037600080EE801A8DED091ADDED070A80EE801AD1
:103770008DED071A9DED030ADDED010A20EE000A2A
:1037800000EEA00AFEF756FDDDED050A20EE200A48
:103790008DED000A10EE100A01F0B0FB41EC100BA9
:1037A00001F062FF9FED528B51EC100B53EC182B84
:1037B00001F086FA01F0CEFB02909DED050ADDEDE9
:1037C000010A20EE000A00EEA00AFEF733FDDDED4F
:1037D000030A20EE200A8DED000A10EE100A01F017
:1037E0008DFB41EC100B01F03FFF53EC182B51EC1B
:1037F000100B01F065FA01F0ADFB009001F07EFBCB
:1038000041EC100B03F020F8B0EE408AF0EE608A35
:10381000079801F073FB53EC182B01F051FA41ECBF
:10382000190B009801F06AFB41EC100B02F080F9D3
:10383000B0EE408AF0EE608A099801F05FFB53EC2D
:10384000182B01F03DFA53EC192B01F092F901F01D
:1038500081FB0190029801F051FB41EC100B02F04A
:10386000F3FFB0EE409AF0EE609A009801F046FB4C
:1038700041EC100B02F05CF9B0EE408AF0EE608A89
:10388000079801F03BFB53EC182B01F019FA53ECAD
:10389000192B01F015FA41EC180B029801F02EFBE0
:1038A00041EC100B02F0D0FFB0EE409AF0EE609ABF
:1038B000009801F023FB1FE000000000DB0FC93F70
:1038C000DB0FC9BFF002002000000000008066404E
:1038D00000000060FB210940C800002000003443C4
:1038E000DB0F49C000000060FB2109C00000484315
:1038F0006666666666A64C4041EC100B02F0A4FFBB
:10390000B0EE40AAF0EE60AA099801F0F7FA53EC85
:103910001A2B01F0D5F953EC192B01F0D1F941EC38
:103920001A0B029801F0EAFA41EC100B02F000F9D0
:10393000B0EE409AF0EE609A0B9801F0DFFA53EC8B
:10394000192B01F0BDF953EC1A2B01F012F953ECCD
:10395000182B01F0AFF901F0FDFA039001F0CEFA57
:1039600041EC180B019801F0C9FA41EC100BB0EED4
:10397000481AF0EE681A01F0E3FF51EC100B01F069
:10398000E9FA00EE100AB6EE008A019020EE080A6D
:1039900010EE100A01F0B2FA41EC100B02F054FFE5
:1039A000B0EE40AA9DED020AF0EE60AA20EE080AF1
:1039B00010EE100A01F0A2FA41EC100B02F044FFE5
:1039C000B0EE409A9DED000AF0EE609A20EE080AF3
:1039D00010EE100A01F092FA41EC100B02F034FFE5
:1039E00053EC192B51EC100B01F06AF953EC1A2B24
:1039F00001F066F99DED010A41EC1B0B20EE080A6F
:103A000010EE100A01F07AFA41EC100B02F090F877
:103A1000B0EE40AA9DED020AF0EE60AA20EE080A80
:103A200010EE100A01F06AFA41EC100B02F080F877
:103A3000B0EE409A9DED000AF0EE609A20EE080A82
:103A400010EE100A01F05AFA41EC100B02F070F877
:103A500053EC192B51EC100B01F032F953EC1A2BEB
:103A600001F02EF953EC1B2B01F083F801F072FAF0
:103A700000EE100A84ED0A0A9DED010A20EE080A04
:103A800010EE100A01F03AFA41EC100B02F0DCFEE5
:103A9000B0EE40AA9DED020AF0EE60AA20EE080A00
:103AA00010EE100A01F02AFA41EC100B02F0CCFEE5
:103AB000B0EE409A9DED000AF0EE609A20EE080A02
:103AC00010EE100A01F01AFA41EC100B02F030F877
:103AD00053EC192B51EC100B01F0F2F853EC1A2BAC
:103AE00001F0EEF89DED010A41EC1B0B20EE080AF7
:103AF00010EE100A01F002FA41EC100B02F018F877
:103B0000B0EE40AA9DED020AF0EE60AA20EE080A8F
:103B100010EE100A01F0F2F941EC100B02F008F877
:103B2000B0EE409A9DED000AF0EE609A20EE080A91
:103B300010EE100A01F0E2F941EC100B02F084FEE5
:103B400053EC192B51EC100B01F0BAF853EC1A2B73
:103B500001F0B6F853EC1B2B01F0ACF801F0FAF9C8
:103B600000EE100A84ED0B0A9DED010A20EE080A12
:103B700010EE100A01F0C2F941EC100B02F064FEE5
:103B8000B0EE409A9DED020AF0EE609A20EE080A2F
:103B900010EE100A01F0B2F941EC100B01F0C8FF71
:103BA000B0EE40AA9DED000AF0EE60AA20EE080AF1
:103BB00010EE100A01F0A2F941EC100B02F044FEE5
:103BC00053EC1A2B51EC100B01F07AF853EC192B33
:103BD00001F076F89DED010A41EC1B0B20EE080A7E
:103BE00010EE100A01F08AF941EC100B01F0A0FF71
:103BF000B0EE40AA9DED020AF0EE60AA20EE080A9F
:103C000010EE100A01F07AF941EC100B02F01CFEE4
:103C1000B0EE409A9DED000AF0EE609A20EE080AA0
:103C200010EE100A01F06AF941EC100B01F080FF70
:103C300053EC192B51EC100B01F042F853EC1A2BFA
:103C400001F03EF853EC1B2B00F093FF01F082F9DA
:103C500000EE100A84ED0C0A9DED010A20EE080A20
:103C600010EE100A01F04AF941EC100B01F060FF70
:103C7000B0EE40AA9DED020AF0EE60AA20EE080A1E
:103C800010EE100A01F03AF941EC100B02F0DCFDE5
:103C9000B0EE409A9DED000AF0EE609A20EE080A20
:103CA00010EE100A01F02AF941EC100B02F0CCFDE5
:103CB00053EC192B51EC100B01F002F853EC1A2BBA
:103CC00000F0FEFF9DED010A41EC1B0B20EE080AFF
:103CD00010EE100A01F012F941EC100B02F0B4FDE5
:103CE000B0EE40AA9DED020AF0EE60AA20EE080AAE
:103CF00010EE100A01F002F941EC100B01F018FF70
:103D0000B0EE409A9DED000AF0EE609A20EE080AAF
:103D100010EE100A01F0F2F841EC100B01F008FF70
:103D200053EC192B51EC100B00F0CAFF53EC1A2B7B
:103D300000F0C6FF53EC1B2B00F0BCFF01F00AF9AA
:103D400000EE100A044884ED0D0A0068A06415B066
:103D5000BDEC088B30BD0000240C004010B50023E2
:103D60001A4603E030F91240521C23448A42F9DB20
:103D700093FBF1F000B210BD08B5032300900222BE
:103D80006B21D02000F048FB08BD08B5022300904D
:103D900004221B21D02000F03FFB08BD08B5022300
:103DA000009004221C21D02000F036FB08BD034601
:103DB00006226B21D02000F059BB10B5D04B012258
:103DC0007521D02000F0CCFACD48007810BD10B598
:103DD000FFF7F3FF682801D0002010BD012010BDBF
:103DE000034605226A21D02000F040BB0346012291
:103DF0003721D02000F03ABBF0B5C24EC04CDDE90F
:103E0000057C35780E3424F8150004EB45006D1C54
:103E1000C1828285A0F84230A0F85870A0F86EC028
:103E20000A20B5FBF0F100FB115030700A2120464A
:103E3000FFF794FFA0820A2104F11600FFF78EFF1E
:103E400060850A2104F12C00FFF788FFA4F84000E8
:103E50000A2104F14200FFF781FFA4F856000A216D
:103E600004F15800FFF77AFFA4F86C000A2104F16E
:103E70006E00FFF773FFA4F88200F0BD10B54FF499
:103E80000071A148FCF7CFFE012800D0002010BD32
:103E90002DE9FC5F1D46DDE90CAB16460F46814659
:103EA000FFF7ECFF974C40B3954B0E223B21D020FF
:103EB00000F056FA9249088840BA00B220814A8838
:103EC00052BA0FFA82FCA4F80AC08A8852BA0FFAD2
:103ED00082F8A4F80C800A8952BA13B2E3814A89A5
:103EE00052BA12B22282898949BA09B26182CDE9F5
:103EF000002142466146FFF77FFF81480E30828AEB
:103F0000A9F80020418D3980B0F840103180B0F818
:103F100056106288891A2980B0F86C10A288891A14
:103F2000AAF80010B0F88200E188401AABF800004F
:103F3000BDE8FC9FF0B585B00120FFF71DFF032011
:103F4000FFF723FF0020FFF729FF0020FFF72FFFD7
:103F50000020FFF745FF0120FFF748FF002307225D
:103F60003721D02000F082FA002306223721D0200A
:103F700000F07CFA012305223721D02000F076FAE8
:103F8000012304223721D02000F070FA01230022FF
:103F90003821D02000F06AFA03200090082307227D
:103FA0001A21D02000F038FA002402AD0DF11207DA
:103FB00004AE3220FDF7ABFFAB1D2A1DA91C02A8E1
:103FC000CDE90067FFF764FF641CE4B2142CF0D362
:103FD00005B0F0BD4B4B58809980DA8070472DE9D1
:103FE000F04786B0002747493E463D464F808F80C8
:103FF000CF803C460DF1080A0DF112090DF11008B1
:104000006420FDF784FF0AF106039A1E911E02A8A0
:10401000CDE90089FFF73CFF641CE4B2322CEFD3FA
:104020000024C820FDF773FF0AF106039A1E911EB3
:1040300002A8CDE90089FFF72BFFBDF90E00641C33
:104040000744BDF91000E4B20644BDF91200642C27
:104050000544E6D3642095FBF0F10AB296FBF0F13B
:1040600097FBF0F009B200B2FFF7B4FF06B0BDE86D
:10407000F0872DE9FF4F85B0002798463E463D4624
:104080003C460DF1080B0DF1120A0DF1100917E075
:104090000BF10603CDE9009A9A1E911E02A8FFF7C4
:1040A000F7FEBDF90E000744BDF910000644BDF946
:1040B000120005444FF4FA70FDF729FF641CA4B206
:1040C0004445E5D397FBF8F000EE100A0598B8EEEA
:1040D000C00A80ED000A96FBF8F000EE100A069880
:1040E000B8EEC00A80ED000A95FBF8F000EE100A69
:1040F0000798B8EEC00A80ED000A09B0BDE8F08F5D
:104100001403002050010020000402401CB50121CE
:104110000220FCF73AFFC020009001208DF8040037
:1041200002208DF8050000208DF806008DF80700AC
:104130006946DA48FCF726FD1CBD70B5D748016812
:1041400021F440410160016841F480410160D44C98
:104150000120C4F89C02C4F89802022004F52674D9
:10416000FDF7D5FE002565600220FDF7D0FE256035
:1041700070BDCA4810B5016821F440410160016872
:1041800041F480410160C64C0020C4F89802C4F894
:104190009C02022004F52674FDF7B9FE0120206080
:1041A0006060BDE810400220FDF7B1BE70B5BB48AD
:1041B0000024016821F44041016001680160B84DAC
:1041C0000126C5F89C623046FDF7A1FEC5F898624D
:1041D0000BE0641CE4B2322C07D9FFF7CAFFB149E7
:1041E0000888401C0880012070BD0120FDF78FFE6B
:1041F000D5F81C020028ECD1C5F8980270BD70B546
:10420000A74C0025C4F89852A448016821F4404105
:104210000160016841F480410160C4F89C520120B2
:1042200004F52674FDF773FE01202060FDF76FFE94
:10423000256070BD70B59A4C0026C4F89862974806
:10424000016821F440410160016841F4804101604E
:104250000125C4F89C52284604F52674FDF757FE44
:1042600025600120FDF753FE266070BD2DE9F04169
:1042700005468A48016821F440410160016841F423
:1042800080410160864E0027C6F898723C464FF088
:104290000108E809C6F89C026806050E0120FDF732
:1042A00036FEC6F898820120FDF731FEC6F89872F6
:1042B0000120FDF72CFE641CE4B2082CE9D3BDE814
:1042C000F0812DE9F047814674480024016821F40B
:1042D0004041016001680160714E254627464FF05C
:1042E0000108C6F898720120FDF711FEC6F8988201
:1042F0006006040ED6F81C0208B1641CE4B201206A
:10430000FDF705FE6D1CEDB2082DEAD3B9F1000FE3
:1043100002D0FFF774FF01E0FFF78CFF2046BDE8F5
:10432000F08770B50D460446FFF707FF2046FFF7FC
:104330009DFFFFF73BFF2846FFF798FFFFF736FF8B
:10434000FFF7FBFE641CE0B2FFF790FFFFF72EFFC4
:104350000020FFF7B6FF0446FFF70BFF204670BDB5
:104360002DE9F0411D461646884607460024FFF712
:10437000E4FE3846FFF77AFFFFF718FF4046FFF7E5
:1043800075FFFFF713FFFFF7D8FE7F1CF8B2FFF7AA
:104390006DFFFFF70BFF771E09E0BC4201D0012043
:1043A00000E00020FFF78DFF2855641CE4B2B44202
:1043B000F3D3FFF7DEFE204681E72DE9F0411D46ED
:1043C00016460F4680460024FFF7B7FE4046FFF72B
:1043D0004DFFFFF7EBFE67B13846FFF747FFFFF7EA
:1043E000E5FE06E0285DFFF741FFFFF7DFFE641CF6
:1043F000E4B2B442F6D3FFF7BCFE01205FE710B58C
:104400001446FFF78EFF2070012010BD07B502ABE8
:104410000122FFF7D2FF0EBD2DE9F84314461E46D8
:104420000D4680466A46089FFFF7E9FF00281BD02B
:10443000621CFF2000FA02F1C4F108023244521E4D
:10444000D0400143C6F108008740FAB2C4F107002A
:10445000C2409DF80000084010438DF80000C2B231
:1044600029464046FFF7D2FFBDE8F883F8B5154668
:104470001C460E4607466A46FFF7C1FF01209DF81D
:104480000010A8400CB1014300E08143CAB28DF88E
:10449000002031463846FFF7B9FFF8BD000402405E
:1044A000008040426401002008B501466B460222AC
:1044B000EE20FFF755FF9DF800009DF8011041EA3E
:1044C000002008BD70B50024FE4EA22505EB440077
:1044D000C0B2FFF7E9FF26F81400641CE4B2062C12
:1044E000F4D370BDF84909280AD2DFE800F00509C5
:1044F00007090B090D090F00012200E002220A70D2
:10450000487070470322FAE70522F8E70A22F6E727
:1045100002460021EE20FFF779BF1E20F8E710B514
:104520001E20FFF7F5FF0820FFF7DCFF6420FDF7F2
:104530001CFDBDE81040C5E710B553EC112B51EC44
:10454000100B00F02FFC41EC100B9FEDE01B01F075
:1045500053FB9FEDE01B51EC100B53EC112B00F0C3
:10456000ACFB9FEDDE1B53EC112B00F0A9FB41ECE3
:10457000100B10BD2DE9F14FD348D24E4FF000097A
:10458000D0F818B031894069494200EB0127F18821
:10459000FC17A1FB070309FB073201FB0421A2461C
:1045A00080224B4600F0B0FA7288130C120410EB14
:1045B000020841EB0305B188A1FB070309FB0732A1
:1045C00001FB04214FF48072002300F09DFA328831
:1045D000530CD2038618009841EB0304012855D1EF
:1045E000B84800234189A1FB070C09FB07C201FB66
:1045F0000A214FF4000200F087FA4FF4FA614018E4
:10460000B14A4FF00001B0F5FA6FC2E90811C2E9F2
:104610000A1111DAA0F5FA61494301EB810101EBBE
:10462000D1735B10DF17C2E90837CB1701EB937129
:104630008910CB17C2E90A1340F2DC51C8421ADADA
:1046400000F2DC504043D2E9087CC0EBC001CB173C
:10465000C91943EB0C03C2E9081300EB400101EB5D
:10466000C00000EBD070D2E90A374010C117C01863
:104670007941C2E90A01D2E90801B8EB000865EB0B
:104680000105D2E90A01361A64EB0104ABFB06030B
:1046900009FB06320BFB04214FF40012002300F04B
:1046A00033FAB0EB080061EB05014FF40042002340
:1046B00000F02AFABDE8F88F08B501466B460322E0
:1046C000EE20FFF74DFE9DF800209DF801009DF8BB
:1046D0000210120442EA0020084308BD0020EBE764
:1046E0002DE9F0417749784D07460A8968695242B9
:1046F00000EB022449890026A1FB040306FB0433D6
:10470000E21701FB02314FF40002334600F0FCF9DE
:104710004FF4FA614018AE60012F08D1B0F5FA6F7E
:1047200005DA6443E11704EB5101C90FA960A968D8
:10473000401A00F0A6FB9FED6B1B53EC112B00F011
:1047400031FB41EC100BBDE8F0810020B4E72DE90E
:10475000F0415D4C07462DED068B90460E46634DAD
:104760009FED638B6068D8B32146012809784CD04F
:10477000022873D0032830D1084600F093FB41ECA7
:104780001A0B206900F07DFB41EC190B286800F042
:1047900089FB53EC182B00F093FA53EC192B00F023
:1047A00089FA53EC1A2B00F0BDFB16D8FFF796FFE1
:1047B000A0610020FFF7DEFE306000F062FB41ECFC
:1047C000100B9FED4D1BFFF7B7FE51EC100B00F0E7
:1047D000C1FBC8F8000000206060BDEC068BB2E7AA
:1047E000FFE701206060286800F05CFB53EC182BA9
:1047F00000F066FA00F063FBE0606078BDEC068BC9
:104800005030C0B2BDE8F04182E6084600F04AFBF5
:1048100041EC1A0BE06800F034FB41EC190B2868FE
:1048200000F040FB53EC182B00F04AFA53EC192B24
:1048300000F040FA53EC1A2B00F074FBCDD80220A4
:104840006060FFF782FF60610020FFF749FF51ECD5
:10485000100B00F07FFB3860BFE7FFE7286800F02F
:1048600021FB53EC182B00F02BFA00F028FB206101
:1048700060784030C0B2FFF74BFE0320ACE712482F
:104880004078704710B551EC110B2DED028BB0EE56
:10489000408AF0EE608A9FED110B53EC102B00F074
:1048A00081FA9FED0C1B53EC112B00F006FA41EC42
:1048B000100B9FED131B01F09FF953EC102B51ECE3
:1048C000180B21E0A6030020680100200000006012
:1048D000955BC83F000000000000F03F00000000B2
:1048E00040A5E5400000000000005940240C0040B5
:1048F000FCA9F1D24D62503F00000000D0BCF8404E
:10490000000000C01E05154000F04CFABDEC028B03
:1049100041EC100B10BD00005F48604900F15002EF
:10492000D0ED044A70EEE40AC0ED0A0AD0ED033A75
:10493000D1ED012AD1ED031A41EE203AF0EE620AE0
:1049400091ED023A51EE210A90ED002A41EE612AE2
:1049500070EEC30A01EE613A30EE822AD1ED000A10
:1049600041EE020A90ED012A42EE011A90ED021A80
:1049700030EE814A80ED0B4A80EE842A83EE041AE1
:1049800030EE634AB0EE630A82ED002AF0EE603A40
:1049900002EE040A42EE603A82ED011A41EE044A48
:1049A00080ED0C4A80ED030A01EE603A41EE621A96
:1049B000C0ED044AC0ED0D0AC0ED0E2AC1ED003A6B
:1049C000F0EE623A42EE623AC1ED013A81ED023A0E
:1049D000C1ED031A70473048304900F15802D0ED5C
:1049E000094A103170EEE40AC0ED0F0AD0ED083A22
:1049F000D1ED012AD1ED031A41EE203AF0EE620A20
:104A000091ED023A51EE210A90ED052A41EE612A1C
:104A100070EEC30A01EE613A30EE822AD1ED000A4F
:104A200041EE020A90ED062A42EE011A90ED071AB5
:104A300030EE814A80ED104A80EE842A83EE041A1B
:104A400030EE634AB0EE630A82ED002AF0EE603A7F
:104A500002EE040A42EE603A82ED011A41EE044A87
:104A600080ED114A80ED080A01EE603A41EE621ACB
:104A7000C0ED094AC0ED120AC0ED132AC1ED003A9B
:104A8000F0EE623A42EE623AC1ED013A81ED023A4D
:104A9000C1ED031A7047000098010020B403002004
:104AA00070B5174D044680212846FDF7DEF9002831
:104AB000F9D0A1B22846FDF747F9204670BD10B5E0
:104AC0000F4C20212046FDF7D0F90028F9D02046D0
:104AD000FDF73EF9C0B210BD4FF0FF30704770B522
:104AE000084D044680212846FDF7BFF90028F9D07B
:104AF000A1B2BDE870400248FDF726B9FEE700000C
:104B000000440040001001402DE9F0410024061B44
:104B1000254671F1000605DA01240027D0EB0700D5
:104B200067EB0101161E73F1000605DA0027D2EBD0
:104B30000702012567EB030300F028FA86460E46BC
:104B400017469C46AC4204D00025D0EB050E65EB21
:104B5000010624B10020D2EB000760EB030C704685
:104B600031463A466346BDE8F081002800DA40420B
:104B700070472DE9FE4F804681EA0300C00F0C46C6
:104B8000009021F0004123F00045B8EB0200A9415C
:104B900005D24046214690461C460B46024623F06D
:104BA0000040104347D0270DC7F30A00C3F30A5152
:104BB0000290401A019040286BDAC3F3130040F4CE
:104BC000801B0098924620B10023D2EB030A63EBCE
:104BD0000B0B01985946C0F14002504600F007FA0D
:104BE00006460D4650465946019A00F01FFA10EB52
:104BF00008006141002487EA115284EAE7731A43EE
:104C000040D0009A62B3019A012A4FEA075215DC9C
:104C1000001B61EB02014FF0004202EA0752CDE9AE
:104C20000042001C41F5801132462B4600F056FA36
:104C300003B0BDE8F08F40462146F9E7001B61EB69
:104C40000201001C41F5801300185B412018A2F5F9
:104C5000001747EB030140EAD570B6196D4111E02A
:104C60006D084FEA360645EAC0754FEA0752001B49
:104C700061EB0201001C41F5801149084FEA300048
:104C80000019514132462B4603B0BDE8F04F00F009
:104C900016BA0098012240000023D0EB020263EB19
:104CA000E073009821464FEAE074B8EB000061EB36
:104CB0000401E9E783F000435BE781F0004158E736
:104CC0002DE9FE4F81EA030404F0004421F0004185
:104CD00000944FF0000B23F0004350EA01045ED033
:104CE00052EA03045BD0C3F30A54C1F30A552C44BF
:104CF000A4F2F3340194A0FB0254C1F3130141F474
:104D00008011C3F3130343F4801301FB024400FB3F
:104D1000034E840A970A44EA815447EA8357A4FB66
:104D2000076802958D0A05FB07854FEA932C04FB63
:104D30000C542705029D4FEA065847EA1637B5EB93
:104D400008056EEB070C870E920E47EA811742EAC0
:104D50008312A7FB0201B6EB0B0164EB00042B0DE1
:104D600043EA0C335E1844EB1C50DA465146E7FB2D
:104D70000201C5F313044FEA0B3343EA14534FEA1D
:104D80000432019C43EA0603A4F10C040294009C43
:104D9000CDE900B400F0A2F903B0BDE8F08F002027
:104DA0000146F9E72DE9F04D81EA030404F0004BD8
:104DB00021F0004514464FF0000A23F0004150EA6C
:104DC000050220D054EA01021DD0C5F30A5702465D
:104DD000C5F31303C1F31300C1F30A5640F4801561
:104DE00043F48013A7EB0608101BD64608F2FD38E3
:104DF00073EB050002D308F1010801E092185B4152
:104E0000B8F1000F03DA00200146BDE8F08D002064
:104E10004FF48011064684460EE0171B73EB05071E
:104E200005D3121B63EB050306434CEA010C49084A
:104E30004FEA300092185B4150EA0107EDD152EA87
:104E4000030012D082EA040083EA0501084305D07A
:104E5000101BAB4106D20122002306E000224FF0D6
:104E6000004302E06FF0010253101AEB06004CEB16
:104E7000085110EB0A0041EB0B01BDE8F04D00F0CA
:104E80001EB90EB5C10F80EAE0700844CA070021C0
:104E900040F233438DE80E000A460B4600F01EF93F
:104EA00003B000BD0EB540F2334102910021CDE9BF
:104EB00000110A460B4600F011F903B000BD70B5B1
:104EC000C1F30A5201F000450024C1F3130140F27E
:104ED000FF3341F480119A4201DA002070BD40F2A4
:104EE00033439A42A2F2334203DC524200F08EF87E
:104EF00000E090402C43F1D0404270BD00F00042F1
:104F000030F000400AD0C10D01F56071C0F3160009
:104F100042EA0151C2084007114370470020014690
:104F20007047000030B5041E71F1000404DB4FF03F
:104F30000044404264EB0101141E73F1000405DBE0
:104F40001C464FF00043524263EB0403994208BFF2
:104F5000904230BD01F0004330B421F0004150EAEE
:104F6000010206D00A0DA2F56072C1F31301002AF6
:104F700002DC30BC00207047440F44EAC104C10089
:104F8000E01830BC00EBC25000F062B82DE9F05FD1
:104F90000546002092469B468846064681464024A8
:104FA0001BE0284641464746224600F02FF853466C
:104FB0005A46C01A914110D311461846224600F0B5
:104FC00016F82D1A67EB01084F46224601200021F2
:104FD00000F00DF817EB00094E41201EA4F101046A
:104FE000DFDC484631462A464346BDE8F09F202A8A
:104FF00004DB203A00FA02F1002070479140C2F130
:10500000200320FA03F3194390407047202A04DB61
:10501000203A21FA02F00021704721FA02F3D04031
:10502000C2F120029140084319467047202A06DB4E
:10503000CB17203A41FA02F043EAE07306E041FA66
:1050400002F3D040C2F12002914008431946704754
:105050000029A8BF7047401C490008BF20F001008C
:10506000704710B4B0FA80FC00FA0CF050EA01046A
:1050700004BF10BC704749B1CCF1200421FA04F4FC
:1050800011FA0CF118BF012121430843A3EB0C01D5
:10509000CB1D4FEA00614FEA102042BF002010BC38
:1050A000704700EBC35010440029A4BF10BC7047E8
:1050B000401C490008BF20F0010010BC704710B52B
:1050C000141E73F1000408DA401C41F1000192182B
:1050D0005B411A4301D120F0010010BD2DE9F04DD4
:1050E00092469B4611B1B1FA81F202E0B0FA80F229
:1050F00020329046FFF77BFF04460F4640EA0A0045
:1051000041EA0B0153465A46084313D0114653EA6D
:10511000010019D0C8F140025046FFF777FF05465D
:105120000E46504659464246FFF761FF084305D0F8
:10513000012004E020463946BDE8F08D00200543FB
:1051400046EAE0762C4337430A986305E40AA0EB6D
:1051500008000022FD0A44EA47540A3002D5002024
:105160000146E9E7010510196941DDE90845001923
:105170006941BDE8F04DA2E770B521F0004303435B
:105180000CD0C1F30A550024D5EB040564EB0403ED
:10519000D617AD1AB34102DB0020014670BD2018BE
:1051A00041EB025170BD2DE9F04D00231A461B1A48
:1051B0008A4103DB00200146BDE8F08DC1F30A52AD
:1051C000C1F3130141F480154FF0000BD10702D158
:1051D00000186D41521E0027044640F2FF11384668
:1051E00001EB620A3E468046024600204FF48011E1
:1051F000FFF70CFFC2197141BB1846EB0100B4EB7D
:10520000030C75EB000C04D3E41A65EB000517469C
:105210000E46241908F101006D4180463428E3DD73
:10522000F91946EB0600091BA84103D24FF0FF32E3
:10523000134601E0002213461BEB070046EB0A5120
:10524000BDE8F04DFFF73BBF064C074D06E0E068B8
:1052500040F0010394E8070098471034AC42F6D3BD
:10526000FAF796FF98750008B875000870B58C18A5
:1052700010F8015B15F0070301D110F8013B2A116A
:1052800006D110F8012B03E010F8016B01F8016B57
:105290005B1EF9D12B0705D40023521E0DD401F853
:1052A000013BFAE710F8013BCB1A921C03E013F81C
:1052B000015B01F8015B521EF9D5A142D8D3002051
:1052C00070BD0000014A024901F0BCBFA14A0008BC
:1052D000F801002003B401984100009850EAC12071
:1052E00018BF04204A0D18BF40F0010040F2FF72C1
:1052F000B2EB515F08BF40F00200012808BF052053
:1053000002B070470000000070B5C1482DED020BDF
:105310002DED0E8B82B0119D25F000449FEDBEDB7C
:105320009FEDBFEB84423EDBA4F140511098A1F108
:105330007F6108430FD0BC48844202DC28D110981A
:1053400030B39DED100B02B0BDEC0E8B02B0BDE88A
:10535000704001F01DBF9DED100B53EC1D2B51EC67
:10536000100BFFF7ADFC9DED100B41EC180B53EC4F
:105370001E2B51EC100BFFF7A3FC53EC182BFFF77F
:10538000F8FB41EC100B02B0BDEC0E8B02B070BD0F
:10539000012001F051FF02B0BDEC0E8B02B0BDE860
:1053A000704001F009BFA1489FEDA18B844256DAFD
:1053B0009DED100BB4F1795F0ADA51EC100BFFF799
:1053C00089FF042808BF01F017FF9DED100BDAE7F5
:1053D00053EC102B51EC100BFFF772FC41EC190B46
:1053E00095480621B0EE490AF0EE690A784401F0CA
:1053F000A3FD53EC192B51EC100BFFF761FC41ECB2
:105400001A0B8E48B0EE490AF0EE690A042178447E
:1054100001F092FD53EC192B51EC100BFFF750FCEF
:1054200053EC182BFFF7A5FB41EC100B51EC1A0BBA
:1054300053EC102BFFF7B6FCCDE900019DED000BFE
:1054400053EC102B9DED100B51EC100BFFF738FCBB
:105450009DED101B53EC112BFFF78BFBD2E09DED64
:10546000100B51EC100B01F006FF53EC182BFFF75B
:1054700024FC9FED730BCDE9000153EC102B9DED47
:10548000000B51EC100BFFF71BFC41EC190B6E48A5
:105490000621B0EE490AF0EE690A784401F04CFDAD
:1054A00053EC192B51EC100BFFF70AFC41EC1B0BD2
:1054B0006648B0EE490AF0EE690A0421784401F02A
:1054C0003BFD53EC192B51EC100BFFF7F9FB53ECA0
:1054D000182BFFF74EFB41EC1C0B51EC190B01F0A4
:1054E000D6FE41EC180B5A489FED5BABA04222DC84
:1054F00053EC1C2B51EC1B0BFFF754FCCDE90001C6
:105500009DED000B51EC180B53EC102BFFF7D8FB63
:1055100053EC182BFFF72DFB53EC1A2BFFF7D0FBA6
:1055200053EC1D2BFFF7C6FB53EC1E2BFFF7C5FBFF
:1055300041EC100B5FE08DED008B002000909DEDA5
:10554000000B51EC180B53EC102BFFF712FB9DEDE9
:10555000000B41EC1E0B53EC102B51EC100BFFF722
:10556000AFFB53EC192BFFF7A8FB53EC1E2BFFF7F7
:1055700019FC41EC190B53EC1C2B51EC1B0BFFF7E6
:1055800011FC41EC1B0B53EC1A2B51EC190BFFF7E0
:1055900097FB53EC1D2BFFF790FB41EC190B53ECE1
:1055A0001A2B51EC180BFFF78BFB53EC1B2BFFF75F
:1055B00087FB53EC192BFFF77DFB9DED000B41ECB6
:1055C000180B53EC1A2B51EC100BFFF779FB9FEDE6
:1055D000249B53EC192BFFF770FB41EC100B51ECA3
:1055E000180B53EC102BFFF765FB53EC192BFFF74F
:1055F00064FB41EC100B002D3FF7C5AE51EC100BD6
:1056000081F0004141EC100BBDE6000000000000FD
:105610000000F03F00000000075C143326A6913C18
:10562000182D4454FB21F93F0000F07F0000E03FBB
:10563000000000000000F03F101F00001E1F0000CF
:10564000000000000000E03F621E0000701E00002D
:105650003333EF3F00000000000000000000004076
:10566000182D4454FB21E93F70B59B482DED020BEA
:105670002DED068B079D25F00044A04218DC9748CD
:10568000844202DC0AD1069840B19DED060BBDECC8
:10569000068B02B0BDE8704001F07ABD002DCCBF92
:1056A0009FED8F0B9FED900BBDEC068B02B070BD94
:1056B0008F48A04215DD8F48A042D8BF4FF0FF347D
:1056C00058DD9DED060B51EC100BFFF703FE04288F
:1056D00008BF01F091FD9DED060BBDEC068B02B0FD
:1056E00070BD9DED060B51EC100B01F0C4FDCDE932
:1056F000060181489FED828BA0423CDD8248A0429A
:105700001FDD00249FED82AB9DED060B53EC1A2BA1
:1057100051EC100BFFF72DFA9DED060B41EC190B28
:1057200053EC1A2B51EC100BFFF7CAFA53EC182B61
:10573000FFF7C0FA53EC192BFFF734FBCDE9060154
:1057400049E09DED060B012453EC182B51EC100B96
:10575000FFF70FFA9DED060B41EC190B53EC182BDC
:1057600051EC100BFFF7A6FA53EC192BFFF71AFBBD
:10577000CDE906012FE06848A0421FDD02249FED1D
:10578000689B9DED060B53EC192B51EC100BFFF7AA
:1057900097FA53EC182BFFF7ECF99DED060B41EC53
:1057A000180B53EC192B51EC100BFFF783FA53EC49
:1057B000182BFFF7F7FACDE906010CE09DED060B7B
:1057C000032453EC102B9FED580B51EC100BFFF7FB
:1057D000E9FACDE906019DED060B53EC102B51ECD7
:1057E000100BFFF76DFA41EC180B53EC182BFFF779
:1057F00067FA41EC190B4E480621B0EE490AF0EE6B
:10580000690A784401F098FB53EC182B51EC100B0B
:10581000FFF756FA41EC180B4648B0EE490AF0EE95
:10582000690A0521784401F087FB53EC192B51ECF0
:10583000100BFFF745FA41EC100B51EC180B53EC31
:10584000102B002C0EDAFFF794F99DED061B53EC9C
:10585000112BFFF735FA9DED061B53EC112BFFF7CB
:105860002CFA35E0FFF785F99DED061B53EC112B63
:10587000FFF726FA41EC100B2F48784400EBC400E8
:1058800090ED001B51EC100B53EC112BFFF712FAAB
:105890009DED061B53EC112BFFF70CFA41EC100B9E
:1058A0002648784400EBC40090ED001B51EC100B2F
:1058B00053EC112BFFF701FA41EC100B002DA2BFA6
:1058C000BDEC068B02B070BD51EC100B81F00041B5
:1058D00041EC100B01E70000000010440000F07FD5
:1058E000182D4454FB21F93F182D4454FB21F9BFD6
:1058F0000000DC3F0000203E0000F33F00000000FD
:10590000000000000000F03F0000E63F0000000043
:105910000000000000000040008003400000000084
:10592000000000000000F83F000000000000F0BF91
:10593000B21B0000681B0000F21A0000AA1A000047
:1059400070B56B4E2DED040B2DED028B82B0DDF8A2
:105950001CC0DDE905235C422CF000411C4341EAF8
:10596000D474049D22F00040B44205D86C422C430C
:1059700040EAD474B4420BD99DED061B9DED040B97
:1059800002B0BDEC028B04B0BDE8704001F00ABC6F
:10599000ACF14054A4F17F641C430BD0022404EA10
:1059A000AC7444EAD27405439FED538B9FED542BA6
:1059B00007D015E09DED040B51EC100B01F053FCEA
:1059C00042E0002C11BF012C9DED040B02B0BDEC98
:1059D000028B04BF04B070BD022C38D0032C3BD026
:1059E0000B439FED491B9FED4A0B0AD0B14218D1E2
:1059F000B04209D121F0804120F08040079105900C
:105A00000FE0002A15DA10E0434B7B44002C08BF5E
:105A100093ED000B0DD0012C10D0022C17D0032CCD
:105A20001AD0B0421DD1002A03DAB0EE410AF0EEDE
:105A3000610A02B0BDEC028B04B070BD93ED000BA7
:105A400051EC100B81F0004141EC100BF1E7B0EE8E
:105A5000480AF0EE680AECE7B0EE420AF0EE620A9D
:105A6000E7E7401A00153C28C8BF8DED000B19DC94
:105A7000BCF1000FBEBF10F13C0F9FED290B8DED67
:105A8000000B0FDB9DED060B53EC102B9DED040B73
:105A900051EC100BFFF786F901F0EDFB01F0E3FB91
:105AA000CDE90001002C08BF9DED000BC1D0012CF9
:105AB00010D0022C9FED1C0B53EC102B9DED000B16
:105AC00051EC100B0DD0FFF7F5F853EC182BFFF746
:105AD000F1F8B9E7019880F0004001909DED000BCE
