:020000040800F2
:10000000D0170020DD0A0008790500087B050008EC
:100010007D0500087F05000881050008000000003C
:100020000000000000000000000000008305000840
:100030008505000800000000870500088905000804
:10004000F70A0008F70A0008F70A0008F70A00088C
:10005000F70A0008F70A0008F70A0008A5050008D3
:10006000F70A0008F70A0008F70A0008F70A00086C
:10007000F70A0008F70A0008F70A0008F70A00085C
:10008000F70A0008F70A0008F70A0008F70A00084C
:10009000F70A0008F70A0008F70A000847060008F0
:1000A000F70A0008F70A0008F70A0008F70A00082C
:1000B000F70A0008F70A0008F70A0008F70A00081C
:1000C000F70A0008F70A0008F70A0008F70A00080C
:1000D000F70A0008F70A000807060008F70A0008F0
:1000E000F70A0008F70A0008F70A0008F70A0008EC
:1000F000F70A0008F70A0008F70A0008F70A0008DC
:10010000F70A0008F70A0008F70A0008F70A0008CB
:10011000F70A0008F70A0008F70A0008F70A0008BB
:10012000F70A0008F70A0008F70A0008F70A0008AB
:10013000F70A0008F70A0008F70A0008F70A00089B
:10014000F70A0008F70A0008F70A0008F70A00088B
:10015000F70A0008F70A0008F70A0008F70A00087B
:10016000F70A0008F70A0008F70A0008F70A00086B
:10017000F70A0008F70A0008F70A0008F70A00085B
:10018000F70A0008F70A0008DFF810D008F03AF97B
:100190000048004741030008AFF30080D01700205B
:1001A000CE48016841F008010160CD4880210180FE
:1001B0000021021D1180CA4A24321160C84A491E1A
:1001C0002C3211605321121F1180C54A01211432B3
:1001D0001180018841F0010101807047C14A10B5CA
:1001E000A2F12401101D07F08EF8BE4C2C3C94EDBA
:1001F000140B51EC100B07F073FF01EE900A94ED15
:10020000011AD4ED040A94ED0B0A05F099FC84ED73
:10021000040AD4ED030A9FEDB41A60EE810A9FED43
:10022000B31A40EE010AB2EE040AC4ED030A20EE4E
:10023000800A84ED050A10BD70B52DED048BFFF723
:10024000CDFFA84CA64D2C3C243594ED059A94ED99
:100250000E0A39EE400A84ED0D0A2968206C46F238
:10026000A812091A914268D92968081A07F0E0FE15
:100270009FED9F1B53EC112B07F0E8FDC4E916011D
:1002800094ED060A39EE400ADFED9B0A20EE200AC3
:1002900084ED080A10EE100A07F0F6FE9FED971B9A
:1002A00053EC112B07F0D2FD41EC180BE06907F07D
:1002B000EBFE9FED941B53EC112B07F0C7FD53ECA5
:1002C000182B07F01CFD07F00BFF9049E06184ED4F
:1002D000069A884203DD9FED8E0A84ED070A8D4958
:1002E000E069884203D99FED8C0A84ED070AE06B30
:1002F00007F0CAFE9FED891B53EC112B07F0A6FDFA
:1003000041EC180B606A07F0BFFE53EC182B07F0A6
:10031000F6FC07F0E5FE00EE100A84ED090ADFEDB9
:10032000810A20EE200AD4ED070A9FED7F1A00EE25
:10033000810A84ED0A0A28682064BDEC048B70BD34
:100340002DED048B84B04FF4C06000F0D9FBA820E1
:1003500001F0BCFEC82001F0FAFE00F08DFA00F0BA
:10036000B0FA00F023FB4FF4E13000F05DFBFFF743
:1003700017FF02F073F806F0AEFE002006F0D6FE7E
:1003800007F045FE574C2C3CC4E9120105F0EDFE88
:1003900006F07DFADFF848A10AF1240ADAF8000035
:1003A00062499FED569B9FED628ADFF88891DFF8E6
:1003B00088B109F10C074FF4967804F13C0507F178
:1003C000240608605E484FF47A725C498DE80700A5
:1003D0005C4B5D4A5D495E4806F0FDFB84ED149B75
:1003E00087ED028A87ED018A87ED008A89ED028A0E
:1003F00089ED018A89ED008A002060804D4BCDE9AE
:1004000000652433A3F1180202F10C01494805F0FC
:10041000EBFD042001F09BFE6088401C80B26080F0
:100420004045EBD92078401C207097ED000AB0EED3
:10043000C00A10EE100A5845C4DC97ED010AB0EE70
:10044000C00A10EE100A5845BCDC97ED020A41497B
:10045000B0EEC00A10EE100A8842B3DC3EA008F0ED
:100460000FF884ED149B0027FFF7B8FE042001F07D
:100470006EFE7F1CBFB24745F6D994ED050AA8462B
:10048000DFF8F0B09FED1A8B84ED0E0A4FF470493F
:100490004FF47A6755464946584600F0D5FC254B3F
:1004A000CDE900682433A3F1180202F10C012148C0
:1004B00005F09AFDFFF7C0FE606C2968091AB94281
:1004C000FBD32968081A07F0B3FD53EC182B07F08B
:1004D000BDFCC4E9140128686064DCE740380240D0
:1004E000000C00402C000020AC1C7A3F7F6ABC3C12
:1004F0008DEDB5A0F7C6B03E00007A45FCA9F1D25B
:100500004D62703FAC1C5A643BDFEF3F0000C842B5
:100510000000C8420000C8C20000C8C2EFA99CF693
:10052000949C733F295C7F3F0AD7233B64010020E2
:100530000000000080050020CDCCCC3D5C010020F7
:10054000580100205401002060010020C804002050
:10055000C4040020AE47E13D2051756164636F70B3
:100560007465722048656C6C6F20576F726C6421E3
:1005700020000000000C02407047FEE7FEE7FEE7A7
:10058000FEE770477047704770475149002001F1FE
:10059000140231F8103022F81030401CC0B2082884
:1005A000F7D3704710B5022000F060FB002828D078
:1005B00048490868484C2289801A80B2A08009689E
:1005C000A16042F21071884209D9A078082803D1AD
:1005D000607808B9FFF7D9FF0020A0700DE0A0F205
:1005E0001B4140F28332914206D2394AA17822F867
:1005F0001100491CA17001E0012060703749022000
:10060000086010BD704710B5354C40F22771204688
:1006100001F027FD40F22551204601F022FD00287F
:100620000FD0204601F086FC2B4A1178284B283346
:100630000B44491C117018701078122801D3002047
:10064000107010BD704710B520202DED028B00F00A
:100650000DFB002839D02021224800F0D6FB1D498F
:1006600000281D4C086805D0E268801A20610868DF
:10067000E06027E0E1689FED1C1A401A00EE100AC6
:10068000F8EE400A80EE810A10EE100A07F0FCFC3A
:100690009FED161B53EC112B07F0D8FB41EC180B08
:1006A000A06907F0F1FC9FED131B53EC112B07F031
:1006B000CDFB53EC182B07F022FB07F011FD606116
:1006C000A061E061054920200860BDEC028B10BDEF
:1006D000BC050020240C004060000020143C0140B8
:1006E0000044004000100240000068429A99999925
:1006F0009999C93F9A9999999999E93F0CB500221E
:10070000544900920192086840F4803008604FF428
:10071000A043086800F4003001900098401C00904D
:10072000019810B900989842F3D10868800334D535
:100730000120019047484030026842F08052026038
:100740004548026842F4404202604248083002686C
:100750000260026842F400420260026842F4A05261
:100760000260031F3D4A1A600A6842F080720A6004
:100770000A689201FCD53A4940F205720A600168A4
:1007800021F003010160016841F00201016001688C
:10079000C1F381010229FAD10CBD01920CBD31488F
:1007A00010B5016841F4700101602A48016841F008
:1007B00001010160274A00210832116002682A4BBA
:1007C0001A400260031D294A1A60026822F480223E
:1007D000026020480C300160FFF790FF21494FF084
:1007E00000608039086010BD70B51A4D0835286862
:1007F0001F4B204910F00C0004D05E10042803D0D9
:10080000082803D00B601BE00E6019E0114A121D8E
:100810001068C0F38054106800F03F0014B1B6FBBC
:10082000F0F001E0B3FBF0F013681268C3F3881333
:100830005843C2F30142521C5200B0FBF2F0086070
:1008400028680C4AC0F30310121D105C0A68C240ED
:100850000A6070BD00380240007000400854400734
:10086000003C024088ED00E0FFFFF6FE103000245F
:100870000024F400800000202DE9F041012108202F
:1008800000F075FC8D4C4FF47040012720602771FB
:100890000025A57103266671E5712146884800F0A0
:1008A00063FA0121042000F062FC780320602771C4
:1008B000A5716671E5712146BDE8F041814800F0FF
:1008C00053BA70B50121084600F079FC01211020CF
:1008D00000F04DFC79484FF4D4410024016002211E
:1008E0000171032141718471774DC471014628461D
:1008F00000F03AFA01220921284600F0A9FA012263
:100900000B21284600F0A4FA01220D21284600F010
:100910009FFA01220E21284600F09AFA6B48A7217F
:100920006B4D018044F61F614160048144800146A3
:10093000284600F0BFFD654960200C310880012089
:1009400048808C8104208880CC818C60284600F00F
:1009500033FE0821284600F070FF5C4928460C3120
:1009600000F056FE0821284600F06DFF5749284642
:100970000C3100F089FE0821284600F06EFF534933
:1009800028460C3100F0BAFE0821284600F06BFF23
:100990000121284600F0ECFD0121284600F002FE6E
:1009A0002846BDE87040012101F0EEB870B5012184
:1009B000102000F0DCFB0121880300F000FC3F4820
:1009C000002501260571C6712221016001463E48BD
:1009D00000F0CAF90121042000F0B2FC0521042036
:1009E00000F0AEFC354C0220083420602571082050
:1009F0006071A671204600F0E9F8202020601020E8
:100A00006071204600F0E2F80C3C07202070657011
:100A1000A570E670204600F078F817202070204678
:100A2000BDE8704000F071B82DE9F0418046012129
:100A3000480400F0BAFB0121084600F098FB1F486B
:100A400002210C260171032106604171002484718A
:100A50000125204FC5710146384600F085F907226F
:100A60000221384600F0F4F907220321384600F04D
:100A7000EFF9164810380146C0F80080848146819D
:100A80000481C4808480144C204601F0B8F90B49DD
:100A90002620091F08700A2048708D70CD70084606
:100AA00000F033F8012240F22551204601F0B7FA58
:100AB0002046BDE8F041012101F012BA9800002063
:100AC000000C02400008024000100240080600200E
:100AD00000000140000002400044004006488047FA
:100AE00006480047FEE7FEE7FEE7FEE7FEE7FEE713
:100AF000FEE7FEE7FEE7FEE79F0700088901000822
:100B00002849084328490860704730B50F23C27848
:100B100001780125FAB1244A126801F1E02102F4BA
:100B2000E062C2F5E062C2F30722C2F10404D340DE
:100B30004278A24084781C401443220181F80024AA
:100B4000007800F01F018D404009800000F1E02096
:100B5000C0F8005130BD01F01F00854048098000F9
:100B600000F1E020C0F8805130BD104A114001432F
:100B70000D48001F016070470B4A121D00291168C3
:100B800001D0014300E08143116070474FF0E02144
:100B90000428086903D020F004000861704740F081
:100BA0000400FAE70000FA050CED00E080FFFF1FEB
:100BB000354900200860091D0860091D0860091DED
:100BC00008603149314814310860704730B52E4A09
:100BD0008379016853B313688B431360111D0B684D
:100BE0000468A3430B60017911440B680468234334
:100BF0000B60254B083319680468A14319601C1D5C
:100C000021680568A94321604179102905D0114464
:100C10000A68006802430A6030BD1968026811431F
:100C20001960216800680143216030BD00791044DB
:100C300002688A43026030BD0021016001710C220C
:100C4000427181717047104910310A6802430A608D
:100C5000704701460C4A0020143212680A4200D044
:100C60000120704708491431086070470146064A60
:100C70000020143212680A4200D001207047024955
:100C80001431086070470000003C0140FFFF7F0006
:100C9000774910B5884206D10121084600F099FA3B
:100CA000002101205BE07349884206D10121022026
:100CB00000F08FFA0021022051E06F49884206D1EE
:100CC0000121042000F085FA0021042047E06B494F
:100CD000884206D10121082000F07BFA002108207B
:100CE0003DE06749884206D10121102000F071FAE9
:100CF0000021102033E06349884206D101212020E1
:100D000000F067FA0021202029E05F49884206D1DF
:100D10000121402000F05DFA002140201FE05B49E6
:100D2000884206D10121802000F053FA0021802062
:100D300015E05749884202D1012184150AE055493E
:100D4000884202D10121441504E0534988420AD166
:100D500001210415204600F03CFA00212046BDE8A0
:100D6000104000F036BA10BDF0B5002201274FF058
:100D7000030C0B6807FA02F52B40AB422CD1066836
:100D800053000CFA03F4A64306600E79D0F800E095
:100D90009E4046EA0E0606600E79012E01D0022E14
:100DA00012D18668A64386604E79D0F808E09E404E
:100DB00046EA0E0686604668AE43466045688E7910
:100DC0009640B6B235434560C568A543C560CC7949
:100DD0009C40C3681C43C460521C102AC9D3F0BD98
:100DE0004FF6FF7101600021017141718171C17184
:100DF000704708B541F480320092C261C161009928
:100E0000C161C169C069009008BD02460020126935
:100E10000A4200D001207047006980B27047024644
:100E2000002052690A4200D001207047406980B218
:100E3000704701837047418370470AB1018370474F
:100E4000418370474161704742694A40426170473F
:100E50004B07DB0E9A40C90810B500EB8100016A10
:100E60000F249C40A1430162016A1143016210BD3D
:100E7000000002400004024000080240000C024052
:100E8000001002400014024000180240001C024002
:100E9000002002400024024000280240F848016877
:100EA00041F001010160F64A002108321160026838
:100EB000F44B1A400260031DF34A1A60F04BF34AE8
:100EC00084331A60F04A103A1B1D1A60026822F43B
:100ED00080220260EA480C300160181D01607047F2
:100EE000E7490022891C0A700870704702460020FA
:100EF000510901290CD002290CD0E149743109684B
:100F000002F01F02012393400B4200D001207047E2
:100F1000DB49F4E7DA497031F1E718B500204FF406
:100F2000A04400903120FFF7E1FF0099491C009197
:100F3000A14201D00028F5D03120FFF7D7FF0028CB
:100F400000D0012018BDCE4A116821F0F80141EA15
:100F5000C00010607047CE4908607047C849002241
:100F600070310A700A70012802D0042801D10520CE
:100F700008707047C7490860704741EA82115A08F3
:100F800010B5C54B029C03EB02421143014341EAF9
:100F90000460BB49091D086010BDBD490866704763
:100FA000800140EA0170B649843108607047B84951
:100FB00088667047800140EA0160B14940EA0270EA
:100FC000883108607047B24908677047B049C86403
:100FD0007047AB4B08331A68084322F0EC621043A9
:100FE00018607047A64B08331A68084322F078420D
:100FF000104318607047A24A0832116821F00301BB
:101000000143116070479E480830006800F00C00F2
:1010100070479B4A0832116821F0F00101431160CA
:101020007047974A0832116821F4E051014311607A
:101030007047934A0832116821F4604141EAC000C8
:101040001060704770B58E4B08331968934C11F0DF
:101050000C0104D06610042903D0082903D00460D1
:101060001BE0066019E0864A121D1168C1F3805525
:10107000116801F03F0115B1B6FBF1F101E0B4FBDD
:10108000F1F114681268C4F388146143C2F3014299
:10109000521C5200B1FBF2F1016019680F2202EA02
:1010A00011117F4A545C0168E14041601C680725CA
:1010B00005EA9424145D21FA04F484601B6805EAAF
:1010C0005333D25CD140C16070BDC0F3012103290C
:1010D00008D16B4B08331968724A21F4F8110240A9
:1010E0000A431A60664970310A68C0F30B00024374
:1010F0000A6070476749443908607047654940395C
:10110000086070476249C1F85C0170475C4A8C32E4
:101110001168401E21F01F01014311607047584AB9
:101120008C3211686FF0FF0321F4F85103EB0020BB
:10113000084310607047524A8C32116821F4401104
:101140000143116070474E4A8C32116821F440010E
:101150000143116070474A4A8C32116821F44031D2
:101160000143116070475049C1F8E0017047444A9B
:1011700030320029116801D0014300E08143116041
:1011800070473F4A34320029116801D0014300E022
:101190008143116070473A4A38320029116801D002
:1011A000014300E0814311607047354A4032002915
:1011B000116801D0014300E0814311607047304A5B
:1011C00044320029116801D0014300E081431160DD
:1011D00070472B4A10320029116801D0014300E00A
:1011E000814311607047264A14320029116801D0EA
:1011F000014300E0814311607047214A1832002901
:10120000116801D0014300E08143116070471C4A1E
:1012100020320029116801D0014300E081431160B0
:101220007047174A24320029116801D0014300E0B9
:10123000814311607047124A50320029116801D071
:10124000014300E08143116070470D4A5432002988
:10125000116801D0014300E0814311607047084AE2
:1012600058320029116801D0014300E08143116028
:101270007047034A60320029116817D0014316E015
:1012800000380240FFFFF6EA103000240030002052
:1012900000004742800E47420000FFFF0024F40098
:1012A000A8000020FFFCFF0F00104742814311609F
:1012B0007047194A0029116801D0014300E08143B9
:1012C0001160704714490C310128086803D020F0E0
:1012D00008000860704740F00800FAE70E4A573AE5
:1012E0000029117801D0014300E08143117070475B
:1012F00009481030016841F0807101607047014673
:10130000054A0020583A12680A4200D0012070476E
:1013100001495639087070476438024010B5012100
:101320008C032046FFF77DFF2046BDE810400021DA
:10133000FFF777BF14490860704714490862704787
:1013400010B58A0721F003041149120F21440F231D
:10135000D1F8084893409C43C1F80848D1F80838B0
:1013600090400343C1F8083810BD0849C1F8DC00BB
:101370007047084908607047034900202031096818
:10138000C90500D501207047003801400000274200
:101390000030014000042742FE4910B5884206D1C2
:1013A00001210846FFF73DFF002101205BE0B0F17D
:1013B000804F09D0F84988420DD101210220FFF762
:1013C00026FF0021022070E001210846FFF71FFFE1
:1013D0000021012069E0F149884206D10121042061
:1013E000FFF715FF002104205FE0ED49884206D198
:1013F00001210820FFF70BFF0021082055E0E949F3
:10140000884206D101211020FFF701FF00211020A2
:101410004BE0E549884206D101212020FFF7F7FE85
:101420000021202041E0E149884206D1012102202B
:10143000FFF7F7FE0021022015E0DD49884202D1C6
:1014400001210C040AE0DB49884202D101214C044D
:1014500004E0D94988420AD101218C042046FFF7D3
:10146000E0FE00212046BDE81040FFF7DABED34978
:10147000884206D101214020FFF7C9FE002140200B
:1014800013E0CF49884206D101218020FFF7BFFE3B
:101490000021802009E0CB4988420AD1841501212E
:1014A0002046FFF7B4FE00212046BDE81040FFF7BC
:1014B000AEBE10BD30B50288B64CBC4DA0420DD0BA
:1014C000A8420BD0B0F1804F08D0B34B984205D062
:1014D000B24B984202D0B24B984203D122F0700333
:1014E0004A881A43AF4B984206D0AF4B984203D07C
:1014F00022F440730A891A4302804A68C2620A8849
:101500000285A04201D0A84201D1897A0186012139
:10151000818230BD4FF0FF314160002101800181A7
:10152000418081727047018582827047028822F073
:1015300070020A430280704741627047C16270477F
:10154000406A7047008D70470029018802D041F041
:10155000020101E021F002010180704700290188A9
:1015600002D041F0040101E021F004010180704744
:101570000029018802D041F0800101E021F08001C2
:1015800001807047028822F00802028002880A4324
:1015900002807047028822F44072028002880A4367
:1015A000028070470029018802D041F0010101E06A
:1015B00021F001010180704730B5028C22F0010258
:1015C0000284028C8388048B22F0020224F07305CB
:1015D0000C882C438D8915434A882A436D4DA842B7
:1015E00002D0724DA8420DD122F00805CA8923F419
:1015F00040732A4322F004058A882A430D8A1D433A
:101600004B8A2B438380048389684163028430BD05
:1016100070B5028C22F010020284028C8388048B45
:101620000D8824F4E6464FF6FF7404EA0525354399
:101630008E8922F0200204EA061616434A8804EA3C
:1016400002123243534EB04202D0584EB04215D12E
:1016500022F08006CA8923F4406304EA021232436E
:1016600022F040068A8804EA021232430E8A04EA13
:1016700086061E434B8A04EA830333438380058333
:1016800089688163028470BD70B5028C22F4807217
:101690000284028C8388848B0D8824F07304254394
:1016A0008E894FF6FF7422F4007204EA0626164370
:1016B0004A8804EA02223243364EB04202D03B4E00
:1016C000B04215D122F40066CA8923F4405304EADB
:1016D0000222324322F480668A8804EA02223243DC
:1016E0000E8A04EA06161E434B8A04EA03133343A8
:1016F000838085838968C163028470BD70B5028C64
:1017000022F480520284058C8288838B0C8823F417
:10171000E6464FF6FF7303EA0424344325F40056EB
:101720008D8903EA053535434E8803EA06362E4394
:10173000184DA84202D01D4DA84205D122F4804583
:101740000A8A03EA82122A438280848389680164B8
:10175000068470BD0021018041808180816081818B
:10176000C18101824182704730B50124058C00F1AE
:1017700018038C40A543058431B308292CD0091FD8
:10178000C1F34E001844016848F6FF731940016028
:1017900001681AE000000140000400400008004019
:1017A000000C004000100040001400400004014004
:1017B0000040014000440140004801400018004042
:1017C000001C00400020004006E04FF6FF7303EAD3
:1017D00002221143016030BD03EB510001684FF656
:1017E0008F73194001600168F3E7416370478163BB
:1017F0007047C163704701647047028B22F070022A
:101800000A4302837047028B4FF6FF7322F4E042D3
:1018100003EA0121114301837047828B22F0700299
:101820000A4382837047828B4FF6FF7322F4E042B3
:1018300003EA0121114381837047028B22F00802E1
:101840000A4302837047028B4FF6FF7322F4006253
:1018500003EA0121114301837047828B22F00802C1
:101860000A4382837047828B4FF6FF7322F4006233
:1018700003EA0121114381837047028B22F00402A5
:101880000A4302837047028B4FF6FF7322F4806293
:1018900003EA0121114301837047828B22F0040285
:1018A0000A4382837047828B4FF6FF7322F4806273
:1018B00003EA0121114381837047028B22F08002E9
:1018C0000A4302837047028B4FF6FF73C2F30E0286
:1018D00003EA0121114301837047828B22F08002C9
:1018E0000A4382837047828B4FF6FF73C2F30E0266
:1018F00003EA0121114381837047028C22F0020226
:101900000A4302847047028C22F008020A430284D0
:101910007047028C4FF6FF7322F0200203EA011198
:10192000114301847047028C4FF6FF7322F080024E
:1019300003EA0111114301847047028C4FF6FF73D3
:1019400022F4007203EA0121114301847047028CE2
:101950004FF6FF7322F4006203EA01211143018470
:101960007047028C4FF6FF7322F4005203EA0131F4
:1019700011430184704710B50123048C8B409C43B4
:101980000484038C8A401343038410BD10B50423E0
:10199000048C8B409C430484038C8A40134303844F
:1019A00010BD828B22F440628283828B4FF6FF73DC
:1019B00003EA01210A4382837047828B22F00C02E2
:1019C0008283828B0A4382837047028B22F44062B7
:1019D0000283028B4FF6FF7303EA01210A4302835D
:1019E0007047F0B5048C24F010040484078B068C37
:1019F0004FF6FF7404EA011527F4734704EA033134
:101A0000394304EA02220A4326F0A001294341F0A7
:101A1000100102830184F0BD028B22F00C020283CC
:101A2000028B0A43028370472DE9F0410C460E8871
:101A30004988A288238905460EB3042E26D0082E95
:101A40002E8C4FF6FF7028D026F480562E84AF8B54
:101A50002E8C00EA022200EA013127F473473A4350
:101A600000EA0330104326F420420A4342F4805136
:101A7000A8832984E1882846BDE8F04191E700F079
:101A800062F9E1882846BDE8F041C5E7FFF7A9FF04
:101A9000E1882846BDE8F04197E726F480762E8459
:101AA000AF8B2E8C00EA012100EA0310104327F0CF
:101AB000F307384326F420620A4342F48071A88376
:101AC0002984E1882846BDE8F04176E700210180BD
:101AD000418001228280C180018170472DE9F0415F
:101AE0000C46002649880746012501B90226A2882E
:101AF000012A00D10225208823890028384610D0E9
:101B0000FFF76FFFE1883846FFF75FFF23892A461A
:101B10003146384600F017F9E1883846BDE8F04113
:101B20007AE700F010F9E1883846FFF775FF23895E
:101B30002A4631463846FFF754FFE1883846BDE86B
:101B4000F04142E7406B7047806B7047C06B704755
:101B5000006C704710B50A884B88CC881A438B8874
:101B600023431A430B891A434B8989891A430A4331
:101B7000A0F8442010BD0021018041808180C180F7
:101B80000181418181817047002930F8441F02D0D2
:101B900041F4004101E0C1F30E01018070470029CA
:101BA000818802D041F0040101E021F0040181802C
:101BB00070470029818802D041F0010101E021F045
:101BC000010181807047002A828901D00A4300E028
:101BD0008A43828170478182704702460020128AC0
:101BE0000A4200D001207047C94301827047024673
:101BF0000020138A92890B4202EA010202D0002AD5
:101C000000D001207047C943018270471143A0F8FA
:101C100048107047002A828901D00A4300E08A43B5
:101C2000828170470029818802D041F0080101E0DB
:101C300021F0080181807047018921F007010181AD
:101C40007047028922F070020A430281704700B592
:101C50000346FFF7F6FF188940F00700188100BD22
:101C600070B516460D46602904464FF00102314614
:101C70000AD000F068F829462046FFF7E2FF2089E5
:101C800040F00700208170BDFFF7ABFEF3E730B5F1
:101C900004894FF6FF7505EA03231343E4B20B43AF
:101CA0002343038130BD10B50446FFF7F0FF2089C0
:101CB00040F07700208110BD10B50446FFF7E7FF24
:101CC000208940F48040208110BD828822F070027B
:101CD000828082880A4382807047028922F007024C
:101CE000028102890A4302817047028922F0800240
:101CF000028102890A430281704770B50589048B0D
:101D0000068C25F007050D434FF6FC410C4040F2D0
:101D100001110C434FF6FF7101EA031126F0220670
:101D20001143314305810483018470BD00298188FA
:101D300002D041F0800101E021F0800181807047F4
:101D4000A0F85010704770B5048C24F0010404848E
:101D5000058B048C4FF6FF7606EA0313134325F038
:101D6000F3052B4324F00A020A4342F001010383E6
:101D7000018470BDCD4910B5884206D101211020E3
:101D8000FFF74FFA0021102020E0C949884202D114
:101D900001214C0429E0C749884202D101218C0469
:101DA00023E0C549884202D10121CC041DE0C3498A
:101DB000884202D101210C0517E0C149884209D1AE
:101DC00001212020FFF72DFA00212020BDE810403E
:101DD000FFF727BABB49884202D101218C0704E0F2
:101DE000B94988420AD1012144052046FFF70FFA7C
:101DF0002046BDE810400021FFF709BA10BD7FB5AD
:101E00000446008A0D46C98820F4405001432182CF
:101E1000A08941F20C618843A9882A8911436A8903
:101E200002431143A181A08A20F44071A88908438C
:101E3000A0826846FFF706F99C48844202D0A04879
:101E4000844201D1039800E00298A189090400EBC3
:101E5000C00101EB0010296801D5490000E08900AC
:101E6000B0FBF1F06422B0FBF2F109010B096FF055
:101E700018056B4300EB8300A3891D044FF0320368
:101E800006D503EBC000B0FBF2F000F0070005E060
:101E900003EB0010B0FBF2F000F00F0008432081CC
:101EA0007FBD4FF41651016000218180C180018106
:101EB0000C2242818181704710B5028A4C8822F43D
:101EC00070630A8822438C88C9880C4322431A43D2
:101ED000028210BD0021018041808180C180704755
:101EE0000029818902D041F4005101E021F4005120
:101EF00081817047028B02F47F420283028B0A4386
:101F0000028370470029818902D041F4004101E039
:101F1000C1F30E01818170470029818A02D041F40A
:101F2000006101E021F4006181827047C1F3080182
:101F3000818070478088C0F308007047028A22F0D1
:101F40000F020282028A0A430282704700298189B5
:101F500002D041F0020101E021F0020181817047CD
:101F6000828922F40062828182890A4382817047D9
:101F7000028A22F020020282028A0A430282704709
:101F80000029018A02D041F4804101E021F480411E
:101F900001827047818941F00101818170470029E8
:101FA000818A02D041F0080101E021F0080181821C
:101FB0007047028BD2B20283028B42EA0121018375
:101FC00070470029818A02D041F0200101E021F010
:101FD0002001818270470029818A02D041F01001DE
:101FE00001E021F0100181827047828A22F0040210
:101FF0008282828A0A43828270470029818A02D0C3
:1020000041F0020101E021F0020181827047002AC3
:10201000828A01D00A4300E08A438282704710B569
:10202000C1F3421301F01F040121A140012B07D08D
:10203000022B07D01430002A026805D00A4304E0BE
:102040000C30F8E71030F6E78A43026010BD024614
:10205000002012880A4200D001207047C943018045
:10206000704770B501F01F0501260024C1F342132B
:1020700006FA05F2012B0FD0022B0FD0838A4FEA0C
:1020800011210088134206FA01F600EA060001D089
:1020900000B10124204670BD8389F0E7038AEEE792
:1020A0000A0A01219140C943018070470010014094
:1020B0000044004000480040004C004000500040F8
:1020C0000014014000780040007C004010B5044638
:1020D0006FF00400FEF75AFD2949E00800EB4002CA
:1020E0000870C2EBC0104FF6FF7202EAC0004880D1
:1020F00010BD2349097848434FF0E021486100238F
:102100008B61086940F0010008610869C20701D0CD
:10211000C003FAD5086920F0010008618B6170479F
:102120001749498848434FF0E021486100238B61FB
:10213000086940F0010008610869C20701D0C003C6
:10214000FAD5086920F0010008618B61704770B50D
:102150004FF40776B0FBF6F1CCB2B0FBF6F106FB1C
:10216000110504E03046FFF7DBFF641EE4B2002CEB
:10217000F8D1002D03D02846BDE87040D0E770BDEF
:10218000B800002010B54FF48071A048FEF73DFE66
:10219000012800D0002010BDF0B59E4D9C4C0023BE
:1021A00095F901700A2624F8170004EB47007F1CFC
:1021B000C182828597FBF6F006FB107068701846A6
:1021C00034F91010401CC0B20B440A28F8D393FB1A
:1021D000F6F002B20021A282084604EB4003401C44
:1021E000B3F91630C0B219440A28F6D391FBF6F0C1
:1021F00003B200216385084604EB4007401CB7F991
:102200002C70C0B239440A28F6D391FBF6F000B224
:10221000A4F84000297800291DD0B5F90E108A4293
:1022200000DAEA81B5F910108B4200DA2B82B5F999
:102230001210884200DA6882B5F908108A4200DD7F
:102240002A81B5F90A108B4200DD6B81B5F90C10BB
:10225000884200DDA881F0BD7CB500238DF80530F3
:1022600014460D4606468DF8043000936B46062250
:1022700003213C2004F04EFEBDF8020040BA02B239
:10228000BDF8040040BA01B2BDF8000040BA00B287
:10229000FFF782FF5E48818A3180418D2980B0F846
:1022A000400020807CBD7CB500246D462A1D684618
:1022B000A91CFFF7D1FFC820FFF71BFF641CE4B285
:1022C000322CF3D37CBD0A4601463C2004F078BE94
:1022D0004F4B10B59C8A0480588D0880B3F840009D
:1022E000108010BD3EB5044602AA01A96846FFF75A
:1022F000B3FF4849BDF90000B1F90220D1ED050A4C
:10230000801A00EE100AB8EEC00A20EE200A81ED15
:10231000080A84ED000ABDF90400B1F90420D1EDEA
:10232000060A801A00EE100AB8EEC00A20EE200A53
:1023300081ED090A84ED010ABDF90800B1F9062012
:10234000D1ED070A801A00EE100AB8EEC00A20EE9E
:10235000200A81ED0A0A84ED020A3EBD072803D84F
:102360004007010E0120AEE7704710B5022808D8DB
:1023700001460220FFF7A7FFBDE810406420FFF7E9
:10238000B8BE10BD10B510B10020FFF7EEFF7021F0
:102390000020FFF798FFA0210120FFF794FF002104
:1023A000BDE8104002208EE7062803D88006010E03
:1023B000002088E7704710B504460A213C2004F04D
:1023C0008AFD20700B213C2004F085FD60700C21FB
:1023D0003C2004F080FDA07010BD10B50020FFF778
:1023E000D1FF0020FFF7C1FF0620FFF7DDFFBDE8AA
:1023F000104058E707480121017000210181418107
:102400008181C18101824182704700000008024041
:1024100028060020BC000020F6EE000A0CB560EE95
:10242000200A10EE100ACDED000A8DED010AFE49DA
:10243000B0EE600AA1EB600000EE900A01EE100A17
:10244000019060EE200AB7EE080A00EEC10A00EE25
:10245000900A20EE200A8DED010A0CBD2DE9FC4109
:1024600001210420FEF783FE01258DF80450022689
:10247000C0208DF805600024EC4F00908DF80640D8
:102480008DF8074069463846FEF76EFC01210420AE
:10249000FEF76DFE8DF8044068028DF8056000902F
:1024A0008DF806408DF8075069463846FEF75CFC0B
:1024B00004F0F2FAFFF791FF1420FFF748FEBDE8A1
:1024C000FC8170B586B005460DF1120004A902AE7C
:1024D000CDE900103046B11C321DB31D04F08AFA5C
:1024E000D348002436F8141020F81410641CE4B209
:1024F000062CF7D300219FEDCF2ACF4ADFEDCF1A6C
:10250000DFEDCF0A01E0032914D236F9110005EB03
:10251000810300EE100A02EB8100B8EEC00A90EDD4
:10252000001A20EE020A01EE210A83ED000A80ED76
:10253000000A0BE036F9110000EE100A05EB8100ED
:10254000B8EEC00A80EE201A80ED001A491CC9B20C
:102550000629D8D305F11800FFF7C4FE06B070BDF8
:102560002DE9F743B74D91462DED0A0B0E468046F7
:102570002DED108B90B095ED010A60EE000ACDEDC7
:10258000060A95ED021AD5ED030A20EE01DA60EE97
:1025900020AA21EEA10A61EE018A21EE20AA20EEF6
:1025A000A08A02EE020A02EEA20AFFF735FF61EEF0
:1025B000800ACDED230A62EE000A22EE800ACDEDFC
:1025C000240A8DED250A23EE030A03EEA30A04EE86
:1025D000040AFFF721FF24EE00BAF0EE00DA23EE42
:1025E00000EA63EE80BAB0EE6D0A7AEE2A0A2BEEAC
:1025F000000AF0EE40EA20EE200A10EE100A05F084
:1026000043FDB0EE6D0A41EC110B2BEE800A7AEE21
:102610006A0A8DED021B8DED010ACDED050A20EE53
:10262000200A10EE100A05F02FFD41EC1F0B18EEEA
:10263000100A05F029FD41EC1C0B18EE100A05F0FC
:1026400023FD9FED819B53EC192B05F0FCFB53EC14
:102650001C2B05F0F5FBB0EE6D0A41EC1C0B2EEEC9
:10266000000A8DED000A10EE100A05F00DFD53EC86
:102670001C2B05F0EBFB53EC1F2B05F040FB9DEDF5
:10268000021B53EC112B05F03AFB05F029FD00EE7F
:10269000100A78EE4D0A8DED020AB0EE6E0A20EEB9
:1026A000200A10EE100A05F0EFFC41EC1F0B18EEAB
:1026B000100A05F0E9FC41EC1C0B18EE900A05F03D
:1026C000E3FC53EC192B05F0BEFB53EC1C2B05F07F
:1026D000B7FB9DED010A41EC1C0B10EE100A05F052
:1026E000D3FC53EC1C2B05F0B1FB7AEE2A0A9DEDCE
:1026F000000A41EC1C0B20EE200A10EE100A05F037
:10270000C3FC53EC1C2B05F0FAFA53EC1F2B05F01D
:10271000F6FA05F0E5FC0DEE900A18EE100A05F049
:10272000B3FC41EC1C0B18EE900A05F0ADFC53EC29
:10273000192B05F088FB53EC1C2B05F081FB41ECB9
:102740001C0BB0EE6E0A10EE100A05F09DFC53EC67
:102750001C2B05F07BFB7AEE6AEA9DED000A38EE51
:102760000D1A41EC1C0B60EE2E0A9DED010A40EEA5
:10277000010A10EE900A05F087FC53EC1C2B05F0C3
:10278000BEFA05F0ADFC9DED020A0CEE100A20EE3B
:10279000000A0DEEAD0A10EE100A05F075FC41ECD2
:1027A000100B07F099F951EC100B05F099FC00EEB5
:1027B000100A8DED070AB0EE000A6EEE800AB0EE48
:1027C000480ACDED040A7DEE000AB0EE000ACDED18
:1027D000010A60EE800ACDED030A9DED060A70EE57
:1027E000680AB0EE480A70EEC00A70EE800AB0EED9
:1027F000000A2CEE000ACDED020A8DED000A20EE53
:102800002E0A10EE100A05F03FFC41EC1D0BB0EE55
:10281000480A10EE100A05F037FC41EC1C0B18EECC
:10282000100A05F031FC13E0DF59375F0008024061
:10283000DC120020CDCCCC3E140700209A99193F21
:1028400033338341E8000020000000000000E03F37
:102850001FED03FB53EC1F2B05F0F5FA53EC1C2B7B
:1028600005F0EEFA9DED070AF0EE000A41EC190BB7
:1028700020EE20CA1CEE100A05F006FC53EC192BC2
:1028800005F0E4FA53EC1D2B05F039FA05F028FCAD
:102890009DED050A0DEE100A18EE100A6CEE00CA46
:1028A0009DEC020A40EE20CA05F0EEFB41EC190B4C
:1028B00018EE900A05F0E8FB53EC1F2B05F0C3FA65
:1028C00053EC192B05F0BCFA9DED000A41EC180BF6
:1028D00010EE100A05F0D8FB53EC182B05F0B6FAF1
:1028E0003AEE8A0A41EC180B2CEE000A10EE100AA0
:1028F00005F0CAFB53EC182B05F001FA05F0F0FBCC
:102900009DED241ADDED020ADDED251A00EE100A18
:1029100021EE201ADDED030A01EEE01A6BEE800ACB
:102920004BEE6C0A71EE209ADDED040A21EEA01A3E
:10293000DDED231ADDED020A01EEE01A6BEE0D0A61
:102940004EEE400A31EE209ADDED030A9DED241A89
:1029500021EEA00ADDED040A01EE600A6EEE2C0AFB
:102960004BEECD0A30EE20BADFEDFEBA29EEAB0A0F
:1029700010EE100A05F088FB05F1800494ED1C1B95
:1029800053EC112B05F062FA9FEDF78B53EC182BEB
:1029900005F05CFA41EC1A0B686905F075FB53EC25
:1029A0001A2B05F0ACF905F09BFB29EE2B0A0CEE77
:1029B000100A85ED05CA10EE100A05F065FB94EDCE
:1029C0001C1B53EC112B05F041FA53EC182B05F0AE
:1029D0003DFA41EC1A0BA86905F056FB53EC1A2B93
:1029E00005F08DF905F07CFB2BEE2B0A0AEE100AA0
:1029F00085ED06AA10EE100A05F046FB94ED1C1BAF
:102A000053EC112B05F022FA53EC182B05F01EFAAB
:102A100041EC180BE86905F037FB53EC182B05F077
:102A20006EF905F05DFB00EE100AF0EE080A85ED88
:102A3000070A9DED201AD5ED02BA95ED038A09EE3D
:102A4000A01A71EE0C9A9DED211A09EE201A31EEB2
:102A50000A9A9DED221A0BEE201A69EEEB0A49EE56
:102A6000480A71EE008AB6EE000A48EEC80A60EE27
:102A700080DAC5ED08DA95ED01BA69EE8B0A48EE09
:102A8000880A49EE480A20EE80DA69EE0B0A85EDE5
:102A900009DA48EEEB0A49EE880A60EE80CA68EE71
:102AA0008B0AC5ED0ACA49EE2B0A49EEC80A20EE88
:102AB00080CA85ED0BCA1CEE100A05F0E5FA94ED0C
:102AC0001C1B53EC112B05F0C1F941EC1A0B18EE4D
:102AD000100A05F0D9FA53EC1A2B05F010F941EC65
:102AE0001A0B18EE900A05F0CFFA94ED1C1B53EC6C
:102AF000112B05F0A8F953EC1A2B05F0A7F941ECBE
:102B00001E0B1CEE900A05F0BFFA94ED1C1B53EC53
:102B1000112B05F09BF941EC1A0B18EE100A05F089
:102B2000B3FA53EC1A2B05F0EAF841EC1A0B19EE44
:102B3000100A05F0A9FA94ED1C1B53EC112B05F0BB
:102B400082F953EC1A2B05F081F941EC110B1DEEC3
:102B5000100A8DED001B05F097FA94ED1C1B53EC49
:102B6000112B05F073F941EC1A0B1BEE900A05F0DE
:102B70008BFA53EC1A2B05F0C2F841EC1A0B19EE44
:102B8000900A05F081FA94ED1C1B53EC112B05F013
:102B90005AF953EC1A2B05F059F941EC1F0B1DEEB5
:102BA000900A05F071FA94ED1C1B53EC112B05F003
:102BB0004DF941EC1A0B1BEE100A05F065FA53ECC7
:102BC0001A2B05F09CF894ED1C1B53EC112B05F00F
:102BD0003DF953EC1F2B05F092F89DED001B53ECD3
:102BE000112B05F08CF853EC1E2B05F088F81FED27
:102BF000EA1B53EC112B05F029F905F071FA00EEF0
:102C0000100A1CEE100A85ED0C0A8DED030A05F082
:102C10003BFA94ED1C1B53EC112B05F017F941EC1A
:102C20001A0B18EE100A05F02FFA53EC1A2B05F0C8
:102C300066F841EC1A0B19EE100A05F025FA94ED2E
:102C40001C1B53EC112B05F0FEF853EC1A2B05F06E
:102C5000FDF841EC110B1CEE900A8DED001B05F008
:102C600013FA94ED1C1B53EC112B05F0EFF841EC1B
:102C70001A0B18EE100A05F007FA53EC1A2B05F0A0
:102C80003EF841EC1A0B18EE900A05F0FDF994EDB0
:102C90001C1B53EC112B05F032F853EC1A2B05F0EA
:102CA000D5F841EC1F0B1DEE100A05F0EDF994ED7F
:102CB0001C1B53EC112B05F0C9F841EC1A0B1BEE51
:102CC000900A05F0E1F953EC1A2B05F018F894ED91
:102CD0001C1B53EC112B05F0B9F841EC1E0B1DEE3B
:102CE000900A05F0D1F994ED1C1B53EC112B05F063
:102CF000ADF841EC1A0B1BEE100A05F0C5F953ECC8
:102D00001A2B04F0FCFF41EC1A0B19EE900A05F0A7
:102D1000BBF994ED1C1B53EC112B04F0F0FF53ECAA
:102D20001A2B05F093F853EC1E2B04F0E8FF53EC3C
:102D30001F2B04F0E4FF9DED001B53EC112B04F05E
:102D4000DEFF9FED0B1B53EC112B05F07FF805F018
:102D5000C7F900EE100A1CEE100A85ED0D0A8DED84
:102D6000020A09E08FC2F53C0000000000000040AC
:102D7000000000000000E03F05F086F994ED1C1B08
:102D800053EC112B05F062F841EC1A0B18EE100A07
:102D900005F07AF953EC1A2B04F0B1FF41EC1A0B51
:102DA00019EE900A05F070F994ED1C1B53EC112BF1
:102DB00004F0A5FF53EC1A2B05F048F841EC1E0B6C
:102DC0001CEE900A05F060F994ED1C1B53EC112BDE
:102DD00005F03CF841EC1A0B18EE100A05F054F916
:102DE00053EC1A2B04F08BFF94ED1C1B53EC112BAE
:102DF00005F02CF841EC110B1DEE100A8DED001BB7
:102E000005F042F994ED1C1B53EC112B05F01EF854
:102E100041EC1A0B1BEE900A05F036F953EC1A2B15
:102E200004F06DFF41EC1A0B18EE900A05F02CF936
:102E300094ED1C1B53EC112B05F005F853EC1A2BE9
:102E400005F004F841EC1A0B1DEE900A05F01CF990
:102E500094ED1C1B53EC112B04F0F8FF41EC1F0BFD
:102E60001BEE100A05F010F953EC1F2B04F047FF7E
:102E700041EC1F0B19EE100A05F006F994ED1C1B2E
:102E800053EC112B04F03BFF53EC1F2B04F0DEFF3F
:102E900053EC1A2B04F033FF9DED001B53EC112B68
:102EA00004F02DFF53EC1E2B04F029FF1FED501BE7
:102EB00053EC112B04F0CAFF05F012F900EE100AD2
:102EC0001CEE100A85ED0E0A8DED010A05F0DCF806
:102ED00094ED1C1B53EC112B04F0B8FF41EC1A0BC2
:102EE00018EE100A05F0D0F853EC1A2B04F007FF87
:102EF00094ED1C1B53EC112B04F0A8FF41EC110BBB
:102F00001CEE900A8DED041B05F0BEF894ED1C1B21
:102F100053EC112B04F09AFF41EC1A0B18EE100A37
:102F200005F0B2F853EC1A2B04F0E9FE41EC1A0B51
:102F300019EE900A05F0A8F894ED1C1B53EC112B28
:102F400004F081FF53EC1A2B04F080FF41EC1E0BC0
:102F50001DEE100A05F098F894ED1C1B53EC112B94
:102F600004F074FF41EC1A0B1BEE900A05F08CF88C
:102F700053EC1A2B04F0C3FE41EC1A0B19EE100AA5
:102F800005F082F894ED1C1B53EC112B04F0B7FEF6
:102F900053EC1A2B04F05AFF41EC1A0B1DEE900A69
:102FA00005F072F894ED1C1B53EC112B04F04EFF4E
:102FB00041EC1F0B1BEE100A05F066F853EC1F2BBB
:102FC00004F09DFE41EC1F0B18EE900A05F05CF832
:102FD00094ED1C1B53EC112B04F091FE53EC1F2BB2
:102FE00004F034FF53EC1A2B04F089FE53EC1E2B33
:102FF00004F085FE9DED041B53EC112B04F07FFEC5
:103000001FEDA51B53EC112B04F020FF05F068F811
:1030100000EE100A85ED0F0A8DED000A10EE100A81
:1030200005F032F894ED1C1B53EC112B04F00EFF4D
:1030300041EC1A0B18EE100A05F026F853EC1A2B87
:1030400004F05DFE41EC1A0B18EE900A05F01CF836
:1030500094ED1C1B53EC112B04F0F5FE53EC1A2BD2
:1030600004F0F4FE41EC110B8DED041B9DED010A03
:1030700010EE100A05F008F894ED1C1B53EC112B10
:1030800004F0E4FE41EC1A0B18EE100A04F0FCFF09
:1030900053EC1A2B04F033FE41EC1A0B19EE100A14
:1030A00004F0F2FF94ED1C1B53EC112B04F0CBFE4B
:1030B00053EC1A2B04F0CAFE9DED020A41EC1A0BE8
:1030C00010EE100A04F0E0FF94ED1C1B53EC112BE2
:1030D00004F0BCFE41EC1E0B1BEE900A04F0D4FF82
:1030E00053EC1E2B04F00BFE41EC1E0B19EE900A64
:1030F00004F0CAFF94ED1C1B53EC112B04F0A3FE4B
:1031000053EC1E2B04F0A2FE9DED030A41EC1F0BB5
:1031100010EE100A04F0B8FF94ED1C1B53EC112BB9
:1031200004F094FE41EC1E0B1BEE100A04F0ACFF01
:1031300053EC1E2B04F0E3FD94ED1C1B53EC112B00
:1031400004F084FE53EC1F2B04F0D9FD53EC1A2B32
:1031500004F0D5FD9DED041B53EC112B04F0CFFDC5
:103160001FEDFD1B53EC112B04F070FE04F0B8FFB3
:103170000FEE100A85ED10FA9DED000A10EE100A10
:1031800004F082FF94ED1C1B53EC112B04F05EFE47
:1031900041EC1A0B18EE100A04F076FF53EC1A2BD0
:1031A00004F0ADFD41EC1A0B19EE100A04F06CFFAF
:1031B00094ED1C1B53EC112B04F045FE53EC1A2B21
:1031C00004F044FE41EC110B8DED061B9DED010A50
:1031D00010EE100A04F058FF94ED1C1B53EC112B59
:1031E00004F034FE41EC1A0B18EE100A04F04CFF08
:1031F00053EC1A2B04F083FD41EC1A0B18EE900AE5
:1032000004F042FF94ED1C1B53EC112B04F077FDEE
:1032100053EC1A2B04F01AFE9DED020A41EC1A0B36
:1032200010EE100A04F030FF94ED1C1B53EC112B30
:1032300004F00CFE41EC1E0B1BEE900A04F024FF80
:1032400053EC1E2B04F05BFD94ED1C1B53EC112B77
:1032500004F0FCFD41EC110B8DED041B9DED030A08
:1032600010EE100A04F010FF94ED1C1B53EC112B10
:1032700004F0ECFD41EC1E0B1BEE100A04F004FF01
:1032800053EC1E2B04F03BFD41EC1E0B19EE900A93
:1032900004F0FAFE94ED1C1B53EC112B04F02FFDEF
:1032A00053EC1E2B04F0D2FD9DED041B53EC112BAF
:1032B00004F025FD53EC1A2B04F021FD9DED061BB7
:1032C00053EC112B04F01BFD9FEDFE1B53EC112B57
:1032D00004F0BCFD04F004FF0FEE900AC5ED11FAF6
:1032E0009DED000A10EE100A04F0CEFE94ED1C1BBA
:1032F00053EC112B04F0AAFD41EC1A0B18EE100A46
:1033000004F0C2FE53EC1A2B04F0F9FC41EC1A0B4A
:1033100019EE900A04F0B8FE94ED1C1B53EC112B2F
:1033200004F0EDFC53EC1A2B04F090FD41EC110B72
:103330008DED061B9DED010A10EE100A04F0A4FEAF
:1033400094ED1C1B53EC112B04F080FD41EC1A0B87
:1033500018EE100A04F098FE53EC1A2B04F0CFFC80
:1033600094ED1C1B53EC112B04F070FD41EC110B80
:103370008DED041B9DED020A10EE100A04F084FE90
:1033800094ED1C1B53EC112B04F060FD41EC1A0B67
:103390001BEE900A04F078FE53EC1A2B04F0AFFCFD
:1033A00041EC1A0B18EE900A04F06EFE94ED1C1B13
:1033B00053EC112B04F047FD53EC1A2B04F046FD9F
:1033C0009DED030A41EC1E0B10EE100A04F05CFEAA
:1033D00094ED1C1B53EC112B04F038FD41EC1A0B3F
:1033E0001BEE100A04F050FE53EC1A2B04F087FC7D
:1033F00041EC1A0B19EE100A04F046FE94ED1C1B6A
:1034000053EC112B04F07BFC53EC1A2B04F01EFD43
:1034100053EC1E2B04F073FC9DED041B53EC112B9D
:1034200004F06DFC9DED061B53EC112B04F067FCC2
:103430009FEDA41B53EC112B04F008FD04F050FE8B
:103440000EEE900AC5ED12EA9DED000A10EE100A8C
:1034500004F01AFE94ED1C1B53EC112B04F0F6FC47
:1034600041EC1A0B18EE100A04F00EFE53EC1A2B66
:1034700004F045FC94ED1C1B53EC112B04F0E6FC0E
:1034800041EC110B8DED081B9DED010A10EE100AA9
:1034900004F0FAFD94ED1C1B53EC112B04F0D6FC48
:1034A00041EC1A0B18EE100A04F0EEFD53EC1A2B47
:1034B00004F025FC41EC1A0B19EE900A04F0E4FD2F
:1034C00094ED1C1B53EC112B04F0BDFC53EC1A2B98
:1034D00004F0BCFC41EC110B8DED061B9DED020AC6
:1034E00010EE100A04F0D0FD94ED1C1B53EC112BD0
:1034F00004F0ACFC41EC1A0B1BEE900A04F0C4FD86
:1035000053EC1A2B04F0FBFB41EC1A0B19EE100ADA
:1035100004F0BAFD94ED1C1B53EC112B04F0EFFBEF
:1035200053EC1A2B04F092FC41EC110B8DED041BB3
:103530009DED030A10EE100A04F0A6FD94ED1C1B8D
:1035400053EC112B04F082FC41EC1A0B1BEE100A19
:1035500004F09AFD53EC1A2B04F0D1FB41EC1A0B4A
:1035600018EE900A04F090FD94ED1C1B53EC112B07
:1035700004F0C5FB53EC1A2B04F068FC9DED041B12
:1035800053EC112B04F0BBFB9DED061B53EC112BF0
:1035900004F0B5FB9DED081B53EC112B04F0AFFBC1
:1035A0009FED481B53EC112B04F050FC04F098FDE8
:1035B0000EEE100A85ED13EA1EEE100A04F064FD0B
:1035C00041EC100B8DED040B9FED40AB94ED1C0B0B
:1035D00053EC1A2B51EC100B04F038FC9DED040B4E
:1035E00053EC102B04F032FC41EC100B18EE100AD7
:1035F0008DED040B04F048FD9DED040B53EC102BF6
:1036000004F07DFB41EC100B18EE900A8DED060BDB
:1036100004F03AFD41EC100B53EC1A2B8DED040B2A
:1036200094ED1C0B51EC100B04F010FC9DED040B01
:1036300053EC102B04F004FC9DED060B53EC102B07
:1036400004F004FC41EC100B1EEE900A8DED080B0B
:1036500004F01AFD41EC100B53EC1A2B8DED040B0A
:1036600094ED1C0B51EC100B04F0F0FB9DED040BE2
:1036700053EC102B04F0EAFB41EC100B18EE100A8F
:103680008DED040B04F000FD9DED040B53EC102BAD
:1036900004F035FB41EC100B19EE100A8DED060B12
:1036A00004F0F2FC41EC100B53EC1A2B8DED040BE3
:1036B00094ED1C0B51EC100B04F0C8FB9DED040BBA
:1036C00008E00000000000000000E03F00000000F3
:1036D0000000004053EC102B04F0B2FB9DED060BF4
:1036E00053EC102B04F0B2FB41EC100B1FEE900AD0
:1036F0008DED040B04F0C8FC41EC100B53EC1A2BBD
:103700008DED060B94ED1C0B51EC100B04F09EFBA1
:103710009DED060B53EC102B04F098FB41EC100BC5
:103720001BEE900A8DED060B04F0AEFC9DED060B32
:1037300053EC102B04F0E3FA41EC100B19EE900A55
:103740008DED0A0B04F0A0FC41EC100B53EC1A2B8E
:103750008DED060B94ED1C0B51EC100B04F076FB79
:103760009DED060B53EC102B04F06AFB9DED0A0B4C
:1037700053EC102B04F06AFB41EC100B1FEE100A07
:103780008DED060B04F080FC41EC100B53EC1A2B72
:103790008DED0A0B94ED1C0B51EC100B04F056FB55
:1037A0009DED0A0B53EC102B04F050FB41EC100B79
:1037B0001BEE100A8DED0A0B04F066FC9DED0A0B62
:1037C00053EC102B04F09BFA41EC100B53EC1A2B2A
:1037D0008DED0A0B94ED1C0B51EC100B04F036FB35
:1037E0009DED0A0B53EC102B04F030FB9DED060B06
:1037F00053EC102B04F083FA9DED040B53EC102BCB
:1038000004F07DFA9DED080B53EC102B04F077FAD1
:103810001FED540B53EC102B04F018FB04F060FC6C
:1038200000EE100A1EEE100A85ED140A8DED0E0A48
:1038300004F02AFC41EC100B53EC1A2B8DED040B19
:1038400094ED1C0B51EC100B04F000FB9DED040BF0
:1038500053EC102B04F0FAFA41EC100B18EE100A9E
:103860008DED040B04F010FC9DED040B53EC102BBC
:1038700004F045FA41EC100B19EE100A8DED060B21
:1038800004F002FC41EC100B53EC1A2B8DED040BF1
:1038900094ED1C0B51EC100B04F0D8FA9DED040BC9
:1038A00053EC102B04F0CCFA9DED060B53EC102BCF
:1038B00004F0CCFA41EC110B1EEE900A8DED0C1BBE
:1038C00004F0E2FB41EC100B53EC1A2B8DED040BD2
:1038D00094ED1C0B51EC100B04F0B8FA9DED040BA9
:1038E00053EC102B04F0B2FA41EC100B18EE100A56
:1038F0008DED040B04F0C8FB9DED040B53EC102B75
:1039000004F0FDF941EC100B18EE900A8DED060B5A
:1039100004F0BAFB41EC100B53EC1A2B8DED040BA9
:1039200094ED1C0B51EC100B04F090FA9DED040B80
:1039300053EC102B04F0E3F99DED060B53EC102B28
:1039400004F084FA41EC110B1FEE900A8DED041B7C
:1039500004F09AFB41EC100B53EC1A2B8DED060B87
:1039600094ED1C0B51EC100B04F070FA9DED060B5E
:1039700053EC102B04F06AFA41EC100B1BEE900A8A
:103980008DED060B04F080FB9DED060B53EC102B28
:1039900004F0B5F941EC100B53EC1A2B8DED060B2E
:1039A00094ED1C0B51EC100B04F050FA9DED060B3E
:1039B00053EC102B04F04AFA41EC110B1FEE100AE5
:1039C0008DED0A1B04F060FB41EC100B53EC1A2B3D
:1039D0008DED060B94ED1C0B51EC100B04F036FA38
:1039E0009DED060B53EC102B04F030FA41EC100B5C
:1039F0001BEE100A8DED060B04F046FB9DED060B49
:103A000053EC102B04F07BF941EC110B19EE900AEA
:103A10008DED081B04F038FB41EC110B53EC1A2B15
:103A20008DED061B94ED1C0B51EC100B04F00EFAFF
:103A30009DED061B53EC112B04F061F99DED081B65
:103A400053EC112B04F002FA9DED0A1B53EC112BE1
:103A500004F055F99DED041B53EC112B04F04FF9C4
:103A60009DED0C1B53EC112B04F049F91FEDEB1BE2
:103A700053EC112B04F0EAF904F032FB00EE100ACB
:103A80001EEE100A85ED150A8DED0F0A04F0FCFA02
:103A900041EC100B53EC1A2B8DED040B94ED1C0B29
:103AA00051EC100B04F0D2F99DED040B53EC102BEC
:103AB00004F0CCF941EC100B18EE100A8DED040B5C
:103AC00004F0E2FA9DED040B53EC102B04F017F90F
:103AD00041EC100B19EE900A8DED060B04F0D4FAB0
:103AE00041EC100B53EC1A2B8DED040B94ED1C0BD9
:103AF00051EC100B04F0AAF99DED040B53EC102BC4
:103B000004F0FDF89DED060B53EC102B04F09EF92C
:103B100041EC100B1EEE900A8DED0C0B04F0B4FA84
:103B200041EC100B53EC1A2B8DED040B94ED1C0B98
:103B300051EC100B04F08AF99DED040B53EC102BA3
:103B400004F084F941EC100B18EE100A8DED040B13
:103B500004F09AFA9DED040B53EC102B04F0CFF80F
:103B600041EC100B53EC1A2B8DED040B94ED1C0B58
:103B700051EC100B04F06AF99DED040B53EC102B83
:103B800004F064F941EC100B1FEE900A8DED0A0B66
:103B900004F07AFA41EC100B53EC1A2B8DED040B68
:103BA00094ED1C0B51EC100B04F050F99DED040B3F
:103BB00053EC102B04F04AF941EC100B1BEE900A69
:103BC0008DED040B04F060FA9DED040B53EC102B0B
:103BD00004F095F841EC100B18EE900A8DED060BF1
:103BE00004F052FA41EC100B53EC1A2B8DED040B40
:103BF00094ED1C0B51EC100B04F028F99DED040B17
:103C000053EC102B04F01CF99DED060B53EC102B1C
:103C100004F01CF941EC100B1FEE100A8DED080B9F
:103C200004F032FA41EC100B53EC1A2B8DED040B1F
:103C300094ED1C0B51EC100B04F008F99DED040BF6
:103C400053EC102B04F002F941EC100B1BEE100AA0
:103C50008DED040B04F018FA9DED040B53EC102BC2
:103C600004F04DF841EC100B19EE100A8DED060B27
:103C700004F00AFA41EC100B53EC1A2B8DED040BF7
:103C800094ED1C0B51EC100B04F0E0F89DED040BCF
:103C900053EC102B04F033F89DED060B53EC102B76
:103CA00004F0D4F89DED080B53EC102B04F027F82A
:103CB0009DED0A0B53EC102B04F021F89DED0C0B3D
:103CC00053EC102B04F01BF89FEDFE0B53EC102B64
:103CD00004F0BCF804F004FA00EE100A1EEE100A1C
:103CE00085ED160A8DED0C0A04F0CEF941EC100BAF
:103CF00053EC1A2B8DED040B94ED1C0B51EC100BB7
:103D000004F0A4F89DED040B53EC102B04F09EF886
:103D100041EC100B18EE100A8DED040B04F0B4F911
:103D20009DED040B53EC102B03F0E9FF41EC100B5D
:103D300053EC1A2B8DED040B94ED1C0B51EC100B76
:103D400004F084F89DED040B53EC102B04F07EF886
:103D500041EC100B1EEE900A8DED0A0B04F094F965
:103D600041EC100B53EC1A2B8DED040B94ED1C0B56
:103D700051EC100B04F06AF89DED040B53EC102B82
:103D800004F064F841EC100B18EE100A8DED040BF2
:103D900004F07AF99DED040B53EC102B03F0AFFF08
:103DA00041EC110B19EE900A8DED061B04F06CF935
:103DB00041EC110B53EC1A2B8DED041B94ED1C0BF5
:103DC00051EC100B04F042F89DED041B53EC112B49
:103DD00004F036F89DED061B53EC112B04F036F879
:103DE00041EC100B1FEE900A8DED080B04F04CF91E
:103DF00041EC110B53EC1A2B8DED041B94ED1C0BB5
:103E000051EC100B04F022F89DED041B53EC112B28
:103E100004F01CF841EC110B1BEE900A8DED041B15
:103E200004F032F99DED041B53EC112B03F067FFF6
:103E300041EC100B19EE100A8DED040B04F024F97F
:103E400094ED1C0B41EC190B53EC1A2B51EC100B9D
:103E500003F0FCFF53EC192B03F051FF9DED040B15
:103E600053EC102B03F0F2FF41EC110B1FEE100A84
:103E70008DED061B04F008F994ED1C0B41EC190BB9
:103E800053EC1A2B51EC100B03F0E0FF53EC192B01
:103E900003F0DCFF41EC190B1BEE100A04F0F4F800
:103EA00053EC192B03F02BFF41EC110B18EE900A89
:103EB0008DED041B04F0E8F894ED1C0B41EC190B9C
:103EC00053EC1A2B51EC100B03F0C0FF53EC192BE1
:103ED00003F015FF9DED041B53EC112B03F0B6FF0F
:103EE0009DED061B53EC112B03F009FF9DED080B14
:103EF00053EC102B03F003FF9DED0A0B53EC102B3A
:103F000003F0FDFE9FED6F1B53EC112B03F09EFFA2
:103F100004F0E6F800EE100AF0EE008A85ED170ACC
:103F20008DED060A9DED030A40EE28DA9DED0E0A9E
:103F30004FEE28DA3DEE800A10EE100A04F0A4F8E5
:103F400041EC110B53EC1A2B8DED041B94ED1C0B63
:103F500051EC100B03F07AFF9FED5C9B53EC192B97
:103F600003F0E6FF9DED041B53EC112B03F06EFFF5
:103F700041EC110B1BEE100A8DED041B04F084F8CC
:103F80009DED041B53EC112B03F0B9FE04F0A8F8CF
:103F90000BEE100A85ED01BA9DED020A00EE28DA5B
:103FA0009DED0F0A0FEEA8DA3DEE000A10EE100AA2
:103FB00004F06AF894ED1C0B41EC1D0B53EC1A2B2A
:103FC00051EC100B03F042FF53EC192B03F0B0FF40
:103FD00053EC1D2B03F03AFF41EC1D0B1BEE900A36
:103FE00004F052F853EC1D2B03F089FE04F078F82E
:103FF0000BEE900AC5ED02BA9DED010A40EE28CA0B
:104000009DED0C0A4EEEA8CA3CEE800A10EE100A96
:1040100004F03AF894ED1C0B41EC1D0B53EC1A2BF9
:1040200051EC100B03F012FF53EC192B03F080FF3F
:1040300053EC1D2B03F00AFF41EC1D0B18EE100A88
:1040400004F022F853EC1D2B03F059FE04F048F85D
:104050009DED000A074600EE28CA9DED060A0EEE09
:1040600028CA3CEE000A10EE100A04F00DF894ED98
:104070001C0B41EC1C0B53EC1A2B51EC100B03F0F6
:10408000E5FE53EC192B03F053FF53EC1C2B03F00C
:10409000DDFE41EC190B384603F0F6FF53EC192B0B
:1040A00003F02DFE04F01CF82BEE0B0A00EE900A34
:1040B000C5ED030A0BEEAB0A00EEA00A00EEA00A63
:1040C00008E00000000000000000E03F00000000E9
:1040D00000001840FEF7A0F9D5ED010AB8EE008AFD
:1040E00020EE801A85ED011AD5ED020A21EE281A7C
:1040F00060EE800AC5ED020AD5ED031A60EE880A6B
:1041000061EE801A21EE800A85ED030A60EE800AD6
:1041100041EE000A10EE900A03F0B6FF41EC100BDE
:1041200004F0CEF99FEDFE9B51EC100B53EC192BD4
:1041300003F08CFE03F0D4FF306095ED02BAF7EE89
:10414000000A2BEE080A95ED038A20EE0B0A68EEB2
:1041500028BA0BEEC80A30EE200A10EE100A03F05F
:1041600093FFD5ED010A2BEE880A41EC1A0B60EEA5
:10417000A80A00EE8B0A10EE100A03F085FF41EC4E
:10418000100BB0EE4A1AF0EE6A1A04F0B5FC53ECCC
:10419000192B51EC100B03F059FE03F0A1FFC8F8E6
:1041A000000095ED01BAD5ED02BA95ED038A2BEE2C
:1041B0000B0A0BEEAB0A08EE480A08EE480A10EEAE
:1041C000100A03F061FF2BEE880A41EC1A0B0BEE8C
:1041D000080A20EE280A10EE100A03F055FF41EC01
:1041E000100BB0EE4A1AF0EE6A1A04F085FC53EC9C
:1041F000192B51EC100B03F029FE03F071FFC9F8E5
:10420000000010B0BDEC108B0DB0BDE8F08310EED7
:10421000100A10B520F00040C0F1FF40C00F02D0DE
:104220009FEDC10A10BD10EE100AB0F17E5F02DBF7
:104230009FEDBE0A10BD10EE100A10F1814F02D39F
:104240009FEDBB0A10BD10EE100A03F01DFF41ECFC
:10425000100B04F035F951EC100B03F041FF00EEA8
:10426000100A10BDF0B5F0EE415A2DED0A0BB0EE7C
:10427000606AF0EE406A2DED108B85B09FEDAD8A3F
:10428000AD4C94ED120AD4ED120A20EE20FA94ED12
:10429000120AD4ED130A20EE20EA94ED120AD4EDAE
:1042A000140A20EE20DA94ED120AD4ED150A20EE5D
:1042B000200A8DED030A94ED130AD4ED130A20EEC3
:1042C00020CA94ED130AD4ED140A60EE20FA94ED9E
:1042D000130AD4ED150A60EE20CA94ED140AD4ED49
:1042E000140A20EE20AA94ED140AD4ED150A60EE0B
:1042F00020DA94ED150AD4ED150A60EE20AA9FEDA0
:104300008F5ADFED8F4A21EEA10A02EE020A02EE79
:10431000A20AFEF781F861EE800A60EE880ACDED10
:10432000180A62EE000A22EE800A60EE880A20EE89
:10433000080ACDED190A8DED1A0A23EE030A03EEE1
:10434000A30A04EE040AFEF767F863EE000A7D484C
:10435000CDED1B0A63EE800A24EE000ACDED1C0AA7
:104360008DED1D0A94ED160AD4ED151A94ED134A3D
:1043700076EEC09A94ED170A64EE083A36EE409A4B
:1043800094ED180A75EEC08A94ED140A28EE401ACE
:1043900094ED150A20EE082A94ED120A28EE403A10
:1043A00094ED120A65EE000A94ED140A44EEC00A78
:1043B00094ED130A25EE000A04EEA10AD4ED141AB6
:1043C00061EEC52AD4ED121A44EEE12AD4ED131A97
:1043D00064EEA11AD4ED154A80ED001A80ED012A91
:1043E00080ED023AC0ED033AC0ED073AB1EE433A30
:1043F00080ED083A80ED092AF1EE413AC0ED0A3A23
:1044000080ED0E3A24EE483A45EE641A80ED0F3AFC
:1044100080ED101A80ED112AC0ED150A80ED160A04
:10442000C0ED172AC0ED181AC0ED1C1AB1EE621AC1
:1044300080ED1D1A80ED1E0AB1EE602A80ED1F2A64
:1044400080ED231AB1EE611A80ED241AC0ED250A21
:1044500080ED260A94ED130AD4ED140A29EEC00A61
:1044600000EEC90AD4ED150A00EEE80A10EE100AB3
:1044700003F00AFE94ED1C1B53EC112B03F0E6FC39
:1044800094ED120A41EC1B0B10EE100A03F0FCFD38
:1044900053EC1B2B03F033FC03F022FE00EE100A5A
:1044A00084ED120A94ED120AD4ED140A20EE290AC2
:1044B00000EEA80AD4ED150A00EEC90A10EE100AA3
:1044C00003F0E2FD94ED1C1B53EC112B03F0BEFC3A
:1044D00094ED130A41EC1B0B10EE100A03F0D4FD0F
:1044E00053EC1B2B03F00BFC03F0FAFD00EE100A5B
:1044F00084ED130A94ED120AD4ED130A20EE090A92
:1045000000EEE80AD4ED150A00EEA90A10EE100A32
:1045100003F0BAFD94ED1C1B53EC112B14E00000CA
:104520006666666666A64C4000000000DB0FC93F69
:10453000DB0FC9BFB2CB1C4168010020CDCC0C3FC2
:104540001DC9553F6C06002003F080FC94ED140A51
:1045500041EC1B0B10EE100A03F096FD53EC1B2BE5
:1045600003F0CDFB03F0BCFD00EE100A84ED140A4D
:1045700094ED120AD4ED130A20EE280A00EE890AFF
:10458000D4ED140A00EEE90A10EE100A03F07CFDE7
:1045900094ED1C1B53EC112B03F058FC94ED150A01
:1045A00041EC1B0B10EE100A03F06EFD53EC1B2BBD
:1045B00003F0A5FB03F094FD00EE100A84ED150A4C
:1045C00094ED120AD4ED120A94ED131A20EE200A8B
:1045D000D4ED130A00EE810A94ED141AD4ED140AF6
:1045E00001EE200AD4ED150A94ED151A00EE810AA9
:1045F000FDF712FFD4ED120A60EE800AC4ED120A34
:10460000D4ED130A60EE800AC4ED130AD4ED140A47
:1046100060EE800AC4ED140AD4ED150A20EE800A7B
:1046200084ED150AB7EE000AFE4DF1EE69EA1EEEC2
:10463000900A85ED000A85ED080A85ED100A85EDE2
:10464000180A85ED200A85ED280A85ED300A03F069
:104650001BFD94ED1C1B53EC112B03F0F7FB03F037
:104660003FFDF1EE68BA68601BEE900A03F00CFDA6
:1046700094ED1C1B53EC112B03F0E8FB03F030FD11
:10468000A8601BEE900A03F0FFFC94ED1C1B53EC9A
:10469000112B03F0DBFB03F023FD1FED5DBAE86097
:1046A00085ED04BA85ED05BA85ED06BA19EE900AD6
:1046B00003F0EAFC94ED1C1B53EC112B03F0C6FB3A
:1046C00003F00EFDE86118EE900A03F0DDFC94EDB6
:1046D0001C1B53EC112B03F0B9FB03F001FDB1EEF1
:1046E000490A686210EE100A03F0CEFC94ED1C1B20
:1046F00053EC112B03F0AAFB03F0F2FCA86285ED4A
:104700000BBA85ED0CBA85ED0DBA19EE100A03F05F
:10471000BBFC94ED1C1B53EC112B03F097FB03F037
:10472000DFFCA8631BEE900A03F0AEFC94ED1C1BAB
:1047300053EC112B03F08AFB03F0D2FCE86319EE73
:10474000900A03F0A1FC94ED1C1B53EC112B03F019
:104750007DFB03F0C5FC686485ED12BA85ED13BAE4
:1047600085ED14BA18EE900A03F08EFC94ED1C1B34
:1047700053EC112B03F06AFB03F0B2FC686519EEF1
:10478000100A03F081FC94ED1C1B53EC112B03F079
:104790005DFB03F0A5FCA8651EEE900A03F074FC17
:1047A00094ED1C1B53EC112B03F050FB03F098FC11
:1047B000E86585ED19BA85ED1ABA85ED1BBA85ED68
:1047C0001CBA85ED1DBA85ED1EBA85ED1FBA85EDC3
:1047D00021BA85ED22BA85ED23BA85ED24BA85ED9F
:1047E00025BA85ED26BA85ED27BA85ED29BA85ED7E
:1047F0002ABA85ED2BBA85ED2CBA85ED2DBA85ED5B
:104800002EBA85ED2FBAA5F5E76007250095CDE90D
:10481000015004F180032A462946824802F08AFFAB
:104820000722814B11467F4802F0B2FF7F48009576
:10483000CDE9015007227C4B1146C43802F07AFFC3
:10484000784A0723E03204F5A2717848009502F017
:1048500037FF754B0722A83B0621A3F20C5002F04C
:1048600097FF72480626C4300095CDE9016000F537
:1048700030730722114600F5D26002F05BFF6C48EE
:104880000095CDE90160A0F1A80307220621A0F55B
:104890003D7002F04FFF664A0623903204F5027124
:1048A0006348009602F00CFF624B0621A3F590725C
:1048B000A2F21C6003F02EF95E4B0622903B1146DB
:1048C000A3F1900002F064FF5A4800969030CDE9C1
:1048D00001600622574B1146A0F5D87002F02AFF5E
:1048E00055480096CDE90160A0F5D873062211461F
:1048F000903802F01FFFB0EE4B0A06214E4803F03D
:1049000000F849480096C430CDE901604A4B0622C0
:104910000721A0F22C4002F00DFF3CEECD0A7EEE06
:104920002DDAF0EE000A20EE201A6DEEA00A61EEFC
:1049300008EA20EE88EA7FEE4C0A70EECA0A70EEB2
:10494000AA0A20EE88FADFED3D0A20EE800A10EE7A
:10495000100A03F099FB41EC190B1AEE900A03F0D0
:1049600093FB41EC180B1AEE100A03F08DFB9FED40
:1049700034BB53EC1B2B03F066FA53EC182B03F0FB
:104980005FFA41EC100B9FED311BDFED2FAA53ECCA
:10499000102B51EC110B03F059FA53EC192B03F0C7
:1049A000AEF903F09DFB9DED030A09EE100A1AEE25
:1049B000100A3FEEC00A6AEE809A9FED200A40EE90
:1049C0002D9A03F061FB41EC180B1CEE100A03F06A
:1049D0005BFB53EC1B2B03F036FA53EC182B03F064
:1049E0002FFA41EC100B9FED1B1B53EC102B51ECDD
:1049F000110B03F02BFA3DEE2C0A41EC180B2AEEBA
:104A0000800A10EE100A03F03FFB53EC182B03F062
:104A100076F903F065FBDDED180A00EE100A70EE82
:104A2000EE0A1BE0680E0020200C0020F407002096
:104A3000600900202C1100204C1200201DC9D53F18
:104A4000000000000000E03FCDCC8C3F000000A043
:104A50009999F13F000000A023B9FA3F9DED191A82
:104A6000DDED1A1A9DED1B2ADDED1C2A9DED1D3A88
:104A700031EE4E1A71EECF1A32EE492A72EEE92A61
:104A800033EE400AFE48FE4B00F1DC0780ED050ADC
:104A90000622C0EC050A01200721CDE9006002973B
:104AA000A3F5B67002F046FE97ED000AD4ED120AA7
:104AB000A7F58F60A0F5896330EE200A0622072152
:104AC00084ED120A97ED010AD4ED130A30EE200AA4
:104AD00084ED130A97ED020AD4ED140A30EE200A91
:104AE00084ED140A97ED030AD4ED150A30EE200A7E
:104AF00084ED150A97ED040AD4ED160A30EE200A6B
:104B000084ED160A97ED050AD4ED170A30EE200A57
:104B100084ED170A97ED060AD4ED180A30EE200A44
:104B200084ED180A0096CDE9015000F50C7002F0F2
:104B300001FEA7F5D0720723A2F5367104F52670A1
:104B4000009502F0DAFD04F180000095CDE90150F6
:104B500007F11C0307221146A3F5DE7002F0EAFDFF
:104B600094ED120AD4ED120A94ED131A20EE200AE5
:104B7000D4ED130A00EE810AD4ED140A94ED141A50
:104B800000EE810AD4ED150A94ED151A00EE810AA3
:104B9000FDF742FCD4ED120A60EE800AC4ED120A61
:104BA000D4ED130A60EE800AC4ED130AD4ED140AA2
:104BB00060EE800AC4ED140AD4ED150A20EE800AD6
:104BC00084ED150A05B0BDEC108B0AB0F0BD10B530
:104BD000D1ED050A04469FEDAB0A60EE800ADFEDD9
:104BE000AA1A91ED084AD1ED073A80EEA11AD1ED4B
:104BF000040A91ED063AD1ED022A20EE802AC2EE97
:104C0000210A91ED032A22EE002A82EE210A91ED7B
:104C1000012AD1ED001AFFF725FB9C4890ED120AFE
:104C200084ED000A90ED130A84ED010A90ED140A58
:104C300084ED020A90ED150A84ED030A10BD30B52B
:104C400004462DED088B85B068469149FFF7BFFFFC
:104C50009DED019ADDED029AF7EE00AA69EE090AD0
:104C6000B0EE00AAB0EE6A0A49EEA90A00EECA0A3E
:104C700010EE100A03F008FA9DED000ADDED030ABC
:104C800041EC180B20EE090A09EEA00A20EE0A0AF0
:104C900010EE100A03F0F8F941EC100BB0EE481AD0
:104CA000F0EE681A03F028FF9FED7A9B51EC100B91
:104CB00053EC192B03F0CAF89FED781B53EC112B22
:104CC00003F036F903F00CFA00EE100A6F4D84ED94
:104CD000000A85ED100A9DED000ADDED020A9DED4A
:104CE000011A20EE200ADDED030A00EEC10A20EED3
:104CF0000A0AFFF78CFADFED640A60EE200A9FEDE6
:104D0000691A80EE810A84ED010A85ED0F0A9DED96
:104D100002BAB8EE000ADDED03BA2BEE000A6BEE24
:104D20008A0A20EE0B0A00EEEB0A30EE2A0A10EE99
:104D3000100A03F0A9F99DED010ADDED000A41EC2E
:104D4000180B20EE0A0A60EE8A0A20EE0B0A00EE2B
:104D5000AB0A10EE100A03F097F941EC100BB0EE1D
:104D6000481AF0EE681A03F0C7FE53EC192B51EC09
:104D7000100B03F06BF89FED4C1B53EC112B03F061
:104D8000D7F803F0ADF900EE100A84ED020A85EDC4
:104D9000110A05B0BDEC088B30BD10B53B4C2DEDB4
:104DA000060B2DED048B8AB094ED0B0AD4ED0B0AA3
:104DB00020EE200A8DED020A94ED0B0AD4ED0C0AC8
:104DC00020EE200A8DED040A94ED0B0AD4ED0D0AB5
:104DD00020EE200A8DED070A94ED0B0AD4ED0E0AA1
:104DE00020EE200A8DED000A94ED0C0AD4ED0C0A99
:104DF00020EE200A8DED030A94ED0C0AD4ED0D0A85
:104E000020EE200A8DED000A94ED0C0AD4ED0E0A76
:104E100020EE200A8DED060A94ED0D0AD4ED0D0A60
:104E200020EE200A8DED000A94ED0D0AD4ED0E0A55
:104E300020EE200A8DED050A94ED0E0AD4ED0E0A3F
:104E400020EE200A8DED080A9DED110ADDED120A13
:104E500020EE000A00EEA00ADDED130A00EEA00A23
:104E6000FDF7DAFA8DED010A9DED110ADDED010A7B
:104E700020EE200A8DED110A9DED120A18E00000C7
:104E8000500E0020DB0F4940000034436801002031
:104E9000E812002000000000008066400000006072
:104EA000FB210940DB0F49C000000060FB2109C065
:104EB00020EE200A8DED120A9DED130A20EE200A45
:104EC0008DED130A9DED060ADDED070A70EE600A0E
:104ED000B0EE000A60EE800ACDED060ADDED040AB0
:104EE0009DED051A70EE810A20EE800A8DED040A10
:104EF0009DED020ADDED030A30EE600ADDED000AE9
:104F000030EE600ADDED080A30EE200A8DED010A70
:104F10009DED120ADDED010A9DED041A20EE200A36
:104F2000DDED130A00EEC10A8DED000AB0EE600A55
:104F3000DDED060A9DED011A20EE200ADDED110AD5
:104F400000EEC10A8DED010AB0EE600ADDED040A43
:104F50009DED061A20EE200ADDED120A00EEC10AD0
:104F60008DED020A9DED000AB5EEC00AF1EE10FAD1
:104F70007ED09DED010AB5EEC00AF1EE10FA77D0B1
:104F80009DED020AB5EEC00AF1EE10FA70D09DED6B
:104F9000000A9FEDFE9A20EE090A10EE100A03F0B7
:104FA00073F894ED1C1B53EC112B02F04FFF94EDA2
:104FB000040A41EC180B10EE100A03F065F853ECEC
:104FC000182B02F09CFE03F08BF800EE100A84ED23
:104FD000040A9DED010A20EE090A10EE100A03F002
:104FE00053F894ED1C1B53EC112B02F02FFF94EDA2
:104FF000050A41EC180B10EE100A03F045F853ECCB
:10500000182B02F07CFE03F06BF800EE100A84ED22
:10501000050A9DED020A20EE090A10EE100A03F0BF
:1050200033F894ED1C1B53EC112B02F00FFF94EDA1
:10503000060A41EC180B10EE100A03F025F853ECA9
:10504000182B02F05CFE03F04BF800EE100A84ED22
:10505000060A9DED0E0ADDED000A30EE200AD4EDC1
:10506000040A30EE200A8DED0E0A9DED0F0A00E0D5
:1050700015E0DDED010A30EE200AD4ED050A30EE30
:10508000200A8DED0F0A9DED100ADDED020A30EECB
:10509000200AD4ED060A30EE200A8DED100A94EDB8
:1050A0000C0ADDED0E0A9DED0F1A20EEC00AD4EDBC
:1050B0000D0A00EEC10AD4ED0E0A9DED101A00EEA5
:1050C000C10A10EE100A02F0DFFF94ED1C1B53EC36
:1050D000112B02F0BBFE94ED0B0A41EC180B10EE05
:1050E000100A02F0D1FF53EC182B02F008FE02F078
:1050F000F7FF069094ED0B0ADDED0E0A9DED101AF8
:1051000020EE200AD4ED0D0A00EE810AD4ED0E0A3D
:105110009DED0F1A00EEC10A10EE100A02F0B4FF66
:1051200094ED1C1B53EC112B02F090FE94ED0C0A35
:1051300041EC180B10EE100A02F0A6FF53EC182BEE
:1051400002F0DDFD02F0CCFF049094ED0B0ADDEDE2
:105150000F0A9DED101A20EE200AD4ED0C0A00EE85
:10516000C10AD4ED0E0A9DED0E1A00EE810A10EE72
:10517000100A02F089FF94ED1C1B53EC112B02F076
:1051800065FE94ED0D0A41EC180B10EE100A02F0CA
:105190007BFF53EC182B02F0B2FD02F0A1FF02904E
:1051A00094ED0B0ADDED100A9DED0F1A20EE200A9A
:1051B000D4ED0C0A00EE810AD4ED0D0A9DED0E1A15
:1051C00000EEC10A10EE100A02F05EFF94ED1C1B07
:1051D00053EC112B02F03AFE94ED0E0A41EC180B41
:1051E00010EE100A02F050FF53EC182B02F087FD6E
:1051F00002F076FF00909DED060ADDED040A01EE57
:10520000100A20EE000A00EEA00ADDED020A00EE10
:10521000A00A00EE900A00EE810AFDF7FDF88DED80
:10522000010A9DED060ADDED010A20EE200A84ED5B
:105230000B0A9DED040A20EE200A84ED0C0A9DED78
:10524000020A20EE200A84ED0D0A9DED000A20EEF0
:10525000200A84ED0E0A0AB0BDEC048B06B010BD26
:1052600030B54B4C2DED0A0B2DED108B87B094ED26
:10527000070AD4ED070A60EE20FA94ED070AD4ED90
:10528000080A60EE20AA94ED070AD4ED090A20EE80
:1052900020AA94ED070AD4ED0A0A60EE20EA94ED04
:1052A000080AD4ED080A20EE20FA94ED080AD4ED9D
:1052B000090A20EE20EA94ED080AD4ED0A0A60EE0D
:1052C000209A94ED090AD4ED090A20EE209A94ED73
:1052D000090AD4ED0A0A60EE208A94ED0A0AD4ED98
:1052E0000A0A20EE208A9DED1A0ADDED1B0A20EE47
:1052F000000A00EEA00ADDED1C0A00EEA00A10EE86
:10530000100A02F0C1FE41EC100B04F0E5FB51EC79
:10531000100B02F0E5FE00EE100ADFED1E0A009011
:10532000A4F1800520EE200ADFED1B0A20EE200A02
:105330008DED000AD5ED000A30EE600A10EE100A7D
:1053400002F0A2FE9FED15DB94ED1C0B41EC1C0B53
:1053500053EC1D2B51EC100B02F078FD9FED111B4F
:1053600053EC112B02F0CBFC94ED1C0B41EC1B0B0E
:1053700053EC1D2B51EC100B02F068FD53EC1B2B72
:1053800002F0D6FD53EC1C2B10E00000CDCC4C3EBF
:105390006801002000008038CDCC1C4100000000D6
:1053A0000000004000000060204C803F02F04EFDF5
:1053B00095ED000A41EC1B0B10EE100A02F064FEA2
:1053C00053EC1B2B02F09BFC02F08AFE00EE100A4D
:1053D00085ED000A9DED1A0ADDED1B0A20EE000A9C
:1053E00000EEA00ADDED1C0A00EEA00AFDF714F89D
:1053F0008DED010A9DED1A0ADDED010A20EE200A6D
:105400008DED1A0A9DED1B0A20EE200A8DED1B0A78
:105410009DED1C0A20EE200A8DED1C0A9DED1D0A53
:10542000DDED1E0A20EE000A00EEA00ADDED1F0AE7
:1054300000EEA00AFCF7F0FF8DED010A9DED1D0ABC
:10544000DDED010AB0EE00BAF6EE002A20EE200AE9
:105450003EEE6ECA39EE8A2A8DED1D0A9DED1E0ABA
:1054600079EECABA20EE200A8DED1E0A9DED1F0AC4
:1054700020EE200A8DED1F0A9DED1D0A60EE0B0A3D
:1054800032EEC90A70EE48CA9DED1E0A60EEAC1AF3
:1054900020EE0B1A9DED1F0A41EE0C1A20EE0B0AAE
:1054A00040EE021ACDED001A7EEE2E1A20EEA12A51
:1054B00072EECF1A60EEAB0A71EEC82A31EEC9DA8D
:1054C00001EE222A78EEEA2A00EE222A8DED012A48
:1054D00038EEAA2A41EE020A40EE0D0ACDED020A8C
:1054E0009DED000ADDED010A20EE000A00EEA00AA3
:1054F00010EE100A02F0C8FD41EC100B04F0ECFABB
:1055000051EC100B02F0ECFD00909DED020A3AEE1A
:10551000A81A8DED040A2BEE8B0A8DED020A21EEFE
:105520000B0A8DED030A3FEECF0A30EE490A30EE4A
:10553000080A8DED010A00EE100ADDED040A20EEE6
:105540000B0A60EE8B0A60EE2C1A40EEAB1ACDED22
:10555000041A60EE0C1A40EE811A3AEE291A20EE77
:10556000010ACDED051A00EE8D0A8DED060A9DEDBE
:105570001B0ADDED010A9DED031A60EE200A9DED88
:105580001C0A40EE410A9DED1E0A9DED061A20EE12
:10559000010A9DED1F1A01EE610A30EE800A8DEDC1
:1055A000000A9DED1C0ADDED020A9DED011ADDEDFC
:1055B000061A20EE200ADDED1A0A00EEC10ADDED22
:1055C0001F0A9DED041A60EE810A9DED1D1A41EE41
:1055D000610A30EE200A8DED010A9DED1A0ADDED1B
:1055E000030A9DED021ADDED041A20EE200ADDED1E
:1055F0001B0A00EEC10ADDED1D0A9DED051A60EEE5
:10560000810A9DED1E1A41EE610A30EE200A8DEDF1
:10561000020A9DED000AB5EEC00AF1EE10FA7CD048
:105620009DED010AB5EEC00AF1EE10FA75D09DEDC0
:10563000020AB5EEC00AF1EE10FA6ED09DED000A36
:105640009FEDFE9A20EE090A10EE100A02F01CFDF2
:1056500094ED1C1B53EC112B02F0F8FB94ED010AA6
:1056600041EC180B10EE100A02F00EFD53EC182B53
:1056700002F045FB02F034FD00EE100A84ED010A51
:105680009DED010A20EE090A10EE100A02F0FCFC62
:1056900094ED1C1B53EC112B02F0D8FB94ED020A85
:1056A00041EC180B10EE100A02F0EEFC53EC182B34
:1056B00002F025FB02F014FD00EE100A84ED020A50
:1056C0009DED020A20EE090A10EE100A02F0DCFC41
:1056D00094ED1C1B53EC112B02F0B8FB94ED030A64
:1056E00041EC180B10EE100A02F0CEFC53EC182B14
:1056F00002F005FB02F0F4FC00EE100A84ED030A50
:10570000D4ED010A9DED001AB0EE080A41EE000A40
:105710009DED171A70EE810A00E019E0CDED170A31
:10572000D4ED020A9DED011A41EE000A9DED181A12
:1057300070EE810ACDED180AD4ED030A9DED021A30
:1057400041EE000A9DED190A30EE800A8DED190A2E
:1057500094ED080ADDED170A9DED181A20EEC00A37
:10576000D4ED090A00EEC10AD4ED0A0A9DED191A1A
:1057700000EEC10A10EE100A02F086FC94ED1C1B2C
:1057800053EC112B02F062FB94ED070A41EC180B6D
:1057900010EE100A02F078FC53EC182B02F0AFFA6E
:1057A00002F09EFC069094ED070ADDED170A9DEDD0
:1057B000191A20EE200AD4ED090A00EE810AD4ED70
:1057C0000A0A9DED181A00EEC10A10EE100A02F046
:1057D0005BFC94ED1C1B53EC112B02F037FB94ED9A
:1057E000080A41EC180B10EE100A02F04DFC53ECC5
:1057F000182B02F084FA02F073FC049094ED070A6F
:10580000DDED180A9DED191A20EE200AD4ED080AE4
:1058100000EEC10AD4ED0A0A9DED171A00EE810AC6
:1058200010EE100A02F030FC94ED1C1B53EC112B0F
:1058300002F00CFB94ED090A41EC180B10EE100A73
:1058400002F022FC53EC182B02F059FA02F048FC4B
:10585000029094ED070ADDED190A9DED181A20EE6D
:10586000200AD4ED080A00EE810AD4ED090A9DED64
:10587000171A00EEC10A10EE100A02F005FC94EDB2
:105880001C1B53EC112B02F0E1FA94ED0A0A41ECD7
:10589000180B10EE100A02F0F7FB53EC182B02F075
:1058A0002EFA02F01DFC00909DED060ADDED040AC3
:1058B00001EE100A20EE000A00EEA00ADDED020A59
:1058C00000EEA00A00EE900A00EE810AFCF7A4FDAB
:1058D0008DED010A9DED060ADDED010A20EE200A9C
:1058E00084ED070A9DED040A20EE200A84ED080AE3
:1058F0009DED020A20EE200A84ED090A9DED000AC2
:1059000020EE200A84ED0A0A07B0BDEC108B0AB025
:1059100030BD70B50C462DED028B054691ED050AA4
:105920009FED478A20EE080ADFED468A91ED084A8E
:10593000D1ED073A80EE281A91ED040A91ED063A6E
:10594000D4ED022A20EE080A94ED012AC0EE280ABE
:1059500091ED030A60EE081A81EEA80AD4ED001A50
:10596000FFF77EFC94ED050AD4ED022A94ED012A9E
:1059700020EE080A80EE281A94ED040A20EE080AA8
:10598000C0EE280A94ED030A60EE081A81EEA80A18
:10599000D4ED001AFFF701FA2B4890ED070A85EDC8
:1059A000000A90ED080A85ED010A90ED090A85EDDF
:1059B000020A90ED0A0A85ED030ABDEC028B70BD68
:1059C00070B5224905462DED088BA1F6C830FFF7CA
:1059D000A0FF1F4CF7EE00AAB0EE00AA94ED019ACA
:1059E000D4ED029AB0EE6A0A69EE090A49EEA90AF4
:1059F00000EECA0A10EE100A02F046FB94ED000A0F
:105A0000D4ED030A41EC180B20EE090A09EEA00AB6
:105A100020EE0A0A10EE100A02F036FB41EC100BE1
:105A2000B0EE481AF0EE681A03F066F89FED099B95
:105A300051EC100B53EC192B10E000008FC2F53C19
:105A4000DB0F49400000344368010020E8120020C9
:105A500020070020000000000080664002F0F6F9F8
:105A60009FEDFE1B53EC112B02F062FA02F038FBA3
:105A700000EE100AFB4E85ED000A86ED100A94ED4B
:105A8000000AD4ED020A94ED011A20EE200AD4EDAA
:105A9000030A00EEC10A20EE0A0AFEF7B8FB5FED2A
:105AA000170A60EE200A9FEDF01A80EE810A85ED5C
:105AB000010A86ED0F0A94ED02BAB8EE000AD4EDA1
:105AC00003BA2BEE000A6BEE8A0A20EE0B0A00EEF8
:105AD000EB0A30EE2A0A10EE100A02F0D5FA94ED25
