:020000040800F2
:10000000981700207509000811040008130400085F
:100010001504000817040008190400080000000077
:100020000000000000000000000000001B040008A9
:100030001D040008000000001F040008210400083F
:100040008F0900088F0900088F0900088F09000830
:100050008F0900088F0900088F0900083D04000877
:100060008F0900088F0900088F0900088F09000810
:100070008F0900088F0900088F0900088F09000800
:100080008F0900088F0900088F0900088F090008F0
:100090008F0900088F0900088F090008DF04000895
:1000A0008F0900088F0900088F0900088F090008D0
:1000B0008F0900088F0900088F0900088F090008C0
:1000C0008F0900088F0900088F0900088F090008B0
:1000D0008F0900088F0900089F0400088F09000895
:1000E0008F0900088F0900088F0900088F09000890
:1000F0008F0900088F0900088F0900088F09000880
:100100008F0900088F0900088F0900088F0900086F
:100110008F0900088F0900088F0900088F0900085F
:100120008F0900088F0900088F0900088F0900084F
:100130008F0900088F0900088F0900088F0900083F
:100140008F0900088F0900088F0900088F0900082F
:100150008F0900088F0900088F0900088F0900081F
:100160008F0900088F0900088F0900088F0900080F
:100170008F0900088F0900088F0900088F090008FF
:100180008F0900088F090008DFF810D008F0BAF8CE
:1001900000480047DD010008AFF3008098170020F9
:1001A0007F48016841F0080101607E48802101809C
:1001B0000021021D11807B4A24321160794A491EB8
:1001C0002C3211605321121F1180764A0121143202
:1001D0001180018841F00101018070472DED048BF1
:1001E00084B04FF4C06000F0D7FBA82001F0BAFE45
:1001F000C82001F0F8FE00F08BFA00F0AEFA00F033
:1002000021FB4FF4E13000F05BFBFFF7C9FF02F088
:1002100071F804F01DFC03F04FFEDFF888A10AF12D
:10022000240ADAF8000060499FED609B9FED618A27
:10023000DFF88491624FDFF884B109F10C054FF4C7
:10024000967805F12406A7F1200408605E484FF473
:100250007A725C498DE807005C4B5D4A5D495E48F7
:1002600002F0C7FD84ED0A9B85ED028A85ED018AC7
:1002700085ED008A89ED028A89ED018A89ED008A7F
:10028000002060804C4B4C482433A3F1180202F14B
:100290000C01CDE9006702F007FB042001F0A3FE8A
:1002A0006088401C80B260804045EBD92078401CBB
:1002B000207095ED000AB0EEC00A10EE101A5945F4
:1002C000C4DC95ED010AB0EEC00A10EE101A5945D3
:1002D000BCDC95ED020A4149B0EEC00A10EE100AEE
:1002E0008842B3DC3EA008F04BF8DFF810B14FF4C1
:1002F00070494FF47A6855469FED418B4946584600
:1003000000F0EEFC2C4B2C482433A3F1180202F130
:100310000C01CDE9006702F0C7FA606A424629681D
:10032000091A9142FBD32968081A07F001FE53EC21
:10033000182B07F00BFDC4E90A0128686062DDE7AD
:100340001F4A10B5083AA2F11001101D03F0E9F898
:100350001B4C203C94ED0A0B51EC100B07F040FEB7
:1003600001EE900A94ED011AD4ED040A94ED060A08
:1003700002F043F884ED040AD4ED030A9FED221A3B
:1003800060EE810A9FED211A40EE010AB2EE040AE6
:10039000C4ED030A20EE800A84ED050A10BD0000BA
:1003A00040380240000C0040D4000020FCA9F1D2EB
:1003B0004D62703F000000004C050020CDCCCC3DCC
:1003C00020000020CC000020C8000020C400002035
:1003D000D0000020FC000020F8000020AE47E13DE6
:1003E0002051756164636F707465722048656C6C30
:1003F0006F20576F726C642120000000000C0240D7
:100400008DEDB5A0F7C6B03EAC1C7A3F7F6ABC3C10
:100410007047FEE7FEE7FEE7FEE77047704770476C
:1004200070475149002001F1140231F8103022F8D0
:100430001030401CC0B20828F7D3704710B5022016
:1004400000F060FB002828D048490868484C228901
:10045000801A80B2A0800968A16042F210718842BF
:1004600009D9A078082803D1607808B9FFF7D9FF27
:100470000020A0700DE0A0F21B4140F283329142B7
:1004800006D2394AA17822F81100491CA17001E076
:100490000120607037490220086010BD704710B518
:1004A000354C40F22771204601F027FD40F22551DE
:1004B000204601F022FD00280FD0204601F086FCE6
:1004C0002B4A1178284B28330B44491C11701870A3
:1004D0001078122801D30020107010BD704710B59D
:1004E00020202DED028B00F00DFB002839D02021BB
:1004F000224800F0D6FB1D4900281D4C086805D095
:10050000E268801A20610868E06027E0E1689FEDFA
:100510001C1A401A00EE100AF8EE400A80EE810A1A
:1005200010EE100A07F030FD9FED161B53EC112B57
:1005300007F00CFC41EC180BA06907F025FD9FEDBE
:10054000131B53EC112B07F001FC53EC182B07F095
:1005500056FB07F045FD6061A061E0610549202080
:100560000860BDEC028B10BD88050020240C004003
:1005700030000020143C01400044004000100240C4
:10058000000068429A9999999999C93F9A999999BD
:100590009999E93F0CB500225449009201920868EC
:1005A00040F4803008604FF4A043086800F4003045
:1005B00001900098401C0090019810B90098984252
:1005C000F3D10868800334D50120019047484030BA
:1005D000026842F0805202604548026842F440429C
:1005E00002604248083002680260026842F4004239
:1005F0000260026842F4A0520260031F3D4A1A6082
:100600000A6842F080720A600A689201FCD53A4991
:1006100040F205720A60016821F00301016001687F
:1006200041F0020101600168C1F381010229FAD1A0
:100630000CBD01920CBD314810B5016841F4700148
:1006400001602A48016841F001010160274A002148
:100650000832116002682A4B1A400260031D294AC1
:100660001A60026822F48022026020480C30016087
:10067000FFF790FF21494FF000608039086010BDFE
:1006800070B51A4D083528681F4B204910F00C0032
:1006900004D05E10042803D0082803D00B601BE0B0
:1006A0000E6019E0114A121D1068C0F380541068E2
:1006B00000F03F0014B1B6FBF0F001E0B3FBF0F046
:1006C00013681268C3F388135843C2F30142521CE3
:1006D0005200B0FBF2F0086028680C4AC0F3031027
:1006E000121D105C0A68C2400A6070BD00380240EA
:1006F0000070004008544007003C024088ED00E0D4
:10070000FFFFF6FE103000240024F400500000200B
:100710002DE9F0410121082000F075FC8D4C4FF4CB
:1007200070400127206027710025A571032666719E
:10073000E5712146884800F063FA0121042000F0A9
:1007400062FC780320602771A5716671E57121460E
:10075000BDE8F041814800F053BA70B50121084668
:1007600000F079FC0121102000F04DFC79484FF495
:10077000D44100240160022101710321417184717F
:10078000774DC4710146284600F03AFA012209214A
:10079000284600F0A9FA01220B21284600F0A4FA0D
:1007A00001220D21284600F09FFA01220E21284641
:1007B00000F09AFA6B48A7216B4D018044F61F6147
:1007C0004160048144800146284600F0BFFD654930
:1007D00060200C310880012048808C8104208880B2
:1007E000CC818C60284600F033FE0821284600F0BA
:1007F00070FF5C4928460C3100F056FE082128465F
:1008000000F06DFF574928460C3100F089FE0821A1
:10081000284600F06EFF534928460C3100F0BAFE1E
:100820000821284600F06BFF0121284600F0ECFD6E
:100830000121284600F002FE2846BDE87040012153
:1008400001F0EEB870B50121102000F0DCFB0121B1
:10085000880300F000FC3F48002501260571C671A1
:100860002221016001463E4800F0CAF9012104201E
:1008700000F0B2FC0521042000F0AEFC354C022053
:1008800008342060257108206071A671204600F0B0
:10089000E9F82020206010206071204600F0E2F886
:1008A0000C3C072020706570A570E670204600F0B3
:1008B00078F8172020702046BDE8704000F071B82D
:1008C0002DE9F04180460121480400F0BAFB0121E6
:1008D000084600F098FB1F4802210C2601710321F5
:1008E00006604171002484710125204FC5710146C5
:1008F000384600F085F907220221384600F0F4F965
:1009000007220321384600F0EFF916481038014657
:10091000C0F80080848146810481C4808480144CA6
:10092000204601F0B8F90B492620091F08700A205B
:1009300048708D70CD70084600F033F8012240F207
:100940002551204601F0B7FA2046BDE8F0410121CB
:1009500001F012BA68000020000C024000080240BA
:1009600000100240D40500200000014000000240B9
:10097000004400400648804706480047FEE7FEE77F
:10098000FEE7FEE7FEE7FEE7FEE7FEE7FEE7FEE73F
:1009900037060008890100082849084328490860EB
:1009A000704730B50F23C27801780125FAB1244A87
:1009B000126801F1E02102F4E062C2F5E062C2F3E4
:1009C0000722C2F10404D3404278A24084781C403C
:1009D0001443220181F80024007800F01F018D40AB
:1009E0004009800000F1E020C0F8005130BD01F066
:1009F0001F0085404809800000F1E020C0F88051C8
:100A000030BD104A114001430D48001F016070477E
:100A10000B4A121D0029116801D0014300E08143F7
:100A2000116070474FF0E0210428086903D020F0DE
:100A300004000861704740F00400FAE70000FA057E
:100A40000CED00E080FFFF1F354900200860091D04
:100A50000860091D0860091D0860314931481431DA
:100A60000860704730B52E4A8379016853B3136824
:100A70008B431360111D0B680468A3430B6001795D
:100A800011440B68046823430B60254B0833196835
:100A90000468A14319601C1D21680568A9432160F1
:100AA0004179102905D011440A68006802430A60A0
:100AB00030BD19680268114319602168006801435C
:100AC000216030BD0079104402688A43026030BD65
:100AD0000021016001710C2242718171704710493F
:100AE00010310A6802430A60704701460C4A002030
:100AF000143212680A4200D00120704708491431AC
:100B0000086070470146064A0020143212680A4203
:100B100000D001207047024914310860704700007E
:100B2000003C0140FFFF7F00774910B5884206D1A5
:100B30000121084600F099FA002101205BE0734989
:100B4000884206D10121022000F08FFA0021022004
:100B500051E06F49884206D10121042000F085FA56
:100B60000021042047E06B49884206D1012108207A
:100B700000F07BFA002108203DE06749884206D159
:100B80000121102000F071FA0021102033E06349A8
:100B9000884206D10121202000F067FA00212020A0
:100BA00029E05F49884206D10121402000F05DFA2A
:100BB000002140201FE05B49884206D101218020AE
:100BC00000F053FA0021802015E05749884202D1F5
:100BD000012184150AE05549884202D101214415BA
:100BE00004E0534988420AD101210415204600F04F
:100BF0003CFA00212046BDE8104000F036BA10BD96
:100C0000F0B5002201274FF0030C0B6807FA02F53C
:100C10002B40AB422CD1066853000CFA03F4A643D8
:100C200006600E79D0F800E09E4046EA0E060660A7
:100C30000E79012E01D0022E12D18668A64386605D
:100C40004E79D0F808E09E4046EA0E068660466877
:100C5000AE43466045688E799640B6B235434560EE
:100C6000C568A543C560CC799C40C3681C43C4607B
:100C7000521C102AC9D3F0BD4FF6FF71016000214C
:100C8000017141718171C171704708B541F48032C1
:100C90000092C261C1610099C161C169C0690090DF
:100CA00008BD0246002012690A4200D001207047A8
:100CB000006980B270470246002052690A4200D0A3
:100CC00001207047406980B27047018370474183BB
:100CD00070470AB101837047418370474161704793
:100CE00042694A40426170474B07DB0E9A40C9088F
:100CF00010B500EB8100016A0F249C40A143016202
:100D0000016A1143016210BD00000240000402406C
:100D100000080240000C0240001002400014024093
:100D200000180240001C0240002002400024024043
:100D300000280240F848016841F001010160F64ACC
:100D40000021083211600268F44B1A400260031D52
:100D5000F34A1A60F04BF34A84331A60F04A103AAF
:100D60001B1D1A60026822F480220260EA480C30DF
:100D70000160181D01607047E7490022891C0A7054
:100D80000870704702460020510901290CD0022941
:100D90000CD0E1497431096802F01F02012393402D
:100DA0000B4200D001207047DB49F4E7DA4970318B
:100DB000F1E718B500204FF4A04400903120FFF770
:100DC000E1FF0099491C0091A14201D00028F5D013
:100DD0003120FFF7D7FF002800D0012018BDCE4AF0
:100DE000116821F0F80141EAC00010607047CE4957
:100DF00008607047C849002270310A700A700128E3
:100E000002D0042801D1052008707047C749086046
:100E1000704741EA82115A0810B5C54B029C03EB9A
:100E200002421143014341EA0460BB49091D0860C5
:100E300010BDBD4908667047800140EA0170B6499F
:100E4000843108607047B84988667047800140EA7D
:100E50000160B14940EA0270883108607047B249C8
:100E600008677047B049C8647047AB4B08331A68CD
:100E7000084322F0EC62104318607047A64B083319
:100E80001A68084322F07842104318607047A24A5B
:100E90000832116821F003010143116070479E4838
:100EA0000830006800F00C0070479B4A0832116857
:100EB00021F0F001014311607047974A0832116830
:100EC00021F4E051014311607047934A08321168E0
:100ED00021F4604141EAC0001060704770B58E4B4C
:100EE00008331968934C11F00C0104D066100429E2
:100EF00003D0082903D004601BE0066019E0864A8D
:100F0000121D1168C1F38055116801F03F0115B140
:100F1000B6FBF1F101E0B4FBF1F114681268C4F31F
:100F200088146143C2F30142521C5200B1FBF2F13A
:100F3000016019680F2202EA11117F4A545C0168AE
:100F4000E14041601C68072505EA9424145D21FAFC
:100F500004F484601B6805EA5333D25CD140C1605D
:100F600070BDC0F30121032908D16B4B0833196808
:100F7000724A21F4F81102400A431A60664970313E
:100F80000A68C0F30B0002430A607047674944399E
:100F90000860704765494039086070476249C1F888
:100FA0005C0170475C4A8C321168401E21F01F01C1
:100FB000014311607047584A8C3211686FF0FF038B
:100FC00021F4F85103EB0020084310607047524AA7
:100FD0008C32116821F440110143116070474E4A70
:100FE0008C32116821F440010143116070474A4A74
:100FF0008C32116821F4403101431160704750492F
:10100000C1F8E0017047444A30320029116801D02C
:10101000014300E08143116070473F4A34320029A8
:10102000116801D0014300E08143116070473A4AE2
:1010300038320029116801D0014300E0814311607A
:101040007047354A40320029116801D0014300E061
:10105000814311607047304A44320029116801D041
:10106000014300E08143116070472B4A1032002990
:10107000116801D0014300E0814311607047264AA6
:1010800014320029116801D0014300E0814311604E
:101090007047214A18320029116801D0014300E04D
:1010A0008143116070471C4A20320029116801D029
:1010B000014300E0814311607047174A2432002940
:1010C000116801D0014300E0814311607047124A6A
:1010D00050320029116801D0014300E081431160C2
:1010E00070470D4A54320029116801D0014300E0D5
:1010F000814311607047084A58320029116801D0B5
:10110000014300E0814311607047034A60320029C7
:10111000116817D0014316E000380240FFFFF6EADD
:10112000103000240030002000004742800E47426B
:101130000000FFFF0024F40078000020FFFCFF0FF8
:1011400000104742814311607047194A0029116815
:1011500001D0014300E081431160704714490C3114
:101160000128086803D020F008000860704740F0AC
:101170000800FAE70E4A573A0029117801D00143D6
:1011800000E081431170704709481030016841F058
:101190008071016070470146054A0020583A126884
:1011A0000A4200D001207047014956390870704743
:1011B0006438024010B501218C032046FFF77DFF03
:1011C0002046BDE810400021FFF777BF14490860B2
:1011D000704714490862704710B58A0721F003046C
:1011E0001149120F21440F23D1F8084893409C4322
:1011F000C1F80848D1F8083890400343C1F80838CE
:1012000010BD0849C1F8DC00704708490860704704
:101210000349002020310968C90500D50120704725
:1012200000380140000027420030014000042742FE
:10123000FE4910B5884206D101210846FFF73DFF5F
:10124000002101205BE0B0F1804F09D0F8498842CD
:101250000DD101210220FFF726FF0021022070E0BE
:1012600001210846FFF71FFF0021012069E0F14935
:10127000884206D101210420FFF715FF0021042038
:101280005FE0ED49884206D101210820FFF70BFFFE
:101290000021082055E0E949884206D101211020AB
:1012A000FFF701FF002110204BE0E549884206D1FD
:1012B00001212020FFF7F7FE0021202041E0E14935
:1012C000884206D101210220FFF7F7FE002102200B
:1012D00015E0DD49884202D101210C040AE0DB4916
:1012E000884202D101214C0404E0D94988420AD144
:1012F00001218C042046FFF7E0FE00212046BDE8D6
:101300001040FFF7DABED349884206D101214020C0
:10131000FFF7C9FE0021402013E0CF49884206D1E3
:1013200001218020FFF7BFFE0021802009E0CB498A
:1013300088420AD1841501212046FFF7B4FE00211E
:101340002046BDE81040FFF7AEBE10BD30B50288A4
:10135000B64CBC4DA0420DD0A8420BD0B0F1804F8E
:1013600008D0B34B984205D0B24B984202D0B24B52
:10137000984203D122F070034A881A43AF4B984237
:1013800006D0AF4B984203D022F440730A891A4327
:1013900002804A68C2620A880285A04201D0A8423F
:1013A00001D1897A01860121818230BD4FF0FF3160
:1013B0004160002101800181418081727047018577
:1013C00082827047028822F070020A4302807047CE
:1013D00041627047C1627047406A7047008D704734
:1013E0000029018802D041F0020101E021F0020150
:1013F000018070470029018802D041F0040101E01A
:1014000021F00401018070470029018802D041F0D9
:10141000800101E021F0800101807047028822F004
:101420000802028002880A4302807047028822F480
:101430004072028002880A430280704700290188B6
:1014400002D041F0010101E021F00101018070476B
:1014500030B5028C22F001020284028C8388048B56
:1014600022F0020224F073050C882C438D89154369
:101470004A882A436D4DA84202D0724DA8420DD130
:1014800022F00805CA8923F440732A4322F0040598
:101490008A882A430D8A1D434B8A2B438380048309
:1014A00089684163028430BD70B5028C22F010025D
:1014B0000284028C8388048B0D8824F4E6464FF660
:1014C000FF7404EA052535438E8922F0200204EAE0
:1014D000061616434A8804EA02123243534EB042BB
:1014E00002D0584EB04215D122F08006CA8923F4AA
:1014F000406304EA0212324322F040068A8804EA7A
:10150000021232430E8A04EA86061E434B8A04EA1C
:10151000830333438380058389688163028470BDBC
:1015200070B5028C22F480720284028C8388848BD2
:101530000D8824F0730425438E894FF6FF7422F43E
:10154000007204EA062616434A8804EA022232435D
:10155000364EB04202D03B4EB04215D122F4006666
:10156000CA8923F4405304EA0222324322F48066FB
:101570008A8804EA022232430E8A04EA06161E43CF
:101580004B8A04EA03133343838085838968C163EC
:10159000028470BD70B5028C22F480520284058CE6
:1015A0008288838B0C8823F4E6464FF6FF7303EAA8
:1015B0000424344325F400568D8903EA0535354368
:1015C0004E8803EA06362E43184DA84202D01D4D20
:1015D000A84205D122F480450A8A03EA82122A43EE
:1015E0008280848389680164068470BD0021018043
:1015F0004180818081608181C18101824182704707
:1016000030B50124058C00F118038C40A5430584F6
:1016100031B308292CD0091FC1F34E0018440168CA
:1016200048F6FF731940016001681AE000000140AC
:101630000004004000080040000C00400010004082
:1016400000140040000401400040014000440140FB
:101650000048014000180040001C004000200040ED
:1016600006E04FF6FF7303EA02221143016030BD2A
:1016700003EB510001684FF68F7319400160016858
:10168000F3E74163704781637047C163704701644A
:101690007047028B22F070020A4302837047028B6C
:1016A0004FF6FF7322F4E04203EA01211143018364
:1016B0007047828B22F070020A4382837047828BCC
:1016C0004FF6FF7322F4E04203EA012111438183C4
:1016D0007047028B22F008020A4302837047028B94
:1016E0004FF6FF7322F4006203EA012111430183E4
:1016F0007047828B22F008020A4382837047828BF4
:101700004FF6FF7322F4006203EA01211143818343
:101710007047028B22F004020A4302837047028B57
:101720004FF6FF7322F4806203EA01211143018323
:101730007047828B22F004020A4382837047828BB7
:101740004FF6FF7322F4806203EA01211143818383
:101750007047028B22F080020A4302837047028B9B
:101760004FF6FF73C2F30E0203EA01211143018316
:101770007047828B22F080020A4382837047828BFB
:101780004FF6FF73C2F30E0203EA01211143818376
:101790007047028C22F002020A4302847047028CD6
:1017A00022F008020A4302847047028C4FF6FF734E
:1017B00022F0200203EA0111114301847047028CD8
:1017C0004FF6FF7322F0800203EA011111430184F6
:1017D0007047028C4FF6FF7322F4007203EA012176
:1017E000114301847047028C4FF6FF7322F40062AC
:1017F00003EA0121114301847047028C4FF6FF7305
:1018000022F4005203EA013111430184704710B5FC
:101810000123048C8B409C430484038C8A40134333
:10182000038410BD10B50423048C8B409C430484B6
:10183000038C8A401343038410BD828B22F44062E0
:101840008283828B4FF6FF7303EA01210A4382836E
:101850007047828B22F00C028283828B0A43828340
:101860007047028B22F440620283028B4FF6FF73B3
:1018700003EA01210A4302837047F0B5048C24F087
:1018800010040484078B068C4FF6FF7404EA0115DC
:1018900027F4734704EA0331394304EA02220A4376
:1018A00026F0A001294341F0100102830184F0BD1C
:1018B000028B22F00C020283028B0A4302837047E0
:1018C0002DE9F0410C460E884988A28823890546F7
:1018D0000EB3042E26D0082E2E8C4FF6FF7028D083
:1018E00026F480562E84AF8B2E8C00EA022200EA6A
:1018F000013127F473473A4300EA0330104326F4DA
:1019000020420A4342F48051A8832984E188284672
:10191000BDE8F04191E700F062F9E1882846BDE8B2
:10192000F041C5E7FFF7A9FFE1882846BDE8F0418F
:1019300097E726F480762E84AF8B2E8C00EA012167
:1019400000EA0310104327F0F307384326F420621F
:101950000A4342F48071A8832984E1882846BDE8BF
:10196000F04176E700210180418001228280C18020
:10197000018170472DE9F0410C4600264988074651
:10198000012501B90226A288012A00D1022520885A
:1019900023890028384610D0FFF76FFFE1883846CA
:1019A000FFF75FFF23892A463146384600F017F9D2
:1019B000E1883846BDE8F0417AE700F010F9E188A7
:1019C0003846FFF775FF23892A4631463846FFF728
:1019D00054FFE1883846BDE8F04142E7406B70476C
:1019E000806B7047C06B7047006C704710B50A88F9
:1019F0004B88CC881A438B8823431A430B891A439C
:101A00004B8989891A430A43A0F8442010BD00215C
:101A1000018041808180C180018141818181704745
:101A2000002930F8441F02D041F4004101E0C1F325
:101A30000E01018070470029818802D041F0040125
:101A400001E021F00401818070470029818802D0E3
:101A500041F0010101E021F0010181807047002A7D
:101A6000828901D00A4300E08A43828170478182E3
:101A7000704702460020128A0A4200D001207047B7
:101A8000C9430182704702460020138A92890B42A3
:101A900002EA010202D0002A00D001207047C943A7
:101AA000018270471143A0F848107047002A8289CC
:101AB00001D00A4300E08A4382817047002981886F
:101AC00002D041F0080101E021F008018180704757
:101AD000018921F0070101817047028922F070021B
:101AE0000A430281704700B50346FFF7F6FF1889E5
:101AF00040F00700188100BD70B516460D466029FC
:101B000004464FF0010231460AD000F068F8294639
:101B10002046FFF7E2FF208940F00700208170BDDA
:101B2000FFF7ABFEF3E730B504894FF6FF7505EA22
:101B300003231343E4B20B432343038130BD10B5A9
:101B40000446FFF7F0FF208940F07700208110BDA8
:101B500010B50446FFF7E7FF208940F4804020815C
:101B600010BD828822F07002828082880A438280BF
:101B70007047028922F00702028102890A4302812A
:101B80007047028922F08002028102890A430281A1
:101B9000704770B50589048B068C25F007050D4349
:101BA0004FF6FC410C4040F201110C434FF6FF711F
:101BB00001EA031126F02206114331430581048313
:101BC000018470BD0029818802D041F0800101E0CC
:101BD00021F0800181807047A0F85010704770B5E7
:101BE000048C24F001040484058B048C4FF6FF76EA
:101BF00006EA0313134325F0F3052B4324F00A02EE
:101C00000A4342F001010383018470BDCD4910B540
:101C1000884206D101211020FFF74FFA0021102041
:101C200020E0C949884202D101214C0429E0C7497A
:101C3000884202D101218C0423E0C549884202D1A7
:101C40000121CC041DE0C349884202D101210C05C9
:101C500017E0C149884209D101212020FFF72DFA60
:101C600000212020BDE81040FFF727BABB49884279
:101C700002D101218C0704E0B94988420AD101212F
:101C800044052046FFF70FFA2046BDE8104000212A
:101C9000FFF709BA10BD7FB50446008A0D46C98812
:101CA00020F4405001432182A08941F20C61884315
:101CB000A9882A8911436A8902431143A181A08A14
:101CC00020F44071A8890843A0826846FFF706F90E
:101CD0009C48844202D0A048844201D1039800E08D
:101CE0000298A189090400EBC00101EB00102968EA
:101CF00001D5490000E08900B0FBF1F06422B0FB9F
:101D0000F2F109010B096FF018056B4300EB83003A
:101D1000A3891D044FF0320306D503EBC000B0FBCE
:101D2000F2F000F0070005E003EB0010B0FBF2F06A
:101D300000F00F00084320817FBD4FF41651016071
:101D400000218180C18001810C2242818181704704
:101D500010B5028A4C8822F470630A8822438C886A
:101D6000C9880C4322431A43028210BD002101801E
:101D700041808180C18070470029818902D041F46F
:101D8000005101E021F4005181817047028B02F47F
:101D90007F420283028B0A430283704700298189B4
:101DA00002D041F4004101E0C1F30E01818170478E
:101DB0000029818A02D041F4006101E021F4006130
:101DC00081827047C1F30801818070478088C0F329
:101DD00008007047028A22F00F020282028A0A4338
:101DE000028270470029818902D041F0020101E09E
:101DF00021F0020181817047828922F40062828190
:101E000082890A4382817047028A22F0200202827C
:101E1000028A0A43028270470029018A02D041F4F3
:101E2000804101E021F4804101827047818941F0C5
:101E30000101818170470029818A02D041F00801A7
:101E400001E021F0080181827047028BD2B2028347
:101E5000028B42EA0121018370470029818A02D066
:101E600041F0200101E021F020018182704700292A
:101E7000818A02D041F0100101E021F0100181823D
:101E80007047828A22F004028282828A0A43828216
:101E900070470029818A02D041F0020101E021F05F
:101EA000020181827047002A828A01D00A4300E041
:101EB0008A438282704710B5C1F3421301F01F04B8
:101EC0000121A140012B07D0022B07D01430002A9A
:101ED000026805D00A4304E00C30F8E71030F6E75A
:101EE0008A43026010BD0246002012880A4200D0D8
:101EF00001207047C9430180704770B501F01F058C
:101F000001260024C1F3421306FA05F2012B0FD07B
:101F1000022B0FD0838A4FEA11210088134206FA60
:101F200001F600EA060001D000B10124204670BD90
:101F30008389F0E7038AEEE70A0A01219140C94349
:101F400001807047001001400044004000480040FC
:101F5000004C004000500040001401400078004058
:101F6000007C004010B504466FF00400FEF75AFDF7
:101F70002949E00800EB40020870C2EBC0104FF6A0
:101F8000FF7202EAC000488010BD23490978484327
:101F90004FF0E021486100238B61086940F00100A7
:101FA00008610869C20701D0C003FAD5086920F0AA
:101FB000010008618B6170471749498848434FF019
:101FC000E021486100238B61086940F0010008614D
:101FD0000869C20701D0C003FAD5086920F00100E2
:101FE00008618B61704770B54FF40776B0FBF6F16E
:101FF000CCB2B0FBF6F106FB110504E03046FFF76A
:10200000DBFF641EE4B2002CF8D1002D03D028467B
:10201000BDE87040D0E770BD8800002010B54FF4D7
:102020008071A048FEF73DFE012800D0002010BDC1
:10203000F0B59E4D9C4C002395F901700A2624F8BA
:10204000170004EB47007F1CC182828597FBF6F0E6
:1020500006FB10706870184634F91010401CC0B2AE
:102060000B440A28F8D393FBF6F002B20021A282B7
:10207000084604EB4003401CB3F91630C0B21944C3
:102080000A28F6D391FBF6F003B2002163850846D7
:1020900004EB4007401CB7F92C70C0B239440A2841
:1020A000F6D391FBF6F000B2A4F84000297800299D
:1020B0001DD0B5F90E108A4200DAEA81B5F9101088
:1020C0008B4200DA2B82B5F91210884200DA68825E
:1020D000B5F908108A4200DD2A81B5F90A108B4251
:1020E00000DD6B81B5F90C10884200DDA881F0BDE0
:1020F0007CB500238DF8053014460D4606468DF854
:10210000043000936B46062203213C2001F010F8B6
:10211000BDF8020040BA02B2BDF8040040BA01B2F4
:10212000BDF8000040BA00B2FFF782FF5E48818A26
:102130003180418D2980B0F8400020807CBD7CB585
:1021400000246D462A1D6846A91CFFF7D1FFC82050
:10215000FFF71BFF641CE4B2322CF3D37CBD0A46AC
:1021600001463C2001F03AB84F4B10B59C8A0480E0
:10217000588D0880B3F84000108010BD3EB504466D
:1021800002AA01A96846FFF7B3FF4849BDF900005C
:10219000B1F90220D1ED050A801A00EE100AB8EE5E
:1021A000C00A20EE200A81ED080A84ED000ABDF97C
:1021B0000400B1F90420D1ED060A801A00EE100ADD
:1021C000B8EEC00A20EE200A81ED090A84ED010A6A
:1021D000BDF90800B1F90620D1ED070A801A00EE1A
:1021E000100AB8EEC00A20EE200A81ED0A0A84ED3A
:1021F000020A3EBD072803D84007010E0120AEE7C2
:10220000704710B5022808D801460220FFF7A7FF43
:10221000BDE810406420FFF7B8BE10BD10B510B186
:102220000020FFF7EEFF70210020FFF798FFA021AC
:102230000120FFF794FF0021BDE8104002208EE747
:10224000062803D88006010E002088E7704710B5E5
:1022500004460A213C2000F04CFF20700B213C205A
:1022600000F047FF60700C213C2000F042FFA0709E
:1022700010BD10B50020FFF7D1FF0020FFF7C1FF10
:102280000620FFF7DDFFBDE8104058E707480121B1
:1022900001700021018141818181C18101824182DE
:1022A0007047000000080240F40500208C00002068
:1022B000F6EE000A0CB560EE200A10EE100ACDED25
:1022C000000A8DED010AFE49B0EE600AA1EB600044
:1022D00000EE900A01EE100A019060EE200AB7EEBF
:1022E000080A00EEC10A00EE900A20EE200A8DEDE9
:1022F000010A0CBD2DE9FC4101210420FEF783FEFB
:1023000001258DF804500226C0208DF805600024B8
:10231000EC4F00908DF806408DF80740694638462E
:10232000FEF76EFC01210420FEF76DFE8DF80440DF
:1023300068028DF8056000908DF806408DF8075012
:1023400069463846FEF75CFC00F0B4FCFFF791FFED
:102350001420FFF748FEBDE8FC8170B586B0054645
:102360000DF1120004A902AECDE900103046B11CF7
:10237000321DB31D00F04CFCD348002436F8141075
:1023800020F81410641CE4B2062CF7D300219FED52
:10239000CF2ACD4A0C3ADFEDCE1ADFEDCE0A01E0AE
:1023A000032914D236F9110005EB810300EE100A5F
:1023B00002EB8100B8EEC00A90ED001A20EE020A8E
:1023C00001EE210A83ED000A80ED000A0BE036F9E8
:1023D000110000EE100A05EB8100B8EEC00A80EE95
:1023E000201A80ED001A491CC9B20629D8D305F17C
:1023F0001800FFF7C3FE06B070BDB0EE002A21EE54
:10240000021A9FEDB52AF7EE002A21EE022A82EE8B
:10241000821A31EE212A81EE821A70EE601AB0EE35
:10242000600A01EE210A704770B504462DED108B4D
:102430000E46A548A94D0C3090ED000A85ED090A1D
:1024400090ED010A85ED0A0A90ED020A0C3885ED3F
:102450000B0AB0F90610D5ED030A00EE101AB0F918
:102460000810B0F90A00B8EEC00A70EE608A00EEFB
:10247000101AD5ED040AB8EEC00A30EE608A00EEFC
:10248000100AD5ED050AB8EEC00A30EE609A95ED57
:102490000E0B51EC100B05F0A3FD01EE900AB2EE0D
:1024A000041AD5ED000AB0EE680AFFF7A6FF85ED25
:1024B000000A95ED0E0B51EC100B05F091FD01EEAD
:1024C000900AB2EE041AD5ED010AB0EE480AFFF701
:1024D00094FF85ED010A95ED0E0B51EC100B05F004
:1024E0007FFD01EE900AB2EE041AD5ED020AB0EEBD
:1024F000490AFFF782FFB0EE40CA85ED02CAD5ED6A
:10250000000ADFED771A20EEA11A9FED720AD6EDD0
:10251000002A81EE002A9FED731A10EE900A88EED1
:1025200080FA02EE812A86ED002AD5ED01CA6CEE12
:10253000A12AC8EE00FA82EE802AD6ED012A02EE28
:10254000812A86ED012A2CEE212AC2EE001A96ED90
:10255000022A42EE011AC6ED021A05F015FD95EDAC
:102560000E1B53EC112B05F0F1FB9FED5F8B53EC31
:10257000182B05F0EBFB9FED5E9B53EC192B05F040
:1025800057FC41EC1D0B206805F0FEFC53EC1D2BA5
:1025900005F035FB05F024FD20601CEE900A05F0E7
:1025A000F3FC95ED0E1B53EC112B05F0CFFB53EC18
:1025B000182B05F0CBFB53EC192B05F039FC41EC43
:1025C0001D0B606805F0E0FC53EC1D2B05F017FBBC
:1025D00005F006FD60601CEE100A05F0D5FC95EDD7
:1025E0000E1B53EC112B05F0B1FB53EC182B05F02F
:1025F000ADFB53EC192B05F01BFC41EC1D0BA06847
:1026000005F0C2FC53EC1D2B05F0F9FA05F0E8FCCF
:10261000A0601CEE100A05F0B7FC95ED0E1B53EC04
:10262000112B05F093FB53EC182B05F08FFB53ECAB
:10263000192B05F0FDFB9FED30DB53EC1D2B05F056
:1026400085FB9FED2FEB53EC1E2B05F0F1FB41ECCE
:10265000100B07F05DF9B0EE40CAF0EE60CA2068DA
:1026600005F092FC53EC1C2B05F070FB41EC1C0BAD
:10267000606805F089FC53EC1C2B05F061FB05F04C
:10268000AFFC6060A86805F07FFC95ED0E1B53EC75
:10269000112B05F05BFB53EC182B05F057FB53ECAB
:1026A000192B05F0C5FB53EC1D2B05F04FFB53EC2C
:1026B0001E2B05F0BDFB41EC100B07F029F923E0C0
:1026C000DF59375F0008024044060020CDCCCC3EE5
:1026D0009A99193F33338341F90F4940B8000020DC
:1026E0009A99193E9A99593F0000000000409F4076
:1026F00000000000C0FFDF4000000060FB21094037
:102700000000000000806640B0EE408AF0EE608A73
:10271000606805F039FC53EC182B05F017FB41EC11
:10272000180B206805F030FC53EC182B05F067FA05
:1027300005F056FC206095ED090A60EE000A95ED63
:102740000A0A40EE000A95ED0B0A40EE000A10EE70
:10275000900A05F019FC41EC100B07F03DF951EC23
:10276000100B05F03DFC95ED090A08EE100AF0EE9D
:10277000C00AF4EEC80AF1EE10FA13D2C0EE080A4D
:1027800010EE900A05F000FC41EC100B05F018FE6D
:102790009FEDBB1B51EC100B53EC112B05F0D6FA3F
:1027A00041EC1B0B95ED0A0AF0EEC00AF4EEC80AE4
:1027B000F1EE10FA13D2C0EE080A10EE900A05F0FE
:1027C000E3FB41EC100B05F0FBFD9FEDAF1B51EC63
:1027D000100B53EC112B05F0B9FA41EC1A0B95EDE7
:1027E0000E0B51EC100B05F0FBFB08EE100A51EC40
:1027F0001A0B05F0F5FB00EE100AB0EE481AF0EEE9
:102800004F0A00F0A7FF10EE100A05F0BDFB95ED92
:102810000E0B41EC180B51EC100B05F0E1FB09EE2F
:10282000100A51EC1B0B05F0DBFB00EE100AB0EEBA
:10283000491AF0EE6F0A00F0ECFF10EE100A05F0F6
:10284000A3FB9FED93AB53EC1A2B05F07FFA41EC01
:10285000190B94ED010A9FED90BA20EE0B0A10EED1
:10286000100A05F091FB53EC192B05F0C8F905F09F
:10287000B7FB606053EC1A2B51EC180B05F066FAAD
:1028800094ED000A41EC180B20EE0B0A10EE100A32
:1028900005F07AFB53EC182B05F0B1F905F0A0FB1D
:1028A0002060BDEC108B70BD2DE9F04782462DED08
:1028B000028B1D46DDE90A6891460F467748FFF70F
:1028C0004CFD77480068774C2062206AE1698842B5
:1028D000206AE1690AD2C943084400EE100AB8EE42
:1028E000400A10EE100A05F04FFB02E0401A05F016
:1028F0001FFB41EC100B84ED0E0B9FED6B0B53ECAB
:10290000102B94ED0E0B51EC100B05F01FFA41EC5F
:10291000100B84ED0E0B9FED660B53EC102B94ED1A
:102920000E0B51EC100B05F011FA41EC100B84ED7D
:102930000C0B206AE06149465046FFF775FD3846AA
:1029400003F0F8F997ED010A54492846B1EE400A20
:1029500087ED010A97ED020AB1EE400A87ED020AFF
:1029600001F0A3FF95ED010A4C48B1EE400A85ED58
:10297000010A95ED020AB1EE400A85ED020AD0ED9A
:10298000050A9FED4D0A60EE800ADFED4C1A06F154
:102990000802311D80EEA11AD0ED040A20EE802A33
:1029A000C2EE210A90ED032A22EE002A82EE210ACD
:1029B000D0EC031A183090EC033A304603F068FA72
:1029C0003648D4ED060A0C38B0F9040000EE100ABF
:1029D000B8EEC00A30EE600A10EE100A05F0D4FA24
:1029E0009FED371B53EC112B05F0B0F941EC180BA0
:1029F000D8F8000005F0C8FA9FED331B53EC112BFB
:102A000005F0A4F953EC182B05F0F9F805F0E8FAF5
:102A100000EE100AF6EE000A20EE200A88ED000A09
:102A2000BDEC028BBDE8F08710EE100A10B520F067
:102A30000040C0F1FF40C00F02D09FED250A10BD3D
:102A400010EE100AB0F17E5F02DB9FED220A10BD8E
:102A500010EE100A10F1814F02D39FED1F0A10BD36
:102A600010EE100A05F090FA41EC100B05F0A8FCEE
:102A700051EC100B05F0B4FA00EE100A10BD000086
:102A800000000060E3A54CC000000060E3A54C40DE
:102A9000000000A09999993F9A99793F500600202B
:102AA000240C0040B8000020000000A0F7C6B03E93
:102AB000000000000000E03FDB0F4940000034430D
:102AC0003BDF4F8D976EA23F5EBA490C022BEF3F62
:102AD00000000000DB0FC93FDB0FC9BF10B50023AA
:102AE0001A4603E030F91240521C23448A42F9DBB3
:102AF00093FBF1F000B210BD08B503230090022251
:102B00006B21D02000F070FB08BD08B502230090B7
:102B100004221B21D02000F067FB08BD08B502236A
:102B2000009004221C21D02000F05EFB08BD03466B
:102B300006226B21D02000F081BB10B5E44B0122AE
:102B40007521D02000F0F4FAE148007810BD10B5EE
:102B5000FFF7F3FF682801D0002010BD012010BD51
:102B6000034605226A21D02000F068BB03460122FB
:102B70003721D02000F062BBF0B5D64ED44CDDE951
:102B8000057C35780E3424F8150004EB45006D1CE7
:102B9000C1828285A0F84230A0F85870A0F86EC0BB
:102BA0000A20B5FBF0F100FB115030700A212046DD
:102BB000FFF794FFA0820A2104F11600FFF78EFFB1
:102BC00060850A2104F12C00FFF788FFA4F840007B
:102BD0000A2104F14200FFF781FFA4F856000A2100
:102BE00004F15800FFF77AFFA4F86C000A2104F101
:102BF0006E00FFF773FFA4F88200F0BD10B54FF42C
:102C00000071B548FEF74DF8012800D0002010BD36
:102C10002DE9FC5F1D46DDE90CAB16460F468146EB
:102C2000FFF7ECFFAB4C40B3A94B0E223B21D02069
:102C300000F07EFAA649088840BA00B220814A888E
:102C400052BA0FFA82FCA4F80AC08A8852BA0FFA64
:102C500082F8A4F80C800A8952BA13B2E3814A8937
:102C600052BA12B22282898949BA09B26182CDE987
:102C7000002142466146FFF77FFF95480E30828A69
:102C8000A9F80020418D3980B0F840103180B0F8AB
:102C900056106288891A2980B0F86C10A288891AA7
:102CA000AAF80010B0F88200E188401AABF80000E2
:102CB000BDE8FC9FF0B585B00120FFF71DFF0320A4
:102CC000FFF723FF0020FFF729FF0020FFF72FFF6A
:102CD0000020FFF745FF0120FFF748FF00230722F0
:102CE0003721D02000F0AAFA002306223721D02075
:102CF00000F0A4FA012305223721D02000F09EFA2B
:102D0000012304223721D02000F098FA0123002269
:102D10003821D02000F092FA0320009008230722E7
:102D20001A21D02000F060FA002402AD0DF1120744
:102D300004AE3220FFF729F9AB1D2A1DA91C02A8F9
:102D4000CDE90067FFF764FF641CE4B2142CF0D3F4
:102D500005B0F0BD5F4B58809980DA8070472DE94F
:102D6000F04786B000275B493E463D464F808F8046
:102D7000CF803C460DF1080A0DF112090DF1100843
:102D80006420FFF702F90AF106039A1E911E02A8B9
:102D9000CDE90089FFF73CFF641CE4B2322CEFD38D
:102DA0000024C820FFF7F1F80AF106039A1E911ECD
:102DB00002A8CDE90089FFF72BFFBDF90E00641CC6
:102DC0000744BDF91000E4B20644BDF91200642CBA
:102DD0000544E6D3642095FBF0F10AB296FBF0F1CE
:102DE00097FBF0F009B200B2FFF7B4FF06B0BDE800
:102DF000F0872DE9FF4F4FF0000B87B00DF1120067
:102E0000059004A8DA46D946D8465F465E465D4638
:102E1000169C069021E0DDE90510CDE9000102A92C
:102E20008B1D0A1D02A8811CFFF7F2FEBDF90810D8
:102E3000BDF90A008844BDF90E1007448B44BDF962
:102E40001010BDF90C008A44BDF9121006448944E3
:102E50000520FFF7C8F86D1CADB2A542DBD39BFB84
:102E6000F4F000EE100A0A98B8EEC00A80ED000AED
:102E70009AFBF4F000EE100A1498B8EEC00A80ED48
:102E8000000A99FBF4F000EE100A1598B8EEC00A9B
:102E900080ED000A98FBF4F000EE100A0798B8EEF7
:102EA000C00A80ED000A97FBF4F000EE100A0898C3
:102EB000B8EEC00A80ED000A96FBF4F000EE100AAE
:102EC0000998B8EEC00A80ED000A0BB0BDE8F08F9B
:102ED0007406002000010020000802401CB50121FA
:102EE0000220FEF790F8C020009001208DF8040029
:102EF00002208DF8050000208DF806008DF80700EF
:102F00006946DA48FDF77CFE1CBD70B5D8480168FB
:102F100021F440410160016841F480410160D54CD9
:102F20000120C4F89C02C4F89802022004F526741B
:102F3000FFF72BF8002565600220FFF726F82560D3
:102F400070BDCB4810B5016821F4404101600168B3
:102F500041F480410160C74C0020C4F89802C4F8D5
:102F60009C02022004F52674FFF70FF80120206070
:102F70006060BDE810400220FFF707B870B5BC489C
:102F80000024016821F44041016001680160B94DED
:102F90000126C5F89C623046FEF7F7FFC5F8986237
:102FA0000BE0641CE4B2322C07D9FFF7CAFFB24928
:102FB0000888401C0880012070BD0120FEF7E5FF55
:102FC000D5F81C020028ECD1C5F8980270BD70B588
:102FD000A84C0025C4F89852A548016821F4404146
:102FE0000160016841F480410160C4F89C520120F5
:102FF00004F52674FEF7C9FF01202060FEF7C5FF27
:10300000256070BD70B59B4C0026C4F89862984846
:10301000016821F440410160016841F48041016090
:103020000125C4F89C52284604F52674FEF7ADFF2E
:1030300025600120FEF7A9FF266070BD2DE9F04153
:1030400005468B48016821F440410160016841F464
:1030500080410160874E0027C6F898723C464FF0C9
:103060000108E809C6F89C026806050E0120FEF773
:103070008CFFC6F898820120FEF787FFC6F8987289
:103080000120FEF782FF641CE4B2082CE9D3BDE8FE
:10309000F0812DE9F047814675480024016821F44C
:1030A0004041016001680160724E254627464FF09D
:1030B0000108C6F898720120FEF767FFC6F89882EB
:1030C0006006040ED6F81C0208B1641CE4B20120AC
:1030D000FEF75BFF6D1CEDB2082DEAD3B9F1000FCE
:1030E00002D0FFF774FF01E0FFF78CFF2046BDE838
:1030F000F08770B50D460446FFF707FF2046FFF73F
:103100009DFFFFF73BFF2846FFF798FFFFF736FFCD
:10311000FFF7FBFE641CE0B2FFF790FFFFF72EFF06
:103120000020FFF7B6FF0446FFF70BFF204670BDF7
:103130002DE9F0411D461646884607460024FFF754
:10314000E4FE3846FFF77AFFFFF718FF4046FFF727
:1031500075FFFFF713FFFFF7D8FE7F1CF8B2FFF7EC
:103160006DFFFFF70BFF771E09E0BC4201D0012085
:1031700000E00020FFF78DFF2855641CE4B2B44244
:10318000F3D3FFF7DEFE204681E72DE9F0411D462F
:1031900016460F4680460024FFF7B7FE4046FFF76D
:1031A0004DFFFFF7EBFE67B13846FFF747FFFFF72C
:1031B000E5FE06E0285DFFF741FFFFF7DFFE641C38
:1031C000E4B2B442F6D3FFF7BCFE01205FE710B5CE
:1031D0001446FFF78EFF2070012010BD07B502AB2B
:1031E0000122FFF7D2FF0EBD2DE9F84314461E461B
:1031F0000D4680466A46089FFFF7E9FF00281BD06E
:10320000621CFF2000FA02F1C4F108023244521E8F
:10321000D0400143C6F108008740FAB2C4F107006C
:10322000C2409DF80000084010438DF80000C2B273
:1032300029464046FFF7D2FFBDE8F883F8B51546AA
:103240001C460E4607466A46FFF7C1FF01209DF85F
:103250000010A8400CB1014300E08143CAB28DF8D0
:10326000002031463846FFF7B9FFF8BD00040240A0
:1032700000080240000041421401002008B5014648
:103280006B460222EE20FFF753FF9DF800009DF8E9
:10329000011041EA002008BD70B50024FE4EA225B1
:1032A00005EB4400C0B2FFF7E9FF26F81400641CE8
:1032B000E4B2062CF4D370BDF84909280AD2DFE83D
:1032C00000F0050907090B090D090F00012200E0B4
:1032D00002220A70487070470322FAE70522F8E7D5
:1032E0000A22F6E702460021EE20FFF777BF1E20F4
:1032F000F8E710B51E20FFF7F5FF0820FFF7DCFF09
:103300006420FEF770FEBDE81040C5E710B553EC31
:10331000112B51EC100B04F08BFD41EC100B9FEDC9
:10332000E01B05F0CDFC9FEDE01B51EC100B53ECC6
:10333000112B04F008FD9FEDDE1B53EC112B04F064
:1033400005FD41EC100B10BD2DE9F14FD348D24ED5
:103350004FF00009D0F818B031894069494200EBBC
:103360000127F188FC17A1FB070309FB073201FBCA
:103370000421A24680224B4604F010FC7288130CF4
:10338000120410EB020841EB0305B188A1FB07030F
:1033900009FB073201FB04214FF48072002304F083
:1033A000FDFB3288530CD2038618009841EB0304CE
:1033B000012855D1B84800234189A1FB070C09FB1E
:1033C00007C201FB0A214FF4000204F0E7FB4FF4AF
:1033D000FA614018B14A4FF00001B0F5FA6FC2E946
:1033E0000811C2E90A1111DAA0F5FA61494301EBAB
:1033F000810303EBD3714910CF17C2E90817D9171E
:1034000003EB91718910CB17C2E90A1340F2DC512A
:10341000C8421ADA00F2DC504043D2E9087CC0EB23
:10342000C001CB17C91943EB0C03C2E9081300EB29
:10343000400101EBC00000EBD070D2E90A37401028
:10344000C117C0187941C2E90A01D2E90813B8EBE3
:103450000108D2E90A0165EB0305361A64EB0104A1
:10346000ABFB060309FB06320BFB04214FF40012F1
:10347000002304F093FBB0EB080061EB05014FF46F
:103480000042002304F08AFBBDE8F88F08B501462E
:103490006B460322EE20FFF74BFE9DF800209DF8BF
:1034A00001009DF80210120442EA0020084308BD02
:1034B0000020EBE72DE9F0417749784D07460A896E
:1034C0006869524200EB022449890026A1FB0403EB
:1034D00006FB0433E21701FB02314FF400023346CE
:1034E00004F05CFB4FF4FA614018AE60012F08D184
:1034F000B0F5FA6F05DA6443E11704EB5101C90F27
:10350000A960A968401A04F002FD9FED6B1B53EC03
:10351000112B04F08DFC41EC100BBDE8F081002074
:10352000B4E72DE9F0415D4C07462DED068B904642
:103530000E46634D9FED638B6068D8B3214601282A
:1035400009784CD0022873D0032830D1084604F003
:10355000EFFC41EC1A0B206904F0D9FC41EC190B8B
:10356000286804F0E5FC53EC182B04F0EFFB53EC57
:10357000192B04F0E5FB53EC1A2B04F019FD16D8B7
:10358000FFF796FFA0610020FFF7DEFE306004F039
:10359000BEFC41EC100B9FED4D1BFFF7B7FE51EC4D
:1035A000100B04F01DFDC8F8000000206060BDECA9
:1035B000068BB2E7FFE701206060286804F0B8FCE2
:1035C00053EC182B04F0C2FB04F0BFFCE060607801
:1035D000BDEC068B5030C0B2BDE8F04182E6084633
:1035E00004F0A6FC41EC1A0BE06804F090FC41ECFE
:1035F000190B286804F09CFC53EC182B04F0A6FB74
:1036000053EC192B04F09CFB53EC1A2B04F0D0FC68
:10361000CDD802206060FFF782FF60610020FFF7D5
:1036200049FF51EC100B04F0DBFC3860BFE7FFE70B
:10363000286804F07DFC53EC182B04F087FB04F0A1
:1036400084FC206160784030C0B2FFF74BFE03205D
:10365000ACE712484078704710B551EC110B2DEDD6
:10366000028BB0EE408AF0EE608A9FED110B53ECB6
:10367000102B04F0DDFB9FED0C1B53EC112B04F021
:1036800062FB41EC100B9FED131B05F019FB53EC93
:10369000102B51EC180B21E0060700201801002028
:1036A00000000060955BC83F000000000000F03F94
:1036B0000000000040A5E540000000000000594067
:1036C000240C0040FCA9F1D24D62503F00000000E4
:1036D000D0BCF840000000C01E05154004F0A8FB57
:1036E000BDEC028B41EC100B10BD000070B5174D06
:1036F000044680212846FEF7F6FB0028F9D0A1B247
:103700002846FEF75FFB204670BD10B50F4C202108
:103710002046FEF7E8FB0028F9D02046FEF756FBCE
:10372000C0B210BD4FF0FF30704770B5084D044671
:1037300080212846FEF7D7FB0028F9D0A1B2BDE8CA
:1037400070400248FEF73EBBFEE700000044004028
:10375000001001405F48604900F15002D0ED044A7A
:1037600070EEE40AC0ED0A0AD0ED033AD1ED012A69
:10377000D1ED031A41EE203AF0EE620A91ED023AE1
:1037800051EE210A90ED002A41EE612A70EEC30A43
:1037900001EE613A30EE822AD1ED000A41EE020AD2
:1037A00090ED012A42EE011A90ED021A30EE814AA4
:1037B00080ED0B4A80EE842A83EE041A30EE634AD1
:1037C000B0EE630A82ED002AF0EE603A02EE040ADF
:1037D00042EE603A82ED011A41EE044A80ED0C4A55
:1037E00080ED030A01EE603A41EE621AC0ED044A30
:1037F000C0ED0D0AC0ED0E2AC1ED003AF0EE623ABE
:1038000042EE623AC1ED013A81ED023AC1ED031A8E
:1038100070473048304900F15802D0ED094A103164
:1038200070EEE40AC0ED0F0AD0ED083AD1ED012A9E
:10383000D1ED031A41EE203AF0EE620A91ED023A20
:1038400051EE210A90ED052A41EE612A70EEC30A7D
:1038500001EE613A30EE822AD1ED000A41EE020A11
:1038600090ED062A42EE011A90ED071A30EE814AD9
:1038700080ED104A80EE842A83EE041A30EE634A0B
:10388000B0EE630A82ED002AF0EE603A02EE040A1E
:1038900042EE603A82ED011A41EE044A80ED114A8F
:1038A00080ED080A01EE603A41EE621AC0ED094A65
:1038B000C0ED120AC0ED132AC1ED003AF0EE623AF3
:1038C00042EE623AC1ED013A81ED023AC1ED031ACE
:1038D000704700004C01002014070020F0B50026BE
:1038E000059F15E0002410E006FB074500EB850C62
:1038F000641C9CED000A01EB850C02EB8505DCEDF8
:10390000000A30EE200A85ED000ABC42ECD3761C9A
:103910009E42E7D3F0BDF0B50026059F15E00024D8
:1039200010E006FB074500EB850C641C9CED000ACB
:1039300001EB850C02EB8505DCED000A30EE600A38
:1039400085ED000ABC42ECD3761C9E42E7D3F0BD65
:103950002DE9F0478A46DDE90979002522E00024B7
:103960001DE005FB07419FEDF80A09EB81060021E8
:1039700086ED000A10E005FB021C00EB8C0C01FB3D
:103980000748DCED000A03EB880C491C9CED001A8B
:1039900000EE810A86ED000A9142ECD3641CBC4221
:1039A000DFD36D1C5545DAD3BDE8F087F0B50025AF
:1039B00011E000240CE005FB024704FB015600EB7C
:1039C000870703EB860697ED000A641C86ED000A64
:1039D0009442F0D36D1C8D42EBD3F0BD2DE9F0473E
:1039E0009A46DDE90847814600239FEDD70A0BE0A0
:1039F000002006E003FB040507EB8505401C85ED70
:103A0000000AA042F6DB5B1C8B42F1DB002520E0C4
:103A100000231BE005FB0436002007EB860612E0BE
:103A200005FB020809EB880C00FB0438DCED000AFA
:103A30000AEB880C96ED000A9CED001A401C00EE83
:103A4000810A86ED000A9042EADB5B1CA342E1DBBF
:103A50006D1C8D42DCDBA7E730B50023B7EE000A12
:103A6000DFEDB90A12E003FB01F4002200EB84044D
:103A700009E0934204EB820502D185ED000A01E0E2
:103A8000C5ED000A521C8A42F3D35B1C8B42EAD379
:103A900030BD10B590ED000AD0ED030A90ED021A8A
:103AA00020EE200AD0ED010A00EEC10A10EE100A45
:103AB00004F06AFA41EC100B10BD70B50C460546D7
:103AC000FFF7E7FF51EC100B04F08AFA00EE100A42
:103AD000B5EEC00AF1EE10FA01D1012070BDD5EDAE
:103AE000030A002080EE801A84ED001AD5ED020A48
:103AF00080EE801AF1EE410AC4ED010AD5ED010A0B
:103B000080EE801AF1EE410AC4ED020AD5ED000AFA
:103B100080EE801AB1EE410A84ED030A70BD2DE9F2
:103B2000F04F94B00022EC4616460AAF15469FEDC2
:103B3000862A13466446B84644F8223048F82230B4
:103B4000521C0A2AF8DB0022B3E0F0EE420A1446C7
:103B50001AE0134615E004FB013800EB880898EDE5
:103B6000001AB0EEC11AF4EEC10AF1EE10FA07D253
:103B70004CF82240F0EE410A26461D4647F8223016
:103B80005B1C8B42E7DB641C8C42E2DBF4EEC00A78
:103B9000F1EE10FA03D2002014B0BDE8F08F964287
:103BA00014D0002310E006FB013802FB013400EBC7
:103BB000880800EB840498ED001AD4ED000A84ED27
:103BC000001AC8ED000A5B1C8B42ECDB954214D056
:103BD000002310E003FB015803FB012400EB8808DD
:103BE00000EB840498ED001AD4ED000A84ED001A6D
:103BF000C8ED000A5B1C8B42ECDB02FB012300EBEF
:103C00008303B7EE001AD3ED000A9946C1EE201ADD
:103C1000C3ED001A00230EE093420BD002FB0134E7
:103C200000EB840499ED001AD4ED000A60EE810ADD
:103C3000C4ED000A5B1C8B42EEDB02FB01F30024A7
:103C400000EB830E1FE094421CD004FB01F800EB54
:103C50008808002308EB820B12E093420FD00EEB92
:103C6000830804FB013AD8ED001A00EB8A089BEDAB
:103C7000001AD8ED000A41EE610AC8ED000A5B1C8B
:103C80008B42EADB641C8C42DDDB00230EE09342B6
:103C90000BD003FB012400EB840499ED001AD4ED52
:103CA000000A60EEC10AC4ED000A5B1C8B42EEDB29
:103CB000521C8A42FFF649AF4A1E37D457F82230C9
:103CC000934216D0002312E057F8225002FB013431
:103CD00005FB013500EB850500EB8404D5ED000AFA
:103CE00094ED000AC4ED000A85ED000A5B1C8B42CE
:103CF000EADB5CF82230934216D0002312E05CF835
:103D0000225003FB012403FB015500EB850500EB6A
:103D10008404D5ED000A94ED000AC4ED000A85ED97
:103D2000000A5B1C8B42EADB521EC7D5012033E739
:103D3000F0B59FED050A4F1E0025F0EE400AB7EEE4
:103D4000001AB0EE402A1AE000000000002413E040
:103D500005FB0146A54206D102EB860C03EB860665
:103D60008CED001A05E003EB860C02EB86068CED69
:103D7000002A86ED002A641C8C42E9DB6D1C8D4212
:103D8000E4DB07FB017400EB840503EB840695ED8F
:103D9000001A002486ED001A0EE004FB017500EB0A
:103DA000850CD6ED001A9CED001A02EB8505641C0B
:103DB000C1EE212AC5ED002A8C42EEDB8D1E56D4C1
:103DC0006C1C10E004FB014603EB8606D6ED001ADE
:103DD00005FB014602EB8606641C96ED001A61EEB7
:103DE000811A41EE810A8C42ECDB05FB015400EBA9
:103DF000840603EB840796ED001A002671EE600A34
:103E0000C7ED000AF0EE420A2DE06C1C16E004FB40
:103E1000014C03EB8C0C9CED001A06FB014C02EBF1
:103E20008C0CDCED001A05FB014C02EB8C0C21EE36
:103E3000211ADCED001A641C01EE210A8C42E6DB3B
:103E400006FB015400EB840C02EB84049CED001A89
:103E5000761C31EE400A97ED001AC0EE011AB0EE62
:103E6000420AC4ED001AAE42CFDB6D1EA8D5F0BDEC
:103E700070B500245FED4C0A0DE0002308E004FB60
:103E8000023500EB85055B1C95ED000A40EE000A4B
:103E90009342F4DB641C8C42EFDB10EE900A04F0DA
:103EA00073F841EC100B05F097FD51EC100B04F08A
:103EB00097F800EE100A70BD9FEDFE0AFE48F7EE7F
:103EC000000A80ED040A80ED050A80ED060AC0EDC7
:103ED000000A80ED010A80ED020A80ED030A7047B6
:103EE000F0B52DED0A0B2DED108B87B0F0EE448A66
:103EF000B0EE639AB0EE43EAF0EE629AF0EE42DA88
:103F0000F0EE61EA9FEDED8AEB4C94ED000AD4ED02
:103F1000000A20EE200A8DED050A94ED000AD4ED8A
:103F2000010A60EE20FA94ED000AD4ED020A20EEB8
:103F300020DA94ED000AD4ED030A20EE200A8DED7C
:103F4000040A94ED010AD4ED010A20EE20CA94ED92
:103F5000010AD4ED020A20EE200A8DED030A94ED49
:103F6000010AD4ED030A60EE20CA94ED020AD4EDF2
:103F7000020A20EE20AA94ED020AD4ED030A20EEF4
:103F800020FA94ED030AD4ED030A60EE20AADFEDD7
:103F9000CCBA9FEDCCBA2EEEAE0A0DEEAD0A09EE0C
:103FA000A90AFEF785F96EEE800A60EE880ACDED6B
:103FB0001A0A6DEE800A29EE800A60EE880A20EE69
:103FC000080ACDED1B0A8DED1C0A2EEE0E0A09EE35
:103FD000090A08EEA80AFEF76BF96EEE000ABA4865
:103FE000CDED1D0A69EE000A28EE800ACDED1E0A0D
:103FF0008DED1F0A9DED170AD4ED040AD4ED031AC6
:1040000094ED014A70EE609A9DED180AD4ED050A10
:10401000D4ED034A64EE083A30EE609A9DED190A39
:10402000D4ED060A70EE608A94ED020A28EE401A7A
:1040300094ED030A20EE082A94ED000A28EE403A97
:1040400094ED000A6BEE800A94ED020A4BEE400AF2
:1040500094ED010A2BEE800A0BEE210AD4ED021A30
:1040600061EEEB2AD4ED001A4BEE612AD4ED011A71
:1040700080ED001A80ED012A80ED023AC0ED033A8E
:10408000C0ED073AB1EE433A80ED083A80ED092AD7
:10409000F1EE413AC0ED0A3A80ED0E3A24EE483A8C
:1040A0006BEE211A80ED0F3A80ED101A4BEEE41AF8
:1040B00080ED112AC0ED150A80ED160AC0ED172A11
:1040C000C0ED181AC0ED1C1AB1EE621A80ED1D1A6F
:1040D00080ED1E0AB1EE602A80ED1F2A80ED231AC2
:1040E000B1EE611A80ED241AC0ED250A80ED260A92
:1040F00094ED010AD4ED020A29EEC00A00EEC90AC5
:10410000D4ED030A00EEE80A10EE100A03F03CFFBB
:104110006E4D95ED001B53EC112B03F017FE94ED43
:10412000000A41EC1B0B10EE100A03F02DFF53ECBC
:104130001B2B03F064FD03F053FF00EE100A84ED27
:10414000000A94ED000AD4ED020A20EE290A00EEDE
:10415000A80AD4ED030A00EEC90A10EE100A03F013
:1041600013FF95ED001B53EC112B03F0EFFD94EDC5
:10417000010A41EC1B0B10EE100A03F005FF53EC93
:104180001B2B03F03CFD03F02BFF00EE100A84ED27
:10419000010A94ED000AD4ED010A20EE090A00EEAE
:1041A000E80AD4ED030A00EEA90A10EE100A03F0A3
:1041B000EBFE95ED001B53EC112B03F0C7FD94EDC6
:1041C000020A41EC1B0B10EE100A03F0DDFE53EC6B
:1041D0001B2B03F014FD03F003FF00EE100A84ED27
:1041E000020A94ED000AD4ED010A20EE280A00EE3E
:1041F000890AD4ED020A00EEE90A10EE100A03F073
:10420000C3FE95ED001B53EC112B03F09FFD94EDC5
:10421000030A41EC1B0B10EE100A03F0B5FE53EC41
:104220001B2B03F0ECFC03F0DBFE00EE100A84ED28
:10423000030A94ED000AD4ED000A94ED011A20EE71
:10424000200AD4ED010A00EE810AD4ED020A94EDB1
:10425000021A00EE810AD4ED030A94ED031A00EE6F
:10426000810AFEF725F8D4ED000A194E60EE800AA7
:10427000C4ED000AD4ED010A60EE800AC4ED010A23
:10428000D4ED020A60EE800AC4ED020AD4ED030AFE
:1042900020EE800A84ED030AB7EE000A86ED000ADC
:1042A00086ED080A86ED100A86ED180A86ED200ACA
:1042B00010E0000000000000AC010020B2CB1C4167
:1042C000CDCC0C3F1DC9553F34070020E80000202D
:1042D000140F002086ED280AF1EE69DA86ED300A27
:1042E0001DEE900A03F050FE95ED001B53EC112BD0
:1042F00003F02CFD03F074FEF1EE68BA70601BEE63
:10430000900A03F041FE95ED001B53EC112B03F0D6
:104310001DFD03F065FEB0601BEE900A03F034FE55
:1043200095ED001B53EC112B03F010FD03F058FE2C
:104330001FED20BAF06086ED04BA86ED05BA86ED71
:1043400006BA19EE900A03F01FFE95ED001B53EC20
:10435000112B03F0FBFC03F043FEF06118EE900A12
:1043600003F012FE95ED001B53EC112B03F0EEFC55
:1043700003F036FEB1EE490A706210EE100A03F047
:1043800003FE95ED001B53EC112B03F0DFFC03F053
:1043900027FEB06286ED0BBA86ED0CBA86ED0DBA3B
:1043A00019EE100A03F0F0FD95ED001B53EC112BF4
:1043B00003F0CCFC03F014FEB0631BEE900A03F094
:1043C000E3FD95ED001B53EC112B03F0BFFC03F054
:1043D00007FEF06319EE900A03F0D6FD95ED001B81
:1043E00053EC112B03F0B2FC03F0FAFD706486ED80
:1043F00012BA86ED13BA86ED14BA18EE900A03F0DD
:10440000C3FD95ED001B53EC112B03F09FFC03F053
:10441000E7FD706519EE100A03F0B6FD95ED001B7F
:1044200053EC112B03F092FC03F0DAFDB0651DEEA6
:10443000900A03F0A9FD95ED001B53EC112B03F03E
:1044400085FC03F0CDFDF06586ED19BA86ED1ABA4C
:1044500086ED1BBA86ED1CBA86ED1DBA86ED1EBA36
:1044600086ED1FBA86ED21BA86ED22BA86ED23BA13
:1044700086ED24BA86ED25BA86ED26BA86ED27BAF2
:1044800086ED29BA86ED2ABA86ED2BBA86ED2CBACE
:1044900086ED2DBA072586ED2EBA86ED2FBAA6F544
:1044A000E7600095CDE9015004F11C032A46294636
:1044B0003046FFF74DFA0722A6F512731146304633
:1044C000FFF774FAA6F274600095CDE9015000F28E
:1044D0002C4307221146C438FFF73AFA06F1E002EE
:1044E000072304F1E001A2F254700095FFF7F6F9FA
:1044F000A6F53C7307220621A3F59E60FFF756FA46
:10450000A6F5B66006260095CDE9016000F530738A
:104510000722114600F5D260FFF71AFAFE4800950F
:10452000CDE90160A0F1A80307220621A0F53670AD
:10453000FFF70EFAF84A0623903204F5D271F648D6
:104540000096FFF7CBF9F54B0621A3F59072A2F286
:104550001C60FFF7EDFBF14B0622903B1146A3F1E7
:104560009000FFF723FAED4800969030CDE9016006
:104570000622EA4B1146A0F5D870FFF7E9F9E848A2
:104580000096CDE90160A0F5D87306221146903857
:10459000FFF7DEF9B0EE4B0A0621E148FFF7BFFA5C
:1045A000E0480096CDE90160DD4B06220721A0F22C
:1045B0002C40FFF7CDF93CEECD0A3FEE8FFAF0EE3E
:1045C000000A20EE201A6FEE200A61EE08DA20EED3
:1045D00088EADDED050A70EECC0A70EECA0A70EECC
:1045E000AA0A60EE88EADFEDD0FA2FEE800A10EE1C
:1045F000100A03F0C9FC41EC180B1AEE900A03F004
:10460000C3FC41EC190B1AEE100A03F0BDFC9FED40
:10461000C7BB53EC1B2B03F096FB53EC192B03F099
:104620008FFB41EC100B9FEDC39A9FEDC31B53EC26
:10463000102B51EC110B03F089FB53EC182B03F0FA
:10464000DEFA03F0CDFCDDED030A9DED040A09EE70
:10465000900A1AEE100A30EEC00A69EE00AA4FEE78
:104660008FAA03F091FC41EC180B1CEE100A03F02A
:104670008BFC53EC1B2B03F066FB53EC182B03F065
:104680005FFB41EC100B9FEDAE1B53EC102B51EC7C
:10469000110B03F05BFB3DEE2C0A41EC180B29EEED
:1046A000000A10EE100A03F06FFC53EC182B03F015
:1046B000A6FA03F095FC9DED1A0A00EE900A9DED16
:1046C0001F3A30EE6D1A9DED1B0A9F48DDED1C1A56
:1046D00030EE4E0A9DED1D2ADDED1E2A73EE600AB6
:1046E00080ED001A80ED010A72EEEA2AC0ED050A9B
:1046F00071EEEE1A083032EE692A00F1D407C0ECF0
:10470000031A0120CDE900608F4B06220721029792
:104710008448FFF71DF997ED000AD4ED000AA7F5CC
:104720008F60A0F22C4330EE200A0622072184ED90
:10473000000A97ED010AD4ED010A30EE200A84ED5B
:10474000010A97ED020AD4ED020A30EE200A84ED48
:10475000020A97ED030AD4ED030A30EE200A84ED35
:10476000030A97ED040AD4ED040A30EE200A84ED22
:10477000040A97ED050AD4ED050A30EE200A84ED0F
:10478000050A97ED060AD4ED060A30EE200A84EDFC
:10479000060A0096CDE901506248FFF7D9F8A7F55F
:1047A000D0720723A2F5367104F50D700095FFF75E
:1047B000B2F804F11C000095CDE9015007F11C038B
:1047C00007221146A3F5DE70FFF7C2F894ED000A48
:1047D000D4ED000A94ED011A20EE200AD4ED010A6E
:1047E00000EE810AD4ED020A94ED021A00EE810A6D
:1047F000D4ED030A94ED031A00EE810AFDF758FD8B
:10480000D4ED000A60EE800AC4ED000AD4ED010A7E
:1048100060EE800AC4ED010AD4ED020A60EE800A5F
:10482000C4ED020AD4ED030A20EE800A84ED030AE7
:1048300007B0BDEC108B0AB0F0BD10B5D1ED050A84
:1048400004469FED420A60EE800ADFED411A91EDC9
:10485000084AD1ED073A80EEA11AD1ED040A91ED94
:10486000063AD1ED022A20EE802AC2EE210A91ED0D
:10487000032A22EE002A82EE210A91ED012AD1EDCF
:10488000001AFFF72DFB334890ED000A84ED000A73
:1048900090ED010A84ED010A90ED020A84ED020A0E
:1048A00090ED030A84ED030A10BD10B504462DED0A
:1048B000088B84B06846FFF7C0FFDDED029AF8EE82
:1048C00000AA9DED039A29EEAA0AB0EE00AAB7EE5F
:1048D00000BA69EE0A0A20EE290A00EEC90A30EE93
:1048E0000B0A10EE100A03F04FFB9DED010ADDEDFF
:1048F000000A41EC180B20EE0A0A60EE8A0A20EE4C
:10490000290A00EE890A10EE100A03F03DFB41EC83
:10491000100BB0EE481A1FE00C0A0020D81100203E
:10492000F8120020900D00201DC9D53F00000000A6
:104930000000E03FCDCC8C3F000000A09999F13FF2
:10494000000000A023B9FA3FFC0E0020DB0F494015
:1049500000003443AC010020F0EE681A04F04CF87B
:104960009FED349B51EC100B53EC192B03F0EEF937
:104970009FED321B53EC112B03F05AFA03F030FB7E
:10498000A0609DED010ADDED030A9DED021A20EE07
:104990002A0A20EE200ADDED000A60EE8A0A00EE07
:1049A000810AFEF741F85FED160A20EE200ADFEDDE
:1049B000250A80EE201A84ED011ADDED01BA2BEEF6
:1049C000AA0A60EE2B0A9DED020A60EE0AAA4AEEE0
:1049D000C00A30EE8B0A10EE100A03F0D5FA9DEDF6
:1049E000030ADDED000A41EC180B2AEE800A60EEA6
:1049F0008A0A00EEAB0A10EE100A03F0C5FA41EC89
:104A0000100BB0EE481AF0EE681A03F0F5FF53EC05
:104A1000192B51EC100B03F099F99FED0B1B53EC84
:104A2000112B03F005FA03F0DBFA206004B0BDECB3
:104A3000088B10BD00000000008066400000006090
:104A4000FB2109C0DB0F49C000000060FB210940C9
:104A500070B5F7EE000A2DED088B96B0FE4DC5ED52
:104A60001E0A9FEDFE0A05F1800685ED1F0A86ED00
:104A7000000A86ED010AC6ED020A86ED030A86EDFC
:104A8000040A86ED050A85ED180A85ED190A85EDFB
:104A90001A0A85ED1B0A85ED1C0A85ED1D0A002406
:104AA0000CA8FDF75AFC9DED0C0ADDED050A641C0F
:104AB000C82C30EE200A8DED050A9DED0D0ADDEDC6
:104AC000030A30EE200A8DED030A9DED0E0ADDED9E
:104AD000010A30EE200A8DED010A9DED120ADDED8E
:104AE0000B0A30EE200A8DED0B0A9DED130ADDED69
:104AF000090A30EE200A8DED090A9DED140ADDED5C
:104B0000070A30EE200A8DED070AC9DBDDED050A44
:104B10009FEDD30A80EE801A8DED051ADDED030AB4
:104B200080EE801A8DED031ADDED010A80EE801A09
:104B30008DED011ADDED0B0A80EE801A8DED0B1A5A
:104B4000DDED090A80EE801A8DED091ADDED070A08
:104B500080EE801A8DED071A9DED030ADDED010A46
:104B600020EE000A00EEA00AFDF7A2FBDDED050A2B
:104B700020EE200A8DED000A10EE100A03F004FA70
:104B800041EC100B03F0CCFD9FEDB68B51EC100BFC
:104B900053EC182B03F0DAF803F022FA02909DEDA3
:104BA000050ADDED010A20EE000A00EEA00AFDF77D
:104BB0007FFBDDED030A20EE200A8DED000A10EEEA
:104BC000100A03F0E1F941EC100B03F0A9FD53ECDE
:104BD000182B51EC100B03F0B9F803F001FA009018
:104BE00003F0D2F941EC100B04F092FEB0EE408AD3
:104BF000F0EE608A079803F0C7F953EC182B03F026
:104C0000A5F841EC190B009803F0BEF941EC100B2C
:104C100003F0F2FFB0EE408AF0EE608A099803F0EC
:104C2000B3F953EC182B03F091F853EC192B02F065
:104C3000E6FF03F0D5F90190029803F0A5F941ECE5
:104C4000100B04F065FEB0EE408AF0EE608A00982A
:104C500003F09AF941EC100B03F0CEFFB0EE409A4E
:104C6000F0EE609A079803F08FF953EC192B03F0DC
:104C70006DF853EC182B03F069F841EC180B02980F
:104C800003F082F941EC100B04F042FEB0EE40AAB2
:104C9000F0EE60AA009803F077F941EC100B04F0F5
:104CA00037FEB0EE409AF0EE609A099803F06CF986
:104CB00053EC192B03F04AF853EC1A2B03F046F887
:104CC00041EC1A0B029803F05FF941EC100B03F072
:104CD00093FFB0EE409AF0EE609A0B9803F054F90F
:104CE00053EC192B03F032F853EC1A2B02F087FF28
:104CF00053EC182B03F024F803F072F9039003F03F
:104D000043F941EC180B019803F03EF941EC100B0C
:104D1000B0EE481AF0EE681A03F06EFE51EC100B7C
:104D200003F05EF900EE100AB6EE008A019020EE64
:104D3000080A10EE100A03F027F941EC100B04F0FA
:104D4000E7FDB0EE409A9DED020AF0EE609A20EE8B
:104D5000080A10EE100A03F017F941EC100B04F0EA
:104D6000D7FDB0EE40AA9DED000AF0EE60AA20EE5D
:104D7000080A10EE100A03F007F941EC100B04F0DA
:104D8000C7FD53EC1A2B51EC100B02F0DFFF53EC74
:104D9000192B02F0DBFF9DED010A41EC190B20EE0F
:104DA000080A10EE100A03F0EFF841EC100B03F0C4
:104DB00023FFB0EE40AA9DED020AF0EE60AA20EEBD
:104DC000080A10EE100A03F0DFF841EC100B03F0B4
:104DD00013FFB0EE40BA9DED000AF0EE60BA20EE8F
:104DE000080A10EE100A03F0CFF841EC100B03F0A4
:104DF00003FF53EC1B2B51EC100B02F0A7FF53ECFD
:104E00001A2B02F0A3FF53EC192B02F0F8FE03F06B
:104E1000E7F800EE100A85ED1E0A9DED010A20EE6E
:104E2000080A10EE100A03F0AFF841EC100B04F082
:104E30006FFDB0EE40AA9DED020AF0EE60AA20EEF2
:104E4000080A10EE100A03F09FF841EC100B04F072
:104E50005FFDB0EE409A09E0A404002000000000CD
:104E6000000048436666666666A64C409DED000AF3
:104E7000F0EE609A20EE080A10EE100A03F084F8B3
:104E800041EC100B03F0B8FE53EC192B51EC100B56
:104E900002F05CFF53EC1A2B02F058FF9DED010A63
:104EA00041EC1B0B20EE080A10EE100A03F06CF820
:104EB00041EC100B03F0A0FEB0EE40AA9DED020AFB
:104EC000F0EE60AA20EE080A10EE100A03F05CF87B
:104ED00041EC100B03F090FEB0EE409A9DED000AFD
:104EE000F0EE609A20EE080A10EE100A03F04CF87B
:104EF00041EC100B04F00CFD53EC192B51EC100B92
:104F000002F024FF53EC1A2B02F020FF53EC1B2B72
:104F100002F016FF03F064F800EE100A85ED1F0A98
:104F20009DED010A20EE080A10EE100A03F02CF89D
:104F300041EC100B04F0ECFCB0EE40AA9DED020A2F
:104F4000F0EE60AA20EE080A10EE100A03F01CF83A
:104F500041EC100B03F050FEB0EE409A9DED000ABC
:104F6000F0EE609A20EE080A10EE100A03F00CF83A
:104F700041EC100B04F0CCFC53EC192B51EC100B52
:104F800002F0E4FE53EC1A2B02F0E0FE9DED010A64
:104F900041EC1B0B20EE080A10EE100A02F0F4FFA1
:104FA00041EC100B03F028FEB0EE40AA9DED020A82
:104FB000F0EE60AA20EE080A10EE100A02F0E4FFFC
:104FC00041EC100B04F0A4FCB0EE409A9DED000AF9
:104FD000F0EE609A20EE080A10EE100A02F0D4FFFC
:104FE00041EC100B03F008FE53EC192B51EC100BA5
:104FF00002F0ACFE53EC1A2B02F0A8FE53EC1B2B74
:1050000002F0FDFD02F0ECFF00EE100A86ED000A52
:105010009DED010A20EE080A10EE100A02F0B4FF1E
:1050200041EC100B03F0E8FDB0EE40AA9DED020A42
:10503000F0EE60AA20EE080A10EE100A02F0A4FFBB
:1050400041EC100B04F064FCB0EE409A9DED000AB8
:10505000F0EE609A20EE080A10EE100A02F094FFBB
:1050600041EC100B04F054FC53EC192B51EC100BD9
:1050700002F06CFE53EC1A2B02F068FE9DED010A63
:1050800041EC1B0B20EE080A10EE100A02F07CFF28
:1050900041EC100B04F03CFCB0EE40AA9DED020A7E
:1050A000F0EE60AA20EE080A10EE100A02F06CFF83
:1050B00041EC100B03F0A0FDB0EE409A9DED000A0C
:1050C000F0EE609A20EE080A10EE100A02F05CFF83
:1050D00041EC100B03F090FD53EC192B51EC100B2D
:1050E00002F034FE53EC1A2B02F030FE53EC1B2B73
:1050F00002F026FE02F074FF00EE100A86ED010AAF
:1051000095ED1E0A85ED010A95ED1F0A85ED020A4F
:1051100096ED000A85ED030A96ED010A85ED040A75
:1051200016B0BDEC088B70BD70B52DED0A0B2DEDE2
:10513000108B88B0FE4C04F1800594ED1E0AD4ED6E
:105140001E0A60EE20FA94ED1E0AD4ED1F0A60EEEE
:1051500020AA94ED1E0AD5ED000A20EE20AA94EDB7
:105160001E0AD5ED010A20EE20FA94ED1F0AD4EDB7
:105170001F0A60EE20EA94ED1F0AD5ED000A20EE2A
:1051800020EA94ED1F0AD5ED010A60EE209A95ED14
:10519000000AD5ED000A20EE209A95ED000AD5ED23
:1051A000010A60EE208A95ED010AD5ED010A20EE94
:1051B000208A9DED1B0ADDED1C0A20EE000A00EEA0
:1051C000A00ADDED1D0A00EEA00A10EE100A02F0A2
:1051D000DBFE41EC100B04F0FFFB51EC100B02F076
:1051E000FFFE00EE100ADFEDD30A20EE200ADFED0D
:1051F000D20A009020EE200A8DED000AD4ED000ABC
:1052000030EE600A10EE100A02F0BEFE41EC1C0BFC
:105210009FEDCADBCB4E53EC1D2B96ED000B51ECF2
:10522000100B02F093FD9FEDC81B53EC112B02F005
:10523000E6FC96ED000B41EC1B0B53EC1D2B51ECE7
:10524000100B02F083FD53EC1B2B02F0F1FD53EC2D
:105250001C2B02F07BFD94ED000A41EC1B0B10EEC1
:10526000100A02F091FE53EC1B2B02F0C8FC02F076
:10527000B7FE00EE100A84ED000A9DED1B0ADDED7D
:105280001C0A20EE000A00EEA00ADDED1D0A00EE69
:10529000A00AFDF70DF88DED010A9DED1B0ADDED6D
:1052A000010A20EE200A8DED1B0A9DED1C0A20EE5E
:1052B000200A8DED1C0A9DED1D0A20EE200A8DEDC1
:1052C0001D0A9DED1E0ADDED1F0A20EE000A00EE0C
:1052D000A00ADDED200A00EEA00AFCF7E9FF8DED43
:1052E000010A9DED1E0ADDED010AF6EE002AB0EE80
:1052F00000BA20EE200A3EEE4FCA39EE8A2A8DED22
:105300001E0A9DED1F0A79EECABA20EE200A8DED25
:105310001F0A9DED200A20EE200A72EEC90A8DEDCB
:10532000200A9DED1E0A70EEC8CADDED1F0A20EEB0
:105330000B0A20EE8B1ADDED200A60EE2C1A60EECF
:105340008B0A41EE0C1A40EE821ACDED001A7EEE69
:105350000F1A20EE212A72EEEE1A20EE2B0A71EEC1
:10536000C82A31EEC9DA01EE222A78EEEA2A00EEE6
:10537000A22A8DED012A38EEAA2A01EE020A00EED9
:105380008D0A8DED020A9DED000ADDED010A20EE89
:10539000000A00EEA00A10EE100A02F0F5FD41EC42
:1053A000100B04F019FB51EC100B02F019FE0090E9
:1053B0009DED020A3AEEA81A8DED040A2BEE8B0A37
:1053C0008DED020A21EE0B0A8DED030A3FEEEE0A87
:1053D00030EE490A30EE080A8DED010A00EE100A9F
:1053E000DDED040A20EE0B0A60EE8B0A60EE2C1A4B
:1053F00040EEAB1ACDED041A60EE0C1A40EE811AA5
:105400003AEE291A20EE010ACDED051A00EE8D0ABA
:105410008DED060A9DED1C0ADDED010A9DED031AD6
:1054200020EE200ADDED1D0A00EEC10ADDED1F0AA7
:105430009DED061A60EE810A9DED201A41EE610A8B
:1054400030EE200A8DED000A9DED1D0ADDED020A09
:105450009DED011ADDED061A20EE200ADDED1B0A96
:1054600000EEC10ADDED200A9DED041A60EE810A0E
:105470009DED1E1A41EE610A30EE200A8DED010A03
:105480009DED1B0ADDED030A9DED021ADDED041A08
:1054900020EE200ADDED1C0A00EEC10ADDED1E0A39
:1054A0009DED051A60EE810A9DED1F1A41EE610A1D
:1054B00030EE200A8DED020A9DED000AB5EEC00A1D
:1054C000F1EE10FA7DD09DED010AB5EEC00AF1EEC5
:1054D00010FA76D09DED020AB5EEC00AF1EE10FA90
:1054E0006FD09DED000A9FED1A9A20EE090A10EE8A
:1054F000100A02F049FD96ED001B53EC112B02F04F
:1055000025FC94ED180A41EC180B10EE100A02F07D
:105510003BFD53EC182B02F072FB02F061FD00EE34
:10552000100A84ED180A9DED010A20EE090A11E027
:10553000A404002000008038CDCC1C4100000000F5
:1055400000000040E800002000000060204C803F88
:105550008FC2F53C10EE100A02F016FD96ED001B0E
:1055600053EC112B02F0F2FB94ED190A41EC180BED
:1055700010EE100A02F008FD53EC182B02F03FFB6E
:1055800002F02EFD00EE100A84ED190A9DED020ACC
:1055900020EE090A10EE100A02F0F6FC96ED001B50
:1055A00053EC112B02F0D2FB94ED1A0A41EC180BCC
:1055B00010EE100A02F0E8FC53EC182B02F01FFB6F
:1055C00000E02BE002F00CFD00EE100A84ED1A0A58
:1055D000D4ED180A9DED001AB0EE080A41EE000A5B
:1055E0009DED181A70EE810ACDED180AD4ED190A56
:1055F0009DED011A41EE000A9DED191A70EE810A27
:10560000CDED190AD4ED1A0A9DED021A41EE000AF9
:105610009DED1A0A30EE800A8DED1A0A94ED1F0AEC
:10562000DDED180A9DED191A20EEC00AD5ED000A2D
:1056300000EEC10AD5ED010A9DED1A1A00EEC10A6D
:1056400010EE100A02F0A0FC96ED001B53EC112B9B
:1056500002F07CFB94ED1E0A41EC180B10EE100AD0
:1056600002F092FC53EC182B02F0C9FA02F0B8FCDD
:10567000069094ED1E0ADDED180A9DED1A1A20EE33
:10568000200AD5ED000A00EE810AD5ED010A9DED54
:10569000191A00EEC10A10EE100A02F075FC96ED20
:1056A000001B53EC112B02F051FB94ED1F0A41EC4F
:1056B000180B10EE100A02F067FC53EC182B02F0E6
:1056C0009EFA02F08DFC049094ED1E0ADDED190A9D
:1056D0009DED1A1A20EE200AD4ED1F0A00EEC10A31
:1056E000D5ED010A9DED181A00EE810A10EE100AA0
:1056F00002F04AFC96ED001B53EC112B02F026FB46
:1057000095ED000A41EC180B10EE100A02F03CFC7B
:1057100053EC182B02F073FA02F062FC029094ED45
:105720001E0ADDED1A0A9DED191A20EE200AD4EDAD
:105730001F0A00EE810AD5ED000A9DED181A00EE51
:10574000C10A10EE100A02F01FFC96ED001B53EC8C
:10575000112B02F0FBFA95ED010A41EC180B10EE4B
:10576000100A02F011FC53EC182B02F048FA02F078
:1057700037FC00909DED060ADDED040A01EE100AEB
:1057800020EE000A00EEA00ADDED020A00EEA00AFB
:1057900000EE900A00EE810AFCF78AFD8DED010A09
:1057A0009DED060ADDED010A20EE200A84ED1E0AB9
:1057B0009DED040A20EE200A84ED1F0A9DED020AE9
:1057C00020EE200A85ED000A9DED000A20EE200A59
:1057D00085ED010A08B0BDEC108B0AB070BD70B544
:1057E0002DED060B2DED048B8AB0FE4C94ED020AD4
:1057F000D4ED020A20EE200A8DED020A94ED020A91
:10580000D4ED030A20EE200A8DED040A94ED020A7D
:10581000D4ED040A20EE200A8DED070A94ED020A69
:10582000D4ED050A20EE200A8DED000A94ED030A5E
:10583000D4ED030A20EE200A8DED030A94ED030A4D
:10584000D4ED040A20EE200A8DED000A94ED030A3F
:10585000D4ED050A20EE200A8DED060A94ED040A27
:10586000D4ED040A20EE200A8DED000A94ED040A1E
:10587000D4ED050A20EE200A8DED050A94ED050A07
:10588000D4ED050A20EE200A8DED080A9DED110ADF
:10589000DDED120A20EE000A00EEA00ADDED130A8B
:1058A00000EEA00AFCF704FD8DED010A9DED110A42
:1058B000DDED010ACC4E20EE200A8DED110A9DEDA2
:1058C000120A20EE200A8DED120A9DED130A20EE39
:1058D000200A8DED130A9DED060ADDED070A70EE34
:1058E000600AB0EE000A60EE800ACDED060ADDED3A
:1058F000040A9DED051A70EE810A20EE800A8DEDF6
:10590000040A9DED020ADDED030A30EE600ADDEDCA
:10591000000A30EE600ADDED080A30EE200A8DED57
:10592000010A9DED120ADDED010A9DED041A20EE3B
:10593000200ADDED130A00EEC10A8DED000AB0EE7B
:10594000600ADDED060A9DED011A20EE200ADDED6C
:10595000110A00EEC10A8DED010AB0EE600ADDED1C
:10596000040A9DED061A20EE200ADDED120A00EE73
:10597000C10A8DED020A9DED000AB5EEC00AF1EEF6
:1059800010FA7CD09DED010AB5EEC00AF1EE10FAD6
:1059900075D09DED020AB5EEC00AF1EE10FA6ED098
:1059A0009DED000A9FED919A20EE090A10EE100A73
:1059B00002F0EAFA96ED001B53EC112B02F0C6F947
:1059C000A4F1800541EC180B95ED1B0A10EE100AAE
:1059D00002F0DAFA53EC182B02F011F902F000FB96
:1059E00000EE100A85ED1B0A9DED010A20EE090A62
:1059F00010EE100A02F0C8FA96ED001B53EC112BC2
:105A000002F0A4F995ED1C0A41EC180B10EE100AF7
:105A100002F0BAFA53EC182B02F0F1F802F0E0FAB7
:105A200000EE100A85ED1C0A9DED020A20EE090A1F
:105A300010EE100A02F0A8FA96ED001B53EC112BA1
:105A400002F084F995ED1D0A41EC180B10EE100AD6
:105A500002F09AFA53EC182B02F0D1F802F0C0FAD7
:105A600000EE100A85ED1D0A9DED0E0ADDED000A1F
:105A700030EE200AD5ED1B0A30EE200A00E019E0D6
:105A80008DED0E0A9DED0F0ADDED010A30EE200AC4
:105A9000D5ED1C0A30EE200A8DED0F0A9DED100A9F
:105AA000DDED020A30EE200AD5ED1D0A30EE200AA7
:105AB0008DED100A94ED030ADDED0E0A9DED0F1A2F
:105AC00020EEC00AD4ED040A00EEC10AD4ED050AA6
:105AD0009DED101A00EEC10A10EE100A02F054FA01
