:020000040800F2
:10000000A017002075090008110400081304000857
:100010001504000817040008190400080000000077
:100020000000000000000000000000001B040008A9
:100030001D040008000000001F040008210400083F
:100040008F0900088F0900088F0900088F09000830
:100050008F0900088F0900088F0900083D04000877
:100060008F0900088F0900088F0900088F09000810
:100070008F0900088F0900088F0900088F09000800
:100080008F0900088F0900088F0900088F090008F0
:100090008F0900088F0900088F090008DF04000895
:1000A0008F0900088F0900088F0900088F090008D0
:1000B0008F0900088F0900088F0900088F090008C0
:1000C0008F0900088F0900088F0900088F090008B0
:1000D0008F0900088F0900089F0400088F09000895
:1000E0008F0900088F0900088F0900088F09000890
:1000F0008F0900088F0900088F0900088F09000880
:100100008F0900088F0900088F0900088F0900086F
:100110008F0900088F0900088F0900088F0900085F
:100120008F0900088F0900088F0900088F0900084F
:100130008F0900088F0900088F0900088F0900083F
:100140008F0900088F0900088F0900088F0900082F
:100150008F0900088F0900088F0900088F0900081F
:100160008F0900088F0900088F0900088F0900080F
:100170008F0900088F0900088F0900088F090008FF
:100180008F0900088F090008DFF810D008F09CF8EC
:1001900000480047DD010008AFF30080A0170020F1
:1001A0007F48016841F0080101607E48802101809C
:1001B0000021021D11807B4A24321160794A491EB8
:1001C0002C3211605321121F1180764A0121143202
:1001D0001180018841F00101018070472DED048BF1
:1001E00084B04FF4C06000F0D7FBA82001F0BAFE45
:1001F000C82001F0F8FE00F08BFA00F0AEFA00F033
:1002000021FB4FF4E13000F05BFBFFF7C9FF02F088
:1002100071F805F048F906F0C5FEDFF888A10AF18B
:10022000240ADAF8000060499FED609B9FED618A27
:10023000DFF88491624FDFF884B109F10C054FF4C7
:10024000967805F12406A7F1200408605E484FF473
:100250007A725C498DE807005C4B5D4A5D495E48F7
:1002600005F03DFE84ED0A9B85ED028A85ED018A4D
:1002700085ED008A89ED028A89ED018A89ED008A7F
:10028000002060804C4B4C482433A3F1180202F14B
:100290000C01CDE9006705F044F8042001F0A3FE4D
:1002A0006088401C80B260804045EBD92078401CBB
:1002B000207095ED000AB0EEC00A10EE101A5945F4
:1002C000C4DC95ED010AB0EEC00A10EE101A5945D3
:1002D000BCDC95ED020A4149B0EEC00A10EE100AEE
:1002E0008842B3DC3EA008F02DF8DFF810B14FF4DF
:1002F00070494FF47A6855469FED418B4946584600
:1003000000F0EEFC2C4B2C482433A3F1180202F130
:100310000C01CDE9006705F004F8606A42462968DF
:10032000091A9142FBD32968081A07F0E3FD53EC40
:10033000182B07F0EDFCC4E90A0128686062DDE7CC
:100340001F4A10B5083AA2F11001101D06F05FF91E
:100350001B4C203C94ED0A0B51EC100B07F022FED5
:1003600001EE900A94ED011AD4ED040A94ED060A08
:1003700004F07BFD84ED040AD4ED030A9FED221AFC
:1003800060EE810A9FED211A40EE010AB2EE040AE6
:10039000C4ED030A20EE800A84ED050A10BD0000BA
:1003A00040380240000C004034010020FCA9F1D28A
:1003B0004D62703F0000000050050020CDCCCC3DC8
:1003C000200000202C010020280100202401002012
:1003D00030010020A4010020A0010020AE47E13D33
:1003E0002051756164636F707465722048656C6C30
:1003F0006F20576F726C642120000000000C0240D7
:100400008DEDB5A0F7C6B03EAC1C7A3F7F6ABC3C10
:100410007047FEE7FEE7FEE7FEE77047704770476C
:1004200070475149002001F1140231F8103022F8D0
:100430001030401CC0B20828F7D3704710B5022016
:1004400000F060FB002828D048490868484C228901
:10045000801A80B2A0800968A16042F210718842BF
:1004600009D9A078082803D1607808B9FFF7D9FF27
:100470000020A0700DE0A0F21B4140F283329142B7
:1004800006D2394AA17822F81100491CA17001E076
:100490000120607037490220086010BD704710B518
:1004A000354C40F22771204601F027FD40F22551DE
:1004B000204601F022FD00280FD0204601F086FCE6
:1004C0002B4A1178284B28330B44491C11701870A3
:1004D0001078122801D30020107010BD704710B59D
:1004E00020202DED028B00F00DFB002839D02021BB
:1004F000224800F0D6FB1D4900281D4C086805D095
:10050000E268801A20610868E06027E0E1689FEDFA
:100510001C1A401A00EE100AF8EE400A80EE810A1A
:1005200010EE100A07F012FD9FED161B53EC112B75
:1005300007F0EEFB41EC180BA06907F007FD9FEDFB
:10054000131B53EC112B07F0E3FB53EC182B07F0B4
:1005500038FB07F027FD6061A061E06105492020BC
:100560000860BDEC028B10BD8C050020240C0040FF
:1005700030000020143C01400044004000100240C4
:10058000000068429A9999999999C93F9A999999BD
:100590009999E93F0CB500225449009201920868EC
:1005A00040F4803008604FF4A043086800F4003045
:1005B00001900098401C0090019810B90098984252
:1005C000F3D10868800334D50120019047484030BA
:1005D000026842F0805202604548026842F440429C
:1005E00002604248083002680260026842F4004239
:1005F0000260026842F4A0520260031F3D4A1A6082
:100600000A6842F080720A600A689201FCD53A4991
:1006100040F205720A60016821F00301016001687F
:1006200041F0020101600168C1F381010229FAD1A0
:100630000CBD01920CBD314810B5016841F4700148
:1006400001602A48016841F001010160274A002148
:100650000832116002682A4B1A400260031D294AC1
:100660001A60026822F48022026020480C30016087
:10067000FFF790FF21494FF000608039086010BDFE
:1006800070B51A4D083528681F4B204910F00C0032
:1006900004D05E10042803D0082803D00B601BE0B0
:1006A0000E6019E0114A121D1068C0F380541068E2
:1006B00000F03F0014B1B6FBF0F001E0B3FBF0F046
:1006C00013681268C3F388135843C2F30142521CE3
:1006D0005200B0FBF2F0086028680C4AC0F3031027
:1006E000121D105C0A68C2400A6070BD00380240EA
:1006F0000070004008544007003C024088ED00E0D4
:10070000FFFFF6FE103000240024F400500000200B
:100710002DE9F0410121082000F075FC8D4C4FF4CB
:1007200070400127206027710025A571032666719E
:10073000E5712146884800F063FA0121042000F0A9
:1007400062FC780320602771A5716671E57121460E
:10075000BDE8F041814800F053BA70B50121084668
:1007600000F079FC0121102000F04DFC79484FF495
:10077000D44100240160022101710321417184717F
:10078000774DC4710146284600F03AFA012209214A
:10079000284600F0A9FA01220B21284600F0A4FA0D
:1007A00001220D21284600F09FFA01220E21284641
:1007B00000F09AFA6B48A7216B4D018044F61F6147
:1007C0004160048144800146284600F0BFFD654930
:1007D00060200C310880012048808C8104208880B2
:1007E000CC818C60284600F033FE0821284600F0BA
:1007F00070FF5C4928460C3100F056FE082128465F
:1008000000F06DFF574928460C3100F089FE0821A1
:10081000284600F06EFF534928460C3100F0BAFE1E
:100820000821284600F06BFF0121284600F0ECFD6E
:100830000121284600F002FE2846BDE87040012153
:1008400001F0EEB870B50121102000F0DCFB0121B1
:10085000880300F000FC3F48002501260571C671A1
:100860002221016001463E4800F0CAF9012104201E
:1008700000F0B2FC0521042000F0AEFC354C022053
:1008800008342060257108206071A671204600F0B0
:10089000E9F82020206010206071204600F0E2F886
:1008A0000C3C072020706570A570E670204600F0B3
:1008B00078F8172020702046BDE8704000F071B82D
:1008C0002DE9F04180460121480400F0BAFB0121E6
:1008D000084600F098FB1F4802210C2601710321F5
:1008E00006604171002484710125204FC5710146C5
:1008F000384600F085F907220221384600F0F4F965
:1009000007220321384600F0EFF916481038014657
:10091000C0F80080848146810481C4808480144CA6
:10092000204601F0B8F90B492620091F08700A205B
:1009300048708D70CD70084600F033F8012240F207
:100940002551204601F0B7FA2046BDE8F0410121CB
:1009500001F012BA68000020000C024000080240BA
:1009600000100240D80500200000014000000240B5
:10097000004400400648804706480047FEE7FEE77F
:10098000FEE7FEE7FEE7FEE7FEE7FEE7FEE7FEE73F
:1009900037060008890100082849084328490860EB
:1009A000704730B50F23C27801780125FAB1244A87
:1009B000126801F1E02102F4E062C2F5E062C2F3E4
:1009C0000722C2F10404D3404278A24084781C403C
:1009D0001443220181F80024007800F01F018D40AB
:1009E0004009800000F1E020C0F8005130BD01F066
:1009F0001F0085404809800000F1E020C0F88051C8
:100A000030BD104A114001430D48001F016070477E
:100A10000B4A121D0029116801D0014300E08143F7
:100A2000116070474FF0E0210428086903D020F0DE
:100A300004000861704740F00400FAE70000FA057E
:100A40000CED00E080FFFF1F354900200860091D04
:100A50000860091D0860091D0860314931481431DA
:100A60000860704730B52E4A8379016853B3136824
:100A70008B431360111D0B680468A3430B6001795D
:100A800011440B68046823430B60254B0833196835
:100A90000468A14319601C1D21680568A9432160F1
:100AA0004179102905D011440A68006802430A60A0
:100AB00030BD19680268114319602168006801435C
:100AC000216030BD0079104402688A43026030BD65
:100AD0000021016001710C2242718171704710493F
:100AE00010310A6802430A60704701460C4A002030
:100AF000143212680A4200D00120704708491431AC
:100B0000086070470146064A0020143212680A4203
:100B100000D001207047024914310860704700007E
:100B2000003C0140FFFF7F00774910B5884206D1A5
:100B30000121084600F099FA002101205BE0734989
:100B4000884206D10121022000F08FFA0021022004
:100B500051E06F49884206D10121042000F085FA56
:100B60000021042047E06B49884206D1012108207A
:100B700000F07BFA002108203DE06749884206D159
:100B80000121102000F071FA0021102033E06349A8
:100B9000884206D10121202000F067FA00212020A0
:100BA00029E05F49884206D10121402000F05DFA2A
:100BB000002140201FE05B49884206D101218020AE
:100BC00000F053FA0021802015E05749884202D1F5
:100BD000012184150AE05549884202D101214415BA
:100BE00004E0534988420AD101210415204600F04F
:100BF0003CFA00212046BDE8104000F036BA10BD96
:100C0000F0B5002201274FF0030C0B6807FA02F53C
:100C10002B40AB422CD1066853000CFA03F4A643D8
:100C200006600E79D0F800E09E4046EA0E060660A7
:100C30000E79012E01D0022E12D18668A64386605D
:100C40004E79D0F808E09E4046EA0E068660466877
:100C5000AE43466045688E799640B6B235434560EE
:100C6000C568A543C560CC799C40C3681C43C4607B
:100C7000521C102AC9D3F0BD4FF6FF71016000214C
:100C8000017141718171C171704708B541F48032C1
:100C90000092C261C1610099C161C169C0690090DF
:100CA00008BD0246002012690A4200D001207047A8
:100CB000006980B270470246002052690A4200D0A3
:100CC00001207047406980B27047018370474183BB
:100CD00070470AB101837047418370474161704793
:100CE00042694A40426170474B07DB0E9A40C9088F
:100CF00010B500EB8100016A0F249C40A143016202
:100D0000016A1143016210BD00000240000402406C
:100D100000080240000C0240001002400014024093
:100D200000180240001C0240002002400024024043
:100D300000280240F848016841F001010160F64ACC
:100D40000021083211600268F44B1A400260031D52
:100D5000F34A1A60F04BF34A84331A60F04A103AAF
:100D60001B1D1A60026822F480220260EA480C30DF
:100D70000160181D01607047E7490022891C0A7054
:100D80000870704702460020510901290CD0022941
:100D90000CD0E1497431096802F01F02012393402D
:100DA0000B4200D001207047DB49F4E7DA4970318B
:100DB000F1E718B500204FF4A04400903120FFF770
:100DC000E1FF0099491C0091A14201D00028F5D013
:100DD0003120FFF7D7FF002800D0012018BDCE4AF0
:100DE000116821F0F80141EAC00010607047CE4957
:100DF00008607047C849002270310A700A700128E3
:100E000002D0042801D1052008707047C749086046
:100E1000704741EA82115A0810B5C54B029C03EB9A
:100E200002421143014341EA0460BB49091D0860C5
:100E300010BDBD4908667047800140EA0170B6499F
:100E4000843108607047B84988667047800140EA7D
:100E50000160B14940EA0270883108607047B249C8
:100E600008677047B049C8647047AB4B08331A68CD
:100E7000084322F0EC62104318607047A64B083319
:100E80001A68084322F07842104318607047A24A5B
:100E90000832116821F003010143116070479E4838
:100EA0000830006800F00C0070479B4A0832116857
:100EB00021F0F001014311607047974A0832116830
:100EC00021F4E051014311607047934A08321168E0
:100ED00021F4604141EAC0001060704770B58E4B4C
:100EE00008331968934C11F00C0104D066100429E2
:100EF00003D0082903D004601BE0066019E0864A8D
:100F0000121D1168C1F38055116801F03F0115B140
:100F1000B6FBF1F101E0B4FBF1F114681268C4F31F
:100F200088146143C2F30142521C5200B1FBF2F13A
:100F3000016019680F2202EA11117F4A545C0168AE
:100F4000E14041601C68072505EA9424145D21FAFC
:100F500004F484601B6805EA5333D25CD140C1605D
:100F600070BDC0F30121032908D16B4B0833196808
:100F7000724A21F4F81102400A431A60664970313E
:100F80000A68C0F30B0002430A607047674944399E
:100F90000860704765494039086070476249C1F888
:100FA0005C0170475C4A8C321168401E21F01F01C1
:100FB000014311607047584A8C3211686FF0FF038B
:100FC00021F4F85103EB0020084310607047524AA7
:100FD0008C32116821F440110143116070474E4A70
:100FE0008C32116821F440010143116070474A4A74
:100FF0008C32116821F4403101431160704750492F
:10100000C1F8E0017047444A30320029116801D02C
:10101000014300E08143116070473F4A34320029A8
:10102000116801D0014300E08143116070473A4AE2
:1010300038320029116801D0014300E0814311607A
:101040007047354A40320029116801D0014300E061
:10105000814311607047304A44320029116801D041
:10106000014300E08143116070472B4A1032002990
:10107000116801D0014300E0814311607047264AA6
:1010800014320029116801D0014300E0814311604E
:101090007047214A18320029116801D0014300E04D
:1010A0008143116070471C4A20320029116801D029
:1010B000014300E0814311607047174A2432002940
:1010C000116801D0014300E0814311607047124A6A
:1010D00050320029116801D0014300E081431160C2
:1010E00070470D4A54320029116801D0014300E0D5
:1010F000814311607047084A58320029116801D0B5
:10110000014300E0814311607047034A60320029C7
:10111000116817D0014316E000380240FFFFF6EADD
:10112000103000240030002000004742800E47426B
:101130000000FFFF0024F40078000020FFFCFF0FF8
:1011400000104742814311607047194A0029116815
:1011500001D0014300E081431160704714490C3114
:101160000128086803D020F008000860704740F0AC
:101170000800FAE70E4A573A0029117801D00143D6
:1011800000E081431170704709481030016841F058
:101190008071016070470146054A0020583A126884
:1011A0000A4200D001207047014956390870704743
:1011B0006438024010B501218C032046FFF77DFF03
:1011C0002046BDE810400021FFF777BF14490860B2
:1011D000704714490862704710B58A0721F003046C
:1011E0001149120F21440F23D1F8084893409C4322
:1011F000C1F80848D1F8083890400343C1F80838CE
:1012000010BD0849C1F8DC00704708490860704704
:101210000349002020310968C90500D50120704725
:1012200000380140000027420030014000042742FE
:10123000FE4910B5884206D101210846FFF73DFF5F
:10124000002101205BE0B0F1804F09D0F8498842CD
:101250000DD101210220FFF726FF0021022070E0BE
:1012600001210846FFF71FFF0021012069E0F14935
:10127000884206D101210420FFF715FF0021042038
:101280005FE0ED49884206D101210820FFF70BFFFE
:101290000021082055E0E949884206D101211020AB
:1012A000FFF701FF002110204BE0E549884206D1FD
:1012B00001212020FFF7F7FE0021202041E0E14935
:1012C000884206D101210220FFF7F7FE002102200B
:1012D00015E0DD49884202D101210C040AE0DB4916
:1012E000884202D101214C0404E0D94988420AD144
:1012F00001218C042046FFF7E0FE00212046BDE8D6
:101300001040FFF7DABED349884206D101214020C0
:10131000FFF7C9FE0021402013E0CF49884206D1E3
:1013200001218020FFF7BFFE0021802009E0CB498A
:1013300088420AD1841501212046FFF7B4FE00211E
:101340002046BDE81040FFF7AEBE10BD30B50288A4
:10135000B64CBC4DA0420DD0A8420BD0B0F1804F8E
:1013600008D0B34B984205D0B24B984202D0B24B52
:10137000984203D122F070034A881A43AF4B984237
:1013800006D0AF4B984203D022F440730A891A4327
:1013900002804A68C2620A880285A04201D0A8423F
:1013A00001D1897A01860121818230BD4FF0FF3160
:1013B0004160002101800181418081727047018577
:1013C00082827047028822F070020A4302807047CE
:1013D00041627047C1627047406A7047008D704734
:1013E0000029018802D041F0020101E021F0020150
:1013F000018070470029018802D041F0040101E01A
:1014000021F00401018070470029018802D041F0D9
:10141000800101E021F0800101807047028822F004
:101420000802028002880A4302807047028822F480
:101430004072028002880A430280704700290188B6
:1014400002D041F0010101E021F00101018070476B
:1014500030B5028C22F001020284028C8388048B56
:1014600022F0020224F073050C882C438D89154369
:101470004A882A436D4DA84202D0724DA8420DD130
:1014800022F00805CA8923F440732A4322F0040598
:101490008A882A430D8A1D434B8A2B438380048309
:1014A00089684163028430BD70B5028C22F010025D
:1014B0000284028C8388048B0D8824F4E6464FF660
:1014C000FF7404EA052535438E8922F0200204EAE0
:1014D000061616434A8804EA02123243534EB042BB
:1014E00002D0584EB04215D122F08006CA8923F4AA
:1014F000406304EA0212324322F040068A8804EA7A
:10150000021232430E8A04EA86061E434B8A04EA1C
:10151000830333438380058389688163028470BDBC
:1015200070B5028C22F480720284028C8388848BD2
:101530000D8824F0730425438E894FF6FF7422F43E
:10154000007204EA062616434A8804EA022232435D
:10155000364EB04202D03B4EB04215D122F4006666
:10156000CA8923F4405304EA0222324322F48066FB
:101570008A8804EA022232430E8A04EA06161E43CF
:101580004B8A04EA03133343838085838968C163EC
:10159000028470BD70B5028C22F480520284058CE6
:1015A0008288838B0C8823F4E6464FF6FF7303EAA8
:1015B0000424344325F400568D8903EA0535354368
:1015C0004E8803EA06362E43184DA84202D01D4D20
:1015D000A84205D122F480450A8A03EA82122A43EE
:1015E0008280848389680164068470BD0021018043
:1015F0004180818081608181C18101824182704707
:1016000030B50124058C00F118038C40A5430584F6
:1016100031B308292CD0091FC1F34E0018440168CA
:1016200048F6FF731940016001681AE000000140AC
:101630000004004000080040000C00400010004082
:1016400000140040000401400040014000440140FB
:101650000048014000180040001C004000200040ED
:1016600006E04FF6FF7303EA02221143016030BD2A
:1016700003EB510001684FF68F7319400160016858
:10168000F3E74163704781637047C163704701644A
:101690007047028B22F070020A4302837047028B6C
:1016A0004FF6FF7322F4E04203EA01211143018364
:1016B0007047828B22F070020A4382837047828BCC
:1016C0004FF6FF7322F4E04203EA012111438183C4
:1016D0007047028B22F008020A4302837047028B94
:1016E0004FF6FF7322F4006203EA012111430183E4
:1016F0007047828B22F008020A4382837047828BF4
:101700004FF6FF7322F4006203EA01211143818343
:101710007047028B22F004020A4302837047028B57
:101720004FF6FF7322F4806203EA01211143018323
:101730007047828B22F004020A4382837047828BB7
:101740004FF6FF7322F4806203EA01211143818383
:101750007047028B22F080020A4302837047028B9B
:101760004FF6FF73C2F30E0203EA01211143018316
:101770007047828B22F080020A4382837047828BFB
:101780004FF6FF73C2F30E0203EA01211143818376
:101790007047028C22F002020A4302847047028CD6
:1017A00022F008020A4302847047028C4FF6FF734E
:1017B00022F0200203EA0111114301847047028CD8
:1017C0004FF6FF7322F0800203EA011111430184F6
:1017D0007047028C4FF6FF7322F4007203EA012176
:1017E000114301847047028C4FF6FF7322F40062AC
:1017F00003EA0121114301847047028C4FF6FF7305
:1018000022F4005203EA013111430184704710B5FC
:101810000123048C8B409C430484038C8A40134333
:10182000038410BD10B50423048C8B409C430484B6
:10183000038C8A401343038410BD828B22F44062E0
:101840008283828B4FF6FF7303EA01210A4382836E
:101850007047828B22F00C028283828B0A43828340
:101860007047028B22F440620283028B4FF6FF73B3
:1018700003EA01210A4302837047F0B5048C24F087
:1018800010040484078B068C4FF6FF7404EA0115DC
:1018900027F4734704EA0331394304EA02220A4376
:1018A00026F0A001294341F0100102830184F0BD1C
:1018B000028B22F00C020283028B0A4302837047E0
:1018C0002DE9F0410C460E884988A28823890546F7
:1018D0000EB3042E26D0082E2E8C4FF6FF7028D083
:1018E00026F480562E84AF8B2E8C00EA022200EA6A
:1018F000013127F473473A4300EA0330104326F4DA
:1019000020420A4342F48051A8832984E188284672
:10191000BDE8F04191E700F062F9E1882846BDE8B2
:10192000F041C5E7FFF7A9FFE1882846BDE8F0418F
:1019300097E726F480762E84AF8B2E8C00EA012167
:1019400000EA0310104327F0F307384326F420621F
:101950000A4342F48071A8832984E1882846BDE8BF
:10196000F04176E700210180418001228280C18020
:10197000018170472DE9F0410C4600264988074651
:10198000012501B90226A288012A00D1022520885A
:1019900023890028384610D0FFF76FFFE1883846CA
:1019A000FFF75FFF23892A463146384600F017F9D2
:1019B000E1883846BDE8F0417AE700F010F9E188A7
:1019C0003846FFF775FF23892A4631463846FFF728
:1019D00054FFE1883846BDE8F04142E7406B70476C
:1019E000806B7047C06B7047006C704710B50A88F9
:1019F0004B88CC881A438B8823431A430B891A439C
:101A00004B8989891A430A43A0F8442010BD00215C
:101A1000018041808180C180018141818181704745
:101A2000002930F8441F02D041F4004101E0C1F325
:101A30000E01018070470029818802D041F0040125
:101A400001E021F00401818070470029818802D0E3
:101A500041F0010101E021F0010181807047002A7D
:101A6000828901D00A4300E08A43828170478182E3
:101A7000704702460020128A0A4200D001207047B7
:101A8000C9430182704702460020138A92890B42A3
:101A900002EA010202D0002A00D001207047C943A7
:101AA000018270471143A0F848107047002A8289CC
:101AB00001D00A4300E08A4382817047002981886F
:101AC00002D041F0080101E021F008018180704757
:101AD000018921F0070101817047028922F070021B
:101AE0000A430281704700B50346FFF7F6FF1889E5
:101AF00040F00700188100BD70B516460D466029FC
:101B000004464FF0010231460AD000F068F8294639
:101B10002046FFF7E2FF208940F00700208170BDDA
:101B2000FFF7ABFEF3E730B504894FF6FF7505EA22
:101B300003231343E4B20B432343038130BD10B5A9
:101B40000446FFF7F0FF208940F07700208110BDA8
:101B500010B50446FFF7E7FF208940F4804020815C
:101B600010BD828822F07002828082880A438280BF
:101B70007047028922F00702028102890A4302812A
:101B80007047028922F08002028102890A430281A1
:101B9000704770B50589048B068C25F007050D4349
:101BA0004FF6FC410C4040F201110C434FF6FF711F
:101BB00001EA031126F02206114331430581048313
:101BC000018470BD0029818802D041F0800101E0CC
:101BD00021F0800181807047A0F85010704770B5E7
:101BE000048C24F001040484058B048C4FF6FF76EA
:101BF00006EA0313134325F0F3052B4324F00A02EE
:101C00000A4342F001010383018470BDCD4910B540
:101C1000884206D101211020FFF74FFA0021102041
:101C200020E0C949884202D101214C0429E0C7497A
:101C3000884202D101218C0423E0C549884202D1A7
:101C40000121CC041DE0C349884202D101210C05C9
:101C500017E0C149884209D101212020FFF72DFA60
:101C600000212020BDE81040FFF727BABB49884279
:101C700002D101218C0704E0B94988420AD101212F
:101C800044052046FFF70FFA2046BDE8104000212A
:101C9000FFF709BA10BD7FB50446008A0D46C98812
:101CA00020F4405001432182A08941F20C61884315
:101CB000A9882A8911436A8902431143A181A08A14
:101CC00020F44071A8890843A0826846FFF706F90E
:101CD0009C48844202D0A048844201D1039800E08D
:101CE0000298A189090400EBC00101EB00102968EA
:101CF00001D5490000E08900B0FBF1F06422B0FB9F
:101D0000F2F109010B096FF018056B4300EB83003A
:101D1000A3891D044FF0320306D503EBC000B0FBCE
:101D2000F2F000F0070005E003EB0010B0FBF2F06A
:101D300000F00F00084320817FBD4FF41651016071
:101D400000218180C18001810C2242818181704704
:101D500010B5028A4C8822F470630A8822438C886A
:101D6000C9880C4322431A43028210BD002101801E
:101D700041808180C18070470029818902D041F46F
:101D8000005101E021F4005181817047028B02F47F
:101D90007F420283028B0A430283704700298189B4
:101DA00002D041F4004101E0C1F30E01818170478E
:101DB0000029818A02D041F4006101E021F4006130
:101DC00081827047C1F30801818070478088C0F329
:101DD00008007047028A22F00F020282028A0A4338
:101DE000028270470029818902D041F0020101E09E
:101DF00021F0020181817047828922F40062828190
:101E000082890A4382817047028A22F0200202827C
:101E1000028A0A43028270470029018A02D041F4F3
:101E2000804101E021F4804101827047818941F0C5
:101E30000101818170470029818A02D041F00801A7
:101E400001E021F0080181827047028BD2B2028347
:101E5000028B42EA0121018370470029818A02D066
:101E600041F0200101E021F020018182704700292A
:101E7000818A02D041F0100101E021F0100181823D
:101E80007047828A22F004028282828A0A43828216
:101E900070470029818A02D041F0020101E021F05F
:101EA000020181827047002A828A01D00A4300E041
:101EB0008A438282704710B5C1F3421301F01F04B8
:101EC0000121A140012B07D0022B07D01430002A9A
:101ED000026805D00A4304E00C30F8E71030F6E75A
:101EE0008A43026010BD0246002012880A4200D0D8
:101EF00001207047C9430180704770B501F01F058C
:101F000001260024C1F3421306FA05F2012B0FD07B
:101F1000022B0FD0838A4FEA11210088134206FA60
:101F200001F600EA060001D000B10124204670BD90
:101F30008389F0E7038AEEE70A0A01219140C94349
:101F400001807047001001400044004000480040FC
:101F5000004C004000500040001401400078004058
:101F6000007C004010B504466FF00400FEF75AFDF7
:101F70002949E00800EB40020870C2EBC0104FF6A0
:101F8000FF7202EAC000488010BD23490978484327
:101F90004FF0E021486100238B61086940F00100A7
:101FA00008610869C20701D0C003FAD5086920F0AA
:101FB000010008618B6170471749498848434FF019
:101FC000E021486100238B61086940F0010008614D
:101FD0000869C20701D0C003FAD5086920F00100E2
:101FE00008618B61704770B54FF40776B0FBF6F16E
:101FF000CCB2B0FBF6F106FB110504E03046FFF76A
:10200000DBFF641EE4B2002CF8D1002D03D028467B
:10201000BDE87040D0E770BD8800002010B54FF4D7
:102020008071A048FEF73DFE012800D0002010BDC1
:10203000F0B59E4D9C4C002395F901700A2624F8BA
:10204000170004EB47007F1CC182828597FBF6F0E6
:1020500006FB10706870184634F91010401CC0B2AE
:102060000B440A28F8D393FBF6F002B20021A282B7
:10207000084604EB4003401CB3F91630C0B21944C3
:102080000A28F6D391FBF6F003B2002163850846D7
:1020900004EB4007401CB7F92C70C0B239440A2841
:1020A000F6D391FBF6F000B2A4F84000297800299D
:1020B0001DD0B5F90E108A4200DAEA81B5F9101088
:1020C0008B4200DA2B82B5F91210884200DA68825E
:1020D000B5F908108A4200DD2A81B5F90A108B4251
:1020E00000DD6B81B5F90C10884200DDA881F0BDE0
:1020F0007CB500238DF8053014460D4606468DF854
:10210000043000936B46062203213C2004F086F83D
:10211000BDF8020040BA02B2BDF8040040BA01B2F4
:10212000BDF8000040BA00B2FFF782FF5E48818A26
:102130003180418D2980B0F8400020807CBD7CB585
:1021400000246D462A1D6846A91CFFF7D1FFC82050
:10215000FFF71BFF641CE4B2322CF3D37CBD0A46AC
:1021600001463C2004F0B0B84F4B10B59C8A048067
:10217000588D0880B3F84000108010BD3EB504466D
:1021800002AA01A96846FFF7B3FF4849BDF900005C
:10219000B1F90220D1ED050A801A00EE100AB8EE5E
:1021A000C00A20EE200A81ED080A84ED000ABDF97C
:1021B0000400B1F90420D1ED060A801A00EE100ADD
:1021C000B8EEC00A20EE200A81ED090A84ED010A6A
:1021D000BDF90800B1F90620D1ED070A801A00EE1A
:1021E000100AB8EEC00A20EE200A81ED0A0A84ED3A
:1021F000020A3EBD072803D84007010E0120AEE7C2
:10220000704710B5022808D801460220FFF7A7FF43
:10221000BDE810406420FFF7B8BE10BD10B510B186
:102220000020FFF7EEFF70210020FFF798FFA021AC
:102230000120FFF794FF0021BDE8104002208EE747
:10224000062803D88006010E002088E7704710B5E5
:1022500004460A213C2003F0C2FF20700B213C20E1
:1022600003F0BDFF60700C213C2003F0B8FFA070AC
:1022700010BD10B50020FFF7D1FF0020FFF7C1FF10
:102280000620FFF7DDFFBDE8104058E707480121B1
:1022900001700021018141818181C18101824182DE
:1022A0007047000000080240F80500208C00002064
:1022B000F6EE000A0CB560EE200A10EE100ACDED25
:1022C000000A8DED010AFE49B0EE600AA1EB600044
:1022D00000EE900A01EE100A019060EE200AB7EEBF
:1022E000080A00EEC10A00EE900A20EE200A8DEDE9
:1022F000010A0CBD2DE9FC4101210420FEF783FEFB
:1023000001258DF804500226C0208DF805600024B8
:10231000EC4F00908DF806408DF80740694638462E
:10232000FEF76EFC01210420FEF76DFE8DF80440DF
:1023300068028DF8056000908DF806408DF8075012
:1023400069463846FEF75CFC03F02AFDFFF791FF73
:102350001420FFF748FEBDE8FC8170B586B0054645
:102360000DF1120004A902AECDE900103046B11CF7
:10237000321DB31D03F0C2FCD348002436F81410FC
:1023800020F81410641CE4B2062CF7D300219FED52
:10239000CF2ACD4A1C3ADFEDCE1ADFEDCE0A01E09E
:1023A000032914D236F9110005EB810300EE100A5F
:1023B00002EB8100B8EEC00A90ED001A20EE020A8E
:1023C00001EE210A83ED000A80ED000A0BE036F9E8
:1023D000110000EE100A05EB8100B8EEC00A80EE95
:1023E000201A80ED001A491CC9B20629D8D305F17C
:1023F0001800FFF7C3FE06B070BD2DE9F743B64DD8
:1024000091462DED0A0B0E4680462DED108B90B0B7
:1024100095ED010A60EE000ACDED060A95ED021A6F
:10242000D5ED030A20EE01DA60EE20AA21EEA10A22
:1024300061EE018A21EE20AA20EEA08A02EE020AB5
:1024400002EEA20AFFF734FF61EE800ACDED230A07
:1024500062EE000A22EE800ACDED240A8DED250AF7
:1024600023EE030A03EEA30A04EE040AFFF720FF9B
:1024700024EE00BAF0EE00DA23EE00EA63EE80BA52
:10248000B0EE6D0A7AEE2A0A2BEE000AF0EE40EA70
:1024900020EE200A10EE100A05F058FDB0EE6D0A8D
:1024A00041EC110B2BEE800A7AEE6A0A8DED021BCD
:1024B0008DED010ACDED050A20EE200A10EE100A7E
:1024C00005F044FD41EC1F0B18EE100A05F03EFD2F
:1024D00041EC1C0B18EE100A05F038FD9FED7F9BB8
:1024E00053EC192B05F011FC53EC1C2B05F00AFCE6
:1024F000B0EE6D0A41EC1C0B2EEE000A8DED000AC9
:1025000010EE100A05F022FD53EC1C2B05F000FC28
:1025100053EC1F2B05F055FB9DED021B53EC112BCB
:1025200005F04FFB05F03EFD00EE100A78EE4D0A77
:102530008DED020AB0EE6E0A20EE200A10EE100AAF
:1025400005F004FD41EC1F0B18EE100A05F0FEFC2F
:1025500041EC1C0B18EE900A05F0F8FC53EC192B1B
:1025600005F0D3FB53EC1C2B05F0CCFB9DED010AD1
:1025700041EC1C0B10EE100A05F0E8FC53EC1C2B90
:1025800005F0C6FB7AEE2A0A9DED000A41EC1C0B11
:1025900020EE200A10EE100A05F0D8FC53EC1C2B9C
:1025A00005F00FFB53EC1F2B05F00BFB05F0FAFCBD
:1025B0000DEE900A18EE100A05F0C8FC41EC1C0B59
:1025C00018EE900A05F0C2FC53EC192B05F09DFBA8
:1025D00053EC1C2B05F096FB41EC1C0BB0EE6E0A85
:1025E00010EE100A05F0B2FC53EC1C2B05F090FB2A
:1025F0007AEE6AEA9DED000A38EE0D1A41EC1C0BEA
:1026000060EE2E0A9DED010A40EE010A10EE900ADE
:1026100005F09CFC53EC1C2B05F0D3FA05F0C2FC32
:102620009DED020A0CEE100A20EE000A0DEEAD0A36
:1026300010EE100A05F08AFC41EC100B07F0B0F91F
:1026400051EC100B05F0AEFC00EE100A8DED070A00
:10265000B0EE000A6EEE800AB0EE480ACDED040A34
:102660007DEE000AB0EE000ACDED010A60EE800AB0
:10267000CDED030A9DED060A70EE680AB0EE480A39
:1026800070EEC00A70EE800AB0EE000A2CEE000A6E
:10269000CDED020A8DED000A20EE2E0A10EE100A92
:1026A00005F054FC41EC1D0BB0EE480A10EE100A88
:1026B00005F04CFC41EC1C0B18EE100A12E0000077
:1026C000DF59375F0008024058060020CDCCCC3ED1
:1026D0009A99193F33338341B8000020000000006D
:1026E0000000E03F05F032FC1FED04FB53EC1F2B14
:1026F00005F00BFB53EC1C2B05F004FB9DED070ACA
:10270000F0EE000A41EC190B20EE20CA1CEE100A74
:1027100005F01CFC53EC192B05F0FAFA53EC1D2BB9
:1027200005F04FFA05F03EFC9DED050A0DEE100A8E
:1027300018EE100A6CEE00CA9DEC020A40EE20CAA8
:1027400005F004FC41EC190B18EE900A05F0FEFBB5
:1027500053EC1F2B05F0D9FA53EC192B05F0D2FAE4
:102760009DED000A41EC180B10EE100A05F0EEFB8F
:1027700053EC182B05F0CCFA3AEE8A0A41EC180B10
:102780002CEE000A10EE100A05F0E0FB53EC182BBB
:1027900005F017FA05F006FC9DED241ADDED020A9E
:1027A000DDED251A00EE100A21EE201ADDED030AF8
:1027B00001EEE01A6BEE800A4BEE6C0A71EE209A85
:1027C000DDED040A21EEA01ADDED231ADDED020A8B
:1027D00001EEE01A6BEE0D0A4EEE400A31EE209A41
:1027E000DDED030A9DED241A21EEA00ADDED040AB9
:1027F00001EE600A6EEE2C0A4BEECD0A30EE20BAE6
:10280000DFEDFEBA29EEAB0A10EE100A05F09EFBD2
:1028100005F1800494ED161B53EC112B05F078FAAA
:102820009FEDF78B53EC182B05F072FA41EC1A0B65
:10283000686905F08BFB53EC1A2B05F0C2F905F023
:10284000B1FB29EE2B0A0CEE100A85ED05CA10EE3D
:10285000100A05F07BFB94ED161B53EC112B05F0D1
:1028600057FA53EC182B05F053FA41EC1A0BA869F0
:1028700005F06CFB53EC1A2B05F0A3F905F092FB65
:102880002BEE2B0A0AEE100A85ED06AA10EE100AAE
:1028900005F05CFB94ED161B53EC112B05F038FA98
:1028A00053EC182B05F034FA41EC180BE86905F0ED
:1028B0004DFB53EC182B05F084F905F073FB00EE8B
:1028C000100AF0EE080A85ED070A9DED201AD5EDF5
:1028D00002BA95ED038A09EEA01A71EE0C9A9DEDED
:1028E000211A09EE201A31EE0A9A9DED221A0BEEFA
:1028F000201A69EEEB0A49EE480A71EE008AB6EE3C
:10290000000A48EEC80A60EE80DAC5ED08DA95EDF7
:1029100001BA69EE8B0A48EE880A49EE480A20EEB1
:1029200080DA69EE0B0A85ED09DA48EEEB0A49EE2A
:10293000880A60EE80CA68EE8B0AC5ED0ACA49EEC5
:102940002B0A49EEC80A20EE80CA85ED0BCA1CEEA0
:10295000100A05F0FBFA94ED161B53EC112B05F051
:10296000D7F941EC1A0B18EE100A05F0EFFA53EC08
:102970001A2B05F026F941EC1A0B18EE900A05F017
:10298000E5FA94ED161B53EC112B05F0BEF953EC50
:102990001A2B05F0BDF941EC1E0B1CEE900A05F058
:1029A000D5FA94ED161B53EC112B05F0B1F941EC5F
:1029B0001A0B18EE100A05F0C9FA53EC1A2B05F0A1
:1029C00000F941EC1A0B19EE100A05F0BFFA94ED6C
:1029D000161B53EC112B05F098F953EC1A2B05F04C
:1029E00097F941EC110B1DEE100A8DED001B05F05F
:1029F000ADFA94ED161B53EC112B05F089F941EC5F
:102A00001A0B1BEE900A05F0A1FA53EC1A2B05F0F5
:102A1000D8F841EC1A0B19EE900A05F097FA94EDEC
:102A2000161B53EC112B05F070F953EC1A2B05F023
:102A30006FF941EC1F0B1DEE900A05F087FA94ED3B
:102A4000161B53EC112B05F063F941EC1A0B1BEE2E
:102A5000100A05F07BFA53EC1A2B05F0B2F894ED4E
:102A6000161B53EC112B05F053F953EC1F2B05F0FB
:102A7000A8F89DED001B53EC112B05F0A2F853ECC8
:102A80001E2B05F09EF81FEDEB1B53EC112B05F0F0
:102A90003FF905F087FA00EE100A1CEE100A85EDEA
:102AA0000C0A8DED030A05F051FA94ED161B53EC58
:102AB000112B05F02DF941EC1A0B18EE100A05F058
:102AC00045FA53EC1A2B05F07CF841EC1A0B19EE81
:102AD000100A05F03BFA94ED161B53EC112B05F090
:102AE00014F953EC1A2B05F013F941EC110B1CEE01
:102AF000900A8DED001B05F029FA94ED161B53EC9E
:102B0000112B05F005F941EC1A0B18EE100A05F02F
:102B10001DFA53EC1A2B05F054F841EC1A0B18EE81
:102B2000900A05F013FA94ED161B53EC112B05F0E7
:102B300048F853EC1A2B05F0EBF841EC1F0B1DEE97
:102B4000100A05F003FA94ED161B53EC112B05F057
:102B5000DFF841EC1A0B1BEE900A05F0F7F953EC85
:102B60001A2B05F02EF894ED161B53EC112B05F0E3
:102B7000CFF841EC1E0B1DEE900A05F0E7F994ED3D
:102B8000161B53EC112B05F0C3F841EC1A0B1BEE8E
:102B9000100A05F0DBF953EC1A2B05F012F841ECA2
:102BA0001A0B19EE900A05F0D1F994ED161B53ECAF
:102BB000112B05F006F853EC1A2B05F0A9F853EC8D
:102BC0001E2B04F0FEFF53EC1F2B04F0FAFF9DEDCB
:102BD000001B53EC112B04F0F4FF9FED0B1B53EC87
:102BE000112B05F095F805F0DDF900EE100A1CEE4A
:102BF000100A85ED0D0A8DED020A09E08FC2F53C41
:102C00000000000000000040000000000000E03F65
:102C100005F09CF994ED161B53EC112B05F078F898
:102C200041EC1A0B18EE100A05F090F953EC1A2B30
:102C300004F0C7FF41EC1A0B19EE900A05F086F973
:102C400094ED161B53EC112B04F0BBFF53EC1A2B25
:102C500005F05EF841EC1E0B1CEE900A05F076F9CB
:102C600094ED161B53EC112B05F052F841EC1A0BA6
:102C700018EE100A05F06AF953EC1A2B04F0A1FFC4
:102C800094ED161B53EC112B05F042F841EC110B9F
:102C90001DEE100A8DED001B05F058F994ED161B82
:102CA00053EC112B05F034F841EC1A0B1BEE900A93
:102CB00005F04CF953EC1A2B04F083FF41EC1A0B8E
:102CC00018EE900A05F042F994ED161B53EC112B07
:102CD00005F01BF853EC1A2B05F01AF841EC1A0B0F
:102CE0001DEE900A05F032F994ED161B53EC112BF2
:102CF00005F00EF841EC1F0B1BEE100A05F026F94B
:102D000053EC1F2B04F05DFF41EC1F0B19EE100A72
:102D100005F01CF994ED161B53EC112B04F051FF38
:102D200053EC1F2B04F0F4FF53EC1A2B04F049FF73
:102D30009DED001B53EC112B04F043FF53EC1E2BB5
:102D400004F03FFF1FED501B53EC112B04F0E0FF8C
:102D500005F028F900EE100A1CEE100A85ED0E0AA7
:102D60008DED010A05F0F2F894ED161B53EC112BD2
:102D700004F0CEFF41EC1A0B18EE100A05F0E6F84D
:102D800053EC1A2B04F01DFF94ED161B53EC112B82
:102D900004F0BEFF41EC110B1CEE900A8DED041BFC
:102DA00005F0D4F894ED161B53EC112B04F0B0FF92
:102DB00041EC1A0B18EE100A05F0C8F853EC1A2B68
:102DC00004F0FFFE41EC1A0B19EE900A05F0BEF874
:102DD00094ED161B53EC112B04F097FF53EC1A2BB8
:102DE00004F096FF41EC1E0B1DEE100A05F0AEF844
:102DF00094ED161B53EC112B04F08AFF41EC1A0BD7
:102E00001BEE900A05F0A2F853EC1A2B04F0D9FE41
:102E100041EC1A0B19EE100A05F098F894ED161B08
:102E200053EC112B04F0CDFE53EC1A2B04F070FF81
:102E300041EC1A0B1DEE900A05F088F894ED161B74
:102E400053EC112B04F064FF41EC1F0B1BEE100A36
:102E500005F07CF853EC1F2B04F0B3FE41EC1F0B84
:102E600018EE900A05F072F894ED161B53EC112B36
:102E700004F0A7FE53EC1F2B04F04AFF53EC1A2B6F
:102E800004F09FFE53EC1E2B04F09BFE9DED041BF3
:102E900053EC112B04F095FE1FEDA51B53EC112BE9
:102EA00004F036FF05F07EF800EE100A85ED0F0AFB
:102EB0008DED000A10EE100A05F048F894ED161B8F
:102EC00053EC112B04F024FF41EC1A0B18EE100AFE
:102ED00005F03CF853EC1A2B04F073FE41EC1A0B8E
:102EE00018EE900A05F032F894ED161B53EC112BF6
:102EF00004F00BFF53EC1A2B04F00AFF41EC110B0A
:102F00008DED041B9DED010A10EE100A05F01EF870
:102F100094ED161B53EC112B04F0FAFE41EC1A0B46
:102F200018EE100A05F012F853EC1A2B04F049FEC3
:102F300041EC1A0B19EE100A05F008F894ED161B77
:102F400053EC112B04F0E1FE53EC1A2B04F0E0FEDD
:102F50009DED020A41EC1A0B10EE100A04F0F6FF88
:102F600094ED161B53EC112B04F0D2FE41EC1E0B1A
:102F70001BEE900A04F0EAFF53EC1E2B04F021FE36
:102F800041EC1E0B19EE900A04F0E0FF94ED161BC5
:102F900053EC112B04F0B9FE53EC1E2B04F0B8FED9
:102FA0009DED030A41EC1F0B10EE100A04F0CEFF5A
:102FB00094ED161B53EC112B04F0AAFE41EC1E0BF2
:102FC0001BEE100A04F0C2FF53EC1E2B04F0F9FDB7
:102FD00094ED161B53EC112B04F09AFE53EC1F2BAF
:102FE00004F0EFFD53EC1A2B04F0EBFD9DED041BF8
:102FF00053EC112B04F0E5FD1FEDFD1B53EC112BE1
:1030000004F086FE04F0CEFF0FEE100A85ED10FAF4
:103010009DED000A10EE100A04F098FF94ED161BC7
:1030200053EC112B04F074FE41EC1A0B18EE100A4D
:1030300004F08CFF53EC1A2B04F0C3FD41EC1A0B87
:1030400019EE100A04F082FF94ED161B53EC112BBD
:1030500004F05BFE53EC1A2B04F05AFE41EC110B0A
:103060008DED061B9DED010A10EE100A04F06EFFB7
:1030700094ED161B53EC112B04F04AFE41EC1A0B95
:1030800018EE100A04F062FF53EC1A2B04F099FDBD
:1030900041EC1A0B18EE900A04F058FF94ED161B41
:1030A00053EC112B04F08DFD53EC1A2B04F030FE81
:1030B0009DED020A41EC1A0B10EE100A04F046FFD7
:1030C00094ED161B53EC112B04F022FE41EC1E0B69
:1030D0001BEE900A04F03AFF53EC1E2B04F071FD36
:1030E00094ED161B53EC112B04F012FE41EC110B66
:1030F0008DED041B9DED030A10EE100A04F026FF6F
:1031000094ED161B53EC112B04F002FE41EC1E0B48
:103110001BEE100A04F01AFF53EC1E2B04F051FDB5
:1031200041EC1E0B19EE900A04F010FF94ED161BF3
:1031300053EC112B04F045FD53EC1E2B04F0E8FD7D
:103140009DED041B53EC112B04F03BFD53EC1A2BAB
:1031500004F037FD9DED061B53EC112B04F031FDFF
:103160009FEDFE1B53EC112B04F0D2FD04F01AFF6F
:103170000FEE900AC5ED11FA9DED000A10EE100A4F
:1031800004F0E4FE94ED161B53EC112B04F0C0FD8B
:1031900041EC1A0B18EE100A04F0D8FE53EC1A2B6F
:1031A00004F00FFD41EC1A0B19EE900A04F0CEFE6C
:1031B00094ED161B53EC112B04F003FD53EC1A2B6A
:1031C00004F0A6FD41EC110B8DED061B9DED010AEF
:1031D00010EE100A04F0BAFE94ED161B53EC112BFE
:1031E00004F096FD41EC1A0B18EE100A04F0AEFE46
:1031F00053EC1A2B04F0E5FC94ED161B53EC112B49
:1032000004F086FD41EC110B8DED041B9DED020ACF
:1032100010EE100A04F09AFE94ED161B53EC112BDD
:1032200004F076FD41EC1A0B1BEE900A04F08EFEC2
:1032300053EC1A2B04F0C5FC41EC1A0B18EE900A63
:1032400004F084FE94ED161B53EC112B04F05DFD8D
:1032500053EC1A2B04F05CFD9DED030A41EC1E0BB0
:1032600010EE100A04F072FE94ED161B53EC112BB5
:1032700004F04EFD41EC1A0B1BEE100A04F066FE42
:1032800053EC1A2B04F09DFC41EC1A0B19EE100ABA
:1032900004F05CFE94ED161B53EC112B04F091FC32
:1032A00053EC1A2B04F034FD53EC1E2B04F089FC74
:1032B0009DED041B53EC112B04F083FC9DED061BCC
:1032C00053EC112B04F07DFC9FEDA41B53EC112B50
:1032D00004F01EFD04F066FE0EEE900AC5ED12EA43
:1032E0009DED000A10EE100A04F030FE94ED161B5E
:1032F00053EC112B04F00CFD41EC1A0B18EE100AE4
:1033000004F024FE53EC1A2B04F05BFC94ED161B26
:1033100053EC112B04F0FCFC41EC110B8DED081B60
:103320009DED010A10EE100A04F010FE94ED161B3C
:1033300053EC112B04F0ECFC41EC1A0B18EE100AC4
:1033400004F004FE53EC1A2B04F03BFC41EC1A0B86
:1033500019EE900A04F0FAFD94ED161B53EC112BB4
:1033600004F0D3FC53EC1A2B04F0D2FC41EC110B0B
:103370008DED061B9DED020A10EE100A04F0E6FD2D
:1033800094ED161B53EC112B04F0C2FC41EC1A0B0C
:103390001BEE900A04F0DAFD53EC1A2B04F011FC3A
:1033A00041EC1A0B19EE100A04F0D0FD94ED161B37
:1033B00053EC112B04F005FC53EC1A2B04F0A8FC81
:1033C00041EC110B8DED041B9DED030A10EE100A6C
:1033D00004F0BCFD94ED161B53EC112B04F098FC8B
:1033E00041EC1A0B1BEE100A04F0B0FD53EC1A2B43
:1033F00004F0E7FB41EC1A0B18EE900A04F0A6FD6E
:1034000094ED161B53EC112B04F0DBFB53EC1A2B41
:1034100004F07EFC9DED041B53EC112B04F0D1FB5A
:103420009DED061B53EC112B04F0CBFB9DED081B0F
:1034300053EC112B04F0C5FB9FED481B53EC112BF3
:1034400004F066FC04F0AEFD0EEE100A85ED13EA02
:103450001EEE100A04F07AFD41EC100B8DED040B0A
:103460009FED40AB94ED160B53EC1A2B51EC100B67
:1034700004F04EFC9DED040B53EC102B04F048FCC3
:1034800041EC100B18EE100A8DED040B04F05EFDFC
:103490009DED040B53EC102B04F093FB41EC100B4F
:1034A00018EE900A8DED060B04F050FD41EC100B68
:1034B00053EC1A2B8DED040B94ED160B51EC100B05
:1034C00004F026FC9DED040B53EC102B04F01AFCC9
:1034D0009DED060B53EC102B04F01AFC41EC100B85
:1034E0001EEE900A8DED080B04F030FD41EC100B40
:1034F00053EC1A2B8DED040B94ED160B51EC100BC5
:1035000004F006FC9DED040B53EC102B04F000FCC2
:1035100041EC100B18EE100A8DED040B04F016FDB3
:103520009DED040B53EC102B04F04BFB41EC100B06
:1035300019EE100A8DED060B04F008FD41EC100B9E
:1035400053EC1A2B8DED040B94ED160B51EC100B74
:1035500004F0DEFB9DED040B08E00000000000001D
:103560000000E03F000000000000004053EC102B82
:1035700004F0C8FB9DED060B53EC102B04F0C8FBC8
:1035800041EC100B1FEE900A8DED040B04F0DEFCF5
:1035900041EC100B53EC1A2B8DED060B94ED160B32
:1035A00051EC100B04F0B4FB9DED060B53EC102B0B
:1035B00004F0AEFB41EC100B1BEE900A8DED060BF8
:1035C00004F0C4FC9DED060B53EC102B04F0F9FA4B
:1035D00041EC100B19EE900A8DED0A0B04F0B6FCCD
:1035E00041EC100B53EC1A2B8DED060B94ED160BE2
:1035F00051EC100B04F08CFB9DED060B53EC102BE3
:1036000004F080FB9DED0A0B53EC102B04F080FBC3
:1036100041EC100B1FEE100A8DED060B04F096FC2A
:1036200041EC100B53EC1A2B8DED0A0B94ED160B9D
:1036300051EC100B04F06CFB9DED0A0B53EC102BBE
:1036400004F066FB41EC100B1BEE100A8DED0A0B2B
:1036500004F07CFC9DED0A0B53EC102B04F0B1FA46
:1036600041EC100B53EC1A2B8DED0A0B94ED160B5D
:1036700051EC100B04F04CFB9DED0A0B53EC102B9E
:1036800004F046FB9DED060B53EC102B04F099FA69
:103690009DED040B53EC102B04F093FA9DED080BF9
:1036A00053EC102B04F08DFA1FED540B53EC102B40
:1036B00004F02EFB04F076FC00EE100A1EEE100A59
:1036C00085ED140A8DED0E0A04F040FC41EC100B60
:1036D00053EC1A2B8DED040B94ED160B51EC100BE3
:1036E00004F016FB9DED040B53EC102B04F010FBC3
:1036F00041EC100B18EE100A8DED040B04F026FCC3
:103700009DED040B53EC102B04F05BFA41EC100B15
:1037100019EE100A8DED060B04F018FC41EC100BAD
:1037200053EC1A2B8DED040B94ED160B51EC100B92
:1037300004F0EEFA9DED040B53EC102B04F0E2FACA
:103740009DED060B53EC102B04F0E2FA41EC110B4B
:103750001EEE900A8DED0C1B04F0F8FB41EC100BF3
:1037600053EC1A2B8DED040B94ED160B51EC100B52
:1037700004F0CEFA9DED040B53EC102B04F0C8FAC4
:1037800041EC100B18EE100A8DED040B04F0DEFB7B
:103790009DED040B53EC102B04F013FA41EC100BCD
:1037A00018EE900A8DED060B04F0D0FB41EC100BE7
:1037B00053EC1A2B8DED040B94ED160B51EC100B02
:1037C00004F0A6FA9DED040B53EC102B04F0F9F96C
:1037D0009DED060B53EC102B04F09AFA41EC110B03
:1037E0001FEE900A8DED041B04F0B0FB41EC100BB2
:1037F00053EC1A2B8DED060B94ED160B51EC100BC0
:1038000004F086FA9DED060B53EC102B04F080FAC1
:1038100041EC100B1BEE900A8DED060B04F096FBAD
:103820009DED060B53EC102B04F0CBF941EC100B83
:1038300053EC1A2B8DED060B94ED160B51EC100B7F
:1038400004F066FA9DED060B53EC102B04F060FAC1
:1038500041EC110B1FEE100A8DED0A1B04F076FBF4
:1038600041EC100B53EC1A2B8DED060B94ED160B5F
:1038700051EC100B04F04CFA9DED060B53EC102BA1
:1038800004F046FA41EC100B1BEE100A8DED060B0E
:1038900004F05CFB9DED060B53EC102B04F091F94A
:1038A00041EC110B19EE900A8DED081B04F04EFB54
:1038B00041EC110B53EC1A2B8DED061B94ED160BFE
:1038C00051EC100B04F024FA9DED061B53EC112B68
:1038D00004F077F99DED081B53EC112B04F018FA56
:1038E0009DED0A1B53EC112B04F06BF99DED041BAD
:1038F00053EC112B04F065F99DED0C1B53EC112BCF
:1039000004F05FF91FEDEB1B53EC112B04F000FAF0
:1039100004F048FB00EE100A1EEE100A85ED150AB1
:103920008DED0F0A04F012FB41EC100B53EC1A2B37
:103930008DED040B94ED160B51EC100B04F0E8F92F
:103940009DED040B53EC102B04F0E2F941EC100B4D
:1039500018EE100A8DED040B04F0F8FA9DED040B3F
:1039600053EC102B04F02DF941EC100B19EE900ADA
:103970008DED060B04F0EAFA41EC100B53EC1A2B18
:103980008DED040B94ED160B51EC100B04F0C0F907
:103990009DED040B53EC102B04F013F99DED060B79
:1039A00053EC102B04F0B4F941EC100B1EEE900A0E
:1039B0008DED0C0B04F0CAFA41EC100B53EC1A2BF2
:1039C0008DED040B94ED160B51EC100B04F0A0F9E7
:1039D0009DED040B53EC102B04F09AF941EC100B05
:1039E00018EE100A8DED040B04F0B0FA9DED040BF7
:1039F00053EC102B04F0E5F841EC100B53EC1A2BB0
:103A00008DED040B94ED160B51EC100B04F080F9C6
:103A10009DED040B53EC102B04F07AF941EC100BE4
:103A20001FEE900A8DED0A0B04F090FA41EC100B9A
:103A300053EC1A2B8DED040B94ED160B51EC100B7F
:103A400004F066F99DED040B53EC102B04F060F9C3
:103A500041EC100B1BEE900A8DED040B04F076FA8E
:103A60009DED040B53EC102B04F0ABF841EC100B64
:103A700018EE900A8DED060B04F068FA41EC100B7D
:103A800053EC1A2B8DED040B94ED160B51EC100B2F
:103A900004F03EF99DED040B53EC102B04F032F9C9
:103AA0009DED060B53EC102B04F032F941EC100B9A
:103AB0001FEE100A8DED080B04F048FA41EC100BD4
:103AC00053EC1A2B8DED040B94ED160B51EC100BEF
:103AD00004F01EF99DED040B53EC102B04F018F9C3
:103AE00041EC100B1BEE100A8DED040B04F02EFAC6
:103AF0009DED040B53EC102B04F063F841EC100B1C
:103B000019EE100A8DED060B04F020FA41EC100BB3
:103B100053EC1A2B8DED040B94ED160B51EC100B9E
:103B200004F0F6F89DED040B53EC102B04F049F86B
:103B30009DED060B53EC102B04F0EAF89DED080BFD
:103B400053EC102B04F03DF89DED0A0B53EC102BB9
:103B500004F037F89DED0C0B53EC102B04F031F80A
:103B60009FEDFE0B53EC102B04F0D2F804F01AFA80
:103B700000EE100A1EEE100A85ED160A8DED0C0AF5
:103B800004F0E4F941EC100B53EC1A2B8DED040B0F
:103B900094ED160B51EC100B04F0BAF89DED040BEC
:103BA00053EC102B04F0B4F841EC100B18EE100A93
:103BB0008DED040B04F0CAF99DED040B53EC102BB2
:103BC00003F0FFFF41EC100B53EC1A2B8DED040BAF
:103BD00094ED160B51EC100B04F09AF89DED040BCC
:103BE00053EC102B04F094F841EC100B1EEE900AED
:103BF0008DED0A0B04F0AAF941EC100B53EC1A2BD3
:103C00008DED040B94ED160B51EC100B04F080F8C5
:103C10009DED040B53EC102B04F07AF841EC100BE3
:103C200018EE100A8DED040B04F090F99DED040BD5
:103C300053EC102B03F0C5FF41EC110B19EE900A69
:103C40008DED061B04F082F941EC110B53EC1A2B9D
:103C50008DED041B94ED160B51EC100B04F058F88D
:103C60009DED041B53EC112B04F04CF89DED061B4D
:103C700053EC112B04F04CF841EC100B1FEE900AA2
:103C80008DED080B04F062F941EC110B53EC1A2B8B
:103C90008DED041B94ED160B51EC100B04F038F86D
:103CA0009DED041B53EC112B04F032F841EC110B89
:103CB0001BEE900A8DED041B04F048F99DED041BEA
:103CC00053EC112B03F07DFF41EC100B19EE100AA1
:103CD0008DED040B04F03AF994ED160B41EC190B41
:103CE00053EC1A2B51EC100B04F012F853EC192B77
:103CF00003F067FF9DED040B53EC102B04F008F864
:103D000041EC110B1FEE100A8DED061B04F01EF99D
:103D100094ED160B41EC190B53EC1A2B51EC100BD4
:103D200003F0F6FF53EC192B03F0F2FF41EC190BF3
:103D30001BEE100A04F00AF953EC192B03F041FFB3
:103D400041EC110B18EE900A8DED041B04F0FEF807
:103D500094ED160B41EC190B53EC1A2B51EC100B94
:103D600003F0D6FF53EC192B03F02BFF9DED041B42
:103D700053EC112B03F0CCFF9DED061B53EC112BE4
:103D800003F01FFF9DED080B53EC102B03F019FF00
:103D90009DED0A0B53EC102B03F013FF9FED6F1BEF
:103DA00053EC112B03F0B4FF04F0FCF800EE100A02
:103DB000F0EE008A85ED170A8DED060A9DED030AE7
:103DC00040EE28DA9DED0E0A4FEE28DA3DEE800A2D
:103DD00010EE100A04F0BAF841EC110B53EC1A2B58
:103DE0008DED041B94ED160B51EC100B03F090FFBE
:103DF0009FED5C9B53EC192B03F0FCFF9DED041B26
:103E000053EC112B03F084FF41EC110B1BEE100A55
:103E10008DED041B04F09AF89DED041B53EC112B5F
:103E200003F0CFFE04F0BEF80BEE100A85ED01BAE8
:103E30009DED020A00EE28DA9DED0F0A0FEEA8DADA
:103E40003DEE000A10EE100A04F080F894ED160B17
:103E500041EC1D0B53EC1A2B51EC100B03F058FFE7
:103E600053EC192B03F0C6FF53EC1D2B03F050FF4E
:103E700041EC1D0B1BEE900A04F068F853EC1D2B6F
:103E800003F09FFE04F08EF80BEE900AC5ED02BA27
:103E90009DED010A40EE28CA9DED0C0A4EEEA8CA1F
:103EA0003CEE800A10EE100A04F050F894ED160B68
:103EB00041EC1D0B53EC1A2B51EC100B03F028FFB7
:103EC00053EC192B03F096FF53EC1D2B03F020FF4E
:103ED00041EC1D0B18EE100A04F038F853EC1D2BC2
:103EE00003F06FFE04F05EF89DED000A074600EE59
:103EF00028CA9DED060A0EEE28CA3CEE000A10EE16
:103F0000100A04F023F894ED160B41EC1C0B53EC53
:103F10001A2B51EC100B03F0FBFE53EC192B03F0A2
:103F200069FF53EC1C2B03F0F3FE41EC190B3846F0
:103F300004F00CF853EC192B03F043FE04F032F8B4
:103F40002BEE0B0A00EE900AC5ED030A0BEEAB0A4E
:103F500000EEA00A00EEA00A08E000000000000049
:103F60000000E03F0000000000001840FEF7A0F94C
:103F7000D5ED010AB8EE008A20EE801A85ED011A0F
:103F8000D5ED020A21EE281A60EE800AC5ED020A7C
:103F9000D5ED031A60EE880A61EE801A21EE800AE0
:103FA00085ED030A60EE800A41EE000A10EE900AE9
:103FB00003F0CCFF41EC100B04F0E6F99FEDFE9B03
:103FC00051EC100B53EC192B03F0A2FE03F0EAFFA7
:103FD000306095ED02BAF7EE000A2BEE080A95ED77
:103FE000038A20EE0B0A68EE28BA0BEEC80A30EE00
:103FF000200A10EE100A03F0A9FFD5ED010A2BEEFE
:10400000880A41EC1A0B60EEA80A00EE8B0A10EE4B
:10401000100A03F09BFF41EC100BB0EE4A1AF0EED1
:104020006A1A04F0CDFC53EC192B51EC100B03F081
:104030006FFE03F0B7FFC8F8000095ED01BAD5EDAB
:1040400002BA95ED038A2BEE0B0A0BEEAB0A08EED3
:10405000480A08EE480A10EE100A03F077FF2BEE2C
:10406000880A41EC1A0B0BEE080A20EE280A10EE23
:10407000100A03F06BFF41EC100BB0EE4A1AF0EEA1
:104080006A1A04F09DFC53EC192B51EC100B03F051
:104090003FFE03F087FFC9F8000010B0BDEC108BA5
:1040A0000DB0BDE8F08310EE100A10B520F000400E
:1040B000C0F1FF40C00F02D09FEDC10A10BD10EE4D
:1040C000100AB0F17E5F02DB9FEDBE0A10BD10EE5C
:1040D000100A10F1814F02D39FEDBB0A10BD10EE04
:1040E000100A03F033FF41EC100B04F04DF951ECD2
:1040F000100B03F057FF00EE100A10BD10B5B34CC3
:104100002DED060B2DED048B8AB094ED0B0AD4ED4A
:104110000B0A20EE200A8DED020A94ED0B0AD4ED75
:104120000C0A20EE200A8DED040A94ED0B0AD4ED62
:104130000D0A20EE200A8DED070A94ED0B0AD4ED4E
:104140000E0A20EE200A8DED000A94ED0C0AD4ED43
:104150000C0A20EE200A8DED030A94ED0C0AD4ED32
:104160000D0A20EE200A8DED000A94ED0C0AD4ED24
:104170000E0A20EE200A8DED060A94ED0D0AD4ED0C
:104180000D0A20EE200A8DED000A94ED0D0AD4ED03
:104190000E0A20EE200A8DED050A94ED0E0AD4EDEC
:1041A0000E0A20EE200A8DED080A9DED110ADDEDC4
:1041B000120A20EE000A00EEA00ADDED130A00EE5E
:1041C000A00AFEF775F88DED010A9DED110ADDEDEF
:1041D000010A20EE200A8DED110A9DED120A20EE53
:1041E000200A8DED120A9DED130A20EE200A8DEDB6
:1041F000130A9DED060ADDED070A70EE600AB0EEC7
:10420000000A60EE800ACDED060ADDED040A9DEDA0
:10421000051A70EE810A20EE800A8DED040A9DEDEC
:10422000020ADDED030A30EE600ADDED000A30EE31
:10423000600ADDED080A30EE200A8DED010A9DEDE1
:10424000120ADDED010A9DED041A20EE200ADDEDD3
:10425000130A00EEC10A8DED000AB0EE600ADDED32
:10426000060A9DED011A20EE200ADDED110A00EE8E
:10427000C10A8DED010AB0EE600ADDED040A9DED84
:10428000061A20EE200ADDED120A00EEC10A8DEDBD
:10429000020A9DED000AB5EEC00AF1EE10FA7CD0DC
:1042A0009DED010AB5EEC00AF1EE10FA75D09DED54
:1042B000020AB5EEC00AF1EE10FA6ED09DED000ACA
:1042C0009FED439A20EE090A10EE100A03F03EFE1D
:1042D00094ED161B53EC112B03F01AFD94ED040A18
:1042E00041EC180B10EE100A03F030FE53EC182BC3
:1042F00003F067FC03F056FE00EE100A84ED040A9A
:104300009DED010A20EE090A10EE100A03F01EFED0
:1043100094ED161B53EC112B03F0FAFC94ED050AF7
:1043200041EC180B10EE100A03F010FE53EC182BA2
:1043300003F047FC03F036FE00EE100A84ED050A98
:104340009DED020A20EE090A10EE100A03F0FEFDB0
:1043500094ED161B53EC112B03F0DAFC94ED060AD6
:1043600041EC180B10EE100A03F0F0FD53EC182B83
:1043700003F027FC03F016FE00EE100A84ED060A97
:104380009DED0E0ADDED000A30EE200AD4ED040AA0
:1043900030EE200A8DED0E0A00E027E09DED0F0AB9
:1043A000DDED010A30EE200AD4ED050A30EE200AD8
:1043B0008DED0F0A0EE000006666666666A64C404C
:1043C00000000000DB0FC93FDB0FC9BF3801002030
:1043D000CDCC4C3E9DED100ADDED020A30EE200AF8
:1043E000D4ED060A30EE200A8DED100A94ED0C0A89
:1043F000DDED0E0A9DED0F1A20EEC00AD4ED0D0A78
:1044000000EEC10AD4ED0E0A9DED101A00EEC10AAD
:1044100010EE100A03F09AFD94ED161B53EC112BCD
:1044200003F076FC94ED0B0A41EC180B10EE100A29
:1044300003F08CFD53EC182B03F0C3FB03F0B2FD2B
:10444000069094ED0B0ADDED0E0A9DED101A20EE9C
:10445000200AD4ED0D0A00EE810AD4ED0E0A9DED7E
:104460000F1A00EEC10A10EE100A03F06FFD94ED72
:10447000161B53EC112B03F04BFC94ED0C0A41EC92
:10448000180B10EE100A03F061FD53EC182B03F02B
:1044900098FB03F087FD049094ED0B0ADDED0F0A05
:1044A0009DED101A20EE200AD4ED0C0A00EEC10A90
:1044B000D4ED0E0A9DED0E1A00EE810A10EE100AE0
:1044C00003F044FD94ED161B53EC112B03F020FC7C
:1044D00094ED0D0A41EC180B10EE100A03F036FDB6
:1044E00053EC182B03F06DFB03F05CFD029094ED90
:1044F0000B0ADDED100A9DED0F1A20EE200AD4ED17
:104500000C0A00EE810AD4ED0D0A9DED0E1A00EEA4
:10451000C10A10EE100A03F019FD94ED161B53ECBE
:10452000112B03F0F5FB94ED0E0A41EC180B10EE85
:10453000100A03F00BFD53EC182B03F042FB03F0C1
:1045400031FD00909DED060ADDED040A01EE100A32
:1045500020EE000A00EEA00ADDED020A00EEA00A3D
:1045600000EE900A00EE810AFDF7A2FE8DED010A31
:104570009DED060ADDED010A20EE200A84ED0B0A0E
:104580009DED040A20EE200A84ED0C0A9DED020A3E
:1045900020EE200A84ED0D0A9DED000A20EE200A8F
:1045A00084ED0E0A0AB0BDEC048B06B010BD30B528
:1045B0002DED0A0B2DED108B87B0FE4C94ED070A04
:1045C000D4ED070A60EE20FA94ED070AD4ED080A4C
:1045D00060EE20AA94ED070AD4ED090A20EE20AA85
:1045E00094ED070AD4ED0A0A60EE20EA94ED080A79
:1045F000D4ED080A20EE20FA94ED080AD4ED090A59
:1046000020EE20EA94ED080AD4ED0A0A60EE209A22
:1046100094ED090AD4ED090A20EE209A94ED090AD6
:10462000D4ED0A0A60EE208A94ED0A0AD4ED0A0A53
:1046300020EE208A9DED1A0ADDED1B0A20EE000A0D
:1046400000EEA00ADDED1C0A00EEA00A10EE100A32
:1046500003F07CFC41EC100B05F0A2F951EC100BBF
:1046600003F0A0FC00EE100ADFEDD30A20EE200AD2
:10467000DFEDD20A0090A4F1800520EE200A8DED36
:10468000000AD5ED000A30EE600A10EE100A03F0C1
:104690005DFC41EC1C0B9FEDCADB94ED160B53EC5B
:1046A0001D2B51EC100B03F033FB9FEDC71B53EC9C
:1046B000112B03F086FA94ED160B41EC1B0B53EC17
:1046C0001D2B51EC100B03F023FB53EC1B2B03F0C1
:1046D00091FB53EC1C2B03F01BFB95ED000A41EC06
:1046E0001B0B10EE100A03F031FC53EC1B2B03F0F4
:1046F00068FA03F057FC00EE100A85ED000A9DED04
:104700001A0ADDED1B0A20EE000A00EEA00ADDED1C
:104710001C0A00EEA00AFDF7CBFD8DED010A9DED10
:104720001A0ADDED010A20EE200A8DED1A0A9DED30
:104730001B0A20EE200A8DED1B0A9DED1C0A20EEBF
:10474000200A8DED1C0A9DED1D0ADDED1E0A20EEEE
:10475000000A00EEA00ADDED1F0A00EEA00AFDF738
:10476000A7FD8DED010A9DED1D0ADDED010AB0EEFC
:1047700000BAF6EE002A20EE200A3EEE6ECA39EEAE
:104780008A2A8DED1D0A9DED1E0A79EECABA20EE29
:10479000200A8DED1E0A9DED1F0A20EE200A8DEDE8
:1047A0001F0A9DED1D0A60EE0B0A32EEC90A70EE7B
:1047B00048CA9DED1E0A60EEAC1A20EE0B1A9DED64
:1047C0001F0A41EE0C1A20EE0B0A40EE021ACDED44
:1047D000001A7EEE2E1A20EEA12A72EECF1A60EE9B
:1047E000AB0A71EEC82A31EEC9DA01EE222A78EE60
:1047F000EA2A00EE222A8DED012A38EEAA2A41EE9D
:10480000020A40EE0D0ACDED020A9DED000ADDED33
:10481000010A20EE000A00EEA00A10EE100A03F0D2
:1048200095FB41EC100B05F0BBF851EC100B03F0BD
:10483000B9FB00909DED020A3AEEA81A8DED040A2C
:104840002BEE8B0A8DED020A21EE0B0A8DED030A89
:104850003FEECF0A30EE490A30EE080A8DED010A2C
:1048600000EE100ADDED040A20EE0B0A60EE8B0A62
:1048700060EE2C1A40EEAB1ACDED041A60EE0C1A65
:1048800040EE811A3AEE291A20EE010ACDED051A02
:1048900000EE8D0A8DED060A9DED1B0ADDED010A85
:1048A0009DED031A60EE200A9DED1C0A40EE410AC0
:1048B0009DED1E0A9DED061A20EE010A9DED1F1AC0
:1048C00001EE610A30EE800A8DED000A9DED1C0AB2
:1048D000DDED020A9DED011ADDED061A20EE200A3B
:1048E000DDED1A0A00EEC10ADDED1F0A9DED041A86
:1048F00060EE810A9DED1D1A41EE610A30EE200A3C
:104900008DED010A9DED1A0ADDED030A9DED021AF7
:10491000DDED041A20EE200ADDED1B0A00EEC10ACF
:10492000DDED1D0A9DED051A60EE810A9DED1E1A52
:1049300041EE610A30EE200A8DED020A9DED000A7B
:10494000B5EEC00AF1EE10FA7DD09DED010AB5EE8C
:10495000C00AF1EE10FA76D09DED020AB5EEC00A5B
:10496000F1EE10FA6FD09DED000A9FED199A20EE3E
:10497000090A10EE100A03F0E9FA94ED161B53EC45
:10498000112B03F0C5F994ED010A41EC180B10EE60
:10499000100A03F0DBFA53EC182B03F012F903F0C2
:1049A00001FB00EE100A84ED010A9DED010A20EEE4
:1049B000090A0FE03801002000008038CDCC1C41EE
:1049C000000000000000004000000060204C803F1C
:1049D0008FC2F53C10EE100A03F0B8FA94ED161BE6
:1049E00053EC112B03F094F994ED020A41EC180BEF
:1049F00010EE100A03F0AAFA53EC182B03F0E1F8BA
:104A000003F0D0FA00EE100A84ED020A9DED020ACE
:104A100020EE090A10EE100A03F098FA94ED161B26
:104A200053EC112B03F074F994ED030A41EC180BCD
:104A300010EE100A03F08AFA53EC182B03F0C1F8B9
:104A400003F0B0FA00E029E000EE100A84ED030A5A
:104A5000D4ED010A9DED001AB0EE080A41EE000AFD
:104A60009DED171A70EE810ACDED170AD4ED020AFA
:104A70009DED011A41EE000A9DED181A70EE810AB3
:104A8000CDED180AD4ED030A9DED021A41EE000A9D
:104A90009DED190A30EE800A8DED190A94ED080A91
:104AA000DDED170A9DED181A20EEC00AD4ED090AB3
:104AB00000EEC10AD4ED0A0A9DED191A00EEC10AF2
:104AC00010EE100A03F042FA94ED161B53EC112B72
:104AD00003F01EF994ED070A41EC180B10EE100AD2
:104AE00003F034FA53EC182B03F06BF803F05AFA86
:104AF000069094ED070ADDED170A9DED191A20EED8
:104B0000200AD4ED090A00EE810AD4ED0A0A9DEDCF
:104B1000181A00EEC10A10EE100A03F017FA94ED0D
:104B2000161B53EC112B03F0F3F894ED080A41EC3B
:104B3000180B10EE100A03F009FA53EC182B03F0CF
:104B400040F803F02FFA049094ED070ADDED180AFF
:104B50009DED191A20EE200AD4ED080A00EEC10AD4
:104B6000D4ED0A0A9DED171A00EE810A10EE100A24
:104B700003F0ECF994ED161B53EC112B03F0C8F87D
:104B800094ED090A41EC180B10EE100A03F0DEF95F
:104B900053EC182B03F015F803F004FA029094ED8F
:104BA000070ADDED190A9DED181A20EE200AD4ED52
:104BB000080A00EE810AD4ED090A9DED171A00EEED
:104BC000C10A10EE100A03F0C1F994ED161B53EC64
:104BD000112B03F09DF894ED0A0A41EC180B10EE2E
:104BE000100A03F0B3F953EC182B02F0EAFF03F0BC
:104BF000D9F900909DED060ADDED040A01EE100AD8
:104C000020EE000A00EEA00ADDED020A00EEA00A86
:104C100000EE900A00EE810AFDF74AFB8DED010AD5
:104C20009DED060ADDED010A20EE200A84ED070A5B
:104C30009DED040A20EE200A84ED080A9DED020A8B
:104C400020EE200A84ED090A9DED000A20EE200ADC
:104C500084ED0A0A07B0BDEC108B0AB030BD70B508
:104C60000C462DED028B054691ED050A9FEDFE8A5F
:104C700020EE080ADFEDFD8A91ED084AD1ED073AF2
:104C800080EE281A91ED040A91ED063AD4ED022A3D
:104C900020EE080A94ED012AC0EE280A91ED030ADD
:104CA00060EE081A81EEA80AD4ED001AFFF77FFC27
:104CB00094ED050AD4ED022A94ED012A20EE080AAB
:104CC00080EE281A94ED040A20EE080AC0EE280AA5
:104CD00094ED030A60EE081A81EEA80AD4ED001ADA
:104CE000FFF70CFAE24890ED070A85ED000A90ED17
:104CF000080A85ED010A90ED090A85ED020A90ED9A
:104D00000A0A85ED030ABDEC028B70BD70B5D94966
:104D100005462DED088BA1F11C00FFF7A0FFD54C37
:104D2000F7EE00AA1C3CB0EE00AA94ED019AD4ED77
:104D3000029AB0EE6A0A69EE090A49EEA90A00EE83
:104D4000CA0A10EE100A03F001F994ED000AD4ED3E
:104D5000030A41EC180B20EE090A09EEA00A20EE26
:104D60000A0A10EE100A03F0F1F841EC100BB0EE55
:104D7000481AF0EE681A03F023FE9FEDBF9B51EC3A
:104D8000100B53EC192B02F0C3FF9FEDBD1B53EC2E
:104D9000112B03F02FF803F005F900EE100AB44EC2
:104DA00085ED000A86ED100A94ED000AD4ED020AA2
:104DB00094ED011A20EE200AD4ED030A00EEC10A98
:104DC00020EE0A0AFFF76FF9DFEDA80A60EE200A6D
:104DD0009FEDAD1A80EE810A85ED010A86ED0F0A7E
:104DE00094ED02BAB8EE000AD4ED03BA2BEE000A35
:104DF0006BEE8A0A20EE0B0A00EEEB0A30EE2A0A6E
:104E000010EE100A03F0A2F894ED010AD4ED000AA6
:104E100041EC180B20EE0A0A60EE8A0A20EE0B0A1B
:104E200000EEAB0A10EE100A03F090F841EC100B04
:104E3000B0EE481AF0EE681A03F0C2FD53EC192BDD
:104E400051EC100B02F064FF9FED901B53EC112B03
:104E500002F0D0FF03F0A6F800EE100A85ED020A7A
:104E600086ED110ABDEC088B70BDB0EE002A21EE74
:104E7000021A9FED882AF7EE002A21EE022A82EE1E
:104E8000821A31EE212A81EE821A70EE601AB0EE9B
:104E9000600A01EE210A70472DE9F04104462DED2C
:104EA000108B0F467348724D90ED000AA5F18006F5
:104EB00085ED120A90ED010A85ED130A90ED020AC4
:104EC0000C3885ED140AB0F90610D6ED1B0A00EE79
:104ED000101AB0F90810B0F90A00B8EEC00A70EE66
:104EE000608A00EE101AD6ED1C0AB8EEC00A30EE49
:104EF000608A00EE100AD6ED1D0AB8EEC00A30EE48
:104F0000609A95ED180B51EC100B03F04BF801EE85
:104F1000900AB2EE041AD6ED180AB0EE680AFFF74E
:104F2000A4FF86ED180A95ED180B51EC100B03F059
:104F300039F801EE900AB2EE041AD6ED190AB0EE75
:104F4000480AFFF792FF86ED190A95ED180B51EC10
:104F5000100B03F027F801EE900AB2EE041AD6ED1A
:104F60001A0AB0EE490AFFF780FFB0EE40CA86ED9C
:104F70001ACAD6ED180A9FED481A60EE811A9FED05
:104F8000470AD7ED002A81EE802ADFED451A10EEA0
:104F9000900A88EE80FA02EEA12A87ED002AD6ED6B
:104FA00019CA6CEE812AC8EE00FA82EE802AD7ED8B
:104FB000012A02EEA12A87ED012A2CEE012A82EEB7
:104FC000001A97ED022A02EE211A87ED021A02F06A
:104FD000BDFF95ED181B53EC112B02F099FE9FEDD0
:104FE000318B53EC182B02F093FE9FED309B53EC6A
:104FF000192B02F0FFFE41EC1D0B206802F0A6FF0A
:1050000053EC1D2B02F0DDFD02F0CCFF20601CEE06
:10501000900A02F09BFF95ED181B53EC112B02F048
:1050200077FE53EC182B02F073FE53EC192B02F0B1
:10503000E1FE41EC1D0B606802F088FF53EC1D2B74
:1050400002F0BFFD02F0AEFF60601CEE100A02F03D
:105050007DFF95ED181B53EC112B02F059FE53EC1C
:10506000182B02F055FE25E0DB0F494000003443C9
:105070003801002064060020000000000080664027
:1050800000000060FB210940DB0F49C00000006008
:10509000FB2109C0F90F49409A99193E33338341E6
:1050A0009A99593F0000000000409F400000000016
:1050B000C0FFDF4053EC192B02F09CFE41EC1D0BAE
:1050C000A06802F043FF53EC1D2B02F07AFD02F0C2
:1050D00069FFA0601CEE100A02F038FF95ED181B66
:1050E00053EC112B02F014FE53EC182B02F010FEBF
:1050F00053EC192B02F07EFE1FED1FDB53EC1D2B32
:1051000002F006FE1FED24EB53EC1E2B02F072FEA4
:1051100041EC100B04F0E0FBB0EE40CAF0EE60CAC8
:10512000206802F013FF53EC1C2B02F0F1FD41EC60
:105130001C0B606802F00AFF53EC1C2B02F0E2FD2E
:1051400002F030FF6060B06E02F000FF95ED181BBA
:1051500053EC112B02F0DCFD53EC182B02F0D8FDC0
:1051600053EC192B02F046FE53EC1D2B02F0D0FD40
:1051700053EC1E2B02F03EFE41EC100B04F0ACFB96
:10518000B0EE408AF0EE608A606802F0DFFE53EC19
:10519000182B02F0BDFD41EC180B206802F0D6FE82
:1051A00053EC182B02F00DFD02F0FCFE206095ED93
:1051B000120A60EE000A95ED130A40EE000A95ED22
:1051C000140A40EE000A10EE900A02F0BFFE41EC15
:1051D000100B04F0E5FB51EC100B02F0E3FE95ED33
:1051E000120A08EE100AF0EEC00AF4EEC80AF1EE58
:1051F00010FA13D2C0EE080A10EE900A02F0A6FED2
:1052000041EC100B03F0C0F89FEDFE1B51EC100BAE
:1052100053EC112B02F07CFD41EC1B0B95ED130AB6
:10522000F0EEC00AF4EEC80AF1EE10FA13D2C0EEA6
:10523000080A10EE900A02F089FE41EC100B03F010
:10524000A3F89FEDF21B51EC100B53EC112B02F065
:105250005FFD41EC1A0B95ED180B51EC100B02F0B1
:10526000A1FE08EE100A51EC1A0B02F09BFE00EEB4
:10527000100AB0EE481AF0EE4F0A01F0E1FA10EE13
:10528000100A02F063FE95ED180B41EC180B51EC7F
:10529000100B02F087FE09EE100A51EC1B0B02F016
:1052A00081FE00EE100AB0EE491AF0EE6F0A01F02E
:1052B00026FB10EE100A02F049FE9FEDD6AB53EC30
:1052C0001A2B02F025FD41EC190B94ED010A9FED1C
:1052D000D3BA20EE0B0A10EE100A02F037FE53ECA0
:1052E000192B02F06EFC02F05DFE606053EC1A2B8D
:1052F00051EC180B02F00CFD94ED000A41EC180B78
:1053000020EE0B0A10EE100A02F020FE53EC182BD0
:1053100002F057FC02F046FE2060BDEC108BBDE8A9
:10532000F0812DE9F05F83462DED028B1C46DDE90F
:105330000C8992460D46BA48FDF70FF8B948006847
:10534000B94F38603868A7F18006F16F8842386835
:10535000F16F0AD2C943084400EE100AB8EE400AC1
:1053600010EE100A02F0F2FD02E0401A02F0C2FD57
:1053700041EC100B87ED180B9FEDAC0B53EC102B91
:1053800097ED180B51EC100B02F0C2FC41EC100B26
:1053900087ED180B9FEDA70B53EC102B97ED180B17
:1053A00051EC100B02F0B4FC41EC100B87ED160B26
:1053B0003868F06751465846FFF76EFD2846FFF7FC
:1053C000A5FC95ED010A96492046B1EE400A85ED0F
:1053D000010A95ED020AB1EE400A85ED020A02F0DB
:1053E000DAFA94ED010A8E48B1EE400A84ED010A22
:1053F00094ED020AB1EE400A84ED020AD0ED050AEE
:105400001FEDE70A60EE800A5FEDE81A08F1080276
:10541000111F80EEA11AD0ED040A20EE802AC2EE00
:10542000210A90ED032A22EE002A82EE210AD0EC16
:10543000031A183090EC033A4046FCF7DEFF784838
:10544000D6ED1E0A0C38B0F9040000EE100AB8EED2
:10545000C00A30EE600A10EE100A02F077FD9FEDF0
:10546000771B53EC112B02F053FC41EC180BD9F8CD
:10547000000002F06BFD9FED731B53EC112B02F04B
:1054800047FC53EC182B02F09CFB02F08BFD00EE66
:10549000100AF6EE000A20EE200A89ED000ABDECA3
:1054A000028BBDE8F09F30B55F4CF7EE000A2DEDA2
:1054B000088B95B0C4ED070A9FED640A002584EDC2
:1054C000080A84ED090A84ED0A0AC4ED0B0A84ED8A
:1054D0000C0A84ED0D0A84ED0E0A84ED010A84EDB8
:1054E000020A84ED030A84ED040A84ED050A84EDC2
:1054F000060A0CA8FCF731FF9DED0C0ADDED050A4C
:105500006D1CC82D30EE200A8DED050A9DED0D0AAB
:10551000DDED030A30EE200A8DED030A9DED0E0A43
:10552000DDED010A30EE200A8DED010A9DED120A33
:10553000DDED0B0A30EE200A8DED0B0A9DED130A0E
:10554000DDED090A30EE200A8DED090A9DED140A01
:10555000DDED070A30EE200A8DED070AC9DBDDED2F
:10556000050A9FED3B0A80EE801A8DED051ADDEDF0
:10557000030A80EE801A8DED031ADDED010A80EE3C
:10558000801A8DED011ADDED0B0A80EE801A8DED8B
:105590000B1ADDED090A80EE801A8DED091ADDED9A
:1055A000070A80EE801A8DED071A9DED030ADDEDE6
:1055B000010A20EE000A00EEA00AFCF779FEDDEDFC
:1055C000050A20EE200A8DED000A10EE100A02F006
:1055D000BDFC41EC100B03F087F89FED1E8B51ECE6
:1055E000100B53EC182B02F093FB02F0DBFC029043
:1055F0009DED050ADDED010A20EE000A00EEA00A8D
:105600002CE0000000000060E3A54CC0000000603A
:10561000E3A54C40000000A09999993F9A99793FE1
:1056200064060020240C004038010020000000A087
:10563000F7C6B03E000000000000E03F3BDF4F8DAA
:10564000976EA23F5EBA490C022BEF3F00000000AC
:10565000000048436666666666A64C40FCF728FE76
:10566000DDED030A20EE200A8DED000A10EE100A8F
:1056700002F06CFC41EC100B03F036F853EC182BE5
:1056800051EC100B02F044FB02F08CFC009002F095
:105690005DFC41EC100B04F01FF9B0EE408AF0EE17
:1056A000608A079802F052FC53EC182B02F030FB92
:1056B00041EC190B009802F049FC41EC100B03F08F
:1056C0007FFAB0EE408AF0EE608A099802F03EFC64
:1056D00053EC182B02F01CFB53EC192B02F071FA5F
:1056E00002F060FC0190029802F030FC41EC100BDB
:1056F00004F0F2F8B0EE409AF0EE609A009802F0F2
:1057000025FC41EC100B03F05BFAB0EE408AF0EEA2
:10571000608A079802F01AFC53EC182B02F0F8FA92
:1057200053EC192B02F0F4FA41EC180B029802F03A
:105730000DFC41EC100B04F0CFF8B0EE40AAF0EEF7
:1057400060AA009802F002FC41EC100B04F0C4F8CF
:10575000B0EE409AF0EE609A099802F0F7FB53EC35
:10576000192B02F0D5FA53EC1A2B02F0D1FA41ECC6
:105770001A0B029802F0EAFB41EC100B03F020FA3E
:10578000B0EE409AF0EE609A0B9802F0DFFB53EC1B
:10579000192B02F0BDFA53EC1A2B02F012FA53EC5B
:1057A000182B02F0AFFA02F0FDFB039002F0CEFBE3
:1057B00041EC180B019802F0C9FB41EC100BB0EE64
:1057C000481AF0EE681A03F0FBF851EC100B02F0E7
:1057D000E9FB00EE100AB6EE008A019020EE080AFE
:1057E00010EE100A02F0B2FB41EC100B04F074F85A
:1057F000B0EE409A9DED020AF0EE609A20EE080AA3
:1058000010EE100A02F0A2FB41EC100B04F064F859
:10581000B0EE40AA9DED000AF0EE60AA20EE080A64
:1058200010EE100A02F092FB41EC100B04F054F859
:1058300053EC1A2B51EC100B02F06AFA53EC192BB3
:1058400002F066FA9DED010A41EC1B0B20EE080AFE
:1058500010EE100A02F07AFB41EC100B03F0B0F9E5
:10586000B0EE40AA9DED020AF0EE60AA20EE080A12
:1058700010EE100A02F06AFB41EC100B03F0A0F9E5
:10588000B0EE409A9DED000AF0EE609A20EE080A14
:1058900010EE100A02F05AFB41EC100B03F090F9E5
:1058A00053EC192B51EC100B02F032FA53EC1A2B7B
:1058B00002F02EFA53EC1B2B02F083F902F072FB7C
:1058C00000EE100A84ED070A9DED010A20EE080A99
:1058D00010EE100A02F03AFB41EC100B03F0FCFF53
:1058E000B0EE409A9DED020AF0EE609A20EE080AB2
:1058F00010EE100A02F02AFB41EC100B03F0ECFF53
:10590000B0EE40AA9DED000AF0EE60AA20EE080A73
:1059100010EE100A02F01AFB41EC100B03F050F9E4
:1059200053EC1A2B51EC100B02F0F2F953EC192B3B
:1059300002F0EEF99DED010A41EC1B0B20EE080A86
:1059400010EE100A02F002FB41EC100B03F038F9E4
:10595000B0EE40AA9DED020AF0EE60AA20EE080A21
:1059600010EE100A02F0F2FA41EC100B03F028F9E5
:10597000B0EE409A9DED000AF0EE609A20EE080A23
:1059800010EE100A02F0E2FA41EC100B03F0A4FF53
:1059900053EC192B51EC100B02F0BAF953EC1A2B03
:1059A00002F0B6F953EC1B2B02F0ACF902F0FAFA54
:1059B00000EE100A84ED080A9DED010A20EE080AA7
:1059C00010EE100A02F0C2FA41EC100B03F084FF53
:1059D000B0EE40AA9DED020AF0EE60AA20EE080AA1
:1059E00010EE100A02F0B2FA41EC100B03F0E8F8E6
:1059F000B0EE409A9DED000AF0EE609A20EE080AA3
:105A000010EE100A02F0A2FA41EC100B03F064FF52
:105A100053EC192B51EC100B02F07AF953EC1A2BC2
:105A200002F076F99DED010A41EC1B0B20EE080A0D
:105A300010EE100A02F08AFA41EC100B03F0C0F8E5
:105A4000B0EE40AA9DED020AF0EE60AA20EE080A30
:105A500010EE100A02F07AFA41EC100B03F03CFF52
:105A6000B0EE409A9DED000AF0EE609A20EE080A32
:105A700010EE100A02F06AFA41EC100B03F0A0F8E5
:105A800053EC192B51EC100B02F042F953EC1A2B8A
:105A900002F03EF953EC1B2B02F093F802F082FA6D
:105AA00000EE100A84ED090A9DED010A20EE080AB5
:105AB00010EE100A02F04AFA41EC100B03F080F8E5
:105AC000B0EE40AA9DED020AF0EE60AA20EE080AB0
:105AD00010EE100A02F03AFA41EC100B03F0FCFE53
