:020000040800F2
:100000004817002029090008C5030008C703000895
:10001000C9030008CB030008CD030008000000005E
:10002000000000000000000000000000CF030008F6
:10003000D103000800000000D3030008D503000826
:100040004309000843090008430900084309000860
:10005000430900084309000843090008F1030008A8
:100060004309000843090008430900084309000840
:100070004309000843090008430900084309000830
:100080004309000843090008430900084309000820
:1000900043090008430900084309000893040008C5
:1000A0004309000843090008430900084309000800
:1000B00043090008430900084309000843090008F0
:1000C00043090008430900084309000843090008E0
:1000D00043090008430900085304000843090008C5
:1000E00043090008430900084309000843090008C0
:1000F00043090008430900084309000843090008B0
:10010000430900084309000843090008430900089F
:10011000430900084309000843090008430900088F
:10012000430900084309000843090008430900087F
:10013000430900084309000843090008430900086F
:10014000430900084309000843090008430900085F
:10015000430900084309000843090008430900084F
:10016000430900084309000843090008430900083F
:10017000430900084309000843090008430900082F
:100180004309000843090008DFF80CD006F040F9E5
:1001900000480047350200084817002070480168F1
:1001A00041F0080101606F48802101800021021D9B
:1001B00011806C4A243211606A4A491E2C32116047
:1001C0005321121F1180674A0121143211800188C6
:1001D00041F0010101807047634A10B5A2F110019E
:1001E000101D05F0AAF8604C183C94ED0E0B51EC74
:1001F000100B05F093FF01EE900A94ED011AD4ED77
:10020000040A94ED060A03F081FD84ED040AD4ED9E
:10021000030A9FED561A60EE810A9FED551A40EED3
:10022000010AB2EE040AC4ED030A20EE800A84ED4E
:10023000050A10BD2DED028B4FF4C06000F086FB67
:10024000A82001F069FEC82001F0A7FE00F03AFAEC
:100250004FF4E13000F00EFBFFF7A0FF02F024F8AE
:100260009FED440A444880ED000A4448B3EE020A78
:1002700080ED000A9FED420A424880ED000A4248A4
:1002800080ED020A80ED010A80ED000A03F0D2FF42
:1002900004F040FB04F039FF002004F061FF05F09A
:1002A000D4FE314C183CC4E90C0100F030FA00F0E7
:1002B000A3FA36A006F0EAF89FED3B0B002084ED90
:1002C0000E0B20804FF49675FFF786FF042001F097
:1002D00064FE2088401C80B22080A842F4D994EDAE
:1002E000050A4FF4167384ED090A264A2349224869
:1002F00004F0B5FC1B4D243528682D49DFF8B48087
:100300009FED2D8B4FF470474FF4FA660860394625
:10031000404600F0BFFC2A4BA3F1180202F10C0189
:10032000A1F1180003F035FFFFF756FF94ED050A21
:10033000D4ED090A30EE600A84ED080AA06A296843
:10034000091AB142FBD32968081A05F08FFE53EC55
:10035000182B05F099FDC4E90E012868A062D6E7C4
:1003600040380240000C004018000020AC1C7A3FCE
:100370007F6ABC3C000090C2D8000020DC00002056
:1003800000000000E00000209C0600202051756164
:1003900064636F707465722048656C6C6F20576F72
:1003A000726C642120000000FCA9F1D24D62703F04
:1003B000E4000020000C02408DEDB5A0F7C6B03E71
:1003C0001C0500207047FEE7FEE7FEE7FEE77047EA
:1003D0007047704770475149002001F1140231F80D
:1003E000103022F81030401CC0B20828F7D37047F4
:1003F00010B5022000F060FB002828D048490868AA
:10040000484C2289801A80B2A0800968A16042F21B
:100410001071884209D9A078082803D1607808B9FA
:10042000FFF7D9FF0020A0700DE0A0F21B4140F2C1
:100430008332914206D2394AA17822F81100491C30
:10044000A17001E00120607037490220086010BDF2
:10045000704710B5354C40F22771204601F027FD5A
:1004600040F22551204601F022FD00280FD0204601
:1004700001F086FC2B4A1178284B28330B44491C89
:10048000117018701078122801D30020107010BD60
:10049000704710B520202DED028B00F00DFB0028D9
:1004A00039D02021224800F0D6FB1D4900281D4CE0
:1004B000086805D0E268801A20610868E06027E0DB
:1004C000E1689FED1C1A401A00EE100AF8EE400A8F
:1004D00080EE810A10EE100A05F0F4FD9FED161B68
:1004E00053EC112B05F0D0FC41EC180BA06905F082
:1004F000E9FD9FED131B53EC112B05F0C5FC53ECEC
:10050000182B05F01AFC05F009FE6061A061E0619E
:10051000054920200860BDEC028B10BD2805002095
:10052000240C004040000020143C014000440040E6
:1005300000100240000068429A9999999999C93F20
:100540009A9999999999E93F0CB5002254490092DA
:100550000192086840F4803008604FF4A0430868B6
:1005600000F4003001900098401C0090019810B9F0
:1005700000989842F3D10868800334D50120019097
:1005800047484030026842F08052026045480268A5
:1005900042F4404202604248083002680260026849
:1005A00042F400420260026842F4A0520260031F5B
:1005B0003D4A1A600A6842F080720A600A68920135
:1005C000FCD53A4940F205720A60016821F0030146
:1005D0000160016841F0020101600168C1F381011D
:1005E0000229FAD10CBD01920CBD314810B5016849
:1005F00041F4700101602A48016841F00101016085
:10060000274A00210832116002682A4B1A40026012
:10061000031D294A1A60026822F4802202602048E1
:100620000C300160FFF790FF21494FF000608039E6
:10063000086010BD70B51A4D083528681F4B204959
:1006400010F00C0004D05E10042803D0082803D05A
:100650000B601BE00E6019E0114A121D1068C0F318
:100660008054106800F03F0014B1B6FBF0F001E0D8
:10067000B3FBF0F013681268C3F388135843C2F356
:100680000142521C5200B0FBF2F0086028680C4A8C
:10069000C0F30310121D105C0A68C2400A6070BDEE
:1006A000003802400070004008544007003C0240FF
:1006B00088ED00E0FFFFF6FE103000240024F40077
:1006C000600000202DE9F0410121082000F075FCB8
:1006D0008D4C4FF470400127206027710025A571D3
:1006E00003266671E5712146884800F063FA01210E
:1006F000042000F062FC780320602771A571667108
:10070000E5712146BDE8F041814800F053BA70B56B
:100710000121084600F079FC0121102000F04DFC79
:1007200079484FF4D4410024016002210171032172
:1007300041718471774DC4710146284600F03AFA40
:1007400001220921284600F0A9FA01220B2128469E
:1007500000F0A4FA01220D21284600F09FFA0122A0
:100760000E21284600F09AFA6B48A7216B4D0180B4
:1007700044F61F614160048144800146284600F030
:10078000BFFD654960200C310880012048808C81C4
:1007900004208880CC818C60284600F033FE08213C
:1007A000284600F070FF5C4928460C3100F056FEE8
:1007B0000821284600F06DFF574928460C3100F00B
:1007C00089FE0821284600F06EFF534928460C3167
:1007D00000F0BAFE0821284600F06BFF01212846F0
:1007E00000F0ECFD0121284600F002FE2846BDE89D
:1007F0007040012101F0EEB870B50121102000F029
:10080000DCFB0121880300F000FC3F4800250126A5
:100810000571C6712221016001463E4800F0CAF907
:100820000121042000F0B2FC0521042000F0AEFC00
:10083000354C022008342060257108206071A671B3
:10084000204600F0E9F8202020601020607120464A
:1008500000F0E2F80C3C072020706570A570E6708F
:10086000204600F078F8172020702046BDE8704040
:1008700000F071B82DE9F04180460121480400F0F4
:10088000BAFB0121084600F098FB1F4802210C2604
:100890000171032106604171002484710125204FFC
:1008A000C5710146384600F085F907220221384615
:1008B00000F0F4F907220321384600F0EFF916485A
:1008C00010380146C0F80080848146810481C480CC
:1008D0008480144C204601F0B8F90B492620091FEA
:1008E00008700A2048708D70CD70084600F033F80B
:1008F000012240F22551204601F0B7FA2046BDE81A
:10090000F041012101F012BA78000020000C0240F1
:100910000008024000100240740500200000014061
:100920000000024000440040064880470648004757
:10093000FEE7FEE7FEE7FEE7FEE7FEE7FEE7FEE78F
:10094000FEE7FEE7EB050008890100082849084397
:1009500028490860704730B50F23C2780178012517
:10096000FAB1244A126801F1E02102F4E062C2F512
:10097000E062C2F30722C2F10404D3404278A240ED
:1009800084781C401443220181F80024007800F090
:100990001F018D404009800000F1E020C0F80051A7
:1009A00030BD01F01F0085404809800000F1E020C3
:1009B000C0F8805130BD104A114001430D48001F5E
:1009C000016070470B4A121D0029116801D00143D4
:1009D00000E08143116070474FF0E021042808696E
:1009E00003D020F004000861704740F00400FAE7EB
:1009F0000000FA050CED00E080FFFF1F35490020E4
:100A00000860091D0860091D0860091D086031495A
:100A1000314814310860704730B52E4A8379016837
:100A200053B313688B431360111D0B680468A34311
:100A30000B60017911440B68046823430B60254B5C
:100A4000083319680468A14319601C1D21680568F2
:100A5000A94321604179102905D011440A68006832
:100A600002430A6030BD19680268114319602168A9
:100A700000680143216030BD0079104402688A4358
:100A8000026030BD0021016001710C224271817150
:100A90007047104910310A6802430A6070470146E6
:100AA0000C4A0020143212680A4200D0012070471C
:100AB00008491431086070470146064A0020143284
:100AC00012680A4200D001207047024914310860C0
:100AD00070470000003C0140FFFF7F00774910B5E0
:100AE000884206D10121084600F099FA0021012030
:100AF0005BE07349884206D10121022000F08FFAA1
:100B00000021022051E06F49884206D101210420D2
:100B100000F085FA0021042047E06B49884206D1A5
:100B20000121082000F07BFA002108203DE0674900
:100B3000884206D10121102000F071FA0021102016
:100B400033E06349884206D10121202000F067FA92
:100B50000021202029E05F49884206D10121402060
:100B600000F05DFA002140201FE05B49884206D179
:100B70000121802000F053FA0021802015E0574920
:100B8000884202D1012184150AE05549884202D1E8
:100B90000121441504E0534988420AD1012104157A
:100BA000204600F03CFA00212046BDE8104000F04D
:100BB00036BA10BDF0B5002201274FF0030C0B68C8
:100BC00007FA02F52B40AB422CD1066853000CFA11
:100BD00003F4A64306600E79D0F800E09E4046EA92
:100BE0000E0606600E79012E01D0022E12D1866803
:100BF000A64386604E79D0F808E09E4046EA0E068D
:100C000086604668AE43466045688E799640B6B2C7
:100C100035434560C568A543C560CC799C40C36831
:100C20001C43C460521C102AC9D3F0BD4FF6FF719B
:100C300001600021017141718171C171704708B576
:100C400041F480320092C261C1610099C161C16901
:100C5000C069009008BD0246002012690A4200D017
:100C600001207047006980B2704702460020526937
:100C70000A4200D001207047406980B2704701836A
:100C80007047418370470AB10183704741837047C1
:100C90004161704742694A40426170474B07DB0E31
:100CA0009A40C90810B500EB8100016A0F249C40EE
:100CB000A1430162016A1143016210BD00000240BC
:100CC0000004024000080240000C024000100240F4
:100CD0000014024000180240001C024000200240A4
:100CE0000024024000280240F848016841F0010158
:100CF0000160F64A0021083211600268F44B1A4084
:100D00000260031DF34A1A60F04BF34A84331A6001
:100D1000F04A103A1B1D1A60026822F48022026019
:100D2000EA480C300160181D01607047E749002255
:100D3000891C0A7008707047024600205109012979
:100D40000CD002290CD0E1497431096802F01F026D
:100D5000012393400B4200D001207047DB49F4E7A8
:100D6000DA497031F1E718B500204FF4A044009043
:100D70003120FFF7E1FF0099491C0091A14201D009
:100D80000028F5D03120FFF7D7FF002800D0012040
:100D900018BDCE4A116821F0F80141EAC000106088
:100DA0007047CE4908607047C849002270310A7008
:100DB0000A70012802D0042801D10520087070476C
:100DC000C7490860704741EA82115A0810B5C54BFF
:100DD000029C03EB02421143014341EA0460BB4918
:100DE000091D086010BDBD4908667047800140EAD2
:100DF0000170B649843108607047B8498866704709
:100E0000800140EA0160B14940EA0270883108601F
:100E10007047B24908677047B049C8647047AB4B28
:100E200008331A68084322F0EC62104318607047D8
:100E3000A64B08331A68084322F078421043186022
:100E40007047A24A0832116821F003010143116082
:100E500070479E480830006800F00C0070479B4ABD
:100E60000832116821F0F001014311607047974A80
:100E70000832116821F4E051014311607047934A30
:100E80000832116821F4604141EAC00010607047E7
:100E900070B58E4B08331968934C11F00C0104D0D7
:100EA0006610042903D0082903D004601BE0066003
:100EB00019E0864A121D1168C1F38055116801F0CE
:100EC0003F0115B1B6FBF1F101E0B4FBF1F114689B
:100ED0001268C4F388146143C2F30142521C5200E9
:100EE000B1FBF2F1016019680F2202EA11117F4A89
:100EF000545C0168E14041601C68072505EA9424C0
:100F0000145D21FA04F484601B6805EA5333D25C53
:100F1000D140C16070BDC0F30121032908D16B4BE2
:100F200008331968724A21F4F81102400A431A6022
:100F3000664970310A68C0F30B0002430A607047CB
:100F4000674944390860704765494039086070470F
:100F50006249C1F85C0170475C4A8C321168401EDE
:100F600021F01F01014311607047584A8C3211680B
:100F70006FF0FF0321F4F85103EB002008431060E9
:100F80007047524A8C32116821F4401101431160BC
:100F900070474E4A8C32116821F4400101431160C0
:100FA00070474A4A8C32116821F440310143116084
:100FB00070475049C1F8E0017047444A3032002977
:100FC000116801D0014300E08143116070473F4A3E
:100FD00034320029116801D0014300E081431160DF
:100FE00070473A4A38320029116801D0014300E0C5
:100FF000814311607047354A40320029116801D0A1
:10100000014300E0814311607047304A44320029B7
:10101000116801D0014300E08143116070472B4A01
:1010200010320029116801D0014300E081431160B2
:101030007047264A14320029116801D0014300E0AC
:10104000814311607047214A18320029116801D08C
:10105000014300E08143116070471C4A203200299F
:10106000116801D0014300E0814311607047174AC5
:1010700024320029116801D0014300E0814311604E
:101080007047124A50320029116801D0014300E034
:101090008143116070470D4A54320029116801D014
:1010A000014300E0814311607047084A583200292B
:1010B000116801D0014300E0814311607047034A89
:1010C00060320029116817D0014316E00038024051
:1010D000FFFFF6EA103000240030002000004742F5
:1010E000800E47420000FFFF0024F400880000202B
:1010F000FFFCFF0F00104742814311607047194AFF
:101100000029116801D0014300E08143116070475C
:1011100014490C310128086803D020F00800086049
:10112000704740F00800FAE70E4A573A0029117854
:1011300001D0014300E0814311707047094810302D
:10114000016841F08071016070470146054A002046
:10115000583A12680A4200D00120704701495639B6
:10116000087070476438024010B501218C03204696
:10117000FFF77DFF2046BDE810400021FFF777BF55
:1011800014490860704714490862704710B58A070F
:1011900021F003041149120F21440F23D1F808480C
:1011A00093409C43C1F80848D1F808389040034365
:1011B000C1F8083810BD0849C1F8DC00704708497B
:1011C000086070470349002020310968C90500D52F
:1011D00001207047003801400000274200300140E4
:1011E00000042742FE4910B5884206D10121084675
:1011F000FFF73DFF002101205BE0B0F1804F09D0F7
:10120000F84988420DD101210220FFF726FF002175
:10121000022070E001210846FFF71FFF0021012096
:1012200069E0F149884206D101210420FFF715FF4A
:10123000002104205FE0ED49884206D10121082009
:10124000FFF70BFF0021082055E0E949884206D14D
:1012500001211020FFF701FF002110204BE0E5499C
:10126000884206D101212020FFF7F7FE002120202F
:1012700041E0E149884206D101210220FFF7F7FE53
:101280000021022015E0DD49884202D101210C0431
:101290000AE0DB49884202D101214C0404E0D9492B
:1012A00088420AD101218C042046FFF7E0FE00218C
:1012B0002046BDE81040FFF7DABED349884206D188
:1012C00001214020FFF7C9FE0021402013E0CF4953
:1012D000884206D101218020FFF7BFFE0021802037
:1012E00009E0CB4988420AD1841501212046FFF745
:1012F000B4FE00212046BDE81040FFF7AEBE10BD91
:1013000030B50288B64CBC4DA0420DD0A8420BD0DF
:10131000B0F1804F08D0B34B984205D0B24B984201
:1013200002D0B24B984203D122F070034A881A438C
:10133000AF4B984206D0AF4B984203D022F4407393
:101340000A891A4302804A68C2620A880285A0425A
:1013500001D0A84201D1897A01860121818230BD64
:101360004FF0FF3141600021018001814180817295
:101370007047018582827047028822F070020A431A
:101380000280704741627047C1627047406A70478F
:10139000008D70470029018802D041F0020101E070
:1013A00021F00201018070470029018802D041F03C
:1013B000040101E021F00401018070470029018847
:1013C00002D041F0800101E021F0800101807047EE
:1013D000028822F00802028002880A4302807047D5
:1013E000028822F44072028002880A430280704719
:1013F0000029018802D041F0010101E021F0010142
:101400000180704730B5028C22F001020284028C08
:101410008388048B22F0020224F073050C882C438D
:101420008D8915434A882A436D4DA84202D0724DDA
:10143000A8420DD122F00805CA8923F440732A433B
:1014400022F004058A882A430D8A1D434B8A2B43C8
:101450008380048389684163028430BD70B5028C47
:1014600022F010020284028C8388048B0D8824F4FD
:10147000E6464FF6FF7404EA052535438E8922F0CF
:10148000200204EA061616434A8804EA021232438E
:10149000534EB04202D0584EB04215D122F08006D1
:1014A000CA8923F4406304EA0212324322F0400660
:1014B0008A8804EA021232430E8A04EA86061E4330
:1014C0004B8A04EA830333438380058389688163FD
:1014D000028470BD70B5028C22F480720284028C8A
:1014E0008388848B0D8824F0730425438E894FF6FE
:1014F000FF7422F4007204EA062616434A8804EABE
:1015000002223243364EB04202D03B4EB04215D199
:1015100022F40066CA8923F4405304EA02223243CB
:1015200022F480668A8804EA022232430E8A04EAA0
:1015300006161E434B8A04EA0313334383808583D4
:101540008968C163028470BD70B5028C22F4805238
:101550000284058C8288838B0C8823F4E6464FF640
:10156000FF7303EA0424344325F400568D8903EA0B
:10157000053535434E8803EA06362E43184DA842FA
:1015800002D01D4DA84205D122F480450A8A03EA03
:1015900082122A438280848389680164068470BD34
:1015A000002101804180818081608181C18101822F
:1015B0004182704730B50124058C00F118038C403E
:1015C000A543058431B308292CD0091FC1F34E006F
:1015D0001844016848F6FF731940016001681AE079
:1015E000000001400004004000080040000C0040E2
:1015F0000010004000140040000401400040014081
:10160000004401400048014000180040001C004018
:101610000020004006E04FF6FF7303EA0222114368
:10162000016030BD03EB510001684FF68F73194024
:1016300001600168F3E74163704781637047C163EC
:10164000704701647047028B22F070020A430283E4
:101650007047028B4FF6FF7322F4E04203EA012148
:10166000114301837047828B22F070020A43828308
:101670007047828B4FF6FF7322F4E04203EA0121A8
:10168000114381837047028B22F008020A430283D0
:101690007047028B4FF6FF7322F4006203EA0121C8
:1016A000114301837047828B22F008020A43828330
:1016B0007047828B4FF6FF7322F4006203EA012128
:1016C000114381837047028B22F004020A43028394
:1016D0007047028B4FF6FF7322F4806203EA012108
:1016E000114301837047828B22F004020A438283F4
:1016F0007047828B4FF6FF7322F4806203EA012168
:10170000114381837047028B22F080020A430283D7
:101710007047028B4FF6FF73C2F30E0203EA0121FA
:10172000114301837047828B22F080020A43828337
:101730007047828B4FF6FF73C2F30E0203EA01215A
:10174000114381837047028C22F002020A43028413
:101750007047028C22F008020A4302847047028C10
:101760004FF6FF7322F0200203EA011111430184B6
:101770007047028C4FF6FF7322F0800203EA0111DA
:10178000114301847047028C4FF6FF7322F40072FC
:1017900003EA0121114301847047028C4FF6FF7365
:1017A00022F4006203EA0121114301847047028C94
:1017B0004FF6FF7322F4005203EA01311143018412
:1017C000704710B50123048C8B409C430484038C28
:1017D0008A401343038410BD10B50423048C8B404E
:1017E0009C430484038C8A401343038410BD828B82
:1017F00022F440628283828B4FF6FF7303EA012159
:101800000A4382837047828B22F00C028283828B90
:101810000A4382837047028B22F440620283028B68
:101820004FF6FF7303EA01210A4302837047F0B5C4
:10183000048C24F010040484078B068C4FF6FF748C
:1018400004EA011527F4734704EA0331394304EA33
:1018500002220A4326F0A001294341F0100102832D
:101860000184F0BD028B22F00C020283028B0A433A
:10187000028370472DE9F0410C460E884988A28802
:10188000238905460EB3042E26D0082E2E8C4FF643
:10189000FF7028D026F480562E84AF8B2E8C00EA61
:1018A000022200EA013127F473473A4300EA033089
:1018B000104326F420420A4342F48051A88329842D
:1018C000E1882846BDE8F04191E700F062F9E1883F
:1018D0002846BDE8F041C5E7FFF7A9FFE1882846A3
:1018E000BDE8F04197E726F480762E84AF8B2E8CEE
:1018F00000EA012100EA0310104327F0F307384300
:1019000026F420620A4342F48071A8832984E18886
:101910002846BDE8F04176E70021018041800122A0
:101920008280C180018170472DE9F0410C4600267C
:1019300049880746012501B90226A288012A00D15B
:101940000225208823890028384610D0FFF76FFF32
:10195000E1883846FFF75FFF23892A46314638463B
:1019600000F017F9E1883846BDE8F0417AE700F069
:1019700010F9E1883846FFF775FF23892A4631467A
:101980003846FFF754FFE1883846BDE8F04142E7AA
:10199000406B7047806B7047C06B7047006C70473E
:1019A00010B50A884B88CC881A438B8823431A4386
:1019B0000B891A434B8989891A430A43A0F84420AA
:1019C00010BD0021018041808180C1800181418161
:1019D00081817047002930F8441F02D041F4004152
:1019E00001E0C1F30E01018070470029818802D017
:1019F00041F0040101E021F00401818070470029D9
:101A0000818802D041F0010101E021F001018180D3
:101A10007047002A828901D00A4300E08A4382810C
:101A200070478182704702460020128A0A4200D025
:101A300001207047C9430182704702460020138A83
:101A400092890B4202EA010202D0002A00D0012052
:101A50007047C943018270471143A0F8481070478E
:101A6000002A828901D00A4300E08A4382817047BC
:101A70000029818802D041F0080101E021F008012D
:101A800081807047018921F0070101817047028937
:101A900022F070020A430281704700B50346FFF747
:101AA000F6FF188940F00700188100BD70B5164692
:101AB0000D46602904464FF0010231460AD000F07D
:101AC00068F829462046FFF7E2FF208940F007002A
:101AD000208170BDFFF7ABFEF3E730B504894FF608
:101AE000FF7505EA03231343E4B20B432343038149
:101AF00030BD10B50446FFF7F0FF208940F07700B5
:101B0000208110BD10B50446FFF7E7FF208940F49F
:101B10008040208110BD828822F0700282808288FD
:101B20000A4382807047028922F0070202810289FB
:101B30000A4302817047028922F0800202810289F1
:101B40000A430281704770B50589048B068C25F025
:101B500007050D434FF6FC410C4040F201110C43C8
:101B60004FF6FF7101EA031126F0220611433143BB
:101B700005810483018470BD0029818802D041F071
:101B8000800101E021F0800181807047A0F85010B1
:101B9000704770B5048C24F001040484058B048C18
:101BA0004FF6FF7606EA0313134325F0F3052B43A4
:101BB00024F00A020A4342F001010383018470BD4C
:101BC000CD4910B5884206D101211020FFF74FFA08
:101BD0000021102020E0C949884202D101214C0493
:101BE00029E0C749884202D101218C0423E0C5497C
:101BF000884202D10121CC041DE0C349884202D1B0
:101C000001210C0517E0C149884209D1012120209A
:101C1000FFF72DFA00212020BDE81040FFF727BA7A
:101C2000BB49884202D101218C0704E0B9498842AE
:101C30000AD1012144052046FFF70FFA2046BDE8EE
:101C400010400021FFF709BA10BD7FB50446008A95
:101C50000D46C98820F4405001432182A08941F2F9
:101C60000C618843A9882A8911436A890243114378
:101C7000A181A08A20F44071A8890843A082684607
:101C8000FFF706F99C48844202D0A048844201D163
:101C9000039800E00298A189090400EBC00101EB60
:101CA0000010296801D5490000E08900B0FBF1F07F
:101CB0006422B0FBF2F109010B096FF018056B43C8
:101CC00000EB8300A3891D044FF0320306D503EB1C
:101CD000C000B0FBF2F000F0070005E003EB0010DD
:101CE000B0FBF2F000F00F00084320817FBD4FF4FD
:101CF0001651016000218180C18001810C22428146
:101D00008181704710B5028A4C8822F470630A887A
:101D100022438C88C9880C4322431A43028210BD97
:101D20000021018041808180C18070470029818924
:101D300002D041F4005101E021F40051818170474B
:101D4000028B02F47F420283028B0A4302837047B4
:101D50000029818902D041F4004101E0C1F30E0164
:101D6000818170470029818A02D041F4006101E03D
:101D700021F4006181827047C1F3080181807047BE
:101D80008088C0F308007047028A22F00F020282A6
:101D9000028A0A43028270470029818902D041F0F9
:101DA000020101E021F0020181817047828922F461
:101DB0000062828182890A4382817047028A22F00E
:101DC00020020282028A0A43028270470029018AA5
:101DD00002D041F4804101E021F48041018270474A
:101DE000818941F00101818170470029818A02D0F7
:101DF00041F0080101E021F0080181827047028B67
:101E0000D2B20283028B42EA01210183704700298A
:101E1000818A02D041F0200101E021F0200181827D
:101E200070470029818A02D041F0100101E021F0C1
:101E3000100181827047828A22F004028282828AA3
:101E40000A43828270470029818A02D041F0020150
:101E500001E021F0020181827047002A828A01D0CC
:101E60000A4300E08A438282704710B5C1F34213EF
:101E700001F01F040121A140012B07D0022B07D044
:101E80001430002A026805D00A4304E00C30F8E759
:101E90001030F6E78A43026010BD02460020128827
:101EA0000A4200D001207047C9430180704770B5D5
:101EB00001F01F0501260024C1F3421306FA05F2C2
:101EC000012B0FD0022B0FD0838A4FEA11210088FB
:101ED000134206FA01F600EA060001D000B101241F
:101EE000204670BD8389F0E7038AEEE70A0A0121E4
:101EF0009140C943018070470010014000440040F8
:101F000000480040004C00400050004000140140D8
:101F100000780040007C004010B504466FF00400DB
:101F2000FEF75AFD2949E00800EB40020870C2EBB9
:101F3000C0104FF6FF7202EAC000488010BD23496E
:101F4000097848434FF0E021486100238B6108691C
:101F500040F0010008610869C20701D0C003FAD54A
:101F6000086920F0010008618B61704717494988B2
:101F700048434FF0E021486100238B61086940F03D
:101F8000010008610869C20701D0C003FAD50869D9
:101F900020F0010008618B61704770B54FF407763F
:101FA000B0FBF6F1CCB2B0FBF6F106FB110504E094
:101FB0003046FFF7DBFF641EE4B2002CF8D1002DA1
:101FC00003D02846BDE87040D0E770BD98000020DF
:101FD00010B54FF48071A048FEF73DFE012800D0F7
:101FE000002010BDF0B59E4D9C4C002395F901706A
:101FF0000A2624F8170004EB47007F1CC182828563
:1020000097FBF6F006FB10706870184634F9101054
:10201000401CC0B20B440A28F8D393FBF6F002B27E
:102020000021A282084604EB4003401CB3F916309D
:10203000C0B219440A28F6D391FBF6F003B200218E
:102040006385084604EB4007401CB7F92C70C0B20A
:1020500039440A28F6D391FBF6F000B2A4F8400008
:10206000297800291DD0B5F90E108A4200DAEA81DC
:10207000B5F910108B4200DA2B82B5F912108842A4
:1020800000DA6882B5F908108A4200DD2A81B5F9C4
:102090000A108B4200DD6B81B5F90C10884200DD1F
:1020A000A881F0BD7CB500238DF8053014460D469F
:1020B00006468DF8043000936B46062203213C202F
:1020C00002F044FFBDF8020040BA02B2BDF80400BD
:1020D00040BA01B2BDF8000040BA00B2FFF782FF7B
:1020E0005E48818A3180418D2980B0F8400020808F
:1020F0007CBD7CB500246D462A1D6846A91CFFF7EF
:10210000D1FFC820FFF71BFF641CE4B2322CF3D3CD
:102110007CBD0A4601463C2002F06EBF4F4B10B515
:102120009C8A0480588D0880B3F84000108010BD50
:102130003EB5044602AA01A96846FFF7B3FF484925
:10214000BDF90000B1F90220D1ED050A801A00EEB8
:10215000100AB8EEC00A20EE200A81ED080A84EDCC
:10216000000ABDF90400B1F90420D1ED060A801A75
:1021700000EE100AB8EEC00A20EE200A81ED090A2E
:1021800084ED010ABDF90800B1F90620D1ED070A76
:10219000801A00EE100AB8EEC00A20EE200A81ED87
:1021A0000A0A84ED020A3EBD072803D84007010E43
:1021B0000120AEE7704710B5022808D8014602207A
:1021C000FFF7A7FFBDE810406420FFF7B8BE10BDC1
:1021D00010B510B10020FFF7EEFF70210020FFF7CF
:1021E00098FFA0210120FFF794FF0021BDE81040D7
:1021F00002208EE7062803D88006010E002088E71B
:10220000704710B504460A213C2002F080FE207081
:102210000B213C2002F07BFE60700C213C2002F080
:1022200076FEA07010BD10B50020FFF7D1FF002092
:10223000FFF7C1FF0620FFF7DDFFBDE8104058E7BC
:102240000748012101700021018141818181C18103
:10225000018241827047000000080240940500207E
:102260009C000020F6EE000A0CB560EE200A10EE8D
:10227000100ACDED000A8DED010AFE49B0EE600AAC
:10228000A1EB600000EE900A01EE100A019060EEF2
:10229000200AB7EE080A00EEC10A00EE900A20EE0E
:1022A000200A8DED010A0CBD2DE9FC41012102201F
:1022B000FEF783FE01258DF804500226C0208DF81C
:1022C00005600024EC4F00908DF806408DF8074023
:1022D00069463846FEF76EFC01210220FEF76DFECE
:1022E0008DF8044068028DF8056000908DF8064076
:1022F0008DF8075069463846FEF75CFC02F010FC8A
:10230000FFF791FF1420FFF748FEBDE8FC8170B590
:1023100086B005460DF1120004A902AECDE9001009
:102320003046B11C321DB31D02F0A8FBD348002477
:1023300036F8141020F81410641CE4B2062CF7D3FD
:1023400000219FEDCF2ACF4ADFEDCF1A02F11C0307
:10235000DFEDCE0A01E0032914D236F9110005EBB6
:10236000810400EE100A02EB8100B8EEC00A90ED85
:10237000001A20EE020A01EE210A84ED000A80ED27
:10238000000A11E036F9110000EE100A03EB81009B
:10239000B8EEC00A10ED031A05EB810030EE410AD9
:1023A00080EE201A80ED001A491CC9B20629D2D34A
:1023B00005F11800FFF7BCFE06B070BD10EE100A64
:1023C00010B520F00040C0F1FF40C00F02D09FEDDB
:1023D000B00A10BD10EE100AB0F17E5F02DB9FED77
:1023E000AD0A10BD10EE100A10F1814F02D39FED1F
:1023F000AA0A10BD10EE100A03F064FE41EC100BA7
:1024000004F066F851EC100B03F088FE00EE100AA1
:1024100010BD2DE9F041F0EE415A2DED0A0BB0EE62
:10242000606AF0EE406A2DED108B84B09FED9B8AC0
:102430009B4C94ED1A0AD4ED1A0A20EE20FA94ED82
:102440001A0AD4ED1B0A20EE20EA94ED1A0AD4ED04
:102450001C0A20EE20DA94ED1A0AD4ED1D0A20EEB3
:10246000200A8DED030A94ED1B0AD4ED1B0A20EE21
:1024700020CA94ED1B0AD4ED1C0A60EE20FA94EDFC
:102480001B0AD4ED1D0A60EE20CA94ED1C0AD4ED9F
:102490001C0A20EE20AA94ED1C0AD4ED1D0A60EE61
:1024A00020DA94ED1D0AD4ED1D0A60EE20AA9FEDFE
:1024B0007D5ADFED7D4A21EEA10A02EE020A02EE0C
:1024C000A20AFFF7CFFE61EE800A60EE880ACDED2A
:1024D000170A62EE000A22EE800A60EE880A20EEF9
:1024E000080ACDED180A8DED190A23EE030A03EE52
:1024F000A30A04EE040AFFF7B5FE63EE000A04F136
:1025000080056048CDED1A0A63EE800A24EE000AC9
:10251000A838CDED1B0A8DED1C0A94ED1E0AD4EDF2
:102520001D1A94ED1B4A76EEC09A94ED1F0A64EED4
:10253000083A36EE409A95ED000A75EEC08A94EDA1
:102540001C0A28EE401A94ED1D0A20EE082A94ED8C
:102550001A0A28EE403A94ED1A0A65EE000A94ED44
:102560001C0A44EEC00A94ED1B0A25EE000A04EE94
:10257000A10AD4ED1C1A61EEC52AD4ED1A1A44EE54
:10258000E12AD4ED1B1A64EEA11AD4ED1D4A80EDA8
:10259000001A80ED012A80ED023AC0ED033AC0ED49
:1025A000073AB1EE433A80ED083A80ED092AF1EEA0
:1025B000413AC0ED0A3A80ED0E3A24EE483A45EE33
:1025C000641A80ED0F3A80ED101A80ED112AC0EDEB
:1025D000150A80ED160AC0ED172AC0ED181AC0EDD5
:1025E0001C1AB1EE621A80ED1D1A80ED1E0AB1EEC2
:1025F000602A80ED1F2A80ED231AB1EE611A80ED6A
:10260000241AC0ED250A80ED260A94ED1B0AD4EDAC
:102610001C0A29EEC00A00EEC90AD4ED1D0A00EE1C
:10262000E80A10EE100A03F04DFD95ED041B53EC83
:10263000112B03F029FC94ED1A0A41EC1B0B10EE50
:10264000100A03F03FFD53EC1B2B03F076FB03F065
:1026500065FD00EE100A84ED1A0A94ED1A0AD4ED15
:102660001C0A20EE290A00EEA80AD4ED1D0A00EE8D
:10267000C90A1BE0DF59375F0004024054120020F2
:10268000CDCCCC3E800600209A99193F333383414C
:1026900000000000DB0FC93FDB0FC9BFB2CB1C41FC
:1026A000C8000020CDCC0C3F1DC9553F10EE100ACC
:1026B00003F008FD95ED041B53EC112B03F0E4FB34
:1026C00094ED1B0A41EC1B0B10EE100A03F0FAFC10
:1026D00053EC1B2B03F031FB03F020FD00EE100A3E
:1026E00084ED1B0A94ED1A0AD4ED1B0A20EE090AA8
:1026F00000EEE80AD4ED1D0A00EEA90A10EE100A59
:1027000003F0E0FC95ED041B53EC112B03F0BCFB34
:1027100094ED1C0A41EC1B0B10EE100A03F0D2FCE6
:1027200053EC1B2B03F009FB03F0F8FC00EE100A3E
:1027300084ED1C0A94ED1A0AD4ED1B0A20EE280A37
:1027400000EE890AD4ED1C0A00EEE90A10EE100A28
:1027500003F0B8FC95ED041B53EC112B03F094FB34
:1027600094ED1D0A41EC1B0B10EE100A03F0AAFCBD
:1027700053EC1B2B03F0E1FA03F0D0FC00EE100A3F
:1027800084ED1D0A94ED1A0AD4ED1A0A94ED1B1A71
:1027900020EE200AD4ED1B0A00EE810A94ED1C1AEB
:1027A000D4ED1C0A01EE200AD4ED1D0A94ED1D1A89
:1027B00000EE810AFFF756FDD4ED1A0A60EE800A9A
:1027C000C4ED1A0AD4ED1B0A60EE800AC4ED1B0AA0
:1027D000D4ED1C0A60EE800AC4ED1C0AD4ED1D0A7B
:1027E00020EE800A84ED1D0AB7EE000AFE4EF1EEDF
:1027F00069EA1EEE900A86ED000A86ED080A86ED6B
:10280000100A86ED180A86ED200A86ED280A86ED64
:10281000300A03F057FC95ED041B53EC112B03F029
:1028200033FB03F07BFCF1EE68BA70601BEE900A9C
:1028300003F048FC95ED041B53EC112B03F024FB33
:1028400003F06CFCB0601BEE900A03F03BFC95EDCE
:10285000041B53EC112B03F017FB03F05FFC1FED7F
:1028600074BAF06086ED04BA86ED05BA86ED06BA54
:1028700019EE900A03F026FC95ED041B53EC112B86
:1028800003F002FB03F04AFCF06118EE900A03F03B
:1028900019FC95ED041B53EC112B03F0F5FA03F032
:1028A0003DFCB1EE490A706210EE100A03F00AFC1A
:1028B00095ED041B53EC112B03F0E6FA03F02EFC0C
:1028C000B06286ED0BBA86ED0CBA86ED0DBA19EE44
:1028D000100A03F0F7FB95ED041B53EC112B03F0EA
:1028E000D3FA03F01BFCB0631BEE900A03F0EAFB83
:1028F00095ED041B53EC112B03F0C6FA03F00EFC0C
:10290000F06319EE900A03F0DDFB95ED041B53EC28
:10291000112B03F0B9FA03F001FC706486ED12BAD2
:1029200086ED13BA86ED14BA18EE900A03F0CAFBCE
:1029300095ED041B53EC112B03F0A6FA03F0EEFB0C
:10294000706519EE100A03F0BDFB95ED041B53EC06
:10295000112B03F099FA03F0E1FBB0651EEE900A2B
:1029600003F0B0FB95ED041B53EC112B03F08CFA34
:1029700003F0D4FBF06586ED19BA86ED1ABA86ED40
:102980001BBA86ED1CBA86ED1DBA86ED1EBA86ED21
:102990001FBA86ED21BA86ED22BA86ED23BA86EDFE
:1029A00024BA86ED25BA86ED26BA86ED27BA86EDDD
:1029B00029BA86ED2ABA86ED2BBA86ED2CBA86EDB9
:1029C0002DBA86ED2EBA86ED2FBAA6F5E76007265A
:1029D0000096CDE9016004F1A003324631468248F9
:1029E00002F0C2FE0722814B11467F4802F0EAFE48
:1029F0007F480096CDE9016007227C4B1146C43820
:102A000002F0B2FE784A0723E03204F5B27178484A
:102A1000009602F06FFE754B0722A83B0621A3F536
:102A2000A36002F0CFFE72480627C4300096CDE9BD
:102A3000017000F530730722114600F5D26002F0F4
:102A400093FE6C480096CDE90170A0F1A80307221F
:102A50000621A0F5407002F087FE664A06239032F8
:102A600004F50A716348009702F044FE624B0621A8
:102A7000A3F59072A2F21C6003F066F85E4B06228A
:102A8000903B1146A3F1900002F09CFE5A4800973B
:102A90009030CDE901700622574B1146A0F5D87051
:102AA00002F062FE55480097CDE90170A0F5D87399
:102AB00006221146903802F057FEB0EE4B0A06216E
:102AC0004E4802F038FF49480097C430CDE9017004
:102AD0004A4B06220721A0F22C4002F045FE3CEEB4
:102AE000CD0A7EEE2DDAF0EE000A20EE201A6DEE11
:102AF000A00A61EE08EA20EE88EA7FEE4C0A70EE4A
:102B0000CA0A70EEAA0A20EE88FADFED3D0A20EE2E
:102B1000800A10EE100A03F0D5FA41EC190B1AEEF8
:102B2000900A03F0CFFA41EC180B1AEE100A03F0EA
:102B3000C9FA9FED34BB53EC1B2B03F0A2F953EC05
:102B4000182B03F09BF941EC100B9FED311BDFEDCF
:102B50002FAA53EC102B51EC110B03F095F953EC09
:102B6000192B03F0EAF803F0D9FA9DED030A09EEF8
:102B7000100A1AEE100A3FEEC00A6AEE809A9FED24
:102B8000200A40EE2D9A03F09DFA41EC180B1CEE42
:102B9000100A03F097FA53EC1B2B03F072F953EC75
:102BA000182B03F06BF941EC100B9FED1B1B53EC42
:102BB000102B51EC110B03F067F93DEE2C0A41ECA0
:102BC000180B2AEE800A10EE100A03F07BFA53EC81
:102BD000182B03F0B2F803F0A1FADDED170A00EEAE
:102BE000100A70EEEE0A1BE0E00D0020980B0020AA
:102BF0006C070020D8080020A4100020C411002079
:102C00001DC9D53F000000000000E03FCDCC8C3F47
:102C1000000000A09999F13F000000A023B9FA3FFD
:102C20009DED181ADDED191A9DED1A2ADDED1B2A0E
:102C30009DED1C3A31EE4E1A71EECF1A32EE492A52
:102C400072EEE92A33EE400AFE48012100F1DC0869
:102C500080ED050A0346C0EC050A0622A0F5B67011
:102C6000CDE90071CDF80880072102F07DFD98EDD7
:102C7000000AD4ED1A0AA8F58F60A0F2544330EE92
:102C8000200A0622072184ED1A0A98ED010AD4EDE4
:102C90001B0A30EE200A84ED1B0A98ED020AD4EDDF
:102CA0001C0A30EE200A84ED1C0A98ED030AD4EDCC
:102CB0001D0A30EE200A84ED1D0A98ED040AD4EDB9
:102CC0001E0A30EE200A84ED1E0A98ED050AD4EDA6
:102CD0001F0A30EE200A84ED1F0A98ED060AD5ED92
:102CE000000A30EE200A85ED000A0097CDE9016068
:102CF00000F50C7002F038FDA8F5D0720723A2F59C
:102D0000367104F52E70009602F011FD04F1A0005A
:102D10000096CDE9016008F11C0307221146A3F5D6
:102D2000DE7002F021FD94ED1A0AD4ED1A0A94ED3A
:102D30001B1A20EE200AD4ED1B0A00EE810AD4ED06
:102D40001C0A94ED1C1A00EE810AD4ED1D0A94EDC4
:102D50001D1A00EE810AFFF785FAD4ED1A0A60EE1B
:102D6000800AC4ED1A0AD4ED1B0A60EE800AC4ED95
:102D70001B0AD4ED1C0A60EE800AC4ED1C0AD4EDD7
:102D80001D0A20EE800A84ED1D0A04B0BDEC108BF4
:102D90000AB0BDE8F08110B5D1ED050A04469FEDFB
:102DA000AA0A60EE800ADFEDA91A91ED084AD1ED7A
:102DB000073A80EEA11AD1ED040A91ED063AD1ED61
:102DC000022A20EE802AC2EE210A91ED032A22EE89
:102DD000002A82EE210A91ED012AD1ED001AFFF7B7
:102DE00018FB9B4890ED1A0A84ED000A90ED1B0A2F
:102DF00084ED010A90ED1C0A84ED020A90ED1D0A93
:102E000084ED030A10BD30B504462DED088B85B066
:102E100068469049FFF7BFFF9DED019ADDED029AEC
:102E2000F7EE00AA69EE090AB0EE00AAB0EE6A0A4F
:102E300049EEA90A00EECA0A10EE100A03F042F9A0
:102E40009DED000ADDED030A41EC180B20EE090AA6
:102E500009EEA00A20EE0A0A10EE100A03F032F979
:102E600041EC100BB0EE481AF0EE681A03F04CFE7D
:102E70009FED799B51EC100B53EC192B03F004F8E8
:102E80009FED771B53EC112B03F070F803F046F91C
:102E900000EE100A6E4D84ED000A85ED180A9DEDD6
:102EA000000ADDED020A9DED011A20EE200ADDED9B
:102EB000030A00EEC10A20EE0A0AFFF77FFADFEDEF
:102EC000630A60EE200A9FED681A80EE810A84EDA5
:102ED000010A85ED170A9DED02BAB8EE000ADDED94
:102EE00003BA2BEE000A6BEE8A0A20EE0B0A00EE04
:102EF000EB0A30EE2A0A10EE100A03F0E3F89DED1B
:102F0000010ADDED000A41EC180B20EE0A0A60EE22
:102F10008A0A20EE0B0A00EEAB0A10EE100A03F04C
:102F2000D1F841EC100BB0EE481AF0EE681A03F03D
:102F3000EBFD53EC192B51EC100B02F0A5FF9FEDAC
:102F40004B1B53EC112B03F011F803F0E7F800EEE4
:102F5000100A84ED020A85ED190A05B0BDEC088B54
:102F600030BD30B53A4C2DED060B2DED048B89B0FC
:102F700094ED130AD4ED130A20EE200A8DED020A17
:102F800094ED130AD4ED140A20EE200A8DED040A04
:102F900094ED130AD4ED150A20EE200A8DED070AF0
:102FA00094ED130AD4ED160A20EE200A8DED000AE6
:102FB00094ED140AD4ED140A20EE200A8DED030AD4
:102FC00094ED140AD4ED150A20EE200A8DED000AC6
:102FD00094ED140AD4ED160A20EE200A8DED060AAF
:102FE00094ED150AD4ED150A20EE200A8DED000AA5
:102FF00094ED150AD4ED160A20EE200A8DED050A8F
:1030000094ED160AD4ED160A20EE200A8DED080A7A
:103010009DED100ADDED110A20EE000A00EEA00A77
:10302000DDED120A00EEA00AFFF71CF98DED010A92
:103030009DED100ADDED010A20EE200A8DED100A4B
:1030400018E00000C80D0020DB0F494000003443A9
:10305000C8000020601200200000000000806640D0
:1030600000000060FB210940DB0F49C00000006048
:10307000FB2109C09DED110A04F1800520EE200A14
:103080008DED110A9DED120A20EE200A8DED120A37
:103090009DED060ADDED070A70EE600AB0EE000A4B
:1030A00060EE800ACDED060ADDED040A9DED051AFD
:1030B00070EE810A20EE800A8DED040A9DED020A71
:1030C000DDED030A30EE600ADDED000A30EE600A45
:1030D000DDED080A30EE200A8DED010A9DED110AA2
:1030E000DDED010A9DED041A20EE200ADDED120A45
:1030F00000EEC10A8DED000AB0EE600ADDED060AB1
:103100009DED011A20EE200ADDED100A00EEC10A45
:103110008DED010AB0EE600ADDED040A9DED061AA0
:1031200020EE200ADDED110A00EEC10A8DED020A43
:103130009DED000AB5EEC00AF1EE10FA7ED09DEDCD
:10314000010AB5EEC00AF1EE10FA77D09DED020A41
:10315000B5EEC00AF1EE10FA70D09DED000A9FEDB9
:10316000FE9A20EE090A10EE100A02F0ABFF95ED70
:10317000041B53EC112B02F087FE94ED0C0A41EC7A
:10318000180B10EE100A02F09DFF53EC182B02F002
:10319000D4FD02F0C3FF00EE100A84ED0C0A9DED91
:1031A000010A20EE090A10EE100A02F08BFF95EDDD
:1031B000041B53EC112B02F067FE94ED0D0A41EC59
:1031C000180B10EE100A02F07DFF53EC182B02F0E2
:1031D000B4FD02F0A3FF00EE100A84ED0D0A9DED90
:1031E000020A20EE090A10EE100A02F06BFF95EDBC
:1031F000041B53EC112B02F047FE94ED0E0A41EC38
:10320000180B10EE100A02F05DFF53EC182B02F0C1
:1032100094FD02F083FF00EE100A84ED0E0A9DED8E
:103220000D0ADDED000A30EE200AD4ED0C0A30EE76
:10323000200A8DED0D0A9DED0E0A00E015E0DDED92
:10324000010A30EE200AD4ED0D0A30EE200A8DED91
:103250000E0A9DED0F0ADDED020A30EE200AD4EDD4
:103260000E0A30EE200A8DED0F0A94ED140ADDED02
:103270000D0A9DED0E1A20EEC00AD4ED150A00EEDF
:10328000C10AD4ED160A9DED0F1A00EEC10A10EE28
:10329000100A02F017FF95ED041B53EC112B02F0FE
:1032A000F3FD94ED130A41EC180B10EE100A02F036
:1032B00009FF53EC182B02F040FD02F02FFF06909F
:1032C00094ED130ADDED0D0A9DED0F1A20EE200A94
:1032D000D4ED150A00EE810AD4ED160A9DED0E1A02
:1032E00000EEC10A10EE100A02F0ECFE95ED041B90
:1032F00053EC112B02F0C8FD94ED140A41EC180BAD
:1033000010EE100A02F0DEFE53EC182B02F015FD51
:1033100002F004FF049094ED130ADDED0E0A9DED1A
:103320000F1A20EE200AD4ED140A00EEC10AD4EDE3
:10333000160A9DED0D1A00EE810A10EE100A02F039
:10334000C1FE95ED041B53EC112B02F09DFD94ED95
:10335000150A41EC180B10EE100A02F0B3FE53EC04
:10336000182B02F0EAFC02F0D9FE029094ED130A49
:10337000DDED0F0A9DED0E1A20EE200AD4ED140AA1
:1033800000EE810AD4ED150A9DED0D1A00EEC10A7A
:1033900010EE100A02F096FE95ED041B53EC112B73
:1033A00002F072FD94ED160A41EC180B10EE100AB3
:1033B00002F088FE53EC182B02F0BFFC02F0AEFEC8
:1033C00000909DED060ADDED040A01EE100A20EEE4
:1033D000000A00EEA00ADDED020A00EEA00A00EEEF
:1033E000900A00EE810AFEF73DFF8DED010A9DED8A
:1033F000060ADDED010A20EE200A84ED130A9DED98
:10340000040A20EE200A84ED140A9DED020A20EE43
:10341000200A84ED150A9DED000A20EE200A84EDB5
:10342000160A09B0BDEC048B06B030BD30B54B4C6C
:103430002DED0A0B2DED108B87B094ED0F0AD4ED16
:103440000F0A60EE20FA94ED0F0AD4ED100A60EE38
:1034500020AA94ED0F0AD4ED110A20EE20AA94EDD3
:103460000F0AD4ED120A20EE20FA94ED100AD4EDE2
:10347000100A60EE20EA94ED100AD4ED110A20EE55
:1034800020EA94ED100AD4ED120A60EE209A94ED31
:10349000110AD4ED110A20EE209A94ED110AD4ED10
:1034A000120A60EE208A94ED120AD4ED120A20EE80
:1034B000208A9DED1A0ADDED1B0A20EE000A00EEBF
:1034C000A00ADDED1C0A00EEA00A10EE100A02F0C0
:1034D000F9FD41EC100B04F0FFFA51EC100B02F077
:1034E0001DFE00EE100ADFED1E0A009020EE200AFD
:1034F000DFED1C0A20EE200A8DED000AD4ED000A53
:1035000030EE600A10EE100A02F0DCFD04F18005D6
:103510009FED15DB95ED040B41EC1C0B53EC1D2BC3
:1035200051EC100B02F0B0FC9FED111B53EC112B72
:1035300002F003FC95ED040B41EC1B0B53EC1D2B2F
:1035400051EC100B02F0A0FC53EC1B2B02F00EFD13
:1035500053EC1C2B10E00000CDCC4C3EC8000020EA
:1035600000008038CDCC1C4100000000000000406D
:1035700000000060204C803F02F086FC94ED000AC1
:1035800041EC1B0B10EE100A02F09CFD53EC1B2BC0
:1035900002F0D3FB02F0C2FD00EE100A84ED000A37
:1035A0009DED1A0ADDED1B0A20EE000A00EEA00ACE
:1035B000DDED1C0A00EEA00AFEF754FE8DED010AB7
:1035C0009DED1A0ADDED010A20EE200A8DED1A0AA2
:1035D0009DED1B0A20EE200A8DED1B0A9DED1C0AB5
:1035E00020EE200A8DED1C0A9DED1D0ADDED1E0A60
:1035F00020EE000A00EEA00ADDED1F0A00EEA00A90
:10360000FEF730FE8DED010A9DED1D0ADDED010A8C
:10361000F6EE002AB0EE00BA20EE200A3EEE4FCAC7
:1036200039EE8A2A8DED1D0A9DED1E0A79EECABA81
:1036300020EE200A8DED1E0A9DED1F0A20EE200AC5
:1036400072EEC90A8DED1F0A9DED1D0A70EEC8CA03
:10365000DDED1E0A20EE0B0A20EE8B1ADDED1F0AAF
:1036600060EE2C1A60EE8B0A41EE0C1A40EE821AC4
:10367000CDED001A7EEE0F1A20EE212A72EEEE1A20
:1036800020EE2B0A71EEC82A31EEC9DA01EE222AA9
:1036900078EEEA2A00EEA22A8DED012A38EEAA2A57
:1036A00001EE020A00EE8D0A8DED020A9DED000A80
:1036B000DDED010A20EE000A00EEA00A10EE100A6D
:1036C00002F000FD41EC100B04F006FA51EC100B77
:1036D00002F024FD00909DED020A3AEEA81A8DED4D
:1036E000040A2BEE8B0A8DED020A21EE0B0A8DEDFA
:1036F000030A3FEEEE0A30EE490A30EE080A8DED7D
:10370000010A00EE100ADDED040A20EE0B0A60EE5D
:103710008B0A60EE2C1A40EEAB1ACDED041A60EE67
:103720000C1A40EE811A3AEE291A20EE010ACDED6C
:10373000051A00EE8D0A8DED060A9DED1B0ADDEDE2
:10374000010A9DED031A60EE200A9DED1C0A40EE71
:10375000410A9DED1E0A9DED061A20EE010A9DED1F
:103760001F1A01EE610A30EE800A8DED000A9DED10
:103770001C0ADDED020A9DED011ADDED061A20EEB0
:10378000200ADDED1A0A00EEC10ADDED1F0A9DEDEB
:10379000041A60EE810A9DED1D1A41EE610A30EEB9
:1037A000200A8DED010A9DED1A0ADDED030A9DED5B
:1037B000021ADDED041A20EE200ADDED1B0A00EEF0
:1037C000C10ADDED1D0A9DED051A60EE810A9DED31
:1037D0001E1A41EE610A30EE200A8DED020A9DEDBF
:1037E000000AB5EEC00AF1EE10FA7CD09DED010A98
:1037F000B5EEC00AF1EE10FA75D09DED020AB5EEF5
:10380000C00AF1EE10FA6ED09DED000A9FEDFE9A0F
:1038100020EE090A10EE100A02F054FC95ED041B8C
:1038200053EC112B02F030FB94ED090A41EC180B1C
:1038300010EE100A02F046FC53EC182B02F07DFA51
:1038400002F06CFC00EE100A84ED090A9DED010AFD
:1038500020EE090A10EE100A02F034FC95ED041B6C
:1038600053EC112B02F010FB94ED0A0A41EC180BFB
:1038700010EE100A02F026FC53EC182B02F05DFA51
:1038800002F04CFC00EE100A84ED0A0A9DED020ADB
:1038900020EE090A10EE100A02F014FC95ED041B4C
:1038A00053EC112B02F0F0FA94ED0B0A41EC180BDB
:1038B00010EE100A02F006FC53EC182B02F03DFA51
:1038C00002F02CFC00EE100A84ED0B0AD4ED090A7C
:1038D0009DED001AB0EE080A41EE000A9DED171AA0
:1038E00070EE810A00E019E0CDED170AD4ED0A0A66
:1038F0009DED011A41EE000A9DED181A70EE810A45
:10390000CDED180AD4ED0B0A9DED021A41EE000A26
:103910009DED190A30EE800A8DED190A94ED100A1A
:10392000DDED170A9DED181A20EEC00AD4ED110A3C
:1039300000EEC10AD4ED120A9DED191A00EEC10A7B
:1039400010EE100A02F0BEFB95ED041B53EC112B98
:1039500002F09AFA94ED0F0A41EC180B10EE100ADF
:1039600002F0B0FB53EC182B02F0E7F902F0D6FBA3
:10397000069094ED0F0ADDED170A9DED191A20EE61
:10398000200AD4ED110A00EE810AD4ED120A9DED51
:10399000181A00EEC10A10EE100A02F093FB95ED22
:1039A000041B53EC112B02F06FFA94ED100A41EC5A
:1039B000180B10EE100A02F085FB53EC182B02F0E6
:1039C000BCF902F0ABFB049094ED0F0ADDED180A90
:1039D0009DED191A20EE200AD4ED100A00EEC10A5E
:1039E000D4ED120A9DED171A00EE810A10EE100AAE
:1039F00002F068FB95ED041B53EC112B02F044FA26
:103A000094ED110A41EC180B10EE100A02F05AFB6B
:103A100053EC182B02F091F902F080FB029094ED28
:103A20000F0ADDED190A9DED181A20EE200AD4EDDB
:103A3000100A00EE810AD4ED110A9DED171A00EE6E
:103A4000C10A10EE100A02F03DFB95ED041B53EC89
:103A5000112B02F019FA94ED120A41EC180B10EE3A
:103A6000100A02F02FFB53EC182B02F066F902F05B
:103A700055FB00909DED060ADDED040A01EE100AEB
:103A800020EE000A00EEA00ADDED020A00EEA00A18
:103A900000EE900A00EE810AFEF7E4FB8DED010ACC
:103AA0009DED060ADDED010A20EE200A84ED0F0AE5
:103AB0009DED040A20EE200A84ED100A9DED020A15
:103AC00020EE200A84ED110A9DED000A20EE200A66
:103AD00084ED120A07B0BDEC108B0AB030BD70B592
:103AE0000C462DED028B054691ED050A9FED478AA8
:103AF00020EE080ADFED468A91ED084AD1ED073A3B
:103B000080EE281A91ED040A91ED063AD4ED022ACE
:103B100020EE080A94ED012AC0EE280A91ED030A6E
:103B200060EE081A81EEA80AD4ED001AFFF77EFCB9
:103B300094ED050AD4ED022A94ED012A20EE080A3C
:103B400080EE281A94ED040A20EE080AC0EE280A36
:103B500094ED030A60EE081A81EEA80AD4ED001A6B
:103B6000FFF7FFF92B4890ED130A85ED000A90ED61
:103B7000140A85ED010A90ED150A85ED020A90ED13
:103B8000160A85ED030ABDEC028B70BD70B52249A3
:103B900005462DED088BA1F6D430FFF7A0FF1F4C92
:103BA000F7EE00AAB0EE00AA94ED019AD4ED029AC5
:103BB000B0EE6A0A69EE090A49EEA90A00EECA0ADD
:103BC00010EE100A02F07EFA94ED000AD4ED030A1A
:103BD00041EC180B20EE090A09EEA00A20EE0A0AB1
:103BE00010EE100A02F06EFA41EC100BB0EE481A1B
:103BF000F0EE681A02F088FF9FED099B51EC100B64
:103C000053EC192B10E000008FC2F53CDB0F49404C
:103C100000003443C8000020601200208C06002001
:103C2000000000000080664002F02EF99FEDFE1BB0
:103C300053EC112B02F09AF902F070FA00EE100A20
:103C4000FB4E85ED000A86ED180A94ED000AD4EDCE
:103C5000020A94ED011A20EE200AD4ED030A00EEC8
:103C6000C10A20EE0A0AFEF7A9FB5FED170A60EE13
:103C7000200A9FEDF01A80EE810A85ED010A86ED9B
:103C8000170A94ED02BAB8EE000AD4ED03BA2BEE8F
:103C9000000A6BEE8A0A20EE0B0A00EEEB0A30EE09
:103CA0002A0A10EE100A02F00DFA94ED010AD4ED82
:103CB000000A41EC180B20EE0A0A60EE8A0A20EE98
:103CC0000B0A00EEAB0A10EE100A02F0FBF941EC11
:103CD000100BB0EE481AF0EE681A02F015FF53EC24
:103CE000192B51EC100B02F0CFF89FEDD31B53ECC6
:103CF000112B02F03BF902F011FA00EE100A85EDEB
:103D0000020A86ED190ABDEC088B70BDB0EE002AE0
:103D100021EE021A9FEDCA2AF7EE002A21EE022AAE
:103D200082EE821A31EE212A81EE821A70EE601A3A
:103D3000B0EE600A01EE210A70472DE9F041044619
:103D40002DED0E8B0E46BF48B94DB94F90ED000AD0
:103D5000803585ED010A90ED010A85ED020A90EDAE
:103D6000020A0C3885ED030AB0F90610D7ED040AF3
:103D700000EE101AB0F90810B0F90A00B8EEC00A47
:103D800070EE608A00EE101AD7ED050AB8EEC00A90
:103D900030EE608A00EE100AD7ED060AB8EEC00ACF
:103DA00030EE609A95ED060B51EC100B02F0B6F96F
:103DB00001EE900AB2EE041AD7ED010AB0EE680ADD
:103DC000FFF7A4FF87ED010A95ED060B51EC100BF0
:103DD00002F0A4F901EE900AB2EE041AD7ED020A3D
:103DE000B0EE480AFFF792FF87ED020A95ED060B49
:103DF00051EC100B02F092F901EE900AB2EE041AA7
:103E0000D7ED030AB0EE490AFFF780FFB0EE40EAB3
:103E100087ED03EAD7ED010A9FED8B1A60EE811A58
:103E20009FED8A0AD6ED002A81EE802ADFED881AFE
:103E300010EE900AC8EE80DA02EEA12A86ED002A82
:103E4000D7ED02EA6EEE812A88EE00DA82EE802A51
:103E5000D6ED012A02EEA12A86ED012A2EEE012AD4
:103E600082EE001A96ED022A02EE211A86ED021A5F
:103E700002F028F995ED061B53EC112B02F004F823
:103E80009FED748B53EC182B01F0FEFF9FED739B9D
:103E900053EC192B02F06AF841EC1C0B206802F07D
:103EA00011F953EC1C2B01F048FF02F037F92060A8
:103EB0001EEE900A02F006F995ED061B53EC112B4D
:103EC00001F0E2FF53EC182B01F0DEFF53EC192B4D
:103ED00002F04CF841EC1C0B606802F0F3F853EC74
:103EE0001C2B01F02AFF02F019F960601EEE100A87
:103EF00002F0E8F895ED061B53EC112B01F0C4FF1E
:103F000053EC182B01F0C0FF53EC192B02F02EF8E4
:103F100041EC180BA06802F0D5F853EC182B01F017
:103F20000CFF02F0FBF8A06095ED060B9FED4D9B9A
:103F3000B0EE490AF0EE690A03F06AFDB0EE408A7D
:103F4000F0EE608A206802F0BDF853EC182B01F007
:103F50009BFF41EC180B606802F0B4F853EC182B8F
:103F600001F08CFF02F0DAF8606095ED060BB0EE20
:103F7000490AF0EE690A03F04BFDB0EE408AF0EE1C
:103F8000608A606802F09EF853EC182B01F07CFF09
:103F900041EC180B206802F095F853EC182B01F057
:103FA000CCFE02F0BBF8206095ED010A60EE000A3D
:103FB00095ED020A40EE000A95ED030A40EE000A74
:103FC00010EE900A02F07EF841EC100B03F084FD35
:103FD00051EC100B02F0A2F8D5ED018A08EE100AA0
:103FE00018EE900A02F06EF841EC100B01F0A1FE01
:103FF00000EE100AB8EEC00AB4EEC80AF1EE10FAEC
:104000003AD288EE880A10EE100A02F05BF841EC12
:10401000100B02F05DFA9FED151B51EC100B53ECE9
:10402000112B01F031FF25E000000060FB21094069
:10403000C8000020DB0F49C000000060FB2109C060
:10404000F90F4940601200209A99193E3333834199
:104050009A99593F0000000000409F400000000076
:10406000C0FFDF4000000000000000000000006012
:10407000E3A54CC041EC1B0BD5ED028A18EE900A6B
:1040800002F020F841EC100B01F053FE00EE100A94
:10409000B8EEC00AB4EEC80AF1EE10FA13D288EEF8
:1040A000880A10EE100A02F00DF841EC100B02F035
:1040B0000FFA9FEDFE1B51EC100B53EC112B01F08E
:1040C000E3FE41EC1A0B95ED060B51EC100B02F0E0
:1040D00025F808EE100A51EC1A0B02F01FF800EE5A
:1040E000100AB0EE481AF0EE6D0A01F00BFA10EE6D
:1040F000100A01F0E7FF95ED060B41EC180B51ECAF
:10410000100B02F00BF809EE100A51EC1B0B02F039
:1041100005F800EE100AB0EE491AF0EE4D0A01F073
:1041200050FA10EE100A01F0CDFF9FEDE2AB53EC18
:104130001A2B01F0A9FE41EC190B94ED010A9FED39
:10414000DFBA20EE0B0A10EE100A01F0BBFF53ECB1
:10415000192B01F0F2FD01F0E1FF606053EC1A2B26
:1041600051EC180B01F090FE94ED000A41EC180B95
:1041700020EE0B0A10EE100A01F0A4FF53EC182BEE
:1041800001F0DBFD01F0CAFF2060BDEC0E8BBDE845
:10419000F0812DE9F04781461E4617468846C848FB
:1041A000FEF7B5F8C7480068C74C2062206AE1698D
:1041B00004F180058842206AE1690AD2C9430844B3
:1041C00000EE100AB8EE400A10EE100A01F07AFF75
:1041D00002E0401A01F04AFF41EC100B85ED060B9E
:1041E0009FEDBA0B53EC102B95ED060B51EC100B19
:1041F00001F04AFE41EC100B85ED060B9FEDB50B6F
:1042000053EC102B95ED060B51EC100B01F03CFE1E
:1042100041EC100B85ED040B206AE06139464846FD
:10422000FFF78BFD4046FFF7B1FC3046BDE8F04795
:10423000FEF7E9BD30B5A44CF7EE000A2DED088B72
:1042400095B0C4ED0F0A9FEDA50A002584ED100A74
:1042500084ED110A84ED120AC4ED130A84ED140AE8
:1042600084ED150A84ED160A84ED090A84ED0A0A24
:1042700084ED0B0A84ED0C0A84ED0D0A84ED0E0A20
:104280000CA8FEF744F89DED0C0ADDED050A6D1C47
:10429000C82D30EE200A8DED050A9DED0D0ADDEDED
:1042A000030A30EE200A8DED030A9DED0E0ADDEDC6
:1042B000010A30EE200A8DED010A9DED120ADDEDB6
:1042C0000B0A30EE200A8DED0B0A9DED130ADDED91
:1042D000090A30EE200A8DED090A9DED140ADDED84
:1042E000070A30EE200A8DED070AC9DBDDED050A6D
:1042F0009FED7B0A80EE801A8DED051ADDED030A35
:1043000080EE801A8DED031ADDED010A80EE801A31
:104310008DED011ADDED0B0A80EE801A8DED0B1A82
:10432000DDED090A80EE801A8DED091ADDED070A30
:1043300080EE801A8DED071A9DED030ADDED010A6E
:1043400020EE000A00EEA00AFDF78CFFDDED050A65
:1043500020EE200A8DED000A10EE100A01F0B2FEE8
:1043600041EC100B02F064FA9FED5E8B51EC100BE8
:1043700053EC182B01F088FD01F0D0FE02909DED6A
:10438000050ADDED010A20EE000A00EEA00AFDF7A5
:1043900069FFDDED030A20EE200A8DED000A10EE24
:1043A000100A01F08FFE41EC100B02F041FA53ECC1
:1043B000182B51EC100B01F067FD01F0AFFE0090DF
:1043C00001F080FE41EC100B03F022FBB0EE408ABE
:1043D000F0EE608A079801F075FE53EC182B01F09F
:1043E00053FD41EC180B009801F06CFE41EC100BF2
:1043F00002F082FCB0EE409AF0EE609A099801F06B
:1044000061FE53EC192B01F03FFD53EC182B01F02A
:1044100094FC01F083FE0190029801F053FE41EC00
:10442000100B03F0F5FAB0EE408AF0EE608A0098C7
:1044300001F048FE41EC100B02F05EFCB0EE409A39
:10444000F0EE609A079801F03DFE53EC192B01F055
:104450001BFD53EC182B01F017FD41EC190B0298D2
:1044600001F030FE41EC100B03F0D2FAB0EE40AA9E
:10447000F0EE60AA009801F025FE41EC100B03F06D
:10448000C7FAB0EE408AF0EE608A099801F01AFE91
:1044900053EC182B01F0F8FC53EC1A2B01F0F4FC50
:1044A00041EC1A0B029801F00DFE1FE000000060C5
:1044B000E3A54C40000000A09999993F9A99793F53
:1044C00060120020240C0040C8000020000000A062
:1044D000F7C6B03E000000000000E03F0000000012
:1044E000000048436666666666A64C4041EC100BC9
:1044F00002F002FCB0EE408AF0EE608A0B9801F008
:10450000E1FD53EC182B01F0BFFC53EC1A2B01F02A
:1045100014FC53EC192B01F0B1FC01F0FFFD0390EA
:1045200001F0D0FD41EC180B019801F0CBFD41ECFE
:10453000100BB0EE481AF0EE681A02F0E5FA51ECF2
:10454000100B01F0EBFD00EE100AB6EE008A0190B0
:1045500020EE080A10EE100A01F0B4FD41EC100B39
:1045600003F056FAB0EE40AA9DED020AF0EE60AA02
:1045700020EE080A10EE100A01F0A4FD41EC100B29
:1045800003F046FAB0EE409A9DED000AF0EE609A14
:1045900020EE080A10EE100A01F094FD41EC100B19
:1045A00003F036FA53EC192B51EC100B01F06CFCB4
:1045B00053EC1A2B01F068FC9DED010A41EC1B0B3A
:1045C00020EE080A10EE100A01F07CFD41EC100B01
:1045D00002F092FBB0EE40AA9DED020AF0EE60AA56
:1045E00020EE080A10EE100A01F06CFD41EC100BF1
:1045F00002F082FBB0EE409A9DED000AF0EE609A68
:1046000020EE080A10EE100A01F05CFD41EC100BE0
:1046100002F072FB53EC192B51EC100B01F034FC3F
:1046200053EC1A2B01F030FC53EC1B2B01F085FBF3
:1046300001F074FD00EE100A84ED0F0A9DED010AF1
:1046400020EE080A10EE100A01F03CFD41EC100BC0
:1046500003F0DEF9B0EE40AA9DED020AF0EE60AA8A
:1046600020EE080A10EE100A01F02CFD41EC100BB0
:1046700003F0CEF9B0EE409A9DED000AF0EE609A9C
:1046800020EE080A10EE100A01F01CFD41EC100BA0
:1046900002F032FB53EC192B51EC100B01F0F4FB40
:1046A00053EC1A2B01F0F0FB9DED010A41EC1B0BC2
:1046B00020EE080A10EE100A01F004FD41EC100B88
:1046C00002F01AFBB0EE40AA9DED020AF0EE60AADD
:1046D00020EE080A10EE100A01F0F4FC41EC100B79
:1046E00002F00AFBB0EE409A9DED000AF0EE609AEF
:1046F00020EE080A10EE100A01F0E4FC41EC100B69
:1047000003F086F953EC192B51EC100B01F0BCFBB4
:1047100053EC1A2B01F0B8FB53EC1B2B01F0AEFB52
:1047200001F0FCFC00EE100A84ED100A9DED010A78
:1047300020EE080A10EE100A01F0C4FC41EC100B48
:1047400003F066F9B0EE40AA9DED020AF0EE60AA11
:1047500020EE080A10EE100A01F0B4FC41EC100B38
:1047600002F0CAFAB0EE409A9DED000AF0EE609AAF
:1047700020EE080A10EE100A01F0A4FC41EC100B28
:1047800003F046F953EC192B51EC100B01F07CFBB4
:1047900053EC1A2B01F078FB9DED010A41EC1B0B49
:1047A00020EE080A10EE100A01F08CFC41EC100B10
:1047B00002F0A2FAB0EE40AA9DED020AF0EE60AA65
:1047C00020EE080A10EE100A01F07CFC41EC100B00
:1047D00003F01EF9B0EE409A9DED000AF0EE609AEB
:1047E00020EE080A10EE100A01F06CFC41EC100BF0
:1047F00002F082FA53EC192B51EC100B01F044FB40
:1048000053EC1A2B01F040FB53EC1B2B01F095FAF3
:1048100001F084FC00EE100A84ED110A9DED010AFE
:1048200020EE080A10EE100A01F04CFC41EC100BCF
:1048300002F062FAB0EE40AA9DED020AF0EE60AA24
:1048400020EE080A10EE100A01F03CFC41EC100BBF
:1048500003F0DEF8B0EE409A9DED000AF0EE609AAB
:1048600020EE080A10EE100A01F02CFC41EC100BAF
:1048700003F0CEF853EC192B51EC100B01F004FBB4
:1048800053EC1A2B01F000FB9DED010A41EC1B0BD0
:1048900020EE080A10EE100A01F014FC41EC100B97
:1048A00003F0B6F8B0EE40AA9DED020AF0EE60AA61
:1048B00020EE080A10EE100A01F004FC41EC100B87
:1048C00002F01AFAB0EE409A9DED000AF0EE609AFE
:1048D00020EE080A10EE100A01F0F4FB41EC100B78
:1048E00002F00AFA53EC192B51EC100B01F0CCFA40
:1048F00053EC1A2B01F0C8FA53EC1B2B01F0BEFA53
:1049000001F00CFC00EE100A84ED120A15B0BDECAB
:10491000088B30BD0B489FED0A0A00F1800180ED45
:104920001E0A80ED1F0A81ED000AF7EE000AC0EDB5
:104930001A0A80ED1B0A80ED1C0A80ED1D0A7047E3
:1049400000000000C800002010B500231A4603E054
:1049500030F91240521C23448A42F9DB93FBF1F0F8
:1049600000B210BD08B50323009002226B21D020B5
:1049700000F048FB08BD08B50223009004221B216B
:10498000D02000F03FFB08BD08B5022300900422B0
:104990001C21D02000F036FB08BD034606226B2107
:1049A000D02000F059BB10B5D04B01227521D0208A
:1049B00000F0CCFACD48007810BD10B5FFF7F3FF3A
:1049C000682801D0002010BD012010BD034605223B
:1049D0006A21D02000F040BB034601223721D020BD
:1049E00000F03ABBF0B5C24EC04CDDE9057C35782D
:1049F0000E3424F8150004EB45006D1CC18282853D
:104A0000A0F84230A0F85870A0F86EC00A20B5FB9C
:104A1000F0F100FB115030700A212046FFF794FF9F
:104A2000A0820A2104F11600FFF78EFF60850A219B
:104A300004F12C00FFF788FFA4F840000A2104F1DC
:104A40004200FFF781FFA4F856000A2104F1580044
:104A5000FFF77AFFA4F86C000A2104F16E00FFF75B
:104A600073FFA4F88200F0BD10B54FF40071A148A7
:104A7000FCF7F1F8012800D0002010BD2DE9FC5F03
:104A80001D46DDE90CAB16460F468146FFF7ECFFED
:104A9000974C40B3954B0E223B21D02000F056FAA4
:104AA0009249088840BA00B220814A8852BA0FFA67
:104AB00082FCA4F80AC08A8852BA0FFA82F8A4F8D5
:104AC0000C800A8952BA13B2E3814A8952BA12B2EF
:104AD0002282898949BA09B26182CDE90021424620
:104AE0006146FFF77FFF81480E30828AA9F80020D7
:104AF000418D3980B0F840103180B0F8561062888E
:104B0000891A2980B0F86C10A288891AAAF80010B6
:104B1000B0F88200E188401AABF80000BDE8FC9FC5
:104B2000F0B585B00120FFF71DFF0320FFF723FF3D
:104B30000020FFF729FF0020FFF72FFF0020FFF7DD
:104B400045FF0120FFF748FF002307223721D0202F
:104B500000F082FA002306223721D02000F07CFAF0
:104B6000012305223721D02000F076FA0123042208
:104B70003721D02000F070FA012300223821D02004
:104B800000F06AFA03200090082307221A21D0209F
:104B900000F038FA002402AD0DF1120704AE322005
:104BA000FDF7CDF9AB1D2A1DA91C02A8CDE90067B0
:104BB000FFF764FF641CE4B2142CF0D305B0F0BD21
:104BC0004B4B58809980DA8070472DE9F04786B0CA
:104BD000002747493E463D464F808F80CF803C4668
:104BE0000DF1080A0DF112090DF110086420FDF70E
:104BF000A6F90AF106039A1E911E02A8CDE90089C2
:104C0000FFF73CFF641CE4B2322CEFD30024C82031
:104C1000FDF795F90AF106039A1E911E02A8CDE947
:104C20000089FFF72BFFBDF90E00641C0744BDF996
:104C30001000E4B20644BDF91200642C0544E6D32A
:104C4000642095FBF0F10AB296FBF0F197FBF0F0CF
:104C500009B200B2FFF7B4FF06B0BDE8F0872DE956
:104C6000FF4F85B0002798463E463D463C460DF135
:104C7000080B0DF1120A0DF1100916E00BF10603F5
:104C8000CDE9009A9A1E911E02A8FFF7F7FEBDF922
:104C90000E000744BDF910000644BDF9120005449A
:104CA0000520FDF77AF9641CA4B24445E6D397FBCE
:104CB000F8F000EE100A0598B8EEC00A80ED000A80
:104CC00096FBF8F000EE100A0698B8EEC00A80EDE8
:104CD000000A95FBF8F000EE100A0798B8EEC00A3B
:104CE00080ED000A09B0BDE8F08F000084120020BA
:104CF00044040020000402401CB501210220FCF7FE
:104D00005CF9C020009001208DF8040002208DF88D
:104D1000050000208DF806008DF807006946DA4886
:104D2000FBF748FF1CBD70B5D748016821F440412E
:104D30000160016841F480410160D44C0120C4F855
:104D40009C02C4F89802022004F52674FDF7F7F8D7
:104D5000002565600220FDF7F2F8256070BDCA48A5
:104D600010B5016821F440410160016841F48041BF
:104D70000160C64C0020C4F89802C4F89C020220CE
:104D800004F52674FDF7DBF8012020606060BDE8C3
:104D900010400220FDF7D3B870B5BB48002401686D
:104DA00021F44041016001680160B84D0126C5F859
:104DB0009C623046FDF7C3F8C5F898620BE0641CAE
:104DC000E4B2322C07D9FFF7CAFFB1490888401C6A
:104DD0000880012070BD0120FDF7B1F8D5F81C0254
:104DE0000028ECD1C5F8980270BD70B5A74C00251D
:104DF000C4F89852A448016821F440410160016858
:104E000041F480410160C4F89C52012004F52674ED
:104E1000FDF795F801202060FDF791F8256070BD41
:104E200070B59A4C0026C4F898629748016821F43E
:104E300040410160016841F4804101600125C4F8EE
:104E40009C52284604F52674FDF779F82560012068
:104E5000FDF775F8266070BD2DE9F04105468A48DA
:104E6000016821F440410160016841F48041016022
:104E7000864E0027C6F898723C464FF00108E809B4
:104E8000C6F89C026806050E0120FDF758F8C6F822
:104E900098820120FDF753F8C6F898720120FDF7BB
:104EA0004EF8641CE4B2082CE9D3BDE8F0812DE98A
:104EB000F047814674480024016821F440410160B4
:104EC00001680160714E254627464FF00108C6F87B
:104ED00098720120FDF733F8C6F898826006040E38
:104EE000D6F81C0208B1641CE4B20120FDF727F8D3
:104EF0006D1CEDB2082DEAD3B9F1000F02D0FFF717
:104F000074FF01E0FFF78CFF2046BDE8F08770B525
:104F10000D460446FFF707FF2046FFF79DFFFFF70A
:104F20003BFF2846FFF798FFFFF736FFFFF7FBFE32
:104F3000641CE0B2FFF790FFFFF72EFF0020FFF7A1
:104F4000B6FF0446FFF70BFF204670BD2DE9F04188
:104F50001D461646884607460024FFF7E4FE3846FD
:104F6000FFF77AFFFFF718FF4046FFF775FFFFF7DF
:104F700013FFFFF7D8FE7F1CF8B2FFF76DFFFFF7B6
:104F80000BFF771E09E0BC4201D0012000E00020A9
:104F9000FFF78DFF2855641CE4B2B442F3D3FFF74A
:104FA000DEFE204681E72DE9F0411D4616460F46FC
:104FB00080460024FFF7B7FE4046FFF74DFFFFF79E
:104FC000EBFE67B13846FFF747FFFFF7E5FE06E067
:104FD000285DFFF741FFFFF7DFFE641CE4B2B44237
:104FE000F6D3FFF7BCFE01205FE710B51446FFF7CC
:104FF0008EFF2070012010BD07B502AB0122FFF724
:10500000D2FF0EBD2DE9F84314461E460D468046DC
:105010006A46089FFFF7E9FF00281BD0621CFF20AB
:1050200000FA02F1C4F108023244521ED04001439A
:10503000C6F108008740FAB2C4F10700C2409DF8EB
:105040000000084010438DF80000C2B229464046D7
:10505000FFF7D2FFBDE8F883F8B515461C460E46AB
:1050600007466A46FFF7C1FF01209DF80010A840DF
:105070000CB1014300E08143CAB28DF800203146F3
:105080003846FFF7B9FFF8BD0004024000804042F7
:105090005804002008B501466B460222EE20FFF7B7
:1050A00055FF9DF800009DF8011041EA002008BD61
:1050B00070B50024FE4EA22505EB4400C0B2FFF7F8
:1050C000E9FF26F81400641CE4B2062CF4D370BD8A
:1050D000F84909280AD2DFE800F0050907090B0999
:1050E0000D090F00012200E002220A70487070478B
:1050F0000322FAE70522F8E70A22F6E70246002132
:10510000EE20FFF779BF1E20F8E710B51E20FFF74D
:10511000F5FF0820FFF7DCFF6420FCF73EFFBDE849
:105120001040C5E710B553EC112B51EC100B00F0FB
:105130001DFF41EC100B9FEDE01B01F041FE9FEDC8
:10514000E01B51EC100B53EC112B00F09AFE9FED7D
:10515000DE1B53EC112B00F097FE41EC100B10BD41
:105160002DE9F14FD348D24E4FF00009D0F818B0D6
:1051700031894069494200EB0127F188FC17A1FB06
:10518000070309FB073201FB0421A24680224B469C
:1051900000F09EFD7288130C120410EB020841EB24
:1051A0000305B188A1FB070309FB073201FB0421BA
:1051B0004FF48072002300F08BFD3288530CD20331
:1051C0008618009841EB0304012855D1B848002304
:1051D0004189A1FB070C09FB07C201FB0A214FF41F
:1051E000000200F075FD4FF4FA614018B14A4FF02B
:1051F0000001B0F5FA6FC2E90811C2E90A1111DA2B
:10520000A0F5FA61494301EB810101EBD1735B1019
:10521000DF17C2E90837CB1701EB93718910CB1761
:10522000C2E90A1340F2DC51C8421ADA00F2DC503B
:105230004043D2E9087CC0EBC001CB17C91943EB4E
:105240000C03C2E9081300EB400101EBC00000EBC6
:10525000D070D2E90A374010C117C0187941C2E9AD
:105260000A01D2E90801B8EB000865EB0105D2E9B3
:105270000A01361A64EB0104ABFB060309FB063294
:105280000BFB04214FF40012002300F021FDB0EBD2
:10529000080061EB05014FF40042002300F018FD07
:1052A000BDE8F88F08B501466B460322EE20FFF7F4
:1052B0004DFE9DF800209DF801009DF8021012049B
:1052C00042EA0020084308BD0020EBE72DE9F04149
:1052D0007749784D07460A896869524200EB0224F3
:1052E00049890026A1FB040306FB0433E21701FBF6
:1052F00002314FF40002334600F0EAFC4FF4FA6149
:105300004018AE60012F08D1B0F5FA6F05DA64439A
:10531000E11704EB5101C90FA960A968401A00F018
:1053200094FE9FED6B1B53EC112B00F01FFE41EC24
:10533000100BBDE8F0810020B4E72DE9F0415D4C91
:1053400007462DED068B90460E46634D9FED638B11
:105350006068D8B32146012809784CD0022873D060
:10536000032830D1084600F081FE41EC1A0B206979
:1053700000F06BFE41EC190B286800F077FE53EC4F
:10538000182B00F081FD53EC192B00F077FD53EC46
:105390001A2B00F0ABFE16D8FFF796FFA061002095
:1053A000FFF7DEFE306000F050FE41EC100B9FED89
:1053B0004D1BFFF7B7FE51EC100B00F0AFFEC8F825
:1053C000000000206060BDEC068BB2E7FFE7012023
:1053D0006060286800F04AFE53EC182B00F054FD82
:1053E00000F051FEE0606078BDEC068B5030C0B23A
:1053F000BDE8F04182E6084600F038FE41EC1A0BA9
:10540000E06800F022FE41EC190B286800F02EFE47
:1054100053EC182B00F038FD53EC192B00F02EFD47
:1054200053EC1A2B00F062FECDD802206060FFF72B
:1054300082FF60610020FFF749FF51EC100B00F084
:105440006DFE3860BFE7FFE7286800F00FFE53EC01
:10545000182B00F019FD00F016FE20616078403036
:10546000C0B2FFF74BFE0320ACE71248407870470C
:1054700010B551EC110B2DED028BB0EE408AF0EE21
:10548000608A9FED110B53EC102B00F06FFD9FED28
:105490000C1B53EC112B00F0F4FC41EC100B9FEDB6
:1054A000131B01F08DFC53EC102B51EC180B21E079
:1054B000161300206004002000000060955BC83FC8
:1054C000000000000000F03F0000000040A5E540A3
:1054D0000000000000005940240C0040FCA9F1D25B
:1054E0004D62503F00000000D0BCF840000000C0FA
:1054F0001E05154000F03AFDBDEC028B41EC100B8F
:1055000010BD00005F48604900F15002D0ED044A30
:1055100070EEE40AC0ED0A0AD0ED033AD1ED012A9B
:10552000D1ED031A41EE203AF0EE620A91ED023A13
:1055300051EE210A90ED002A41EE612A70EEC30A75
:1055400001EE613A30EE822AD1ED000A41EE020A04
:1055500090ED012A42EE011A90ED021A30EE814AD6
:1055600080ED0B4A80EE842A83EE041A30EE634A03
:10557000B0EE630A82ED002AF0EE603A02EE040A11
:1055800042EE603A82ED011A41EE044A80ED0C4A87
:1055900080ED030A01EE603A41EE621AC0ED044A62
:1055A000C0ED0D0AC0ED0E2AC1ED003AF0EE623AF0
:1055B00042EE623AC1ED013A81ED023AC1ED031AC1
:1055C00070473048304900F15802D0ED094A103197
:1055D00070EEE40AC0ED0F0AD0ED083AD1ED012AD1
:1055E000D1ED031A41EE203AF0EE620A91ED023A53
:1055F00051EE210A90ED052A41EE612A70EEC30AB0
:1056000001EE613A30EE822AD1ED000A41EE020A43
:1056100090ED062A42EE011A90ED071A30EE814A0B
:1056200080ED104A80EE842A83EE041A30EE634A3D
:10563000B0EE630A82ED002AF0EE603A02EE040A50
:1056400042EE603A82ED011A41EE044A80ED114AC1
:1056500080ED080A01EE603A41EE621AC0ED094A97
:10566000C0ED120AC0ED132AC1ED003AF0EE623A25
:1056700042EE623AC1ED013A81ED023AC1ED031A00
:1056800070470000900400202413002070B5174DCF
:10569000044680212846FCF700FC0028F9D0A1B27E
:1056A0002846FCF769FB204670BD10B50F4C202141
:1056B0002046FCF7F2FB0028F9D02046FCF760FBFF
:1056C000C0B210BD4FF0FF30704770B5084D0446B2
:1056D00080212846FCF7E1FB0028F9D0A1B2BDE803
:1056E00070400248FCF748BBFEE700000044004061
:1056F00000100140F0B50026059F15E0002410E0E1
:1057000006FB074500EB850C641C9CED000A01EBD1
:10571000850C02EB8505DCED000A30EE200A85EDF4
:10572000000ABC42ECD3761C9E42E7D3F0BDF0B534
:105730000026059F15E0002410E006FB074500EB5E
:10574000850C641C9CED000A01EB850C02EB8505C1
:10575000DCED000A30EE600A85ED000ABC42ECD3B5
:10576000761C9E42E7D3F0BD2DE9F0478A46DDE97D
:105770000979002522E000241DE005FB07419FED8B
:10578000F80A09EB8106002186ED000A10E005FB0E
:10579000021C00EB8C0C01FB0748DCED000A03EB5C
:1057A000880C491C9CED001A00EE810A86ED000A67
:1057B0009142ECD3641CBC42DFD36D1C5545DAD357
:1057C000BDE8F087F0B5002511E000240CE005FBF2
:1057D000024704FB015600EB870703EB860697EDB3
:1057E000000A641C86ED000A9442F0D36D1C8D42C1
:1057F000EBD3F0BD2DE9F0479A46DDE90847814635
:1058000000239FEDD70A0BE0002006E003FB040510
:1058100007EB8505401C85ED000AA042F6DB5B1C0A
:105820008B42F1DB002520E000231BE005FB043662
:10583000002007EB860612E005FB020809EB880C46
:1058400000FB0438DCED000A0AEB880C96ED000A38
:105850009CED001A401C00EE810A86ED000A904281
:10586000EADB5B1CA342E1DB6D1C8D42DCDBA7E7BE
:1058700030B50023B7EE000ADFEDB90A12E003FBF2
:1058800001F4002200EB840409E0934204EB82055A
:1058900002D185ED000A01E0C5ED000A521C8A42E2
:1058A000F3D35B1C8B42EAD330BD10B590ED000AF8
:1058B000D0ED030A90ED021A20EE200AD0ED010A85
:1058C00000EEC10A10EE100A00F0FCFB41EC100BD8
:1058D00010BD70B50C460546FFF7E7FF51EC100B05
:1058E00000F01CFC00EE100AB5EEC00AF1EE10FA52
:1058F00001D1012070BDD5ED030A002080EE801A91
:1059000084ED001AD5ED020A80EE801AF1EE410A0C
:10591000C4ED010AD5ED010A80EE801AF1EE410ACC
:10592000C4ED020AD5ED000A80EE801AB1EE410AFC
:1059300084ED030A70BD2DE9F04F94B00022EC46CF
:1059400016460AAF15469FED862A13466446B846AA
:1059500044F8223048F82230521C0A2AF8DB002290
:10596000B3E0F0EE420A14461AE0134615E004FBD9
:10597000013800EB880898ED001AB0EEC11AF4EE79
:10598000C10AF1EE10FA07D24CF82240F0EE410ABB
:1059900026461D4647F822305B1C8B42E7DB641C21
:1059A0008C42E2DBF4EEC00AF1EE10FA03D20020E2
:1059B00014B0BDE8F08F964214D0002310E006FB2F
:1059C000013802FB013400EB880800EB840498EDF9
:1059D000001AD4ED000A84ED001AC8ED000A5B1C21
:1059E0008B42ECDB954214D0002310E003FB0158FE
:1059F00003FB012400EB880800EB840498ED001AF7
:105A0000D4ED000A84ED001AC8ED000A5B1C8B423D
:105A1000ECDB02FB012300EB8303B7EE001AD3EDAE
:105A2000000A9946C1EE201AC3ED001A00230EE0C9
:105A300093420BD002FB013400EB840499ED001A71
:105A4000D4ED000A60EE810AC4ED000A5B1C8B42B3
:105A5000EEDB02FB01F3002400EB830E1FE0944217
:105A60001CD004FB01F800EB8808002308EB820B34
:105A700012E093420FD00EEB830804FB013AD8EDFD
:105A8000001A00EB8A089BED001AD8ED000A41EEDF
:105A9000610AC8ED000A5B1C8B42EADB641C8C4285
:105AA000DDDB00230EE093420BD003FB012400EB6F
:105AB000840499ED001AD4ED000A60EEC10AC4ED29
:105AC000000A5B1C8B42EEDB521C8A42FFF649AF98
:105AD0004A1E37D457F82230934216D0002312E0E2
